S01300004261726F4D6574657230332E737265632D
S11300000C94FB000C9418010C9418010C94180126
S11300100C9418010C940A190C9418010C941801EE
S11300200C9418010C9415190C9418010C943A1999
S11300300C9418010C9418010C9418010C941801D8
S11300400C9418010C9418010C9418010C941801C8
S11300500C9418010C9418010C9418010C941801B8
S11300600C9418010C941801253032642D2530327B
S1130070642D2530326400253032643A25303264F0
S11300803A253032640025642E2564002534642E1C
S1130090256400253034642D253032642D2530321A
S11300A06420257300253032643A253032643A25C1
S11300B03032642500253032640025303264002556
S11300C030326420257300253032640025303264D8
S11300D00025303264005B436F6E6669675D0046DD
S11300E0696C652053617665204572726F722E00CB
S11300F053687574646F776E2E2E2E256400EFBEE0
S113010083EFBE9EEFBE9DEFBE81203D3E20256461
S11301102E25645600EFBDB1EFBDB6EFBE99EFBD1D
S1130120BB203D3E20256400415652204261726F3F
S11301306D657465720076302E3320203230313391
S11301402F30332F3234005B4D504C313135413236
S11301505D00496E6974204572726F722121005BE3
S11301604D504C31313541325D00496E6974204443
S1130170617461204572726F7221002530327525D9
S1130180303275253032752E4C4F47005B4F706509
S11301906E204552524F525D005B46696C65204F9C
S11301A070656E6564215D005B46494C455D005396
S11301B0796E63204572726F722121005B4C6F77F8
S11301C020506F7765725D00676F746F2053687598
S11301D074446F776E2E005B46494C455D0053793D
S11301E06E63204572726F7221210053687574200A
S11301F0446F776E000011241FBECFEFD8E0DEBF3E
S1130200CDBF11E0A0E0B1E0E4E2FFE502C005905B
S11302100D92AA38B107D9F715E0AAE8B1E001C0F8
S11302201D92A932B107E1F70E94922A0C94902FF3
S11302300C94000005C090E19A95F1F700C081503C
S11302408823C9F70895CF93C82F04C084E10E947E
S11302501A01C150CC23D1F7CF91089507C0E9EF1B
S1130260F0E03197F1F700C0000001970097B9F76B
S11302700895CF93DF93EC0105C088EE93E00E94CC
S11302802E0121972097C9F7DF91CF9108956AE055
S11302900E94082F8295807F890F0895982F929548
S11302A09F70990F292F220F220F290F8F70820F11
S11302B008951F93CF93DF9300D0CDB7DEB7898322
S11302C06A8313E088E662E070E040E09E012F5FFD
S11302D03F4F0E946C28882311F0115099F70F901A
S11302E00F90DF91CF911F9108951F93CF93DF93C8
S11302F00F92CDB7DEB7898313E088E661E070E042
S113030041E09E012F5F3F4F0E946C28882361F4D7
S113031088E661E070E040E09E012F5F3F4F0E945D
S11303201028882339F08C59115039F7882311F09B
S1130330898101C080E00F90DF91CF911F910895D2
S1130340EF92FF920F931F93CF93DF93CDB7DEB756
S113035027970FB6F894DEBF0FBECDBF8C0123E004
S1130360F22E198288E661E070E041E09E012F5F81
S11303703F4F0E946C28E82E882309F058C088E675
S113038067E070E040E09E012F5F3F4F0E9410281D
S1130390E82E882319F084E6E80E49C089818F7716
S11303A00E944E01F80180838A818F770E944E015A
S11303B0F80181838B81F82E86FF0EC08F710E9415
S11303C04E01F801828381E08087F5FE02C0118628
S11303D009C0F801818706C08F730E944E01F8019D
S11303E0828310868C8187700E944E01F801878376
S11303F08D818F730E944E01F8018383FE808F2DBF
S11304008F710E944E01F80184838F810E944E01F6
S1130410282F30E0A9014053584FF80156834583F3
S1130420F7FE08C02C5C374F3683258303C0FA944B
S113043009F097CF8E2D27960FB6F894DEBF0FBE26
S1130440CDBFDF91CF911F910F91FF90EF90089551
S11304500F931F93CF93DF93CDB7DEB728970FB6D3
S1130460F894DEBF0FBECDBF8C011982FC018081E0
S11304700E9447018A83F80181810E9447018B838E
S1130480F80182810E9447018C83F80190859923A9
S113049041F0982F90649C839185992311F4806690
S11304A08C83F80187810E9447018D83F801838141
S11304B00E9447018E83F80184810E9447018F8343
S11304C0F8018581805D0E944701888703E088E602
S11304D068E070E040E09E012F5F3F4F0E946C286F
S11304E0882319F08C59015091F728960FB6F89487
S11304F0DEBF0FBECDBFDF91CF911F910F91089545
S1130500FF920F931F93CF93DF9300D0CDB7DEB745
S1130510082F13E03EE0F32EF98288E661E070E0F4
S113052041E09E012F5F3F4F0E946C28882361F4B5
S113053088E661E070E040E09E012F5F3F4F0E943B
S11305401028882329F08C59115031F78823C9F4D5
S11305508981002319F080648B7F01C08F7B8A839B
S11305608EE0898313E088E662E070E040E09E015B
S11305702F5F3F4F0E946C28882319F08C5911502B
S113058091F70F900F90DF91CF911F910F91FF90F2
S11305900895FF920F931F93CF93DF9300D0CDB7AD
S11305A0DEB7082F13E04EE0F42EF98288E661E00E
S11305B070E041E09E012F5F3F4F0E946C2888232A
S11305C061F488E661E070E040E09E012F5F3F4FF8
S11305D00E941028882329F08C59115031F7882360
S11305E0B9F40295007F8981877E082B0A838EE007
S11305F0898313E088E662E070E040E09E012F5FAB
S11306003F4F0E946C28882319F08C59115091F7A0
S11306100F900F90DF91CF911F910F91FF9008954C
S1130620FF920F931F93CF93DF9300D0CDB7DEB724
S1130630082F13E05FE0F52EF98288E661E070E0B0
S113064041E09E012F5F3F4F0E946C28882361F494
S113065088E661E070E040E09E012F5F3F4F0E941A
S11306601028882329F08C59115031F78823C1F4BC
S11306708981002311F0886001C0877F8A838FE01D
S1130680898313E088E662E070E040E09E012F5F1A
S11306903F4F0E946C28882319F08C59115091F710
S11306A00F900F90DF91CF911F910F91FF900895BC
S11306B087E060E00E94590188E060E00E945901EF
S11306C089E060E00E9459018AE060E00E945901DB
S11306D00895CF93DF93C82FD62F842FC83118F5F0
S11306E06C3308F54C33F8F40E944701682F87E017
S11306F00E9459018D2F0E944701682F88E00E94B3
S113070059018C2F0E944701682F89E00E945901EA
S11307108AE061E80E9459018FE00E9475018E7F92
S11307206FE00E945901DF91CF910895FC01009779
S113073029F08281618140810E9469030895EF92CA
S1130740FF920F931F93CF93DF937C018B01EA01F8
S113075087E00E9475018F770E944E01888388E0AC
S11307600E9475018F770E944E01F801808389E011
S11307700E9475018F770E944E01F7018083DF91FB
S1130780CF911F910F91FF90EF9008950F931F93B6
S1130790CF93DF9300D00F92CDB7DEB78C01CE019B
S11307A00396BE016E5F7F4FAE014F5F5F4F0E94A5
S11307B09F038B81F80182838A818183898180836D
S11307C00F900F900F90DF91CF911F910F9108958B
S11307D0CF93DF938FE00E947501282F30E0E90169
S11307E0C170D07080FF05C0682F6E7F8FE00E94BB
S11307F059018C2FDF91CF910895CF93DF939C0102
S1130800FB01DC01CA0105C0C191D191CD93DD93F7
S1130810029782309105C0F7CA018E7FF901E80F73
S1130820F91F860F971F40FF03C0DC018C91808362
S1130830DF91CF9108956F927F928F929F92AF92A2
S1130840BF92CF92DF92EF92FF920F931F93CF93B9
S1130850DF93EC014A015B01CAA4DBA4ECA4FDA470
S1130860C416D506E606F70609F44CC08C81882325
S1130870A1F18EE2682E712C6C0E7D1E8981B3016C
S1130880A701960101E00E9454228823E9F51C8205
S11308908A8D9B8DAC8DBD8D4E8D5F8D68A179A1A8
S11308A0840F951FA61FB71FC816D906EA06FB06B4
S11308B0A0F41B8110C08A8D9B8DAC8DBD8DC80E9C
S11308C0D91EEA1EFB1E8981B301A701960101E02E
S11308D00E9454221150123070F781149104A10423
S11308E0B10481F0BE01625D7F4F8981A50194014D
S11308F001E00E940222882339F48AA69BA6ACA6B2
S1130900BDA603C080E001C081E0DF91CF911F91BB
S11309100F91FF90EF90DF90CF90BF90AF909F909A
S11309208F907F906F900895FC01009789F08081EB
S1130930882371F0868197818617970759F48181FE
S11309400E94FB2180FF02C083E0089580E00895A7
S113095089E0089589E008950F93CF93DF93EC0124
S11309609A01AB01BC01625D7F4F898101E00E9465
S11309700222882351F5FE01E45DFD4F80819181BF
S11309802AEA8535920719F5FE01EC59FF4F80815B
S11309909181A281B381B070863421E4920724E569
S11309A0A20720E0B207A9F0C058DF4F488159815F
S11309B06A817B81707081E0463491E4590794E543
S11309C0690790E0790731F404C083E003C082E052
S11309D001C080E0DF91CF910F9108952F923F9253
S11309E04F925F926F927F928F929F92AF92BF923B
S11309F0CF92DF92EF92FF920F931F93CF93DF93E7
S1130A00CDB7DEB72E970FB6F894DEBF0FBECDBFBD
S1130A10DC01042FED91FC911197808190E0C09747
S1130A208A30910550F421812A3339F43296119693
S1130A30FC93EE93009709F03CC220918A01309117
S1130A408B013E872D87DB0111963C932E93211554
S1130A50310509F430C2F9018081882359F081817C
S1130A600E94FB2180FD06C0002309F426C282FDFA
S1130A7028C223C2AD85BE851C9211961C9280E0CB
S1130A800E94312180FD1BC2002311F082FD19C296
S1130A908D859E8540E050E0BA010E94AC0481300F
S1130AA0F9F4ED85FE85E051FE4F8081882309F439
S1130AB00CC22D853E852C503E4FD9018D919D91C0
S1130AC00D90BC91A02D89839A83AB83BC838D85C3
S1130AD09E8549815A816B817C810E94AC0404C04B
S1130AE019821A821B821C82833009F4ECC1882388
S1130AF009F0EBC1ED85FE8581AD92ADF2E0803069
S1130B009F0709F0E2C1ED85FE85EC5BFF4F808114
S1130B1091819C0140E050E02D833E834F835887B0
S1130B20211531054105510571F42D853E852E5A57
S1130B303F4FD9018D919D910D90BC91A02D8D8336
S1130B409E83AF83B8872D813E814F815885AD85C3
S1130B50BE855A962D933D934D935C935D97DE9697
S1130B604C91DE9713964C931397842F81508230C7
S1130B7008F0ABC1DB960C91DB9712960C9312979D
S1130B80002309F4A2C1202F30E0C9010197822378
S1130B909323009709F099C1FD01FF9620803180CD
S1130BA019963C922E921897C1018F7090700097FD
S1130BB009F08BC1FD01EF5BFF4F80809180AA2477
S1130BC0BB2481149104A104B10439F4FD01E25B56
S1130BD0FF4F80809180A280B380ED85FE85C4ACF8
S1130BE0D5ACC114D10409F470C1242F30E040E025
S1130BF050E06D817E818F8198850E94E92E6987FE
S1130C007A878B879C872601662477246101E4E038
S1130C10D694C794EA95E1F7EE24FF24C40CD51CBE
S1130C20E61CF71CC60ED71EE81EF91E8C149D0484
S1130C30AE04BF0408F449C1C501B4016C197D09AF
S1130C408E099F09202F30E040E050E00E943B2FA6
S1130C5089019A01011511052105310509F435C1F0
S1130C60063FFFE01F07F0E02F07F0E03F0758F0D2
S1130C70063F4FEF140740E0240740E0340730F408
S1130C8062E0862E05C08824839402C053E0852E3A
S1130C900E5F1F4F2F4F3F4FAD85BE8556960D9368
S1130CA01D932D933C93599789819A81AB81BC8183
S1130CB08C0D9D1DAE1DBF1DED85FE8586A397A3DE
S1130CC0A0A7B1A749815A816B817C81440D551D30
S1130CD0661D771D468F578F60A371A3B3E08B16F3
S1130CE0D1F42114310409F0F0C0E65AFF4F808199
S1130CF09181A281B381ED85FE8582A393A3A4A3F0
S1130D00B5A3D901C80142E0880F991FAA1FBB1FD0
S1130D104A95D1F72BC02114310409F4D6C0898532
S1130D209A85AB85BC85840F951FA61FB71FED85DB
S1130D30FE8582A393A3A4A3B5A3D901C801880FF8
S1130D40991FAA1FBB1FF2E08F1681F0800F911F1D
S1130D50A21FB31FB695A79597958795017010703C
S1130D6020703070800F911FA21FB31F81509E4FBF
S1130D70AF4FBF4F29E0B695A795979587952A95CC
S1130D80D1F72D813E814F815885281739074A07AD
S1130D905B0708F49AC08FEF9FEFDC01ED85FE85B9
S1130DA086879787A08BB18B128613861486158647
S1130DB0B3E08B1609F066C01582E25AFF4F00813A
S1130DC0118120E030E089819A81AB81BC81080FD8
S1130DD0191F2A1F3B1FAD85BE8552960D931D9387
S1130DE02D933C935597BD01625D7F4F11968C9175
S1130DF0A901980101E00E940222882309F042C05F
S1130E00ED85FE85E45DFD4F80819181BAEA8535EB
S1130E109B07C1F5ED85FE8586A597A5A0A9B1A977
S1130E208235F2E59F07F1E6AF07F1E4BF0751F51C
S1130E30ED85FE85EE5EFD4F80819181A281B381B7
S1130E40823722E7920721E4A20721E6B207D1F410
S1130E50ED85FE85E65EFD4F80819181A281B3819F
S1130E60ED85FE8582879387A487B587EA5EFD4F6B
S1130E7080819181A281B381ED85FE8586879787E4
S1130E80A08BB18BAD85BE858C9280918C019091A5
S1130E908D01019690938D0180938C0117969C93FC
S1130EA08E931697FD0112A613A614A615A61482F6
S1130EB004C08BE00BC08CE009C080E007C083E075
S1130EC005C08AE003C081E001C08DE02E960FB614
S1130ED0F894DEBF0FBECDBFDF91CF911F910F916C
S1130EE0FF90EF90DF90CF90BF90AF909F908F9046
S1130EF07F906F905F904F903F902F9008950F9345
S1130F001F93CF93DF93EC01DB01CA010297A10980
S1130F10B1094E895F89688D798D42505040604097
S1130F20704084179507A607B70798F42A8130E024
S1130F3040E050E0BC01CD010E94E92E8B019C01F0
S1130F408EA19FA1A8A5B9A5080F191F2A1F3B1F91
S1130F5003C000E010E09801B801C901DF91CF910E
S1130F601F910F910895BF92CF92DF92EF92FF925B
S1130F700F931F93CF93DF93EC016A017B014230FF
S1130F8051056105710508F4A8C08E899F89A88D53
S1130F90B98D481759076A077B0708F09EC08881F6
S1130FA0823009F458C0833009F471C0813009F0EB
S1130FB090C08A0116950795040F151FA801452FA7
S1130FC05527469560E070E08E8D9F8DA8A1B9A14C
S1130FD0480F591F6A1F7B1FCE010E941B048823E0
S1130FE009F077C0F801F170EC0FFD1FB6A40F5F94
S1130FF01F4FA801452F5527469560E070E08E8D60
S11310009F8DA8A1B9A1480F591F6A1F7B1FCE014C
S11310100E941B04882309F05CC06B2D70E0F8016A
S1131020F170EC0FFD1F96A580E0682B792B81E011
S1131030C822DD24C114D10439F084E07695679583
S11310408A95E1F78B0120C08B0120E030E01F700E
S11310502070307046C0452F562F672F77278E8D0E
S11310609F8DA8A1B9A1480F591F6A1F7B1FCE01EC
S11310700E941B04882369F5F601EE0FFF1FF1702F
S1131080EC0FFD1F06A517A520E030E02AC0B7E04D
S11310907695679557954795BA95D1F78E8D9F8D1F
S11310A0A8A1B9A1480F591F6A1F7B1FCE010E9436
S11310B01B04882371F4F601EE0FFF1FEE0FFF1FD0
S11310C0F170EC0FFD1F06A517A520A931A93F70EB
S11310D008C00FEF1FEF980104C001E010E020E00A
S11310E030E0B801C901DF91CF911F910F91FF90BA
S11310F0EF90DF90CF90BF9008950F931F93CF93FD
S1131100DF938C01DC0115961C921E92149716969F
S11311104D915D916D917C91199741305105610517
S1131120710509F469C0CD91DC918E899F89A88DE0
S1131130B98D481759076A077B0708F05DC0411548
S1131140510561057105D9F48881833049F44AA1B8
S11311505BA16CA17DA1411551056105710579F46F
S1131160F80112861386148615868885998500975A
S113117009F442C08AA19BA1ACA1BDA12FC08A8160
S1131180882309F5D8018D919C910E94B307AB0186
S1131190BC014F3FBFEF5B07BFEF6B07BFEF7B07A0
S11311A049F1423051056105710530F1D801ED91E5
S11311B0FC9186899789A08DB18D481759076A07D4
S11311C07B0700F319C0F80142875387648775874A
S11311D0CE010E947F07DC01CB01F8018687978747
S11311E0A08BB18BAE96D8015396DC93CE935297D5
S11311F080E003C081E001C082E0DF91CF911F91C4
S11312000F9108958F929F92AF92BF92CF92DF92E7
S1131210EF92FF920F931F93CF93DF93EC016A0138
S11312207B0148015901423051056105710508F4FB
S1131230BDC08E899F89A88DB98D481759076A0743
S11312407B0708F0B3C08881823009F462C0833020
S113125009F47AC0813009F0A5C08A011695079572
S1131260040F151FA801452F5527469560E070E02F
S11312708E8D9F8DA8A1B9A1480F591F6A1F7B1F8E
S1131280CE010E941B04882309F08DC0F801F1707F
S113129081E0C822DD24EC0FFD1FC114D10439F014
S11312A096A59F70882D8295807F892B01C0882DFB
S11312B086A70F5F1F4F81E08C83A801452F552718
S11312C0469560E070E08E8D9F8DA8A1B9A1480F6E
S11312D0591F6A1F7B1FCE010E941B04882309F03B
S11312E062C0F801F170EC0FFD1FC114D10451F07C
S11312F0B501A40114E076956795579547951A951D
S1131300D1F705C046A5407F992D9F70492B46A76C
S11313104AC0452F562F672F77278E8D9F8DA8A102
S1131320B9A1480F591F6A1F7B1FCE010E941B04DD
S11313308823C9F5F601EE0FFF1FF170BE96EC0F7E
S1131340FD1F918280822FC0E7E0769567955795BF
S11313504795EA95D1F78E8D9F8DA8A1B9A1480F25
S1131360591F6A1F7B1FCE010E941B048823D9F4D6
S1131370F601EE0FFF1FEE0FFF1FF170BE96EC0F8C
S1131380FD1F408151816281738140705070607093
S1131390707F482959296A297B29408351836283B4
S11313A0738301C082E091E09C8301C082E0DF91FD
S11313B0CF911F910F91FF90EF90DF90CF90BF904E
S11313C0AF909F908F9008954F925F926F927F920B
S11313D08F929F92AF92BF92CF92DF92EF92FF9241
S11313E00F931F93CF93DF93EC012A013B01411527
S11313F051056105710599F48A849B84AC84BD848C
S113140081149104A104B10409F18E899F89A88DE6
S1131410B98D88169906AA06BB06C0F41CC00E94A2
S1131420B3078B019C01623071058105910508F4B5
S113143093C08E899F89A88DB98D081719072A072B
S11314403B0708F48DC05301420105C051E0852ECD
S1131450912CA12CB12C750164010894C11CD11CE0
S1131460E11CF11C8E899F89A88DB98DC816D906F7
S1131470EA06FB0660F022E082169104A104B1049E
S113148008F463C042E0C42ED12CE12CF12CCE012F
S1131490B701A6010E94B3078B019C016115710578
S11314A081059105A9F00F3F8FEF18078FEF2807EB
S11314B08FEF380709F454C00130110521053105B7
S11314C009F44EC0C814D904EA04FB0431F63DC043
S11314D08C2CBD2CAE2C9F2CCE01A601B7010FEF96
S11314E01FEF2FEF3FE00E940209882341F54114CA
S11314F051046104710449F0CE01B301A2018601D3
S113150097010E9402098823D1F48A86BB86AC869F
S11315109D868E859F85A889B9898F3F2FEF920775
S11315202FEFA2072FEFB207A1F00197A109B1098C
S11315308E879F87A88BB98B81E08D830AC0813009
S113154059F40FEF1FEF98010BC000E010E0980171
S113155007C09701860104C001E010E020E030E0FC
S1131560B801C901DF91CF911F910F91FF90EF90C6
S1131570DF90CF90BF90AF909F908F907F906F90AF
S11315805F904F9008958F929F92AF92BF92CF92A7
S1131590DF92EF92FF920F931F93CF93DF938C010F
S11315A0EB01DC011496AD90BC9015970894A11C36
S11315B0B11CA114B10409F400C11E968D919D9132
S11315C00D90BC91A02D0097A105B10509F4F5C0BB
S11315D02FE0822E912C8A209B208114910409F003
S11315E0D6C00196A11DB11DF80186879787A08BEF
S11315F0B18B42855385648575850190F081E02D1A
S1131600411551056105710539F480859185A81648
S1131610B90608F0D2C0BBC0828190E00197950161
S1131620A4E036952795AA95E1F7822393230097A2
S113163009F0ADC0CF010E94B3076B017C01623099
S113164071058105910508F4BCC08FEFC8168FEFB2
S1131650D8068FEFE8068FEFF80609F4B4C0D80176
S1131660ED91FC9186899789A08DB18DC816D90614
S1131670EA06FB0608F479C0209709F49EC0D80155
S11316801A964D915D916D917C911D97CF010E94A9
S1131690E4096B017C01611571058105910509F46B
S11316A08EC0613071058105910509F48AC06F3FD0
S11316B0EFEF7E07EFEF8E07EFEF9E0709F483C08D
S11316C0D8018D919C9140E050E0BA010E941B0426
S11316D0882309F078C0D801ED91FC911197BE964A
S11316E081E092E001C011920197E9F7F801C0810D
S11316F0D181CE01B701A6010E947F07DC01CB0195
S11317008AA79BA7ACA7BDA7C0E0D1E01BC0D48328
S1131710D8018D919C9140E050E0BA010E941B04D5
S1131720882309F050C0D801ED91FC9182A593A5BE
S1131730A4A5B5A50196A11DB11D82A793A7A4A731
S1131740B5A7CF5FD801ED91FC9111978281C8179D
S1131750F0F282A593A5A4A5B5A58C1B9109A109B6
S1131760B10982A793A7A4A7B5A7F801C286D38617
S1131770E486F58680819181B701A6010E947F07E6
S1131780DC01CB01F80186879787A08BB18BD80148
S11317901596BC92AE9214978D919C9111978E964A
S11317A065E0880C991C6A95E1F7880D991D53969C
S11317B09C938E93529780E007C084E005C087E035
S11317C003C082E001C081E0DF91CF911F910F91AE
S11317D0FF90EF90DF90CF90BF90AF909F908F904D
S11317E008958F929F92AF92BF92CF92DF92EF9221
S11317F0FF920F931F93CF93DF938C01FB018081A2
S11318008F3211F08C3509F43196D80116961D9259
S11318101D921D921C9219978081803238F4C80160
S11318200E947D08E8011B8A1A8A0CC1A0E29A2E44
S1131830B5E08B2E6F01808131968F32D9F38C35D0
S1131840C9F3F801E488F588F7018CE090E001C061
S113185091920197E9F740E050E060E070E0C8E061
S1131860D0E030E001C0B501F601E60FF71F20819A
S11318705B010894A11CB11C213208F460C02F3212
S113188009F45FC02C3509F45CC02E3219F04C17F2
S11318905D0770F0C830D10509F0D1C02E3209F0CF
S11318A0CEC0330F330F48E050E0CBE0D0E0DBCFC5
S11318B027FD3360822F81588F3118F08F558D3179
S11318C0F8F4F601EA0DFB1DA0818A2F80548F33B2
S11318D020F080548D3708F0B2C0CE01019748172C
S11318E0590708F0ACC0E2E0AE2EB12CA60EB71E2C
S11318F0F701E40FF51F2083A1834E5F5F4FB3CF41
S1131900622F70E0E0E0F1E08191882329F090E01B
S113191086179707C9F793C0822F81548A3110F430
S1131920326006C0822F81568A3110F43160205211
S1131930F701E40FF51F20834F5F5F4F94CF64E0FE
S113194001C060E04115510509F479C0D7018C91BB
S1131950853E09F48C92C830D10511F4330F330F4E
S1131960832F90E09C01237030702130310509F4FD
S113197060618C7090708430910509F46860E701AF
S11319806B87C8010E947D08882351F5F8014685BC
S1131990578560897189808191810E941B04882305
S11319A0F9F4D8015296ED91FC91539790819923C3
S11319B0B1F0938593FD0DC054960D90BC91A02D6C
S11319C02CE030E02150304059F041919D9149176D
S11319D0C9F3C80160E070E00E94C30AD5CF84E077
S11319E0E801EC89FD899385882329F0843051F539
S11319F092FF27C027C092FD25C0AA89BB891B96E8
S1131A008C911B9784FF1DC0F601EA0DFB1D5496B3
S1131A104D915C91559760E070E0BA0155274427D9
S1131A205A968D919C915B97A0E0B0E0482B592B7E
S1131A306A2B7B2B4E835F8368877987FBCE86E096
S1131A4001C085E0DF91CF911F910F91FF90EF903E
S1131A50DF90CF90BF90AF909F908F900895882390
S1131A6091F4E0918A01F0918B01309709F0108292
S1131A706115710511F0FB01108270938B01609365
S1131A808A0180E008958BE008952F923F924F924F
S1131A905F926F927F928F929F92AF92BF92CF92FA
S1131AA0DF92EF92FF920F931F93CF93DF93CDB703
S1131AB0DEB7AD970FB6F894DEBF0FBECDBF98A7C3
S1131AC08FA37CA36BA3DC011D921C92B42FBF7166
S1131AD0B9A74E71CE018396BE01635F7F4F0E940A
S1131AE0EE04182FCE0101969AA389A3112339F489
S1131AF06BA17CA1CE010D960E94F10B182FEF8DE6
S1131B00F8A1FEA3EDA3112319F4309709F416E00C
S1131B10F9A52F2F30E0C9018C719070009709F45A
S1131B20F9C0112309F44CC0143009F03EC08DE013
S1131B30E82EF12CEC0EFD1EC7010E947D08182F23
S1131B40882399F5CF2C4B8D5C8D6D8D7E8D8D8585
S1131B509E850E941B04182F882339F5EF8DF8A168
S1131B608081853E09F45DC1882309F45AC18E2D14
S1131B709C2D61E070E00E94C30A182F882319F39A
S1131B8014C08F8D98A1FC0121E230E001C01192B4
S1131B9021503040E1F769A17AA14BE050E00E9466
S1131BA0FD03ED85FE8581E084838F8D98A19EA33E
S1131BB08DA3112309F01BC199A5986099A70AC0A8
S1131BC0ADA1BEA11B968C911B97817109F051C1E7
S1131BD0F2FD34C1B9A5B3FFABC00E94111ADC01F8
S1131BE0CB01EDA1FEA186879787A08BB18B1386CD
S1131BF0148E158E168E178E84889588AA24BB247D
S1131C00540199248824828D938DA0E0B0E0882A21
S1131C10992AAA2ABB2A138E128E158A148A2D8415
S1131C203E8481E0D10114968C931497811491041D
S1131C30A104B10409F47CC09A968D919D910D90F4
S1131C40BC91A02D8AA79BA7ACA7BDA7B1E08B161A
S1131C509104A104B10409F459C0F101868997895A
S1131C60A08DB18D88169906AA06BB0608F04EC051
S1131C70750164013FC0C101B701A6010E94B30709
S1131C802B013C01611571058105910509F4D8C04A
S1131C906130710581059105C9F16F3F2FEF72071E
S1131CA02FEF82072FEF920799F1C101B701A60127
S1131CB000E010E098010E940209182F882309F01F
S1131CC096C0F10186859785A089B1898F3FFFEF82
S1131CD09F07FFEFAF07FFEFBF0751F00196A11D6C
S1131CE0B11DF10186879787A08BB18B21E02583F5
S1131CF073016201F10186899789A08DB18DC8169F
S1131D00D906EA06FB0608F4B6CF9AC012E06FC003
S1131D1011E06DC0112309F06AC0ADA1BEA11B96EC
S1131D208C911B9784FDA3C0F1FF02C080FDA1C06C
S1131D30B9A5B3FF02C0B062B9A7ED85FE8542A57F
S1131D4053A564A575A5AFA1B8A55A964D935D9307
S1131D506D937C935D978DA19EA15F969C938E93CA
S1131D605E9799A514969C93ADA1BEA154964D91EE
S1131D705C91559760E070E0BA01552744275A9664
S1131D808D919C915B97A0E0B0E0482B592B6A2B76
S1131D907B2BAFA1B8A51E964D935D936D937C9359
S1131DA05197ADA1BEA15C964D915D916D917C91D1
S1131DB05F97AFA1B8A51A964D935D936D937C93ED
S1131DC01D9716961D921D921D921C921997569658
S1131DD01D921D921D921C9259971196FC93EE939D
S1131DE08681978113969C938E93129710E0812F8E
S1131DF0AD960FB6F894DEBF0FBECDBFDF91CF9185
S1131E001F910F91FF90EF90DF90CF90BF90AF9014
S1131E109F908F907F906F905F904F903F902F9006
S1131E2008954B8D5C8D6D8D7E8D8D859E850E9474
S1131E301B04182F882309F4A4CEB7CE18E0D7CFFB
S1131E408D859E85089481089108A108B108FC013C
S1131E5082869386A486B5864AA55BA56CA57DA5D6
S1131E600E941B04182F882309F462CFC0CF14E00A
S1131E70BECF17E0BCCF2F923F924F925F927F92DA
S1131E808F929F92AF92BF92CF92DF92EF92FF9286
S1131E900F931F93CF93DF9300D000D0CDB7DEB75D
S1131EA09C838B83062FE72E2A013A832983D90149
S1131EB01D921C92FC0162817381808191810E9438
S1131EC09404782E882309F053C1AB81BC81149605
S1131ED08C91149787FD8DC080FF48C11A964D914F
S1131EE05D916D917C911D9716968D919D910D90AC
S1131EF0BC91A02D481B590B6A0B7B0BC201A0E0BF
S1131F00B0E0481759076A077B0708F42A01202E16
S1131F103E2C27C1EB81FC81068117812085318508
S1131F20D901C8019170A070B0700097A105B105E6
S1131F3009F0C1C080819181B901A801A9E0769519
S1131F40679557954795AA95D1F7DC011296CC90E1
S1131F501297CA94C422A1F5011511052105310572
S1131F6029F486859785A089B1890AC0EB81FC8113
S1131F7042895389648975890E94B307DC01CB01C6
S1131F8082309105A105B10550F4AB81BC81149652
S1131F908C911497806814968C9314972AC08F3F61
S1131FA0EFEF9E07EFEFAE07EFEFBE0719F4AB813B
S1131FB0BC814BC0EB81FC81828B938BA48BB58B52
S1131FC0AB81BC810D911C91119752964D915D91FD
S1131FD06D917C915597C8010E947F07DC01CB016C
S1131FE00097A105B10541F4EB81FC8184818068EF
S1131FF0848352E0752EBCC04C015D018C0C911C95
S1132000A11CB11C7201EF2CFF24E694E114F1042D
S113201009F44BC0D80112968C911297DD249701D4
S11320202C0D3D1D90E08217930718F47C01EC18E9
S1132030FD08F8018181B101A50194010E2D0E94D2
S11320400222AB81BC81882341F014968C911497B1
S1132050806814968C93149747C0ED91FC91119766
S113206084818823E9F042A553A564A575A5481980
S113207059096A097B09C701A0E0B0E0481759076C
S11320806A077B0768F4CA01982F8827990FBF0154
S1132090625D7F4F820D931D40E052E00E94FD037C
S11320A08701102F0027110F3DC0EB81FC81868A28
S11320B0978AA08EB18EAB81BC811696CD90DD90AF
S11320C0ED90FC90199756964D915D916D917C9190
S11320D059978D919C910E941B04882341F0EB81B8
S11320E0FC818481806884837724739441C0C60111
S11320F0917020E032E0281B390B8201241535054C
S113210008F48901AB81BC8116968D919C91179737
S113211091708E966D917C91680F791FC101A80111
S11321200E94FD03200E311EA80160E070E0EB81E7
S1132130FC8186819781A085B185840F951FA61F98
S1132140B71F86839783A087B187A981BA818D91B0
S11321509C911197800F911F11969C938E93401A16
S1132160510A4114510409F0D5CE02C097E0792EEA
S1132170872D0F900F900F900F90DF91CF911F91AB
S11321800F91FF90EF90DF90CF90BF90AF909F9012
S11321908F907F905F904F903F902F9008952F9253
S11321A03F924F925F926F927F928F929F92AF92E3
S11321B0BF92CF92DF92EF92FF920F931F93CF9330
S11321C0DF9300D000D0CDB7DEB79C838B83062F7E
S11321D0E72E2A013A832983D9011D921C92FC011E
S11321E062817381808191810E949404782E882376
S11321F009F0C5C1AB81BC8114968C91149787FDFD
S1132200BEC081FFBAC11A964D915D916D917C91CA
S11322101D97C201A0E0B0E0840F951FA61FB71F51
S113222084179507A607B70710F444245524202ED5
S11322303E2C6624639480C1EB81FC8146815781E6
S113224060857185DB01CA019170A070B070009740
S1132250A105B10509F015C120813181DB01CA0155
S113226019E0B695A795979587951A95D1F7F90131
S1132270C280CA94C82209F049C0411551056105BC
S11322807105C9F4EB81FC8186859785A089B189A4
S11322900097A105B10509F5C90140E050E0BA0174
S11322A00E94E409DC01CB01EB81FC8186879787DE
S11322B0A08BB18B0DC0AB81BC8152964D915D91C9
S11322C06D917C915597C9010E94E409DC01CB0111
S11322D00097A105B10509F433C181309105A10529
S11322E0B10531F4EB81FC8184818068848347C02B
S11322F08F3FFFEF9F07FFEFAF07FFEFBF0711F11E
S1132300EB81FC81828B938BA48BB58BAB81BC81DD
S11323108D919C911197FC0142A553A564A575A5C7
S113232056960D911D912D913C9159974017510747
S11323306207730751F440E050E0BA010E941B04A5
S1132340882319F0AB81BC8188C0EB81FC810081BA
S113235011814289538964897589C8010E947F0764
S1132360DC01CB010097A105B10561F4AB81BC810F
S113237014968C911497806814968C93149732E079
S1132380732EFDC04C015D018C0C911CA11CB11C71
S11323907201EF2CFF24E694E114F10409F444C023
S11323A0F8018281DD2497012C0D3D1D90E08217F8
S11323B0930718F47C01EC18FD08D80111968C9150
S11323C0B101A50194010E2D0E945422882309F025
S11323D06CC0AB81BC81ED91FC9142A553A564A571
S11323E075A5481959096A097B09C701A0E0B0E03D
S11323F0481759076A077B0790F4BA01762F6627B6
S1132400770F620D731DCF018E9640E052E00E945B
S1132410FD03AB81BC81ED91FC911197148287017E
S1132420102F0027110F69C0EB81FC8186819781F1
S1132430A085B18542855385648575858417950784
S1132440A607B707C0F0C80140E050E0BA010E94F7
S11324501B04AB81BC81882341F014968C911497A2
S1132460806814968C93149725C0ED91FC9182A6F4
S113247093A6A4A6B5A6EB81FC81868A978AA08E32
S1132480B18EAB81BC811696CD90DD90ED90FC9021
S1132490199756964D915D916D917C9159978D91B7
S11324A09C910E941B04882341F0EB81FC81848170
S11324B0806884837724739462C0C601917020E09D
S11324C032E0281B390B82012415350508F48901F3
S11324D0AB81BC8116968D919C91179791708E96C5
S11324E02D913C91820F931FB101A8010E94FD031D
S11324F0AB81BC81ED91FC916482200E311EA80158
S113250060E070E0EB81FC8186819781A085B185D4
S1132510840F951FA61FB71F86839783A087B18753
S1132520A981BA818D919C911197800F911F119669
S11325309C938E93401A510A4114510409F07CCEA5
S1132540EB81FC8186819781A085B1854285538585
S113255064857585481759076A077B0720F48287C5
S11325609387A487B587AB81BC8114968C9114970B
S1132570806214968C93149702C0B7E07B2E872D4B
S11325800F900F900F900F90DF91CF911F910F91AB
S1132590FF90EF90DF90CF90BF90AF909F908F907F
S11325A07F906F905F904F903F902F9008950F937E
S11325B01F93CF93DF93EC016A817B81888199819A
S11325C00E949404982F882309F09BC08C8185FF76
S11325D098C04A8D5B8D6C8D7D8D888199810E9418
S11325E01B04982F882309F08CC00E8D1F8DF801D1
S11325F08385806283878A859B85AC85BD85848F2E
S1132600958FA68FB78F8E859F85A889B989938F5B
S1132610828FB58BA48B0E94111ADC01CB01F801C7
S1132620868B978BA08FB18F8C818F7D8C83E88173
S1132630F98181E084830990D881C02DCE0140E0E6
S113264050E0BA010E941B04982F882309F059C056
S11326508881833009F04BC08D81882309F447C0F9
S11326601AA61BA61CA61DA6BE01625D7F4FFB0118
S113267081E092E001C011920197E9F7FE01E45D67
S1132680FD4F85E59AEA9183808382E592E5A1E690
S1132690B1E48EA79FA7A8ABB9ABFE01EE5EFD4FD8
S11326A082E792E7A1E4B1E680839183A283B383B6
S11326B0FE01EA5EFD4F8E859F85A889B9898083D6
S11326C09183A283B383FE01E65EFD4F8A859B85D9
S11326D0AC85BD8580839183A283B3832A893B899A
S11326E04C895D89898101E00E9454221D8289817F
S11326F063E040E050E00E94CA2291E0882309F49C
S113270090E0892FDF91CF911F910F910895CF937E
S1132710DF93EC010E94D712882311F419821882E6
S1132720DF91CF9108952F923F924F925F927F92C3
S11327308F929F92AF92BF92CF92DF92EF92FF92CD
S11327400F931F93CF93DF9300D000D000D0CDB769
S1132750DEB79E838D836A017B01DC0112966D9145
S11327607C9113978D919C910E949404782E8823D8
S113277009F088C1ED81FE81248127FD81C1828514
S11327809385A485B5858C159D05AE05BF0520F4FC
S113279021FD02C06C017D01ED81FE81868197815E
S11327A0A085B1851682178210861186C114D104C2
S11327B0E104F10409F431C100811181F80182803E
S11327C09924AA24BB2439E0880C991CAA1CBB1C9C
S11327D03A95D1F70097A105B105F1F11C012D013E
S11327E008942108310841085108C701B601615015
S11327F0704080409040A50194010E943B2F2983A2
S11328003A834B835C83C201B101A50194010E9408
S11328103B2F89819A81AB81BC8182179307A407DE
S1132820B507D0F088279927DC0188199909AA09E6
S1132830BB0982219321A421B521ED81FE818683E8
S11328409783A087B187C81AD90AEA0AFB0A428982
S113285053896489758936C0AD81BE811E964D91B8
S11328605D916D917C9151974115510561057105FB
S113287009F5C80140E050E0BA010E94E409AB0147
S1132880BC01413051056105710519F4ED81FE81EA
S11328905FC04F3FFFEF5F07FFEF6F07FFEF7F075B
S11328A019F4AD81BE8136C0ED81FE81468757871C
S11328B0608B718BAD81BE8152964D935D936D9308
S11328C07C935597411551056105710509F4A5C01F
S11328D00D811E815BC0F80124818081918121FFDB
S11328E00AC00E94E409AB01BC0141155105610510
S11328F0710529F454C00E94B307AB01BC014F3FDA
S1132900FFEF5F07FFEF6F07FFEF7F0769F41E8399
S11329100D83D80114968C911497806814968C9327
S1132920149777247394AEC0423051056105710544
S113293060F0D801ED91FC9186899789A08DB18DC5
S1132940481759076A077B0738F01E830D83F8017F
S113295084818068848394C0D80152964D935D939A
S11329606D937C93559716968D919D910D90BC9186
S1132970A02D880D991DAA1DBB1DF8018683978380
S1132980A087B187C818D908EA08FB088C149D04ED
S1132990AE04BF0408F49FCF1E830D8304C01E83BE
S11329A00D8375016401ED81FE8186819781A08587
S11329B0B1858C0D9D1DAE1DBF1D86839783A08799
S11329C0B187D701C6019170A070B0700097A105BE
S11329D0B10519F1808191810E947F07AB01BC018F
S11329E0411551056105710551F4AD81BE811496FF
S11329F08C911497806814968C93149741C0D701D6
S1132A00C60129E0B695A795979587952A95D1F79C
S1132A10840F951FA61FB71F03C080E090E0DC0160
S1132A20ED81FE810681178120853185B901A801D8
S1132A30517060707070411551056105710569F040
S1132A4046895789608D718D84179507A607B70746
S1132A5021F0868B978BA08FB18FED81FE818285CB
S1132A609385A485B58580179107A207B30750F411
S1132A70028713872487358784818062848302C018
S1132A8002E0702E872D26960FB6F894DEBF0FBE97
S1132A90CDBFDF91CF911F910F91FF90EF90DF9009
S1132AA0CF90BF90AF909F908F907F905F904F900A
S1132AB03F902F9008950F931F93CF93DF93CDB73B
S1132AC0DEB72E970FB6F894DEBF0FBECDBF8C01D4
S1132AD07E876D87CE010D96B80140E00E94EE041A
S1132AE08823E9F5CE010196D80155969C938E93DF
S1132AF054976D857E85C8010E94F10B882361F58A
S1132B00D8015296ED91FC9153973097C1F083858B
S1132B1084FF24C084899589A0E0B0E0DC01992772
S1132B208827228D338DA90160E070E0842B952BDA
S1132B30A62BB72BF80186839783A087B187D8018A
S1132B40ED91FC9111978681978113969C938E93B6
S1132B501297C8010E947D08843009F485E02E96FE
S1132B600FB6F894DEBF0FBECDBFDF91CF911F919A
S1132B700F910895CF92DF92FF920F931F93CF93FB
S1132B80DF93CDB7DEB72C970FB6F894DEBF0FBE38
S1132B90CDBF8C016B01DC0112966D917C91139772
S1132BA08D919C910E949404F82E882309F0A6C06C
S1132BB0C114D10421F4C8010E947D089EC0CE0135
S1132BC00196F801958B848B84E01EC0D8018D9109
S1132BD09C910E941B04882319F5D8015296ED910B
S1132BE0FC9153978081882309F497C0853E29F08E
S1132BF08E3219F0838583FF1DC0C80160E070E048
S1132C000E94C30A882361F4F801468557856089C8
S1132C1071894115510561057105C1F6882351F08B
S1132C20D8011E961D921D921D921C9251978430BC
S1132C3009F063C0A601475F5F4FF8018685978559
S1132C40A089B1890097A105B10509F445C022897D
S1132C503389F901DA0180E090E0AD0161916032DD
S1132C6049F0653009F465EE6D93AD010196883045
S1132C70910599F7F9018085803289F08EE28D9370
S1132C8088E090E0AD01F901E80FF91F608160323E
S1132C9031F06D93AD0101968B30910599F7D9010F
S1132CA01B968C911B97F60180875C968D919D9164
S1132CB00D90BC91A02D80839183A283B383D9010D
S1132CC058968D919C9159979583848356968D91AE
S1132CD09C91579797838683FA011082C80160E01C
S1132CE070E00E94C30A843041F4D8011E961D92FC
S1132CF01D921D921C92519701C0F82E8F2D2C9677
S1132D000FB6F894DEBF0FBECDBFDF91CF911F91F8
S1132D100F91FF90DF90CF90089584E081CF8F9240
S1132D209F92AF92BF92CF92DF92EF92FF920F9356
S1132D301F93CF93DF9300D000D0CDB7DEB75C01F3
S1132D407B014A016C0100E010E00894E108F108FD
S1132D5018C0C401BE016D5F7F4F41E050E09E0189
S1132D602F5F3F4F0E943B0F89819A8181309105EB
S1132D7059F48B81F60181936F010F5F1F4F8A30E5
S1132D8019F00E151F052CF3F6011082011511051B
S1132D9011F4AA24BB24C5010F900F900F900F903B
S1132DA0DF91CF911F910F91FF90EF90DF90CF9023
S1132DB0BF90AF909F908F900895CF93DF9300D0F2
S1132DC000D00F92CDB7DEB78B83CB01BE016D5F10
S1132DD07F4F41E050E09E012F5F3F4F0E94CF1094
S1132DE089819A818130910519F481E090E002C0D3
S1132DF08FEF9FEF0F900F900F900F900F90DF9138
S1132E00CF910895EF92FF920F931F93CF93DF9387
S1132E107B018C01C0E0D0E008C0B7010E94DD1640
S1132E202FEF8F3F920739F02196F80181918F019E
S1132E30882399F702C0CFEFDFEFCE01DF91CF9166
S1132E401F910F91FF90EF9008952F923F924F9210
S1132E505F926F927F928F929F92AF92BF92CF9226
S1132E60DF92EF92FF920F931F93CF93DF93CDB72F
S1132E70DEB767970FB6F894DEBF0FBECDBFEEA5E1
S1132E80FFA520E3C22ED12CCC0EDD1E20E030E0C5
S1132E908824992401C0F101DF018D911D0188234B
S1132EA009F499C1853269F06CA57DA50E94DD16EF
S1132EB09C01BFEF8F3F9B0709F486C121E030E0FE
S1132EC083C11181103341F4128193E0292E312CF6
S1132ED02E0E3F1E01E010C01D3239F082E0282E74
S1132EE0312C2E0E3F1E00E007C0128103E0202E7D
S1132EF0312C2E0E3F1E02E066247724F101A90135
S1132F0093010FC0C901880F991FB3E0220F331F2B
S1132F10BA95E1F7280F391F210F311D2053304096
S1132F201191812F80538A3068F31F0139019A016E
S1132F301C3611F01C3421F40460F10111911F01BD
S1132F40112309F448C1812F8156312F8A3108F4A5
S1132F5030523F3409F474C0303548F4333409F442
S1132F6058C0343469F0323409F061C067C0353573
S1132F7039F0383509F459C0333509F058C002C066
S1132F802AE05FC0F60142E050E0C40ED51EA080E6
S1132F90B180F501EE24FF2403C00894E11CF11C68
S1132FA081918823D1F701FF0CC000E010E013C029
S1132FB080E26CA57DA50E94DD16080F191F720121
S1132FC002C000E010E027010894411C511CE614E3
S1132FD0F70470F37201C5016CA57DA50E94021768
S1132FE09C01080F191F0BC080E26CA57DA50E94EF
S1132FF0DD169C01080F191F0894E11CF11CE6144E
S1133000F70490F35FEF2F3F350709F4DDC0980113
S1133010DBC086010E5F1F4FD6018C916CA57DA588
S11330200E94DD169C016801CFC020E10AC0812FF7
S11330306CA57DA50E94DD169C01C6C022E001C0DE
S113304028E002FF0CC0F60144E050E0C40ED51E97
S113305080819181A281B381343401F515C0A60128
S11330604E5F5F4F343449F4D6018D919C91AA2769
S113307097FDA095BA2F6A0107C0F601808191815E
S1133080A0E0B0E06A010AC0B7FF08C0B095A095FF
S1133090909581959F4FAF4FBF4F0860AE014F5F32
S11330A05F4F5A8B498B44245524422F50E060E0F3
S11330B070E04B8B5C8B6D8B7E8B01C02701BC0158
S11330C0CD012B893C894D895E890E943B2F4901A2
S11330D05A01DA01C9016A3030F0183711F427E2D5
S11330E001C027E0620F605DE989FA896193FA8B78
S11330F0E98B72010894E11CF11C81149104A10470
S1133100B10439F0F0E1EF16F104C1F67FE0472E87
S1133110512C802F90E003FF0DC0E1E0F0E0EC0FB4
S1133120FD1FEE0DFF1D2DE2208362E0E62EF12C43
S1133130E40CF51C80FF02C020E301C020E28701FB
S11331408824992452E0452E512C482259220AC041
S1133150822F6CA57DA52F8B0E94DD16880E991EEB
S113316085012F894114510441F458010894A11C8C
S1133170B11C0615170560F385010894E108F108F0
S1133180E1E0F0E0EC0FFD1FEE0DFF1D80816CA56A
S11331907DA50E94DD169C01880E991EE114F104A0
S11331A061F70AC080E26CA57DA50E94DD169C0132
S11331B0880E991E0F5F1F4F0615170598F34FEFE2
S11331C02F3F340709F09401820E931E5FEF2F3FC7
S11331D0350709F060CE6FEF2F3F360709F09401F1
S11331E0C90167960FB6F894DEBF0FBECDBFDF915D
S11331F0CF911F910F91FF90EF90DF90CF90BF90F0
S1133200AF909F908F907F906F905F904F903F9082
S11332102F9008951F920F920FB60F921124DA98EF
S11332200F900FBE0F901F9018951F920F920FB61C
S11332300F9211242F938F939F93B89880918E01AE
S113324090918F01019690938F0180938E0123E0DA
S11332508438920738F010928F0110928E0181E029
S1133260809304059F918F912F910F900FBE0F9023
S11332701F9018951F920F920FB60F9211248F93DF
S113328080910605882319F081508093060580916A
S11332900705882319F0815080930705809108055C
S11332A0882319F08150809308058F910F900FBEE9
S11332B00F901F9018958FE284B983EC85B980E252
S11332C087B98CED88B980E58AB98BEA8BB983E03C
S11332D080937E00089580EA80936D001BBA84E099
S11332E08093680008951092700080E68093B60081
S11332F01092B2008091B10085608093B1008091FA
S1133300B6008171E1F381E087BB8093700008957A
S113331081EE94E090938900809388008AE0809302
S11333208100EFE6F0E0808182608083089517BC1D
S113333082E884BD83E085BD08952A9A80E58CBD2A
S113334081E08DBD08951CBC2A98089590917E005B
S113335021E030E0082E02C0220F331F0A94E2F766
S1133360922B90937E00806480937C0086EC809303
S11333707A0080917A0086FDFCCF8091780090E0FD
S11333804091790010927A0030917E002095232399
S113339020937E00342F20E0822B932B08950F93EB
S11333A01F93CF93DF930F92CDB7DEB78C0115C077
S11333B084B58F7784BD84B5806484BDC801698376
S11333C00E942E0184B5806884BD84B58F7B84BD42
S11333D0C8010E942E0169816150662349F70F904C
S11333E0DF91CF911F910F9108950F931F93CF9366
S11333F0DF930F92CDB7DEB78C010BC05C9AC80186
S113340069830E942E015C98C8010E942E01698183
S11334106150662399F70F90DF91CF911F910F911F
S113342008950F931F9300910C0510E020E030E005
S113343098011127002780910D0590E0A0E0B0E0ED
S113344045E1880F991FAA1FBB1F4A95D1F7082B86
S1133450192B2A2B3B2B80910B0590E0A0E0B0E0C8
S11334605BE0880F991FAA1FBB1F5A95D1F7082B41
S1133470192B2A2B3B2B80910A0590E0A0E0B0E0A9
S113348065E0880F991FAA1FBB1F6A95D1F7082B07
S1133490192B2A2B3B2BE9E0F5E08081869590E0FF
S11334A0A0E0B0E0082B192B2A2B3B2B85819681B9
S11334B08C5B9740A0E0B0E079E1880F991FAA1FC8
S11334C0BB1F7A95D1F7082B192B2A2B3B2BB8015C
S11334D0C9011F910F910895219829980895CF93B8
S11334E0DF9300D000D0CDB7DEB7CE010396BE0186
S11334F06F5F7F4F0E943024882381F48B819C81ED
S113350064E874E040E20E94C32889819A816EECE9
S113351073E040E20E94C32881E001C080E00F9084
S11335200F900F900F90DF91CF910895CF93C0E249
S11335300E946F1A882341F084E690E00E942E01D5
S1133540C150B1F781E001C080E0CF910895CF92DE
S1133550DF92EF92FF920F931F93CF93DF93EC01CF
S11335608B017A0169010E946F1A882379F184E83A
S113357094E060E20E94D72820E230E040E050E08E
S11335800E945D2F398328832AE030E040E050E038
S11335900E945D2FF801318320838EEC93E060E27A
S11335A00E94D72820E431E040E050E00E945D2FE3
S11335B0F7013183208324E630E040E050E00E94AC
S11335C05D2FF6013183208381E001C080E0DF912B
S11335D0CF911F910F91FF90EF90DF90CF900895BE
S11335E080E00E94A61964E474E040E20E94C328CB
S11335F00895CF93C0E20E94F01AC150E1F7CF9131
S113360008950E94F01A84E494E060E20E94D728AE
S113361020E230E040E050E00E945D2FB9018827AD
S113362077FD8095982F0E94FA2D24E83DE84BEF12
S113363054E40E945E2E23ED3DE442E550E40E94F2
S11336405E2E20E030E040E85AE30E945E2E0E94A5
S1133650C72DCB01089581E00E94A61964EC74E0A3
S113366040E20E94C3280895CF93C0E20E942B1B1E
S1133670C150E1F7CF9108950E942B1B84EC94E094
S113368060E20E94D72820E230E040E050E00E944F
S11336905D2FB901882777FD8095982F21E932E0C5
S11336A040E050E00E94E92E20E034E040E050E0A9
S11336B00E945D2FC9010895FF920F931F93CF932A
S11336C0DF93CDB7DEB728970FB6F894DEBF0FBEF1
S11336D0CDBF00E010E0FF24F999FECFCE010196A2
S11336E0B80148E050E00E94802FF999FECF8F2D59
S11336F0BE016F5F7F4F0E941327F394085F1F4F33
S113370088E0F81649F728960FB6F894DEBF0FBE86
S1133710CDBFDF91CF911F910F91FF900895219A12
S1133720299A0E94B7250E941A260E945C1B80E0F9
S113373060E00E942C2608950F931F93CF93DF938C
S1133740CDB7DEB761970FB6F894DEBF0FBECDBF1D
S11337508DB79EB70A970FB6F8949EBF0FBE8DBF64
S1133760EDB7FEB731968E010F5F1F4FADB7BEB7F1
S113377012961C930E93119788E690E093838283AC
S113378080910E0590910F05805D97409583848309
S113379080910D058683178280910C0580871186A0
S11337A00E94142A8DB79EB70A960FB6F8949EBF4E
S11337B00FBE8DBF80E060E00E942C26C8010E94ED
S11337C06B27ADB7BEB71A970FB6F894BEBF0FBE3E
S11337D0ADBFEDB7FEB7319612961C930E931197B9
S11337E087E790E09383828380910B05848315821D
S11337F080910A0586831782809109058087118646
S11338000E94142A8DB79EB70A960FB6F8949EBFED
S11338100FBE8DBF80E061E00E942C26C8010E948B
S11338206B2761960FB6F894DEBF0FBECDBFDF9154
S1133830CF911F910F910895CF92DF92EF92FF9253
S11338400F931F93CF93DF93CDB7DEB761970FB676
S1133850F894DEBF0FBECDBF6A0179012DB73EB724
S1133860285030400FB6F8943EBF0FBE2DBFEDB7C1
S1133870FEB731968E010F5F1F4FADB7BEB71296DC
S11338801C930E93119726E830E0338322839583AB
S11338908483778366830E94142A2DB73EB7285FFA
S11338A03F4F0FB6F8943EBF0FBE2DBF89E060E0D6
S11338B00E942C26C8010E946B2781E060E40E94CC
S11338C095258DB79EB708970FB6F8949EBF0FBE87
S11338D08DBFEDB7FEB73196ADB7BEB712961C9348
S11338E00E9311978CE890E093838283D582C482EF
S11338F0F782E6820E94142A2DB73EB7285F3F4F15
S11339000FB6F8943EBF0FBE2DBF89E061E00E9460
S11339102C26C8010E946B2782E060E40E94952552
S113392061960FB6F894DEBF0FBECDBFDF91CF9185
S11339301F910F91FF90EF90DF90CF9008950F9318
S11339401F93CF93DF93EC018B010E941A2680E032
S113395060E00E942C26CE010E94782780E061E07E
S11339600E942C26C8010E947827DF91CF911F91D5
S11339700F9108950F931F93CF93DF93EC018B0165
S11339800E941A2680E060E00E942C26CE010E944C
S1133990782780E061E00E942C26C8010E946B27F2
S11339A0DF91CF911F910F9108953F924F925F92B3
S11339B06F927F928F929F92AF92BF92CF92DF923B
S11339C0EF92FF920F931F93CF93DF93CDB7DEB7A0
S11339D0AB970FB6F894DEBF0FBECDBF382E4F9B0A
S11339E0FECF4D9BFCCF00E08BE0E82EF12CEC0EDB
S11339F0FD1E95EBA92E90E0B92E2DEDC22E27E0E9
S1133A00D22E3AEB832E30E0932E43E9642E40E02D
S1133A10742E55EA452E50E0552E013009F473C03A
S1133A20023008F0C7C0CE0101960E94A0010E9496
S1133A301A260E94962680E060E00E942C262DB76C
S1133A403EB72C5030400FB6F8943EBF0FBE2DBF8A
S1133A50EDB7FEB73196ADB7BEB71296FC92EE92B3
S1133A601197738262828E819F81958384838D8175
S1133A70868317828C8180871186888590E0880FE1
S1133A80991F880F991F875B9E4F938782870E9497
S1133A90142A2DB73EB7245F3F4F0FB6F8943EBFAC
S1133AA00FBE2DBFC7010E946B2780E061E00E941A
S1133AB02C268DB79EB70A970FB6F8949EBF0FBEFB
S1133AC08DBFEDB7FEB73196ADB7BEB71296FC9277
S1133AD0EE921197538242828B81848315828A816C
S1133AE0868317828981808711860E94142A2DB7C4
S1133AF03EB7265F3F4F0FB6F8943EBF0FBE2DBFB3
S1133B00C7010E946B2780E060E00E942C264D993B
S1133B1042C082E390E061E00E94CF198E819F81D0
S1133B2001969F838E8338E08433930710F0DF82FD
S1133B30CE8210E015C082E390E061E00E94CF19CC
S1133B4084E690E00E942E01812F8F5F125017307F
S1133B5018F4DF82CE8203C08A3008F03FC2182FE7
S1133B604D9BE9CF00D000D000D0EDB7FEB7319621
S1133B70ADB7BEB71296FC92EE921197B382A282B1
S1133B808E819F81958384830E94142A2DB73EB72A
S1133B902A5F3F4FB0CF4F99B6CF82E390E061E008
S1133BA00E94CF1904C084E690E00E942E014F9B2E
S1133BB0FACF02E085E060E00E942C264D9945C0D2
S1133BC082E390E061E00E94CF198D818F5F8D8345
S1133BD08D3010F081E08D8310E015C082E390E019
S1133BE061E00E94CF1984E690E00E942E01812FAB
S1133BF08F5F1250173018F491E09D8303C08A3010
S1133C0008F0ECC1182F4D9BE9CF00D000D000D0B4
S1133C10EDB7FEB73196ADB7BEB71296FC92EE92F1
S1133C201197938282828D81848315820E94142A43
S1133C302DB73EB72A5F3F4F0FB6F8943EBF0FBE75
S1133C402DBFC7010E946B27E8CE4F99E6CE82E3D1
S1133C5090E061E00E94CF1904C084E690E00E94E5
S1133C602E014F9BFACF3EE1E32E8E01055F1F4FDD
S1133C704FEBA42E40E0B42E5FE1F52E60E9862ED2
S1133C8061E0962E7DE1D72EECE1CE2E88E060E057
S1133C900E942C264D9998C082E390E061E00E9436
S1133CA0CF192C812F5F2C838D818630F9F08730DA
S1133CB070F48330B1F0843028F4813091F0823094
S1133CC099F418C0843091F0853071F40AC08930B9
S1133CD069F0893030F08B3049F08B3010F08C3043
S1133CE019F42F3108F0FC8220E037C02E31E0F3C4
S1133CF0EC82FACFEE81FF81CF01B4010E94142F30
S1133D00009761F0CF0183709070009759F4CF0150
S1133D1064E670E00E94142F009721F02D3120F307
S1133D20DC82E2CF2C3100F3CC82DECF82E390E060
S1133D3061E02BA70E94CF1984E690E00E942E0137
S1133D402BA5822F8F5F2250273018F491E09C839B
S1133D5003C08A3008F042C1282F4D9BE7CF6D8104
S1133D604C818E819F8170E050E00E94F128888709
S1133D70ADB7BEB718970FB6F894BEBF0FBEADBFB0
S1133D80EDB7FEB7319612961C930E931197B3823A
S1133D90A2829C819483158290E0880F991F880FDA
S1133DA0991F875B9E4F978386830E94142A2DB7A1
S1133DB03EB7285F3F4F0FB6F8943EBF0FBE2DBFEE
S1133DC0C8010E946B2762CF4F9960CF82E390E0D5
S1133DD061E00E94CF1904C084E690E00E942E01A5
S1133DE04F9BFACF8E01055F1F4FA7ECEA2EA0E090
S1133DF0FA2E80E061E00E942C264D9945C082E3B2
S1133E0090E061E00E94CF198B818F5F8B838831B2
S1133E1008F01B8220E016C082E390E061E02BA74B
S1133E200E94CF1984E690E00E942E012BA5822FD8
S1133E308F5F2250273010F41B8203C08A3008F0B1
S1133E40CDC0282F4D9BE8CF00D000D000D0EDB7D7
S1133E50FEB73196ADB7BEB712961C930E93119769
S1133E60F382E2828B81848315820E94142A2DB707
S1133E703EB72A5F3F4F0FB6F8943EBF0FBE2DBF2B
S1133E80C8010E946B27B5CF4F99B3CF82E390E06E
S1133E9061E00E94CF1904C084E690E00E942E01E4
S1133EA04F9BFACF8E01055F1F4FFCECEF2EF0E025
S1133EB0FF2E83E061E00E942C264D9945C082E3E9
S1133EC090E061E00E94CF198A818F5F8A838C33EE
S1133ED008F01A8220E016C082E390E061E02BA78C
S1133EE00E94CF1984E690E00E942E012BA5822F18
S1133EF08F5F2250273010F41A8203C08A3008F0F2
S1133F006DC0282F4D9BE8CF00D000D000D0EDB776
S1133F10FEB73196ADB7BEB712961C930E931197A8
S1133F20F382E2828A81848315820E94142A2DB747
S1133F303EB72A5F3F4F0FB6F8943EBF0FBE2DBF6A
S1133F40C8010E946B27B5CF4F99B3CF82E390E0AD
S1133F5061E00E94CF1904C084E690E00E942E0123
S1133F604F9BFACF8E01055F1F4FE1EDEE2EE0E08F
S1133F70FE2E86E061E00E942C264F990CC04D99DC
S1133F800AC082E390E061E00E94CF194F9BFECF0C
S1133F904D9BFCCF23C04D9949C082E390E061E082
S1133FA00E94CF1989818F5F89838C3308F019822D
S1133FB020E01AC082E390E061E02BA70E94CF19B1
S1133FC084E690E00E942E012BA5822F8F5F225061
S1133FD0273010F4198207C08A3028F00E94A526E1
S1133FE00E941A2655C0282F4D9BE4CF00D000D044
S1133FF000D0EDB7FEB73196ADB7BEB712961C939D
S11340000E931197F382E2828981848315820E9440
S1134010142A2DB73EB72A5F3F4F0FB6F8943EBF20
S11340200FBE2DBFC8010E946B27A3CF4F99A1CF0C
S113403082E390E061E00E94CF1904C084E690E03E
S11340400E942E014F9BFACFCE0101960E942802B6
S11340500E941A260E94A526109205053320C1F05D
S11340608EE094E00E94D712882371F086ED90E0F0
S11340706FED70E00E949F1C8CE291E063E00E946F
S1134080CF1988E0809305058EE094E00E948713A1
S1134090AB960FB6F894DEBF0FBECDBFDF91CF91C4
S11340A01F910F91FF90EF90DF90CF90BF90AF9052
S11340B09F908F907F906F905F904F903F90089566
S11340C08FEF8EBD0DB407FEFDCF8EB5089582E34C
S11340D0809308050E9460200E9460208F3F21F099
S11340E0909108059923C1F708950F931F93CF93D7
S11340F0DF93EC018B018AE0809307050E94602026
S11341008F3F29F4809107058823C1F71AC08E3F99
S1134110B9F48FEF8EBD0DB407FEFDCF9EB5988325
S11341208EBD0DB407FEFDCF9EB599832296025035
S1134130104081F70E9460200E94602081E001C04D
S113414080E0DF91CF911F910F9108950F931F93FA
S1134150CF93DF930F92CDB7DEB78C0169830E94B2
S1134160672069818F3F59F56EBD0DB407FEFDCF01
S11341706D3F19F180E0F80190819EBD0DB407FEFA
S1134180FDCFF80191819EBD0E5F1F4F0DB407FE58
S1134190FDCF815081F78FEF8EBD0DB407FEFDCFAB
S11341A08FEF8EBD0DB407FEFDCF0E946020982FC7
S11341B09F7181E0953019F403C081E001C080E073
S11341C00F90DF91CF911F910F910895CF92DF92BD
S11341D0EF92FF92CF93C82F6A017B010E94672060
S11341E08F3FC1F5CEBD0DB407FEFDCF8F2D9927AE
S11341F0AA27BB278EBD0DB407FEFDCFC701AA2792
S1134200BB278EBD0DB407FEFDCF77276F2D5E2D26
S11342104D2D4EBD0DB407FEFDCFCEBC0DB407FE33
S1134220FDCFC03421F0C83421F080E003C085E91B
S113423001C087E88EBD0DB407FEFDCFCC3411F468
S11342400E946020CAE00E94602087FF04C0C15021
S1134250D1F701C08FEFCF91FF90EF90DF90CF9017
S11342600895DF92EF92FF920F931F93CF93DF9302
S113427000D000D0CDB7DEB7882309F0AFC00AE084
S11342800E9460200150E1F72A9880E440E050E069
S1134290BA010E94E620813009F08EC084E6809342
S11342A0070588E44AEA51E060E070E00E94E620F5
S11342B0813009F046C07E010894E11CF11C87019D
S11342C034E0D32E0E946020F80181938F01DA94A8
S11342D0C9F78B81813009F06FC08C818A3A09F06B
S11342E06BC087E740E050E0BA010E94E6208230CC
S11342F048F489E640E050E060E070E40E94E62083
S1134300882321F080910705882359F780910705B8
S1134310882309F451C08AE740E050E0BA010E94C2
S1134320E620882309F048C004E00E946020F701D9
S113433081937F010150C9F7898186FF3BC006E064
S11343403CC087E740E050E0BA010E94E62082309A
S113435050F489E640E050E0BA010E94E620823041
S113436010F402E001C001E0023051F487E740E0BC
S113437050E0BA010E94E620823050F489E601C080
S113438081E440E050E0BA010E94E620882321F055
S113439080910705882341F780910705882361F000
S11343A080E540E052E060E070E00E94E62088236F
S11343B019F403C002E001C000E0009395012A9AB9
S11343C00E94602080919401002311F08E7F01C02F
S11343D08160809394018091940101C081E00F90E9
S11343E00F900F900F90DF91CF911F910F91FF903D
S11343F0EF90DF900895882319F480919401089533
S113440081E008950F93CF93DF93EB01BA01A901E3
S1134410882309F042C0002309F43FC0809194012D
S113442080FD3DC08091950182FD07C0E9E0440F05
S1134430551F661F771FEA95D1F72A98013069F452
S113444081E50E94E620882301F5CE0160E072E058
S11344500E9475208823C1F418C082E50E94E620DA
S1134460882399F4CE0160E072E00E9475208823CD
S113447021F0C050DE4F0150A9F78CE440E050E039
S1134480BA010E94E62001C000E02A9A0E9460203E
S113449081E0002329F480E003C084E001C083E0CC
S11344A0DF91CF910F910895CF92DF92EF92FF9217
S11344B00F93CF93DF93EB0169017A01882309F00D
S11344C05CC0002309F459C08091940180FD57C059
S11344D08091940182FD55C08091950182FD07C0B1
S11344E0F9E0CC0CDD1CEE1CFF1CFA95D1F72A98E0
S11344F0013071F488E5B701A6010E94E620882303
S1134500A1F5CE016EEF0E94A620882359F52DC097
S11345108091950181FF0DC087E740E050E0BA012A
S11345200E94E620402F50E060E070E087E50E94A2
S1134530E62089E5B701A6010E94E6208823A9F4B4
S1134540CE016CEF0E94A620882321F0C050DE4FDC
S11345500150B1F780E090E06DEF0E94A62088231F
S113456019F003C000E001C001E02A9A0E94602013
S113457081E0002339F480E005C084E003C083E0D7
S113458001C082E0DF91CF910F91FF90EF90DF9017
S1134590CF900895FF920F931F93CF93DF93CDB7DE
S11345A0DEB760970FB6F894DEBF0FBECDBF8A01A9
S11345B0882309F0C0C02A98633009F47EC06430AF
S11345C030F4613071F0623009F0ACC070C06B300F
S11345D009F47EC06C3009F48FC06A3009F0A2C0BF
S11345E071C089E440E050E0BA010E94E6208823CB
S11345F009F09CC0CE01019660E170E00E94752034
S1134600882309F493C08981829586958695837061
S113461049858130B1F48A8590E00196342F20E0F9
S1134620820F931FA0E0B0E04AE0880F991FAA1FF1
S1134630BB1F4A95D1F7F80180839183A283B3838A
S113464073C0842F8295869586958370488550E043
S1134650440F551F440F551F480F511D4F5F5F4FA7
S11346608F8190E083709070982F8827990F990F0D
S1134670480F591F60E070E08E818F709B85991FF1
S11346809927991F890F8E5F9A859370990F890FC7
S113469090E0099704C0440F551F661F771F8A9541
S11346A0D2F7F80140835183628373833DC080E075
S11346B092E0FA019183808337C00E9467208F3F84
S11346C0A9F532C08091940180FD37C089E405C00A
S11346D08091940180FD31C08AE440E050E0BA0149
S11346E00E94E620882311F5C80160E170E00E9471
S11346F075208823C9F41AC08091940180FD1DC0DF
S11347008AE740E050E0BA010E94E620882371F471
S1134710A4E0FA2E0E946020F80181938F01FA949C
S1134720C9F702C004E003C000E001C001E02A9A16
S11347300E94602003C004E001C003E0802F609663
S11347400FB6F894DEBF0FBECDBFDF91CF911F919E
S11347500F91FF90089580910705882319F08150E7
S11347608093070580910805882319F08150809370
S1134770080508950F931F93CF93DF93CDB7DEB74A
S11347802C970FB6F894DEBF0FBECDBF80916B019E
S113479090916C01009709F457C013E004E081E2A2
S11347A08A95F1F70000098380E661E070E041E05A
S11347B09E012F5F3F4F0E946C28882309F040C060
S11347C080E66CE070E040E09E012F5F3F4F0E9466
S11347D01028882311F08C5933C0998190939D013E
S11347E09A8190939C019B8190939B019C819093CF
S11347F09A019D81909399019E81909398019F8144
S113480090939701988590939601998590936C0164
S11348109A8590936B019B8590936A019C859093F4
S1134820690120916B0130916C012115310539F436
S11348302091690130916A012115310531F084E636
S1134840115009F0ACCF01C080E02C960FB6F8945B
S1134850DEBF0FBECDBFDF91CF911F910F910895A1
S11348602F923F924F925F926F927F928F929F927C
S1134870AF92BF92CF92DF92EF92FF920F931F936A
S1134880CF93DF93CDB7DEB72E970FB6F894DEBF84
S11348900FBECDBF1C017E876D8703E022E1822E0F
S11348A0CC24C3948D82CE8280E662E070E040E046
S11348B09E012B5F3F4F0E946C28182F882309F01C
S11348C014C189EF90E00197F1F700C000001D8248
S11348D080E661E070E041E09E012B5F3F4F0E9463
S11348E06C28882319F0182F1C59FFC080E664E057
S11348F070E040E09E012B5F3F4F0E941028182F6C
S1134900882311F01853F1C08D818C838E818B83A1
S11349108F818A83888589838B819C8126E0969503
S113492087952A95E1F79C0140E050E029873A8772
S11349304B875C8760916B0170916C01882777FDD0
S11349408095982F0E94E92EDC01CB01C0909A013A
S1134950D0909B01EE24D7FCE094FE2CEEE0CC0C2E
S1134960DD1CEE1CFF1CEA95D1F7C80ED91EEA1E09
S1134970FB1EFEE0F594E794D794C794FA95D1F71B
S113498089819A8106E0969587950A95E1F74C010D
S1134990AA24BB246091960170919701882777FD22
S11349A08095982FA50194010E94E92EDC01CB018A
S11349B0EBE0CC0CDD1CEE1CFF1CEA95D1F7C80E15
S11349C0D91EEA1EFB1EFBE0F594E794D794C79426
S11349D0FA95D1F76091690170916A01882777FD92
S11349E08095982F0E94E92EAB01BC0175956795BF
S11349F0579547958091980190919901AA2797FD21
S1134A00A095BA2F0FE0880F991FAA1FBB1F0A9504
S1134A10D1F7840F951FA61FB71F2D01772457FCCC
S1134A207094672CC701B60129853A854B855C854E
S1134A300E94E92EDC01CB01C0909C01D0909D0125
S1134A40EE24D7FCE094FE2CFAE0CC0CDD1CEE1C2A
S1134A50FF1CFA95D1F7C80ED91EEA1EFB1EC3012E
S1134A60B201A50194010E94E92EDC01CB0120E0F2
S1134A703CEF4FEF5FEFC222D322E422F522C80EAF
S1134A80D91EEA1EFB1E0DE0F594E794D794C79453
S1134A900A95D1F7B601882777FD8095982F2AE8E3
S1134AA032E040E050E00E94E92E2FEF33E040E096
S1134AB050E00E945D2F2C503E4FF1013183208342
S1134AC0C501B40125E43FEF4FEF5FEF0E94E92EEB
S1134AD024E630E040E050E00E945D2F2A553B4F31
S1134AE0ED85FE853183208303C0015009F0DACEC1
S1134AF0812F2E960FB6F894DEBF0FBECDBFDF9187
S1134B00CF911F910F91FF90EF90DF90CF90BF90C6
S1134B10AF909F908F907F906F905F904F903F9059
S1134B202F9008950E94C0280895FF920F931F9319
S1134B30CF93DF9300D0CDB7DEB7F82E062F13E066
S1134B400983FA828EE362E070E040E09E012F5F09
S1134B503F4F0E946C28882311F0115089F70F9061
S1134B600F90DF91CF911F910F91FF900895CF93F4
S1134B70C4E0C093240588E18093280589E18093EB
S1134B80270588E290E00E942E018091280580622A
S1134B9060E00E9495258EE190E00E942E018091B4
S1134BA02705806260E00E9495258EE190E00E94D6
S1134BB02E0184E160E00E9495258EE190E00E9440
S1134BC02E018DE760E00E9495258EE190E00E9421
S1134BD02E018EE560E00E9495258EE190E00E9412
S1134BE02E01C09326058CE660E00E94952588EC92
S1134BF090E00E942E0180912805806260E00E946E
S1134C0095258EE190E00E942E018CE060E00E94E8
S1134C1095258EE190E00E942E0182E08093250587
S1134C2086E060E00E9495258EE190E00E942E01CE
S1134C30CF91089581E060E00E94952582E090E0A4
S1134C400E942E01089582E060E00E94952582E092
S1134C5090E00E942E010895CF93DF93CDB7DEB785
S1134C6028970FB6F894DEBF0FBECDBFFE01319674
S1134C70ADE6B1E098E00D9001929150E1F7633018
S1134C8008F061E0E62FF0E0EE0FFF1FEC0FFD1FD0
S1134C909181980F892F806860E00E9495258EE1AC
S1134CA090E00E942E0128960FB6F894DEBF0FBE46
S1134CB0CDBFDF91CF91089580912405982F946002
S1134CC0909324058C6060E00E9495258EE190E02D
S1134CD00E942E010895809124058B7F80932405E2
S1134CE0886060E00E9495258EE190E00E942E018C
S1134CF0089580912405982F9260909324058A60EA
S1134D0060E00E9495258EE190E00E942E010895B6
S1134D10809124058D7F80932405886060E00E9443
S1134D2095258EE190E00E942E010895809124053E
S1134D30982F916090932405896060E00E949525E6
S1134D408EE190E00E942E010895809124058E7FCB
S1134D5080932405886060E00E9495258EE190E0B0
S1134D600E942E01089580912805806260E00E94CF
S1134D7095258EE190E00E942E0188E160E00E947A
S1134D8095258EE190E00E942E01089580912805DA
S1134D90806260E00E9495258EE190E00E942E01E1
S1134DA08CE160E00E9495258EE190E00E942E0146
S1134DB0089580912505982F92609093250586602B
S1134DC060E00E9495258EE190E00E942E010895F6
S1134DD0809125058D7F80932505846060E00E9485
S1134DE095258EE190E00E942E010895809125057D
S1134DF0982F916090932505856060E00E94952529
S1134E008EE190E00E942E010895809125058E7F09
S1134E1080932505846060E00E9495258EE190E0F2
S1134E200E942E010895EF92FF920F931F93CF9348
S1134E30DF930F92CDB7DEB7E62E8770880F880F09
S1134E40880F806460E079830E9495258EE190E06C
S1134E500E942E010E2D7981172FEE24FF24F801D4
S1134E6081918F0160E40E9495258EE190E00E947B
S1134E702E010894E11CF11CF8E0EF16F10479F717
S1134E800F90DF91CF911F910F91FF90EF900895B4
S1134E90CF93C82F80912705806260E00E949525FA
S1134EA08EE190E00E942E018C2F829583708C6598
S1134EB060E00E9495258EE190E00E942E018C2FE7
S1134EC08F70806760E00E9495258EE190E00E94DB
S1134ED02E01CF910895CF93DF93EC0103C060E4DA
S1134EE00E94952589918823D1F7DF91CF91089568
S1134EF0CF93DF93EC0103C060E40E949525FE018B
S1134F00219684918823C1F7DF91CF9108951F934F
S1134F10CF93DF93C82F162F89E360E00E94952575
S1134F20D0E0CC0FDD1FCB58DE4F8881806460E079
S1134F300E949525112311F0898101C080E060E46D
S1134F400E94952588E360E00E949525DF91CF912A
S1134F501F910895CF93DF93D62F8150833030F47F
S1134F60E82FF0E0E957FE4FC08101C0C2E089E3B9
S1134F7060E00E9495258DE460E00E949525DD2384
S1134F8011F08C2F01C080E060E40E94952588E335
S1134F9060E00E949525DF91CF9108951092B900A9
S1134FA08AE08093B8008FEF8093BB0084E0809305
S1134FB0BC00089594EA9093BC009091BC0097FFC4
S1134FC0FCCF9091B900987F9833C9F0903111F0DB
S1134FD09830B9F4880F8093BB0084E88093BC00B8
S1134FE08091BC0087FFFCCF8091B900887F80321C
S1134FF051F0883351F0883151F087E109C08BE0DA
S113500007C08CE005C085E103C086E101C080E0F3
S113501094E99093BC009091BC0094FDFCCF08955A
S1135020582F550F5160F90123E081E0A4EA34E8D8
S1135030A093BC009091BC0097FFFCCF9091B90065
S1135040987F9833B1F1903111F09830B1F55093C5
S1135050BB003093BC009091BC0097FFFCCF9091B3
S1135060B900987F983429F1983319F1903439F5BF
S113507084EC19C06130710509F484E88093BC00A4
S11350809091BC0097FFFCCF9091B900987F983520
S113509019F0903519F015C061E070E0B091BB00D3
S11350A0B193615070406115710521F7903549F451
S11350B08FE1215009F0BCCF05C08BE003C085E12E
S11350C001C080E0442339F494E99093BC009091AA
S11350D0BC0094FDFCCF0895880FA22F532F23E02A
S11350E0B4EA34E8B093BC009091BC0097FFFCCFC5
S11350F09091B900987F983399F1903111F09830DC
S113510091F58093BB003093BC009091BC0097FF55
S1135110FCCF9091B900987F903211F1983301F14E
S1135120983109F5EA2FF52F14C091919093BB00A3
S1135130AE2F5F2F3093BC009091BC0097FFFCCF43
S11351409091B900987F903359F0983249F46150A6
S11351507040AE2F5F2F6115710539F7983229F031
S1135160215009F0BFCF81E001C080E0442339F42D
S113517094E99093BC009091BC0094FDFCCF0895F9
S11351801092BC0008959C01FB0160E050E0415086
S1135190504005C082819381819391936F5F862FE4
S11351A090E084179507B4F33183208308950F9317
S11351B01F93FC0100E010E0980140E00BC08191D6
S11351C09191AA2797FDA095BA2F080F191F2A1F9E
S11351D03B1F4F5F461799F7B801C9011F910F9103
S11351E008950F931F93CF93DF939C01EB018A01E2
S11351F0CB0101978230910518F4215030402C9650
S1135200C90164E670E00E94282FF901F595E7953D
S1135210F595E795E20FF31FE61BF70B7595679578
S113522075956795E60FF71F2DE030E0C29FC0012A
S1135230C39F900DD29F900D1124089665E070E0F5
S11352400E94282FE60FF71FE00FF11FCF0167E040
S113525070E00E94282F0196DF91CF911F910F914A
S11352600895DF92EF92FF920F931F93CF93DF93F2
S11352708C017B0102C0DD20B1F0F801D1908F01D7
S11352808D2D90E00E94782FEC01F70181917F0130
S113529090E00E94782F9C01C817D90761F3CE01D2
S11352A0821B930B02C080E090E0DF91CF911F91AD
S11352B00F91FF90EF90DF9008958A3019F48DE0FC
S11352C001D08AE0FF93EF93E0919E01F0919F015A
S11352D0309709F00995EF91FF910895FC018591AC
S11352E0803011F0EADFFBCF0895FF27E0E230E2DF
S11352F047FF0CC0419597FF09C0EDE2609570959A
S113530080959095611D711D811D911D27FF02C01F
S1135310219530E350E2AA27660F771F881F991F53
S1135320AA1FA41710F0A41B63955A95A9F7AA30D5
S113533008F0A95FA05DAF93F39561157105810530
S1135340910541F7ED3211F4EF93F395F21718F448
S11353503F93F395FBCF8F91B0DFFA95E1F7089572
S1135360E991F9918591803021F0853219F0A5DF1A
S1135370F9CF089520E0E89455915532C1F35033A4
S113538011F4689455915A3348F4505390F3220F12
S1135390022E220F220F200D250FF4CF0EF421959B
S11353A089919991533619F3533729F1533559F1AA
S11353B0BC0188279927E8945C3621F48991999156
S11353C068945591543639F446EF7EF077FF0DC05A
S11353D08FEF9FEF0AC055374AE039F0583540E166
S11353E021F0523642E009F00895FF93EF937DDFF8
S11353F0EF91FF91B7CFFF93EF93FC018191803040
S1135400B9F35BDFFBCFFF93EF9368DFF1CFDF935B
S1135410CF93CDB7DEB72596A3DFCF91DF91089563
S1135420F70181937F010895DF93CF93CDB7DEB762
S11354302596E0919E01F0919F01EF93FF93E0E1A7
S1135440FAE2E0939E01F0939F01FF92EF92E990BC
S1135450F99086DFF7011082EF90FF90FF91EF91B2
S1135460E0939E01F0939F01CF91DF9108950B018A
S1135470DC01ED91FD912227332744275527E89439
S11354809AE001C0319660816032E1F3A8F16D3297
S113549011F46894F7CF6A3378F5603368F171F4E6
S11354A098E031966081613248F1623611F492E0FD
S11354B003C0683719F490E1319660816132F0F0ED
S11354C0613608F060526053B8F06A3018F06750E3
S11354D06A3090F0691780F481E2771B08F4790F41
S11354E0769557954795379527958A95B9F7260F59
S11354F0381F481F581FE0CF80E001C081E04EF400
S113550066272095309540955095261F361F461FD7
S1135510561FFE93EE93D0012D933D934D935D93CF
S113552011240895CF93DF93CDB7DEB7C854D0408C
S11355300FB6F894DEBF0FBECDBF0E945B190E9468
S11355406B190E9497190E9488190E9473190E946E
S11355509D1980E880BF88E20E94CE2783B7817FAF
S1135560866083BF78948CE39FE09093910180934D
S113557090018AE090E090939301809392011092BD
S1135580230510920405209A289A82E390E062E0B1
S11355900E94CF191092050563E6E62E73E6F72EF6
S11355A0E9E0CE2ED12CCC0EDD1EF0EFAF2EF0E0D4
S11355B0BF2EAEEF8A2EA0E09A2EB5E16B2EB1E09D
S11355C07B2E1EE0412E14E0512E0FE0202E01E030
S11355D0302E4D993EC00E941A2609E010E035C0D5
S11355E082E390E061E00E94CF1984E690E00E949B
S11355F02E012FEF0F3F120721F485E0809305055C
S113560026C080E060E00E942C2600D000D000D0AC
S1135610EDB7FEB73196ADB7BEB71296DC92CE9217
S11356201197B382A282158304830E94142A2DB792
S11356303EB72A5F3F4F0FB6F8943EBF0FBE2DBF53
S1135640C6010E946B27015010404D9BC9CF0E9498
S11356501A264F996CC00E941A2680E060E00E94CE
S11356602C268091900190919101ADB7BEB7189707
S11356700FB6F894BEBF0FBEADBFEDB7FEB73196FF
S11356801296DC92CE9211979382828268EE73E036
S11356900E94282F75836483978386830E94142A2B
S11356A02DB73EB7285F3F4F0FB6F8943EBF0FBEED
S11356B02DBFC6010E946B2780E061E00E942C266A
S11356C000D000D000D0EDB7FEB73196ADB7BEB76D
S11356D01296DC92CE92119773826282809192012B
S11356E090919301958384830E94142A2DB73EB729
S11356F02A5F3F4F0FB6F8943EBF0FBE2DBFC601C1
S11357000E946B271BE00FC082E390E061E00E94DF
S1135710CF1984E690E00E942E01115021F482E01A
S11357208093050502C04F9BEFCF0E941A264A9929
S113573006C00E949D1981E08093230504C00E9445
S1135740A3191092230510910505123009F467C0BE
S1135750133030F4112371F0113009F00CC26DC014
S1135760153009F4EFC1173009F404C2143009F0FC
S113577002C2E3C00E948F1B88E291E066E371E0FD
S11357800E949F1C0E94BA23882371F087E491E051
S113579062E571E00E949F1C8CE291E063E00E944C
S11357A0CF1988E0809305050E94961A882371F426
S11357B08FE591E06AE671E00E949F1C8CE291E023
S11357C063E00E94CF1988E0809305050E94F91ACE
S11357D00E94341B84E0809305054A9919C00E94F5
S11357E09D1984E690E00E942E0180E060EA71E059
S11357F00E942F0D882331F08CE291E063E00E9437
S1135800CF1908C081E0809305058093230504C067
S11358100E94A319109223050E941A26ACC18091FC
S113582023050E94D51C80912305882311F081E073
S113583001C084E0809305059EC189E095E00E9443
S1135840A001F0900A05E0900C058DB79EB70A9769
S11358500FB6F8949EBF0FBE8DBFEDB7FEB731965D
S113586023E135E0ADB7BEB712963C932E93119762
S11358708BE791E09383828380910E0590910F05CD
S113588064E670E00E94142F9583848380910D0553
S113589086831782E08611860E94142AADB7BEB7AC
S11358A01A960FB6F894BEBF0FBEADBF8EE094E05B
S11358B063E175E042E10E94450D882371F4409153
S11358C018045091190460911A0470911B048EE01D
S11358D094E00E9493138823A1F0109223058CE88E
S11358E091E063E175E00E94BA1C8CE291E063E010
S11358F00E94CF1987E061E00E94872786E060E07C
S113590013C01093230589E991E063E175E00E94D7
S1135910BA1C82E390E062E00E94CF1987E060E065
S11359200E94872786E061E00E94872781E090E05B
S11359300E9439010E941A267CCF89E095E00E94DA
S1135940A0010E949C1B10910C05E11639F1809175
S11359502305882319F18EE094E00E94D71288234E
S113596079F088EA91E06FEA71E00E949F1C8CE272
S113597091E063E00E94CF1988E08093050505C09B
S113598082E390E062E00E94F5198EE094E00E94C8
S1135990871381E080930505E12E1BCE0E94011B35
S11359A0AC019093910180939001E3E4F1E080E0F5
S11359B0219131914217530724F08F5F8430C1F74E
S11359C015C0882399F48CEB91E068EC71E00E9497
S11359D09F1C8CE291E063E00E94CF1981E090E08B
S11359E00E94390187E080930505F3CD815061E081
S11359F00E94AA270E943C1B9093930180939201DA
S1135A00CE010796BE016B5F7F4FAE014D5F5F4FC6
S1135A109E012F5F3F4F0E94A71A882309F4ABC051
S1135A206D817E814B815C8129813A818F8198854A
S1135A300E941C1C80912305882309F49CC020919A
S1135A400A05F21609F45BC040919001509191014E
S1135A508DB79EB74E970FB6F8949EBF0FBE8DBFFD
S1135A60EDB7FEB73196ADB7BEB712965C924E92C3
S1135A7011973382228280910E0590910F059583B0
S1135A80848380910D058683178280910C0580871D
S1135A90118680910B058287138624871586809151
S1135AA00905868717868F819885918B808B8D81D8
S1135AB09E81938B828B8B819C81958B848B898136
S1135AC09A81978B868B8091920190919301918F0B
S1135AD0808FCA0168EE73E00E94282F738F628F53
S1135AE0958F848F0E942517F0900A052DB73EB735
S1135AF0225E3F4F0FB6F8943EBF0FBE2DBF80917C
S1135B0004058823C1F18EE094E00E94D712882313
S1135B1079F087ED91E06EED71E00E949F1C8CE2BC
S1135B2091E063E00E94CF1988E08093050505C0E9
S1135B3082E390E062E00E94F519F8941092040563
S1135B40789419C080912305882341F08EE094E075
S1135B500E94D7128EE094E00E9487130E941A26B6
S1135B6080E060E00E942C268BEE91E00E94782772
S1135B7087E060CE5B982098289883B7816083BFC4
S1135B80889583B78E7F83BF209A289A22CD04D02C
S1135B906894B1118DC0089570D088F09F5790F02B
S1135BA0B92F9927B751A0F0D1F0660F771F881F3E
S1135BB0991F1AF0BA95C9F712C0B13081F077D0A5
S1135BC0B1E0089574C0672F782F8827B85F39F043
S1135BD0B93FCCF3869577956795B395D9F73EF49D
S1135BE090958095709561957F4F8F4F9F4F089545
S1135BF0E89409C097FB3EF4909580957095619563
S1135C007F4F8F4F9F4F9923A9F0F92F96E9BB2718
S1135C109395F695879577956795B795F111F8CF94
S1135C20FAF4BB0F11F460FF1BC06F5F7F4F8F4FFF
S1135C309F4F16C0882311F096E911C0772321F0F5
S1135C409EE8872F762F05C0662371F096E8862F8D
S1135C5070E060E02AF09A95660F771F881FDAF7E4
S1135C60880F9695879597F9089557FD9058440F96
S1135C70551F59F05F3F71F04795880F97FB991FA7
S1135C8061F09F3F79F08795089512161306140664
S1135C90551FF2CF4695F1DF08C0161617061806F1
S1135CA0991FF1CF86957105610508940895E894CC
S1135CB0BB2766277727CB0197F908950BD078C0C7
S1135CC069D028F06ED018F0952309F05AC05FC04F
S1135CD01124EECFCADFA0F3959FD1F3950F50E0C6
S1135CE0551F629FF001729FBB27F00DB11D639F8A
