:1000000012C02AC029C028C027C026C05CC024C096
:1000100023C022C021C020C01FC01EC01DC0F2C00E
:100020000CC11AC019C011241FBECFEDCDBF10E006
:10003000A0E6B0E0E6E7F3E002C005900D92AC392F
:10004000B107D9F710E0ACE9B0E001C01D92A73CC0
:10005000B107E1F763D18DC1D3CFB89AB99A85E0E2
:1000600090E0C09AC1982FEF30E742E02150304035
:100070004040E1F700C00000C098C19A2FEF30E780
:1000800042E0215030404040E1F700C000000197BD
:1000900041F7C098C198089512BE83B7826083BFAC
:1000A00089B7826089BF0895D098D1988898899837
:1000B0008C988D988E98D89AD99A909A919A949A69
:1000C000959A969A08951F920F920FB60F92112447
:1000D0002F933F938F939F938091A00091E0892766
:1000E0008093A000882309F120B320952377C89935
:1000F00002C038E001C030E089B390E0809590956F
:1001000082709070880F991F822B832B90919F0093
:10011000891749F490919E0080939E0090959823B2
:1001200011F090939D0080939F009F918F913F913C
:100130002F910F900FBE0F901F901895F8948093F9
:100140009C0080919C00882319F4C09AC19802C039
:10015000C098C19A78940895F89480919D00109267
:100160009D0078940895F894E0919E00E950EC3356
:1001700028F4F0E0E05AFF4F808101C080E07894DD
:1001800008951092A3001092A4001092A100109262
:10019000A2008093A60087B3806A87BBC79AC59ADE
:1001A000BD9888EA8DB980EF8EB908959091A2002C
:1001B0009F5F9F702091A1009217E1F3E92FF0E07B
:1001C000E955FF4F80839093A20008959091A40079
:1001D0008091A3009817D1F38091A3008F5F8F7057
:1001E0008093A300E091A300F0E0E954FF4F8081E9
:1001F00008952091A4009091A30081E0291709F4AB
:1002000080E008951F920F920FB60F9211248F93E2
:100210001092A500BD98B79B02C0B59BFCCFB599C5
:1002200002C088EF01C088EA8DB980EF8EB98F9146
:100230000F900FBE0F901F9018951F920F920FB640
:100240000F9211248F939F93EF93FF938091A500BA
:100250008230D9F1833030F4882361F0813009F0A5
:1002600054C018C08430B9F1843088F0853009F06A
:100270004CC037C08FB1882331F08FB186959091F3
:10028000A6008917F9F4789B39C081E038C08FB196
:100290008823C1F49091A2008091A100981791F059
:1002A0008091A1008F5F8F708093A100E091A100E9
:1002B000F0E0E955FF4F80818FB982E08093A5007F
:1002C000BD9A0DC088EA8DB90AC083E08093A5006D
:1002D000BD981FB818C085E08093A500BD9880E741
:1002E00013C08091A4008F5F8F708093A400E09171
:1002F000A4008FB1F0E0E954FF4F808384E0809345
:10030000A5001FB8BD9A8EE78EB9FF91EF919F911E
:100310008F910F900FBE0F901F9018959EDEC4DE38
:10032000BBDE81E32EDF789464DF8823E9F34EDFC0
:100330008335D1F0843538F48334C1F08E3479F0CC
:10034000813491F70EC0833689F0843618F48136F3
:1003500059F707C08E3619F0833731F705C080E0B2
:1003600001C081E0EBDEE0CFFEDE01C0F5DE1EDF86
:06037000DBCFF894FFCF83
:10037600303400380000000031350039000000003C
:1003860000000000000000003236002A00000000D5
:100396000000000000000000000000000000000057
:0C03A600000000000000000033370023BE
:00000001FF
