:100000000C94F2000C940F010C940F010C940F014E
:100010000C940F010C94AD1B0C940F010C940F0168
:100020000C940F010C94B81B0C940F010C94EB1B57
:100030000C940F010C940F010C940F010C940F0100
:100040000C940F010C940F010C940F010C940F01F0
:100050000C940F010C940F010C940F010C940F01E0
:100060000C940F010C940F01253032642D25303291
:10007000642D2530326400253032643A25303264F4
:100080003A253032640025642E2564002534642E20
:10009000256400253034642D253032642D2530321E
:1000A0006420257300253032643A253032643A25C5
:1000B000303264250025303264002530326400255A
:1000C00030326420257300253032640025303264DC
:1000D0000025303264005B436F6E6669675D0046E1
:1000E000696C652053617665204572726F722E00CF
:1000F00053687574646F776E2E2E2E256400C3DEF0
:10010000DDC1203D3E2025752E253033755600B1CA
:10011000B6D9BB203D3E20256400415652204261A5
:10012000726F6D657465720076302E332020323028
:1001300031332F30332F3234005B4D504C31313559
:1001400041325D00496E6974204572726F722121DF
:10015000005B4D504C31313541325D00496E697460
:100160002044617461204572726F72210025303421
:1001700075253032752E4C4F47005B4F70656E20F1
:100180004552524F525D005B46696C65204F706569
:100190006E6564215D005B46494C455D0053796E98
:1001A00063204572726F722121005B4C6F77205083
:1001B0006F7765725D00676F746F20536875744464
:1001C0006F776E2E005B46494C455D0053796E6338
:1001D000204572726F722121005368757420446F3C
:1001E000776E000011241FBECFEFD8E0DEBFCDBF79
:1001F00011E0A0E0B1E0ECE7FAE602C005900D9254
:10020000AE38B107D9F715E0AEE8B1E001C01D92F4
:10021000A934B107E1F70E9414240C943C350C94E6
:100220000000882331F090E19A95F1F700C08150E9
:10023000D1F70895CF93C82F882329F084E10E9435
:100240001101C150D9F7CF910895009741F0E9EF1E
:10025000F0E03197F1F700C000000197C1F7089571
:10026000CF93DF93EC01009731F088EE93E00E948A
:1002700025012197D1F7DF91CF9108956AE00E947F
:100280009C348295807F890F0895982F92959F7056
:10029000990F292F220F220F920F8F70890F089527
:1002A0001F93CF93DF9300D0CDB7DEB789836A83E6
:1002B00013E088E662E070E040E09E012F5F3F4F70
:1002C0000E94FE30882311F0115099F70F900F9083
:1002D000DF91CF911F9108951F93CF93DF930F92DA
:1002E000CDB7DEB7898313E088E661E070E041E0D6
:1002F0009E012F5F3F4F0E94FE30882361F488E605
:1003000061E070E040E09E012F5F3F4F0E9472303D
:10031000882339F08C59115039F7882321F08981CD
:1003200003C080E001C080E00F90DF91CF911F916A
:100330000895EF92FF920F931F93CF93DF93CDB762
:10034000DEB727970FB6F894DEBF0FBECDBF7C0196
:1003500003E0198288E661E070E041E09E012F5FD2
:100360003F4F0E94FE30182F882309F056C088E6C0
:1003700067E070E040E09E012F5F3F4F0E947230C7
:10038000182F882311F01C5948C089818F770E944B
:100390004501F70180838A818F770E944501F7012B
:1003A00081838B81082F86FF0FC08F710E944501CA
:1003B000F701828381E0808705FF02C011860AC0B1
:1003C00081E0F701818706C08F730E944501F70124
:1003D000828310868C8187700E944501F701878394
:1003E0008D818F730E944501F70183830E81802FD9
:1003F0008F710E944501F70184838F810E9445011E
:1004000090E08053984FF70196838583002344F44E
:100410008C599F4F9683858303C0015009F099CF73
:10042000812F27960FB6F894DEBF0FBECDBFDF91A8
:10043000CF911F910F91FF90EF9008950F931F930D
:10044000CF93DF93CDB7DEB728970FB6F894DEBF12
:100450000FBECDBF8C011982FC0180810E943E013C
:100460008A83F80181810E943E018B83F801828199
:100470000E943E018C83F8019085992339F08064B5
:100480008C839185992311F480628C83F801878194
:100490000E943E018D83F80183810E943E018E837C
:1004A000F80184810E943E018F83F8018581805D7F
:1004B0000E943E01888703E088E668E070E040E043
:1004C0009E012F5F3F4F0E94FE30882319F08C5908
:1004D000015091F728960FB6F894DEBF0FBECDBF3E
:1004E000DF91CF911F910F910895FF920F931F936A
:1004F000CF93DF9300D0CDB7DEB7F82E13E00EE038
:10050000098388E661E070E041E09E012F5F3F4F84
:100510000E94FE30882361F488E661E070E040E0EC
:100520009E012F5F3F4F0E947230882329F08C5923
:10053000115031F78823D1F48981FF2021F08064A4
:100540008B7F8A8302C08F7B8A838EE0898313E04E
:1005500088E662E070E040E09E012F5F3F4F0E941E
:10056000FE30882319F08C59115091F70F900F909D
:10057000DF91CF911F910F91FF900895FF920F93FC
:100580001F93CF93DF9300D0CDB7DEB7F82E13E0E3
:100590000EE0098388E661E070E041E09E012F5F94
:1005A0003F4F0E94FE30882361F488E661E070E0EE
:1005B00040E09E012F5F3F4F0E947230882329F058
:1005C0008C59115031F78823C9F4FF0CFF0CFF0C34
:1005D000FF0C8981877EF82AFA828EE0898313E0F6
:1005E00088E662E070E040E09E012F5F3F4F0E948E
:1005F000FE30882319F08C59115091F70F900F900D
:10060000DF91CF911F910F91FF900895FF920F936B
:100610001F93CF93DF9300D0CDB7DEB7F82E13E052
:100620000FE0098388E661E070E041E09E012F5F02
:100630003F4F0E94FE30882361F488E661E070E05D
:1006400040E09E012F5F3F4F0E947230882329F0C7
:100650008C59115031F78823C9F48981FF2019F092
:1006600088608A8302C0877F8A838FE0898313E052
:1006700088E662E070E040E09E012F5F3F4F0E94FD
:10068000FE30882319F08C59115091F70F900F907C
:10069000DF91CF911F910F91FF90089587E060E067
:1006A0000E94500188E060E00E94500189E060E013
:1006B0000E9450018AE060E00E9450010895CF93AB
:1006C000DF93C82FD62F883120F56C3310F54C33CB
:1006D00000F5842F0E943E01682F87E00E945001A0
:1006E0008D2F0E943E01682F88E00E9450018C2FC0
:1006F0000E943E01682F89E00E9450018AE061E873
:100700000E9450018FE00E946C018E7F6FE00E947A
:100710005001DF91CF910895FC01009729F082816B
:10072000618140810E945F030895EF92FF920F93D1
:100730001F93CF93DF937C018B01EA0187E00E9436
:100740006C018F770E944501888388E00E946C01CC
:100750008F770E944501F801808389E00E946C0137
:100760008F770E944501F7018083DF91CF911F9120
:100770000F91FF90EF9008950F931F93CF93DF9306
:1007800000D00F92CDB7DEB78C01CE010196BE012D
:100790006E5F7F4FAE014D5F5F4F0E949503898171
:1007A000F80182838A8181838B8180830F900F90EF
:1007B0000F90DF91CF911F910F910895CF93DF9309
:1007C0008FE00E946C01282F30E0E901C170D070E9
:1007D00080FF05C0682F6E7F8FE00E94500181E08E
:1007E000209709F480E0DF91CF910895CF93DF93B4
:1007F000EC0142305105B8F0FB01DC01CA01219146
:1008000031912D933D93029782309105C0F7CA0133
:1008100002978E7F0296FE01E80FF91F860F971F41
:100820004170507002C0CB01FE014115510531F0FD
:10083000DC018D91819341505040D9F7DF91CF91E8
:1008400008954115510531F0E82FF92F619341507A
:100850005040E1F70895009781F0FC0120812223A8
:1008600071F0268137812617370759F481810E945C
:10087000942980FF08C083E0089589E0089589E005
:10088000089589E0089580E008954F925F926F92F5
:100890007F928F929F92AF92BF92CF92DF92EF9210
:1008A000FF920F93CF935C012A013B01FC01C2A48C
:1008B000D3A4E4A4F5A4C416D506E606F70609F405
:1008C00054C084818823D1F10F2EFEE28F2E99240B
:1008D000F02D8A0C9B1C8181B401A701960101E0D7
:1008E0000E94F329882309F042C0F5011482428D49
:1008F000538D648D758D868D978DA0A1B1A1840FC8
:10090000951FA61FB71FC816D906EA06FB06B0F446
:10091000C381C23098F0F501828D938DA48DB58D81
:10092000C80ED91EEA1EFB1E8181B401A7019601E3
:1009300001E00E94F329C150C13069F7411451040C
:1009400061047104B1F0B501625D7F4FF5018181F1
:10095000A301920101E00E949B29882361F4F50123
:1009600042A653A664A675A607C080E005C081E034
:1009700003C080E001C081E0CF910F91FF90EF9024
:10098000DF90CF90BF90AF909F908F907F906F90AF
:100990005F904F9008950F93CF93DF93EC019A01EE
:1009A000AB01BC01625D7F4F898101E00E949B2900
:1009B000882359F5FE01E45DFD4F808191812AEA8B
:1009C0008535920721F5FE01EC59FF4F8081918119
:1009D000A281B381B070863421E4920724E5A20796
:1009E00020E0B207B1F0C058DF4F488159816A81D9
:1009F0007B81707081E0463491E4590794E5690782
:100A000090E0790739F480E005C083E003C082E01C
:100A100001C080E0DF91CF910F9108952F923F9216
:100A20004F925F926F927F928F929F92AF92BF92FE
:100A3000DF92EF92FF920F931F93CF93DF93CDB787
:100A4000DEB760970FB6F894DEBF0FBECDBFDC01F6
:100A5000042FED91FC911197808190E0C0978A302E
:100A6000910550F421812A3339F432961196FC9382
:100A7000EE93009709F02AC2E0908E01F0908F016A
:100A8000DB011196FC92EE92E114F10409F420C20C
:100A9000F7018081882361F081810E94942980FD83
:100AA00007C0002309F416C282FD16C280E035C2D9
:100AB000D7011C9211961C9280E00E94A32880FD11
:100AC0000DC2002311F082FD0BC2C70140E050E0CF
:100AD000BA010E94CB048130A1F4F701E051FE4F2E
:100AE0008081882309F4FEC1F701EC50FE4F80801D
:100AF0009180A280B380C701B501A4010E94CB04FC
:100B000003C0882499245401833009F4EDC188235B
:100B100009F0ECC1F70181AD92ADF2E080309F07A2
:100B200009F0E6C1F701EC5BFF4F808191812C0158
:100B300066247724411451046104710439F4F701E7
:100B4000EE5AFF4F4080518062807380D7015A96E1
:100B50004D925D926D927C925D97DE964C91DE9700
:100B600013964C931397842F8150823008F0C2C1A2
:100B7000DB96DC90DB971296DC921297DD2009F46D
:100B8000BBC18D2D90E09C012150304082239323E6
:100B9000009709F0B3C1F701FF9620803180F7017B
:100BA00031862086C1018F709070009709F0A8C12E
:100BB000EF5BFF4F808191818C0120E030E0098361
:100BC0001A832B833C83011511052105310569F436
:100BD0009701225B3F4FD9018D919D910D90BC9162
:100BE000A02D89839A83AB83BC83F70104AD15AD37
:100BF0000115110509F486C1242F30E040E050E0D2
:100C0000C301B2010E947D346D877E878F87988BE8
:100C1000980140E050E029873A874B875C87C10103
:100C2000929582958F7089279F708927A0E0B0E008
:100C3000820F931FA41FB51F0D851E852F85388930
:100C4000080F191F2A1F3B1F0D831E832F83388710
:100C500089819A81AB81BC8180179107A207B30774
:100C600008F452C1BC01CD01601B710B820B930BC8
:100C70002D2D30E040E050E00E94CF3489019A01F0
:100C8000D901C801011511052105310509F43EC13D
:100C9000063FEFE01E07E0E02E07E0E03E0718F415
:100CA000DD24D39403C0DD246894D1F8863FFFEFA0
:100CB0009F07F0E0AF07F0E0BF0708F046C1B901B9
:100CC000A8014E5F5F4F6F4F7F4FD70156964D93F0
:100CD0005D936D937C9359978D819E81AF81B8858B
:100CE000880D991DAA1DBB1DF70186A397A3A0A778
:100CF000B1A789859A85AB85BC85880D991DAA1DEC
:100D0000BB1D868F978FA0A3B1A3F3E0DF16C9F4B4
:100D10002114310409F0FCC0F701E65AFF4F80812D
:100D20009181A281B381F70182A393A3A4A3B5A368
:100D3000440F551F661F771F440F551F661F771FEF
:100D40002FC02114310409F4E5C00D851E852F85BF
:100D50003889800F911FA21FB31FF70182A393A3AD
:100D6000A4A3B5A3F2E0DF1629F4440F551F661FB4
:100D7000771F16C0DB01CA01880F991FAA1FBB1F6E
:100D8000840F951FA61FB71FB695A79597958795B2
:100D90004170507060707070480F591F6A1F7B1F40
:100DA000DB01CA0181509E4FAF4FBF4F072E79E044
:100DB000B695A795979587957A95D1F7702D481692
:100DC00059066A067B0608F4A7C08FEF9FEFDC0187
:100DD000F70186879787A08BB18B128613861486BE
:100DE0001586B3E0DB1609F05AC01582E25AFF4FB0
:100DF00080819181A0E0B0E0A5019401280F391F06
:100E00004A1F5B1FD70152962D933D934D935C93E0
:100E10005597B701625D7F4F11968C9101E00E945A
:100E20009B298823E1F5F701E45DFD4F80819181E5
:100E3000BAEA85359B0799F5F70186A597A5A0A97C
:100E4000B1A98235F2E59F07F1E6AF07F1E4BF07EC
:100E500031F5F701EE5EFD4F80819181A281B38172
:100E6000823702E7900701E4A00701E6B007B9F472
:100E7000F701E65EFD4F80819181A281B381F70188
:100E800082879387A487B587EA5EFD4F8081918131
:100E9000A281B381F70186879787A08BB18BD70199
:100EA000DC92809190019091910101969093910133
:100EB0008093900117969C938E931697F70112A634
:100EC00013A614A615A6148280E027C08BE025C0C7
:100ED0008CE023C080E021C08AE01FC083E01DC0F9
:100EE0008AE01BC08DE019C081E017C08DE015C0FD
:100EF0008DE013C08DE011C08DE00FC08DE00DC0FE
:100F00008DE00BC08DE009C08DE007C08DE005C00D
:100F10008DE003C08DE001C08DE060960FB6F894BF
:100F2000DEBF0FBECDBFDF91CF911F910F91FF901C
:100F3000EF90DF90BF90AF909F908F907F906F90D9
:100F40005F904F903F902F900895B901A8014E5F98
:100F50005F4F6F4F7F4FD70156964D935D936D93C3
:100F60007C9359978D819E81AF81B885880D991D9D
:100F7000AA1DBB1DF70186A397A3A0A7B1A78985CA
:100F80009A85AB85BC85880D991DAA1DBB1D868FD2
:100F9000978FA0A3B1A30F2EF3E0DF2EF02DB8CED4
:100FA0000F931F93CF93DF93EC01DB01CA010297EC
:100FB000A109B1094E895F89688D798D42505040F1
:100FC0006040704084179507A607B70798F42A81F8
:100FD00030E040E050E0BC01CD010E947D348B0147
:100FE0009C018EA19FA1A8A5B9A5080F191F2A1FB2
:100FF0003B1F03C000E010E09801602F712F822F8B
:10100000932FDF91CF911F910F910895BF92CF92AF
:10101000DF92EF92FF920F931F93CF93DF93EC0138
:101020006A017B01423051056105710508F4AAC0CF
:101030008E899F89A88DB98D481759076A077B0744
:1010400008F0A5C08881823009F45CC0833009F4BF
:1010500076C0813009F0A0C09A01369527958901A4
:10106000040F151FA801452F5527469560E070E035
:101070008E8D9F8DA8A1B9A1480F591F6A1F7B1F94
:10108000CE010E944504882309F08AC0F801F1705E
:10109000EC0FFD1FB6A40F5F1F4FA801452F55276A
:1010A000469560E070E08E8D9F8DA8A1B9A1480F94
:1010B000591F6A1F7B1FCE010E944504882309F037
:1010C00073C02B2D30E0F801F170EC0FFD1F96A5D9
:1010D00080E0822B932B21E0C222DD24C114D104B5
:1010E00051F0929582958F7089279F7089278C0186
:1010F00020E030E064C08C0120E030E01F70207000
:1011000030705DC0452F562F672F77278E8D9F8DAE
:10111000A8A1B9A1480F591F6A1F7B1FCE010E94C9
:101120004504882309F044C0F601EE0FFF1FF1705B
:10113000CE0FDF1F0EA51FA520E030E040C0689451
:1011400016F876956795579547951694D1F78E8D35
:101150009F8DA8A1B9A1480F591F6A1F7B1FCE01FF
:101160000E944504882341F5F601EE0FFF1FEE0FA4
:10117000FF1FF170CE0FDF1F0EA51FA528A939A9EB
:101180003F701DC001E010E020E030E018C001E039
:1011900010E020E030E013C00FEF1FEF98010FC008
:1011A0000FEF1FEF98010BC00FEF1FEF980107C063
:1011B0000FEF1FEF980103C00FEF1FEF9801602F93
:1011C000712F822F932FDF91CF911F910F91FF905D
:1011D000EF90DF90CF90BF900895EF92FF920F9322
:1011E0001F93CF93DF93EC018B017D836C834E8142
:1011F0005F8168857985413051056105710509F484
:101200009FC0E881F98186899789A08DB18D4817A3
:1012100059076A077B0708F095C04115510561051C
:10122000710569F58081833049F442A153A164A11D
:1012300075A1411551056105710509F51A861B86D1
:101240001C861D86808591850817190708F07CC0CB
:10125000C801929582958F7089279F708927AC016C
:1012600060E070E082A193A1A4A1B5A1840F951FB5
:10127000A61FB71F8E879F87A88BB98B4EC0828110
:1012800090E07C01EE0CFF1CEE0CFF1CEE0CFF1C32
:10129000EE0CFF1C0E151F0528F1888199810E9414
:1012A0000608AB01BC014F3F8FEF58078FEF68076F
:1012B0008FEF780709F44AC0423051056105710586
:1012C00008F446C0E881F98186899789A08DB18D9F
:1012D000481759076A077B07E8F50E191F090E150D
:1012E0001F05D8F64A875B876C877D87888199813F
:1012F0000E94D007AB01BC01C801929582958F7006
:1013000089279F708927A0E0B0E0840F951FA61F52
:10131000B71F8E879F87A88BB98B888199818E96FE
:101320000F701070000F111F02951295107F10277B
:10133000007F1027800F911F9B8B8A8B80E00BC052
:1013400082E009C082E007C082E005C081E003C0FE
:1013500082E001C082E0DF91CF911F910F91FF9059
:10136000EF9008958F929F92AF92BF92CF92DF92AB
:10137000EF92FF920F931F93CF93DF93EC016A01DB
:101380007B0148015901423051056105710508F49E
:10139000C8C08E899F89A88DB98D481759076A07DB
:1013A0007B0708F0C0C08881823009F46AC08330AE
:1013B00009F482C0813009F0B0C09A0136952795B2
:1013C0008901040F151FA801452F5527469560E098
:1013D00070E08E8D9F8DA8A1B9A1480F591F6A1F7B
:1013E0007B1FCE010E944504882309F097C0C801E5
:1013F0009170E1E0CE22DD24C114D10451F0FE0150
:10140000E80FF91F26A52F70382D3295307F232B3A
:1014100001C0282DFE01E80FF91F26A70F5F1F4FFF
:1014200081E08C83A801452F5527469560E070E048
:101430008E8D9F8DA8A1B9A1480F591F6A1F7B1FD0
:10144000CE010E944504882309F068C01170C114C0
:10145000D10449F0689413F8B694A79497948794AC
:101460001694D1F709C0FE01E00FF11F26A5207FD9
:10147000992D9F70822E892A0C0F1D1FF80186A6B8
:101480004DC0452F562F672F77278E8D9F8DA8A192
:10149000B9A1480F591F6A1F7B1FCE010E94450446
:1014A0008823E1F5F601EE0FFF1FF170BE96EC0FF9
:1014B000FD1F9182808232C0689416F876956795F8
:1014C000579547951694D1F78E8D9F8DA8A1B9A1F8
:1014D000480F591F6A1F7B1FCE010E9445048823B5
:1014E000E9F49601220F331F220F331F3170225D62
:1014F0003F4FFE01E20FF31F4081518162817381F2
:10150000407050706070707F482959296A297B2982
:10151000408351836283738301C082E091E09C83A6
:1015200003C082E001C082E0DF91CF911F910F9153
:10153000FF90EF90DF90CF90BF90AF909F908F90F3
:1015400008952F923F924F925F926F927F928F9267
:101550009F92AF92BF92CF92DF92EF92FF920F9342
:101560001F93CF93DF9300D000D0CDB7DEB71C011F
:1015700049835A836B837C8341155105610571054D
:10158000C1F4DC011A968D909D90AD90BC901D9792
:1015900081149104A104B10451F156968D919D914D
:1015A0000D90BC91A02D88169906AA06BB0620F5C1
:1015B00027C049815A816B817C810E9406088B017A
:1015C0009C01623071058105910508F4ADC0F101FF
:1015D00086899789A08DB18D081719072A073B07BF
:1015E00008F4B6C089809A80AB80BC8009C088248A
:1015F00099245401839404C0882499245401839429
:1016000075016401442455243201689441F808941A
:10161000C11CD11CE11CF11CF10186899789A08DA8
:10162000B18DC816D906EA06FB0648F0F2E08F161F
:101630009104A104B10408F47CC073016201C101EA
:10164000B701A6010E9406088B019C016115710576
:1016500081059105A9F00F3F8FEF18078FEF28073D
:101660008FEF380709F474C00130110521053105E9
:1016700009F46EC0C814D904EA04FB0441F65DC045
:101680008C2C4D2CBE2CAF2CC1014C2D5D2D6E2D04
:101690007F2D0FEF1FEF2FEF3FE00E94B20988234D
:1016A000E9F589819A81AB81BC810097A105B105DB
:1016B00069F0C10149815A816B817C810C2D1D2DFE
:1016C0002E2D3F2D0E94B209882341F5D1011A9693
:1016D0008C921A971B964C921B971C96BC921C9747
:1016E0001D96AC921D971E968D919D910D90BC916B
:1016F000A02D8F3FEFEF9E07EFEFAE07EFEFBE0796
:1017000001F10197A109B109F10186879787A08BA3
:10171000B18B81E08583970186011AC08130A1F4E5
:101720000FEF1FEF980114C001E010E020E030E05F
:101730000FC000E010E098010BC000E010E098013D
:1017400007C09701860104C001E010E020E030E00E
:10175000602F712F822F932F0F900F900F900F906B
:10176000DF91CF911F910F91FF90EF90DF90CF907D
:10177000BF90AF909F908F907F906F905F904F90B1
:101780003F902F9008958F929F92AF92BF92CF92E9
:10179000DF92EF92FF920F931F93CF93DF938C0111
:1017A000EB01DC011496ED90FC9015970894E11C78
:1017B000F11CE114F10409F409C11E968D919D916B
:1017C0000D90BC91A02D0097A105B10509F400C1B1
:1017D0000F2EFFE0CF2EDD24F02DCE20DF20C11410
:1017E000D10409F0D8C00196A11DB11DF80186876A
:1017F0009787A08BB18B428553856485758541158C
:1018000051056105710551F40190F081E02D80854D
:101810009185E816F90608F0DDC0BDC00190F081A1
:10182000E02D828190E001979701329522952F70EB
:1018300023273F70232782239323009709F0ABC00F
:10184000CF010E9406084B015C01623071058105E1
:10185000910508F4C1C06F3FEFEF7E07EFEF8E07F1
:10186000EFEF9E0709F4BAC0D801ED91FC9186898B
:101870009789A08DB18D88169906AA06BB0608F433
:1018800078C0209709F4ACC0D8011A964D915D91AB
:101890006D917C911D97CF010E94A10A4B015C01C3
:1018A000611571058105910509F49CC061307105D0
:1018B0008105910509F498C06F3FEFEF7E07EFEFC8
:1018C0008E07EFEF9E0709F491C0D8018D919C918E
:1018D00040E050E0BA010E944504882309F088C026
:1018E000F801808191818E9660E070E040E052E0E6
:1018F0000E942104D801CD91DC91CE01B501A40153
:101900000E94D007DC01CB018AA79BA7ACA7BDA78B
:10191000C0E0D1E01BC0D483F8018081918140E018
:1019200050E0BA010E944504882309F063C0D80141
:10193000ED91FC9182A593A5A4A5B5A50196A11D45
:10194000B11D82A793A7A4A7B5A7CF5FD801ED913A
:10195000FC9111978281C817F0F282A593A5A4A5E6
:10196000B5A58C1B9109A109B10982A793A7A4A7CA
:10197000B5A7F80182869386A486B5868081918179
:10198000B501A4010E94D007DC01CB01F8018687D4
:101990009787A08BB18BD8011596FC92EE92149785
:1019A0008D919C9111978E96CC0CDD1CCC0CDD1C7E
:1019B000CC0CDD1CCC0CDD1CCC0CDD1C8C0D9D1D61
:1019C00053969C938E93529780E015C084E013C089
:1019D00084E011C084E00FC082E00DC081E00BC044
:1019E00084E009C087E007C082E005C081E003C051
:1019F00081E001C081E0DF91CF911F910F91FF90B5
:101A0000EF90DF90CF90BF90AF909F908F90089510
:101A10002F923F924F925F926F927F928F929F92FE
:101A2000AF92BF92CF92DF92EF92FF920F931F93EC
:101A3000CF93DF9300D000D000D0CDB7DEB78C01BC
:101A40007B01DB018C918F3211F08C3519F40894F5
:101A5000E11CF11CF8011682178210861186D7014D
:101A60008C91803248F4C80160E070E00E94ED087B
:101A7000F801138A128A35C10F2EFBE04F2E552430
:101A8000F02DCC24DD2466247724689463F8882420
:101A900069827A824B825C820F2EF1E02F2EF1E078
:101AA0003F2EF02DF7019F0181918F32E1F38C35AC
:101AB000D1F33E832D83D8015496AD90BC905597B9
:101AC000C50160E270E0A2010E942104B601A601F6
:101AD000D301982CED81FE81E40FF51F20817A015E
:101AE0000894E11CF11C213208F468C02F3209F47B
:101AF00011C12C3509F40EC12E3219F06A177B077B
:101B000078F0A830B10509F0DDC02E3209F0DCC054
:101B1000990C990CA70169817A81AB81BC81DACFDC
:101B2000222314F4F3E09F2A822F81588F3118F07A
:101B30008F558D31E8F4ED81FE81EE0DFF1D308172
:101B4000832F80548F3320F080548D3708F0BEC02F
:101B5000CD0101976817790708F0BAC04E5F5F4F53
:101B6000F501E60FF71F208331836E5F7F4FB2CF01
:101B7000422F50E04232510509F4ACC0F10181918D
:101B8000882331F090E048175907C9F786E0A9C0CB
:101B9000822F81548A3118F4F2E09F2A07C0822FE5
:101BA00081568A3118F481E0982A2052F501E60F17
:101BB000F71F20836F5F7F4FA7018CCFED81FE81E0
:101BC000EE0EFF1E892D44E06115710509F484C0F5
:101BD000F5019081953E11F495E09083A830B10510
:101BE00019F4982E990C990C892D90E09C01237082
:101BF00030702130310509F440618C709070843070
:101C0000910509F44860D5011B964C93C801B601B3
:101C10000E94ED08882389F5F8014685578560897B
:101C20007189808191810E944504882331F5D80112
:101C300052964D915C915397FA019081992309F442
:101C400079C0938593FD13C054966D917C915597FF
:101C50009A01255F3F4FDB015A01482F04C0E2176C
:101C6000F30709F45EC091918D919817C1F3C801F3
:101C7000B6010E94C30B882379F2D8015496ED91E6
:101C8000FC9155979385843061F592FF27C084E0DD
:101C900028C0F901838584FF23C084899589A0E049
:101CA000B0E0BC0155274427828D938DA0E0B0E0C1
:101CB000842B952BA62BB72BF80186839783A087BF
:101CC000B187F0CE86E00DC086E00BC086E009C08B
:101CD00086E007C086E005C086E003C085E001C05D
:101CE00085E026960FB6F894DEBF0FBECDBFDF911C
:101CF000CF911F910F91FF90EF90DF90CF90BF9009
:101D0000AF909F908F907F906F905F904F903F909B
:101D10002F9008958D819E81E80EF91E892D482D02
:101D200053CF9501842FDB011B969C911B9792FF4B
:101D3000B0CFD7CFD8015496ED91FC9155979385AC
:101D4000A4CF882391F4E0918E01F0918F01309718
:101D500009F010826115710511F0FB01108270937A
:101D60008F0160938E0180E008958BE008952F929B
:101D70003F924F925F926F927F928F929F92AF921B
:101D8000BF92CF92DF92EF92FF920F931F93CF9368
:101D9000DF93CDB7DEB7AC970FB6F894DEBF0FBEBA
:101DA000CDBF6C017CA36BA3DC011D921C920F2E96
:101DB000FFE1FF2EF02DF4224E71CE018396BE017D
:101DC0006F5F7F4F0E940E05182FCE0147969E8BA6
:101DD0008D8B112309F0A8C16BA17CA1CE010196C6
:101DE0000E94080D182FAB88BC88882321F4A11409
:101DF000B10409F416E02F2D30E0C9018C71907008
:101E0000009709F415C1112309F446C0143009F0F4
:101E100071C1CE01019660E070E00E94ED08182FBC
:101E2000882391F54F85588969897A8989819A81B2
:101E30000E944504182F882339F5EB89FC8980819D
:101E4000853E09F474C1882309F471C1CE0101965D
:101E500061E070E00E94C30B182F882319F314C0AF
:101E6000AB88BC88C50160E070E040E250E00E94B1
:101E700021046D897E89C5014BE050E00E94F60384
:101E8000E981FA8181E08483AB88BC88112309F061
:101E900031C1B8E0FB2A07C0F5018385817109F0E3
:101EA00053C1F2FC53C1F3FE5FC10E94B61CDC01BA
:101EB000CB01F50186879787A08BB18B1386148E93
:101EC000158E168E178E84899589A0E0B0E0BC012E
:101ED00055274427828D938DA0E0B0E08A019B01B5
:101EE000082B192B2A2B3B2B0DA31EA32FA338A79E
:101EF000138E128E158A148A89809A8081E0D4010B
:101F000014968C931497011511052105310509F4D8
:101F10002BC19A960D911D912D913C919D9709A7EA
:101F20001AA72BA73CA70DA11EA12FA138A50230EF
:101F300011052105310508F40BC156968D919D912F
:101F40000D90BC91A02D081719072A073B0708F030
:101F500001C11DA10EA1EFA038A42224239404C026
:101F6000142D052DE62C372CC401412F502F6E2D3A
:101F7000732D0E9406082B013C0161157105810536
:101F80009105F1F1613071058105910509F4E4C015
:101F90006F3F3FEF73073FEF83073FEF930709F46E
:101FA000DDC0C401412F502F6E2D732D00E010E0D5
:101FB00098010E94B209182F882309F09BC0F401F0
:101FC00086859785A089B1898F3FFFEF9F07FFEF37
:101FD000AF07FFEFBF0749F00196A11DB11DF40146
:101FE00086879787A08BB18B2582F4018689978994
:101FF000A08DB18D481659066A067B0608F4B0CF4D
:10200000E981FA818DA19EA1AFA1B8A50197A1098F
:10201000B10982879387A487B587CF0149A55AA5BF
:102020006BA57CA50E944504182F882381F062C00F
:10203000112309F05FC0D5011B968C911B9784FD7D
:102040008FC0F1FE91C080FD8DC08EC010E0B0E267
:10205000FB2AE981FA8142A553A564A575A5D6019D
:102060005A964D935D936D937C935D975F96BC926A
:10207000AE925E971496FC92D50154964D915C9168
:10208000559760E070E0BA01552744275A968D9124
:102090009C915B97A0E0B0E0482B592B6A2B7B2BDF
:1020A000D6011E964D935D936D937C935197D50108
:1020B0005C964D915D916D917C915F97D6011A96DA
:1020C0004D935D936D937C931D9716961D921D9273
:1020D0001D921C92199756961D921D921D921C924C
:1020E00059971196FC93EE938681978113969C9352
:1020F0008E931297812FAC960FB6F894DEBF0FBE69
:10210000CDBFDF91CF911F910F91FF90EF90DF90A6
:10211000CF90BF90AF909F908F907F906F905F9087
:102120004F903F902F900895AB88BC8864CE4F8528
:10213000588969897A8989819A810E944504182F72
:10214000882309F0A1CE8CCE17E0D4CF18E0D2CFEF
:1021500012E0D0CF12E0CECF12E0CCCF11E0CACF48
:1021600014E0C8CF17E0C6CFF3FC70CF10E071CFFA
:102170002F923F924F925F926F927F928F929F9297
:10218000BF92CF92DF92EF92FF920F931F93CF9364
:10219000DF9300D000D0CDB7DEB79C838B83C62EF3
:1021A000172F4A011901D9011D921C92FC0162816D
:1021B0007381808191810E942B04B82E882309F0BD
:1021C0007BC1AB81BC8114968C91149788230CF44D
:1021D0006BC180FF6DC11A968D919D910D90BC9140
:1021E000A02DEB81FC814681578160857185841B20
:1021F000950BA60BB70BA40160E070E08417950760
:10220000A607B70708F44C018114910409F454C1DE
:10221000C9821A83AB81BC8116964D915D916D91F7
:102220007C911997DB01CA019170A070B070009782
:10223000A105B10509F0DAC0AB81BC81ED91FC913B
:10224000DB01CA01072E79E0B695A795979587958A
:102250007A95D1F7702D12811150182309F041C0E1
:10226000411551056105710539F4EB81FC818685C5
:102270009785A089B1890DC0AB81BC8152964D91E3
:102280005D916D917C915597CF010E940608DC010C
:10229000CB0182309105A105B10548F4EB81FC81A9
:1022A000848180688483BB246894B1F805C18F3F22
:1022B000FFEF9F07FFEFAF07FFEFBF0761F4AB81B1
:1022C000BC8114968C911497806814968C93149703
:1022D000BB24B394F1C0EB81FC81828B938BA48BE4
:1022E000B58BAB81BC816D907C90119752964D91CE
:1022F0005D916D917C915597C3010E94D007DC01DF
:10230000CB010097A105B10549F4EB81FC818481E3
:1023100080688483BB246894B1F8CEC06C017D01D1
:10232000C10ED11CE11CF11C2401452C55244694FE
:102330004114510409F452C0D30112964C911297E2
:10234000C201810F911D242F30E02817390720F496
:10235000C9012C01411A5108F301818169817A81F7
:10236000A7019601042D0E949B29882361F0AB816F
:10237000BC8114968C911497806814968C93149752
:10238000BB24B39499C0AB81BC81ED91FC911197B2
:1023900084818823F1F082A593A5A4A5B5A58C1905
:1023A0009D09AE09BF09A20160E070E0841795079E
:1023B000A607B70770F4982F8827990FBF01625DB1
:1023C0007F4FE981FA818E0F9F1F40E052E00E940B
:1023D000F6036201DC2CCC24DD0C41C0AB81BC8156
:1023E0005696CD92DD92ED92FC925997EB81FC814D
:1023F000C680D780E084F18446895789608D718DCD
:10240000808191810E944504882361F0AB81BC8169
:1024100014968C911497806814968C931497BB240F
:10242000B3944AC0C6019170E0E0F2E0E81BF90BFA
:102430006401E815F90508F46F01AB81BC811696BB
:102440006D917C9117977170CB018E966D917C91F7
:10245000680F791F89819A81A6010E94F603E9819C
:10246000FA81EC0DFD1DFA83E983A60160E070E0BE
:10247000EB81FC8186819781A085B185840F951FB2
:10248000A61FB71F86839783A087B187D1018D913F
:102490009C9111978C0D9D1D11969C938E938C1879
:1024A0009D0809F0B7CE08C0BB246894B1F804C0F9
:1024B0000F2EF7E0BF2EF02D8B2D0F900F900F9069
:1024C0000F90DF91CF911F910F91FF90EF90DF90D0
:1024D000CF90BF909F908F907F906F905F904F9024
:1024E0003F902F9008952F923F924F925F926F925C
:1024F0007F928F929F92AF92BF92CF92DF92EF9294
:10250000FF920F931F93CF93DF9300D000D0CDB7EE
:10251000DEB79C838B83C62E172F4A011901D90180
:102520001D921C92FC0162817381808191810E94C5
:102530002B04B82E882309F0FCC1AB81BC81149612
:102540008C91149788230CF4ECC181FFEEC11A968C
:102550004D915D916D917C911D97C401A0E0B0E01B
:10256000840F951FA61FB71F84179507A607B707E7
:1025700008F4BAC18114910409F4B6C1C9821A835E
:10258000AA24A394EB81FC814681578160857185E3
:10259000DB01CA019170A070B0700097A105B10570
:1025A00009F03FC120813181DB01CA01072E79E0AA
:1025B000B695A795979587957A95D1F7702DF901DE
:1025C00012811150182309F058C0411551056105B9
:1025D0007105C9F4EB81FC8186859785A089B18955
:1025E0000097A105B10509F5C90140E050E0BA0125
:1025F0000E94A10ADC01CB01EB81FC8186879787D1
:10260000A08BB18B0DC0AB81BC8152964D915D9179
:102610006D917C915597C9010E94A10ADC01CB0103
:102620000097A105B10509F45FC181309105A105AD
:10263000B10549F4EB81FC81848180688483BB24EB
:102640006894B1F876C18F3FFFEF9F07FFEFAF07A8
:10265000FFEFBF0761F4AB81BC8114968C91149796
:10266000806814968C931497BB24B39462C1EB8159
:10267000FC81828B938BA48BB58BAB81BC812D911C
:102680003C91F90182A593A5A4A5B5A5EB81FC8198
:1026900046895789608D718D84179507A607B707FE
:1026A000A1F4C90140E050E0BA010E94450488232A
:1026B00061F0AB81BC8114968C911497806814965C
:1026C0008C931497BB24B39434C1EB81FC8140807C
:1026D00051804289538964897589C2010E94D0075B
:1026E000DC01CB010097A105B10569F4AB81BC8188
:1026F00014968C911497806814968C931497BB242D
:102700006894B1F816C16C017D01C10ED11CE11CA9
:10271000F11C3401672C772466946114710409F468
:102720004FC0F2014281C301810F911D242F30E07F
:102730002817390720F4C9013C01611A7108D20138
:1027400011968C9169817A81A7019601062D0E94CC
:10275000F329882341F0EB81FC81848180688483A4
:10276000BB24B394E6C0AB81BC81ED91FC9182A502
:1027700093A5A4A5B5A58C199D09AE09BF09A30110
:1027800060E070E084179507A607B707A0F4BC01C6
:10279000762F6627770F29813A81620F731FCF0149
:1027A0008E9640E052E00E94F603AB81BC81ED9131
:1027B000FC91119714826301DC2CCC24DD0C70C0D9
:1027C000EB81FC8186819781A085B1854285538507
:1027D0006485758584179507A607B707E0F0C201E1
:1027E00040E050E0BA010E944504882361F0AB81CB
:1027F000BC8114968C911497806814968C931497CE
:10280000BB24B39496C0AB81BC81ED91FC91C2A670
:10281000D3A6E4A6F5A6EB81FC81C68AD78AE08E12
:10282000F18EAB81BC811696CD90DD90ED90FC9041
:10283000199756964D915D916D917C9159978D9117
:102840009C910E944504882341F0EB81FC818481A6
:1028500080688483BB24B3946CC0C601917020E06F
:1028600032E0281B390B64012815390508F4690189
:10287000AB81BC8116968D919C91179791709C01AC
:10288000225D3F4F8D919C91820F931F69817A81C8
:10289000A6010E94F603AB81BC81ED91FC91A4825C
:1028A000E981FA81EC0DFD1DFA83E983A60160E060
:1028B00070E0EB81FC8186819781A085B185840FD2
:1028C000951FA61FB71F86839783A087B187D10165
:1028D0008D919C9111978C0D9D1D11969C938E93BB
:1028E0008C189D0809F04ECEEB81FC818681978182
:1028F000A085B1854285538564857585481759073C
:102900006A077B0720F482879387A487B587AB810A
:10291000BC8114968C911497806214968C931497B2
:1029200008C0BB246894B1F804C00F2EF7E0BF2E96
:10293000F02D8B2D0F900F900F900F90DF91CF9176
:102940001F910F91FF90EF90DF90CF90BF90AF90CD
:102950009F908F907F906F905F904F903F902F90BF
:102960000895EF92FF920F931F93CF93DF938C0103
:10297000DC0112966D917C9113978D919C910E9430
:102980002B04C82F882309F0B2C0F801848185FF89
:10299000AEC0428D538D648D758D808191810E9472
:1029A0004504C82F882309F0A2C0D8015E96CD91B6
:1029B000DC915F978B8580628B871A968D919D91B4
:1029C0000D90BC91A02D8C8F9D8FAE8FBF8FF80185
:1029D000868597859B8F8A8F86859785A089B18903
:1029E000BD8BAC8B0E94B61CDC01CB018E8B9F8B08
:1029F000A88FB98FD80114968C9114978F7D149657
:102A00008C931497ED91FC91119781E08483ED9064
:102A1000FC90C70140E050E0BA010E944504C82F75
:102A2000882309F064C0F7018081833009F055C024
:102A30008581882309F451C012A613A614A615A6F1
:102A40008701025D1F4FC80160E070E040E052E086
:102A50000E942104F701E45DFD4F85E59AEA918328
:102A6000808382E592E5A1E6B1E4F70186A797A706
:102A7000A0ABB1ABEE5EFD4F82E792E7A1E4B1E619
:102A800080839183A283B38397012A5E3D4FF70130
:102A900086859785A089B189F90180839183A28376
:102AA000B3839701265E3D4FF70182859385A48508
:102AB000B585F90180839183A283B383D7015296B0
:102AC0002D913D914D915C91559711968C91B80146
:102AD00001E00E94F329F7011582D70111968C912C
:102AE00063E040E050E00E946D2A8111C1E08C2F2C
:102AF000DF91CF911F910F91FF90EF900895CF93A9
:102B0000DF93EC010E94B114882311F4198218821A
:102B1000DF91CF9108952F923F924F925F926F92E3
:102B20007F928F929F92AF92BF92CF92DF92EF925D
:102B3000FF921F93CF93DF9300D000D000D0CDB78A
:102B4000DEB79E838D836A017B01DC0112966D9155
:102B50007C9113978D919C910E942B04182F8823B0
:102B600009F0A5C1ED81FE81248122230CF49EC1D0
:102B700082859385A485B5858C159D05AE05BF0519
:102B800020F421FD02C06C017D01AD81BE8116964D
:102B90004D915D916D917C911997FD01168217827F
:102BA00010861186C114D104E104F10409F47FC137
:102BB00020803180D10112968C9190E0A0E0B0E0AD
:102BC0004C015D01072E79E0880C991CAA1CBB1CE6
:102BD0007A95D1F7702D4115510561057105F1F117
:102BE0002A013B0108944108510861087108C70196
:102BF000B6016150704080409040A50194010E9450
:102C0000CF3429833A834B835C83C301B201A5018E
:102C100094010E94CF3489819A81AB81BC81821753
:102C20009307A407B507D0F088279927DC018819F6
:102C30009909AA09BB0984219521A621B721ED8113
:102C4000FE8186839783A087B187C81AD90AEA0ACA
:102C5000FB0A428953896489758942C0AD81BE816E
:102C60001E964D915D916D917C9151974115510545
:102C70006105710569F5C10140E050E0BA010E94AB
:102C8000A10AAB01BC01413051056105710539F460
:102C9000ED81FE8184818068848312E008C14F3F0A
:102CA000FFEF5F07FFEF6F07FFEF7F0759F4AD817D
:102CB000BE8114968C911497806814968C93149707
:102CC00011E0F5C0ED81FE8146875787608B718BDF
:102CD000AD81BE8152964D935D936D937C935597D4
:102CE000411551056105710509F4A8C08C149D04B6
:102CF000AE04BF0408F068C04D805E80F20184819C
:102D000081FF0CC0808191810E94A10AAB01BC01AE
:102D1000411551056105710539F452C080819181D9
:102D20000E940608AB01BC014F3FBFEF5B07BFEF3E
:102D30006B07BFEF7B0741F45E824D82F201848115
:102D40008068848311E0B3C042305105610571058C
:102D500060F0D201ED91FC9186899789A08DB18DAB
:102D6000481759076A077B0740F05E824D82F201DF
:102D700084818068848312E09AC0D20152964D9378
:102D80005D936D937C93559716968D919D910D90C3
:102D9000BC91A02D880D991DAA1DBB1DF201868333
:102DA0009783A087B187C818D908EA08FB088C1454
:102DB0009D04AE04BF0408F4A1CF5E824D8204C01E
:102DC0005E824D8275016401ED81FE81868197816D
:102DD000A085B1858C0D9D1DAE1DBF1D868397837B
:102DE000A087B187D701C6019170A070B07000971D
:102DF000A105B10539F1808191810E94D007DC01E4
:102E0000CB010097A105B10559F4AD81BE8114969F
:102E10008C911497806814968C93149712E047C095
:102E20000B2EB9E0F694E794D794C794BA95D1F7EE
:102E3000B02DC80ED91EEA1EFB1E07C0CC24DD240F
:102E4000760103C0CC24DD247601ED81FE818681EC
:102E50009781A085B1859170A070B0700097A10591
:102E6000B10569F086899789A08DB18D8C159D0576
:102E7000AE05BF0521F0C68AD78AE08EF18EED81BE
:102E8000FE8186819781A085B185428553856485C1
:102E90007585481759076A077B0748F48287938727
:102EA000A487B58784818062848301C012E0812F6A
:102EB00026960FB6F894DEBF0FBECDBFDF91CF913F
:102EC0001F91FF90EF90DF90CF90BF90AF909F90B9
:102ED0008F907F906F905F904F903F902F900895CC
:102EE0000F931F93CF93DF93CDB7DEB72E970FB617
:102EF000F894DEBF0FBECDBF8C017E876D87CE01FB
:102F00000D96B80140E00E940E05882309F041C0EB
:102F1000CE010196D80155969C938E9354976D855A
:102F20007E85C8010E94080D882369F5D801529654
:102F3000ED91FC9153973097B9F0838584FF26C0BB
:102F40004489558960E070E0BA0155274427828D95
:102F5000938DA0E0B0E0482B592B6A2B7B2BF80116
:102F60004683578360877187D801ED91FC91119753
:102F70008681978113969C938E931297C80160E087
:102F800070E00E94ED08843019F003C085E001C0B4
:102F900085E02E960FB6F894DEBF0FBECDBFDF9151
:102FA000CF911F910F910895CF92DF92FF920F93CF
:102FB0001F93CF93DF93CDB7DEB72C970FB6F8945E
:102FC000DEBF0FBECDBF8C016B01DC0112966D918F
:102FD0007C9113978D919C910E942B04F82E88234D
:102FE00009F0B2C0C114D10439F4C80160E070E046
:102FF0000E94ED08F82EA8C0CE010196F801958B2D
:10300000848B84E01EC0D8018D919C910E94450460
:10301000882319F5D8015296ED91FC915397908130
:10302000992309F4A0C0953E29F09E3219F09385AA
:1030300093FF1DC0C80160E070E00E94C30B8823AD
:1030400061F4F801468557856089718941155105FC
:1030500061057105C1F6882351F0D8011E961D92B5
:103060001D921D921C925197843009F493C08823BD
:1030700009F067C09601275F3F4FF8018685978565
:10308000A089B1890097A105B10509F449C0428919
:103090005389DA016C91603291F01196F90180E068
:1030A00090E075EE03C06D91603249F0653009F42F
:1030B000672F61939F01019688309105A1F7FA016E
:1030C0008085803281F08EE2D9018C9380858032B8
:1030D00009F04BC02F5F3F4F06C09C0104C0F901AF
:1030E00063832C5F3F4FDA011B968C911B97F6018F
:1030F00080875C968D919D910D90BC91A02D8083D1
:103100009183A283B383DA0158968D919C9159974C
:103110009583848356968D919C9157979783868348
:10312000F9011082C80160E070E00E94C30B843096
:1031300051F4D8011E961D921D921D921C9251971A
:1031400003C0F82E01C0F82E8F2D2C960FB6F894E0
:10315000DEBF0FBECDBFDF91CF911F910F91FF90CA
:10316000DF90CF90089584E078CFF9018183C90181
:103170000296DA0119966C911997603209F4ADCF75
:103180006283C90103961A966C911A97603209F00E
:10319000A6CFA3CF9601275F3F4FC2CF6F927F92FA
:1031A0008F929F92AF92BF92CF92DF92EF92FF9257
:1031B0000F931F93CF93DF9300D000D0CDB7DEB72E
:1031C0003C014A018C01CC24DD245B010894A10858
:1031D000B1081BC0C401BE016F5F7F4F41E050E0EA
:1031E0009E012D5F3F4F0E94B8108B819C818130E2
:1031F000910579F48981F70180830F5F1F4F780172
:103200000894C11CD11C8A3021F07801CA14DB0457
:103210000CF3F7011082C114D10411F46624772451
:10322000862D972D0F900F900F900F90DF91CF91DB
:103230001F910F91FF90EF90DF90CF90BF90AF90D4
:103240009F908F907F906F900895CF93DF9300D0E1
:1032500000D00F92CDB7DEB78B83CB01BE016D5F7F
:103260007F4F41E050E09E012F5F3F4F0E9473125D
:1032700089819A818130910519F481E090E002C042
:103280008FEF9FEF0F900F900F900F900F90DF91A7
:10329000CF910895EF92FF920F931F93CF93DF93F7
:1032A000FC017B018081882399F08F010F5F1F4F04
:1032B000C0E0D0E0B7010E9425192FEF8F3F9207A1
:1032C00051F02196F80181918F01882399F705C06B
:1032D000C0E0D0E002C0CFEFDFEF8C2F9D2FDF9159
:1032E000CF911F910F91FF90EF9008952F923F92F1
:1032F0004F925F926F927F928F929F92AF92BF9206
:10330000CF92DF92EF92FF920F931F93CF93DF93B1
:10331000CDB7DEB762970FB6F894DEBF0FBECDBF54
:103320002FA038A49E01255D3F4F3A8B298BE9A53C
:10333000FAA58081882309F406C28F010F5F1F4F11
:1033400020E030E0CC24DD24A9010AC0C40ED51E43
:1033500009A51AA5F80181918F01882309F4CDC12F
:10336000853251F0B1010E942519FFEF8F3F9F0771
:1033700009F0E1C19C01C4C1E9A5FAA5118110338E
:1033800031F412813396FAA7E9A701E011C01D328A
:1033900041F029A53AA52E5F3F4F3AA729A700E0A3
:1033A00007C0E9A5FAA512813396FAA7E9A702E0BA
:1033B000812F80538A30E0F4E9A5FAA58824992466
:1033C000C4019C01220F331F880F991F880F991F7A
:1033D000880F991F820F931F810F911DC097119124
:1033E000612F60536A3068F34C01FAA7E9A702C065
:1033F000882499241C3611F01C3431F40460E9A5AA
:10340000FAA51191FAA7E9A7112309F471C1812F37
:1034100081568A3118F4212F205201C0212F2F34D8
:1034200009F492C0203550F4233409F46CC02434DC
:1034300009F477C0223409F07DC082C0253509F433
:1034400070C0283509F472C0233509F073C0E989CA
:10345000FA899F012E5F3F4F3A8B298B60807180E4
:10346000F3018081882351F03196EE24FF240894E3
:10347000E11CF11C81918823D1F702C0EE24FF24C6
:1034800001FD1CC027010894411C511CE814F904DB
:10349000C0F48701AA24BB2480E2B1010E9425194F
:1034A000A80EB91E0F5F1F4F08151905A8F3C40118
:1034B0008E199F097C01E40CF51C06C0AA24BB24CC
:1034C00003C07201AA24BB24C301B1010E944A199E
:1034D000AC018C010A0D1B1DE814F90468F480E2AC
:1034E000B1010E942519080F191F0894E11CF11C55
:1034F000E814F904A0F3AC01FFEF4F3F5F0709F0B8
:10350000EFC09A01FDC009891A890E5F1F4FE98932
:10351000FA898081B1010E942519AC011A8B098BAF
:10352000E0C00F2EFAE04F2EF02D11C04424689415
:1035300044F80DC0812FB1010E942519AC01D1C002
:103540004424689441F803C04424689443F802FF7B
:103550000DC0E989FA89CF0104969A8B898B808105
:103560009181A281B381243419F518C0243461F407
:10357000E989FA8980819181AA2797FDA095BA2FC0
:103580003296FA8BE98B0AC0E989FA8980819181A8
:10359000A0E0B0E03296FA8BE98B0AC0BB2344F47A
:1035A000B095A095909581959F4FAF4FBF4F086004
:1035B0006E010894C11CD11CAA24BB245524662486
:1035C000772401C05701BC01CD01A30192010E94E3
:1035D000CF34822F932FA42FB52F6A3030F01837B5
:1035E00011F427E201C027E0620F605DF6016193EC
:1035F0006F0175010894E11CF11C0097A105B1054C
:1036000031F0F0E1EF16F104E9F6F70101C0F7013E
:10361000802F03FF0EC021E030E02C0F3D1FE20F92
:10362000F31F3DE23083EE24FF246894E1F8EA0CB6
:10363000FB1C80FF05C00F2EF0E36F2EF02D03C0A2
:103640006624689465F881FD1AC057010894A11C8E
:10365000B11CE814F904B8F4862DB1010E942519B3
:103660008701C82ED92E0F5F1F4F0815190508F4C2
:103670006DC0C4018E199F09A80EB91E06C057015E
:10368000CC24DD2402C0CC24DD2401E010E00C0FAA
:103690001D1F0E0D1F1D0894E108F108F80182910D
:1036A0008F01B1010E942519C80ED91EE114F10441
:1036B00091F7AC01A814B90468F480E2B1010E944A
:1036C0002519C80ED91E0894A11CB11CA814B90450
:1036D000A0F3AC01FFEF4F3F5F0789F0A60101C0E7
:1036E000A8012FEF4F3F520709F030CE9A0108C0D2
:1036F0009A018FEF4F3F580719F0960101C09A01C8
:10370000822F932F62960FB6F894DEBF0FBECDBF07
:10371000DF91CF911F910F91FF90EF90DF90CF90AD
:10372000BF90AF909F908F907F906F905F904F90E1
:103730003F902F9008950894C11CD11C1AA709A787
:1037400041E050E005CECC24DD24D7CF862DB10159
:103750000E942519C80ED91E86CF1F920F920FB650
:103760000F921124DA980F900FBE0F901F901895AA
:103770001F920F920FB60F9211242F936F937F9386
:103780008F939F93B89820912805822F6AE00E941A
:103790009C34992349F480916E01281729F02093D5
:1037A0006E0181E0809341058091290590916F0120
:1037B000891739F080936F0181E08093060580932B
:1037C00042059F918F917F916F912F910F900FBE26
:1037D0000F901F9018951F920F920FB60F92112401
:1037E0008F9380912205882319F0815080932205C0
:1037F00080912305882319F08150809323058091BF
:103800002405882319F08150809324058F910F900F
:103810000FBE0F901F9018958FE284B983EC85B985
:1038200080E287B98CED88B980E58AB98BEA8BB9DB
:1038300083E080937E00089580EA80936D001BBA38
:1038400084E08093680008951092700080E6809371
:10385000B6001092B200E1EBF0E0808185608083D9
:10386000E6EBF0E080818171E9F381E087BB809332
:103870007000089581EE94E0909389008093880011
:103880008AE080938100EFE6F0E0808182608083AF
:10389000089517BC82E884BD83E085BD08952A9A07
:1038A00080E58CBD81E08DBD08951CBC2A980895EB
:1038B000EEE7F0E0908121E030E0082E02C0220F18
:1038C000331F0A94E2F7922B9083806480937C00EC
:1038D00086EC80937A00EAE7F0E0808186FDFDCFF8
:1038E0008091780090E04091790010927A00EEE7A4
:1038F000F0E03081209523232083342F20E0822B99
:10390000932B08951F93CF93DF93EC01162F66231B
:10391000A1F084B58F7784BD84B5806484BDCE0169
:103920000E94250184B5806884BD84B58F7B84BDE9
:10393000CE010E942501115061F7DF91CF911F91B7
:1039400008951F93CF93DF93EC01162F662351F058
:103950005C9ACE010E9425015C98CE010E9425014F
:103960001150B1F7DF91CF911F9108950F931F93DD
:1039700000912A0510E020E030E09801112700278F
:1039800080912B0590E0A0E0B0E0072E75E1880F54
:10399000991FAA1FBB1F7A95D1F7702D082B192BE1
:1039A0002A2B3B2B8091290590E0A0E0B0E0072E68
:1039B0007BE0880F991FAA1FBB1F7A95D1F7702D46
:1039C000082B192B2A2B3B2B8091280590E0A0E097
:1039D000B0E0880F991FAA1FBB1F880F991FAA1F4D
:1039E000BB1F880F991FAA1FBB1F880F991FAA1FF3
:1039F000BB1F880F991FAA1FBB1F082B192B2A2B2F
:103A00003B2BE7E2F5E08081869590E0A0E0B0E016
:103A1000082B192B2A2B3B2B858196818C5B974099
:103A2000A0E0B0E0072E79E1880F991FAA1FBB1F05
:103A30007A95D1F7702D082B192B2A2B3B2B602F51
:103A4000712F822F932F1F910F91089521982998FC
:103A50000895CF93DF9300D000D0CDB7DEB7CE016D
:103A60000196BE016D5F7F4F0E94602C882381F418
:103A700089819A8162E572E040E20E9470318B8117
:103A80009C8162E172E040E20E94703181E001C0FD
:103A900080E00F900F900F900F90DF91CF910895DD
:103AA000CF93C0E20E94291D882341F084E690E074
:103AB0000E942501C150B1F781E001C080E0CF91A3
:103AC0000895CF92DF92EF92FF920F931F93CF93BF
:103AD000DF93EC018B017A0169010E94291D882383
:103AE00079F182E592E060E20E948F3120E230E0DD
:103AF00040E050E00E94F134398328832AE030E02E
:103B000040E050E00E94F134F8013183208382E1EB
:103B100092E060E20E948F3120E431E040E050E02A
:103B20000E94F134F7013183208324E630E040E045
:103B300050E00E94F134F6013183208381E001C01E
:103B400080E0DF91CF911F910F91FF90EF90DF9078
:103B5000CF90089580E00E94581C62ED71E040E231
:103B60000E9470310895CF93C0E20E94AA1DC150F7
:103B7000E1F7CF9108950E94AA1D82ED91E060E2E5
:103B80000E948F3120E230E040E050E00E94F134AA
:103B9000B901882777FD8095982F0E948E3324E8FD
:103BA0003DE84BEF54E40E94F23323ED3DE442E55F
:103BB00050E40E94F23320E030E040E85AE30E94F3
:103BC000F2330E945B33862F972F089581E00E9485
:103BD000581C62E971E040E20E9470310895CF9371
:103BE000C0E20E94E61DC150E1F7CF9108950E9406
:103BF000E61D82E991E060E20E948F3120E230E030
:103C000040E050E00E94F134B901882777FD8095AB
:103C1000982F21E932E040E050E00E947D3420E01E
:103C200034E040E050E00E94F134822F932F089559
:103C3000282F392FC901880F991F9C01220F331F8C
:103C4000220F331F820F931F860F971F67E075E0C7
:103C50004DE00E9470310895CF93DF936091070586
:103C60007091080561157105C1F1409119055091D8
:103C70001A05E0911305F0911405A0910D05B0917E
:103C80000E0580911F05909120059C01220F331F86
:103C9000220F331FCA01880F991F840F951F820FAF
:103CA000931F9F01220F331F820F931FEC01CA0F36
:103CB000DB1FCA01880F991F880F991F2E0F3F1F06
:103CC000280F391FCD01880F991F280F391F620F48
:103CD000731FCE01861B970B02C080E090E0DF913E
:103CE000CF910895F999FECF87E095E060E770E005
:103CF0004AE150E00E9424350895F999FECF87E00B
:103D000095E060E770E04AE150E00E9414350895C4
:103D10001F93CF93DF930E947D1E80911F0590918A
:103D200020052FEF8F3F920759F41DE0C7E0D5E043
:103D300080E090E0BE014DE00E9470311150C1F76B
:103D4000DF91CF911F910895EF92FF921F93CF9330
:103D5000DF93CDB7DEB728970FB6F894DEBF0FBE5E
:103D6000CDBFEE24FF2410E0F999FECFCE010196DD
:103D7000B70148E050E00E941435F999FECF812F39
:103D8000BE016F5F7F4F0E94682F1F5F88E090E049
:103D9000E80EF91E153041F728960FB6F894DEBFED
:103DA0000FBECDBFDF91CF911F91FF90EF9008958F
:103DB000219A299A0E940D2E0E94702E0E94A41E04
:103DC00080E060E00E94822E08950F931F93CF93AE
:103DD000DF93CDB7DEB761970FB6F894DEBF0FBEA5
:103DE000CDBF8DB79EB70A970FB6F8949EBF0FBE92
:103DF0008DBFEDB7FEB731968E010F5F1F4FADB788
:103E0000BEB712961C930E93119788E690E09383A9
:103E1000828380912C0590912D05805D974095833C
:103E2000848380912B058683178280912A05808761
:103E300011860E94DD328DB79EB70A960FB6F894B0
:103E40009EBF0FBE8DBF80E060E00E94822EC80141
:103E50000E94B52FADB7BEB71A970FB6F894BEBF84
:103E60000FBEADBFEDB7FEB7319612961C930E9301
:103E7000119787E790E0938382838091290584835B
:103E80001582809128058683178280912705808777
:103E900011860E94DD328DB79EB70A960FB6F89450
:103EA0009EBF0FBE8DBF80E061E00E94822EC801E0
:103EB0000E94B52F61960FB6F894DEBF0FBECDBF3E
:103EC000DF91CF911F910F910895CF92DF92EF92E2
:103ED000FF920F931F93CF93DF93CDB7DEB7619718
:103EE0000FB6F894DEBF0FBECDBF7A0169012DB7C2
:103EF0003EB7285030400FB6F8943EBF0FBE2DBFDE
:103F0000EDB7FEB731968E010F5F1F4FADB7BEB74D
:103F100012961C930E93119726E830E03383228388
:103F200095838483778366830E94DD322DB73EB705
:103F3000285F3F4F0FB6F8943EBF0FBE2DBF89E0FC
:103F400060E00E94822EC8010E94B52F80E060E4EC
:103F50000E94EB2D8DB79EB708970FB6F8949EBFC1
:103F60000FBE8DBFEDB7FEB73196ADB7BEB7129697
:103F70001C930E9311978CE890E093838283F582D3
:103F8000E482D782C6820E94DD322DB73EB7285F19
:103F90003F4F0FB6F8943EBF0FBE2DBF89E061E0E2
:103FA0000E94822EC8010E94B52F81E060E40E9429
:103FB000EB2D8091070590910805009729F18091DC
:103FC000250590912605863991054CF084E061E045
:103FD0000E94D82F85E060E00E94D82F15C03FEFE7
:103FE0008B3693074CF484E060E00E94D82F85E084
:103FF00061E00E94D82F08C084E061E00E94D82FC1
:1040000085E061E00E94D82F61960FB6F894DEBF7C
:104010000FBECDBFDF91CF911F910F91FF90EF9019
:10402000DF90CF9008950F931F93CF93DF93EC0110
:104030008B010E94702E80E060E00E94822ECE01F3
:104040000E94C52F80E061E00E94822EC8010E947C
:10405000C52FDF91CF911F910F9108950F931F935B
:10406000CF93DF93EC018B010E94702E80E060E023
:104070000E94822ECE010E94C52F80E061E00E9446
:10408000822EC8010E94B52FDF91CF911F910F9111
:1040900008952F923F924F925F926F927F928F92EC
:1040A0009F92AF92BF92CF92DF92EF92FF920F93C7
:1040B0001F93CF93DF93CDB7DEB7AB970FB6F894CE
:1040C000DEBF0FBECDBF8BA74F9BFECF4D9BFCCF5E
:1040D00000E00F2EFBE0EF2EFF24F02DEC0EFD1E76
:1040E0000F2EFCEC6F2EF0E07F2EF02D0F2EF1ED59
:1040F0004F2EF0E05F2EF02D0F2EF7EC2F2EF0E07C
:104100003F2EF02D0F2EFDEDCF2EF7E0DF2EF02D00
:104110000F2EF3E9AF2EF0E0BF2EF02D0F2EF5EAB3
:104120008F2EF0E09F2EF02D0BC002E009C003E0BF
:1041300007C005E005C006E003C007E001C00AE0D3
:10414000033009F450C1043038F4013009F484C05C
:10415000023008F0E7C00EC0063009F459C207303B
:1041600018F4053069F7F6C1073009F4AFC20A3018
:1041700039F71CC3CE0101960E9499010E94702E4E
:104180000E94EB2E80E060E00E94822E2DB73EB7A9
:104190002C5030400FB6F8943EBF0FBE2DBFEDB788
:1041A000FEB73196ADB7BEB71296FC92EE9211975C
:1041B000B382A2828E819F81958384838D81868341
:1041C00017828C8180871186888590E0880F991FDF
:1041D000880F991F825B9E4F938782870E94DD32F2
:1041E0002DB73EB7245F3F4F0FB6F8943EBF0FBECA
:1041F0002DBFC7010E94B52F80E061E00E94822E92
:104200008DB79EB70A970FB6F8949EBF0FBE8DBFAD
:10421000EDB7FEB73196ADB7BEB71296FC92EE92EF
:104220001197938282828B81848315828A8186830F
:1042300017828981808711860E94DD322DB73EB7B3
:10424000265F3F4F0FB6F8943EBF0FBE2DBFC7018C
:104250000E94B52F01E074CF80E060E00E94822EC2
:104260004D994FC082E390E061E00E94821C8E81F4
:104270009F8101969F838E8338E08433930710F0EB
:10428000DF82CE8210E019C082E390E061E00E94FC
:10429000821C84E690E00E942501812F8F5F1250DE
:1042A000173018F4DF82CE8207C08A3028F00E94CF
:1042B000FA2E0E94702E9FC2182F4D9BE5CF00D082
:1042C00000D000D0EDB7FEB73196ADB7BEB71296AD
:1042D000FC92EE92119725EB30E0338322838E819E
:1042E0009F81958384830E94DD328DB79EB70696A9
:1042F0000FB6F8949EBF0FBE8DBFC7010E94B52FA9
:104300001FCF4F991DCF82E390E061E00E94821C95
:104310004F990BCF84E690E00E9425014F9BFACF86
:1043200002E00ECF85E060E00E94822E4D994AC0E7
:1043300082E390E061E00E94821C8D818F5F8D831B
:104340008D3010F081E08D8310E019C082E390E0A1
:1043500061E00E94821C84E690E00E942501812F8A
:104360008F5F1250173018F491E09D8307C08A3098
:1043700028F00E94FA2E0E94702E3DC2182F4D9BED
:10438000E5CF00D000D000D0EDB7FEB73196ADB785
:10439000BEB71296FC92EE9211972AEB30E033836F
:1043A00022838D81848315820E94DD328DB79EB772
:1043B00006960FB6F8949EBF0FBE8DBFC7010E9430
:1043C000B52FBECE4F99BCCE82E390E061E00E9453
:1043D000821C4F99ACCE84E690E00E9425014F9B51
:1043E000FACF03E0ADCE88E060E00E94822E4D99C6
:1043F000A0C082E390E061E00E94821C4C814F5F8C
:104400004C838D81863001F1873070F48330B1F0B8
:10441000843028F4813091F08230A1F41AC08430C5
:1044200099F0853079F40AC0893071F0893030F024
:104430008B3051F08B3010F08C3021F44F3110F074
:104440008FE18C8310E03DC04E31E0F38EE18C8330
:10445000F9CF2E813F81C90160E971E00E94A83443
:10446000009761F0C90183709070009761F4C901F1
:1044700064E670E00E94A834009729F04D3110F3F3
:104480008DE18C83DFCF4C31E8F28CE18C83DACF85
:1044900082E390E061E00E94821C84E690E00E944A
:1044A0002501812F8F5F1250173018F491E09C8303
:1044B00007C08A3028F00E94FA2E0E94702E9BC1FD
:1044C000182F4D9BE5CF6D814C818E819F8170E0CF
:1044D00050E00E94B9318887ADB7BEB718970FB6C4
:1044E000F894BEBF0FBEADBFEDB7FEB731961296C2
:1044F000FC92EE9211972FEB30E0338322839C8164
:104500009483158290E0880F991F880F991F825B12
:104510009E4F978386830E94DD328DB79EB70896A3
:104520000FB6F8949EBF0FBE8DBFC7010E94B52F76
:1045300007CE4F9905CE82E390E061E00E94821C95
:104540004F99F7CD84E690E00E9425014F9BFACF6A
:1045500005E0F6CD80E061E00E94822E4D9947C0D3
:1045600082E390E061E00E94821C8B818F5F8B83ED
:10457000883108F01B8210E018C082E390E061E00F
:104580000E94821C84E690E00E942501812F8F5FAB
:104590001250173010F41B8207C08A3028F00E9496
:1045A000FA2E0E94702E27C1182F4D9BE6CF00D007
:1045B00000D000D0EDB7FEB73196ADB7BEB71296BA
:1045C000FC92EE921197338222828B818483158232
:1045D0000E94DD322DB73EB72A5F3F4F0FB6F894E9
:1045E0003EBF0FBE2DBFC7010E94B52FA9CD4F9969
:1045F000A7CD82E390E061E00E94821C4F999BCDA1
:1046000084E690E00E9425014F9BFACF06E098CD0A
:1046100083E061E00E94822E4D9947C082E390E0E2
:1046200061E00E94821C8A818F5F8A838C3308F04C
:104630001A8210E018C082E390E061E00E94821CC0
:1046400084E690E00E942501812F8F5F1250173081
:1046500010F41A8207C08A3028F00E94FA2E0E94B5
:10466000702EC9C0182F4D9BE6CF00D000D000D0CF
:10467000EDB7FEB73196ADB7BEB71296FC92EE928B
:104680001197738262828A81848315820E94DD324F
:104690002DB73EB72A5F3F4F0FB6F8943EBF0FBE0F
:1046A0002DBFC7010E94B52F4BCD4F9949CD82E355
:1046B00090E061E00E94821C4F993FCD84E690E03B
:1046C0000E9425014F9BFACF07E03ACD86E061E0DA
:1046D0000E94822E4F9910C04D990EC082E390E047
:1046E00061E00E94821C4F9BFECF4D9BFCCF0E943D
:1046F000FA2E0E94702E7FC04D9947C082E390E051
:1047000061E00E94821C89818F5F89838C3308F06D
:10471000198210E018C082E390E061E00E94821CE0
:1047200084E690E00E942501812F8F5F12501730A0
:1047300010F4198207C08A3028F00E94FA2E0E94D5
:10474000702E59C0182F4D9BE6CF00D000D000D05E
:10475000EDB7FEB73196ADB7BEB71296FC92EE92AA
:104760001197538242828981848315820E94DD32AF
:104770002DB73EB72A5F3F4F0FB6F8943EBF0FBE2E
:104780002DBFC7010E94B52FDBCC4F99D9CC82E356
:1047900090E061E00E94821C4F99D1CC84E690E0C9
:1047A0000E9425014F9BFACF0AE0CACCCE010196A8
:1047B0000E941E020E94702E0E94FA2E1092210565
:1047C0003BA53323C1F080ED94E00E94B11488230F
:1047D00071F086ED90E06FED70E00E9413208CE2A6
:1047E00091E063E00E94821C88E08093210580EDC7
:1047F00094E00E947F15AB960FB6F894DEBF0FBE13
:10480000CDBFDF91CF911F910F91FF90EF90DF907F
:10481000CF90BF90AF909F908F907F906F905F9060
:104820004F903F902F900895CF93DF93CDB7DEB791
:10483000CE54D0400FB6F894DEBF0FBECDBF0E945D
:104840000C1C0E941C1C0E94491C0E943A1C0E94C5
:10485000241C0E944F1C80E880BF88E20E942D30FB
:1048600083B7817F866083BF78948CE39FE09093C9
:104870009302809392028AE090E090939502809355
:1048800094028FEF9FEF9093260580932505109259
:104890004305109241051092060510924205209A98
:1048A000289A82E390E062E00E94821C87E295E011
:1048B0000E949901109221050F2EFDE07F2EF02D10
:1048C0000F2EF9E0CF2EDD24F02DCC0EDD1E0F2EA5
:1048D000F0EFAF2EF0E0BF2EF02DFC2CED2C0F2EC4
:1048E000FEEF4F2EF0E05F2EF02D0F2EFFE02F2E6B
:1048F000F1E03F2EF02D0F2EF7E28F2EF5E09F2EE8
:10490000F02D2CE235E0215030402F963FAF2EAFF6
:104910002F978BE295E001962B969FAF8EAF2B974A
:10492000A0EDB4E01A962D96BFAFAEAF2D974D997E
:104930003EC00E94702E4D9B20C337C082E390E0A2
:1049400061E00E94821C84E690E00E9425010150F3
:104950001040BFEF0F3F1B0721F485E08093210536
:1049600024C080E060E00E94822E00D000D000D001
:10497000EDB7FEB73196ADB7BEB71296DC92CE92C8
:104980001197B382A282158304830E94DD32EDB7B2
:10499000FEB736960FB6F894FEBF0FBEEDBF8F2D53
:1049A0009E2D0E94B52F4D9BC9CF0E94702E4F990E
:1049B0006FC00E94702E80E060E00E94822E809185
:1049C0009202909193022DB73EB7285030400FB617
:1049D000F8943EBF0FBE2DBFEDB7FEB73196ADB711
:1049E000BEB71296DC92CE9211975382428268EE45
:1049F00073E00E94BC3475836483978386830E942E
:104A0000DD32EDB7FEB738960FB6F894FEBF0FBE95
:104A1000EDBF8F2D9E2D0E94B52F80E061E00E949A
:104A2000822E00D000D000D0EDB7FEB73196ADB7E2
:104A3000BEB71296DC92CE92119733822282809179
:104A4000940290919502958384830E94DD32EDB7A4
:104A5000FEB736960FB6F894FEBF0FBEEDBF8F2D92
:104A60009E2D0E94B52F1BE00FC082E390E061E015
:104A70000E94821C84E690E00E942501115021F4DE
:104A800082E08093210502C04F9BEFCF0E94702EE1
:104A90004A9906C00E944F1C81E08093430504C0E0
:104AA0000E94551C1092430580912105823009F423
:104AB0006BC0833030F4882371F0813009F04EC22E
:104AC00073C0853009F42DC2873009F446C28430A2
:104AD00009F044C2E5C00E94D81E8AE191E068E274
:104AE00071E00E9413200E948C2B882371F089E3CF
:104AF00091E064E471E00E9413208CE291E063E0B5
:104B00000E94821C88E0809321050E94501D88230A
:104B100071F481E591E06CE571E00E9413208CE274
:104B200091E063E00E94821C88E0809321050E944E
:104B3000B31D0E94EF1D0E94881E84E08093210512
:104B40004A991BC00E944F1C84E690E00E942501F8
:104B500080E062EA72E00E94A10E882341F08CE2BC
:104B600091E063E00E94821C109243050AC081E03C
:104B7000809321058093430504C00E94551C109228
:104B800043050E94702EEAC1809143050E9449208E
:104B900080914305882321F081E080932105DEC1C7
:104BA00084E080932105DAC1ABE2B5E07C90EDB7FB
:104BB000FEB738970FB6F894FEBF0FBEEDBF319623
:104BC00001E315E0ADB7BEB712961C930E93119793
:104BD0008DE691E0938382832B96AEADBFAD2B978C
:104BE0008D919C9195838483768217820E94DD3219
:104BF000EDB7FEB738960FB6F894FEBF0FBEEDBF07
:104C000080ED94E0B80142E10E94B70E882371F470
:104C10002D96AEADBFAD2D974D915D916D917C916F
:104C200080ED94E00E948B158823D1F0109243050B
:104C30008AE791E061E375E00E942E208CE291E02A
:104C400063E00E94821C87E061E00E94D82F86E02A
:104C500060E00E94D82F81E090E00E9430011AC0ED
:104C600081E08093430587E891E061E375E00E946D
:104C70002E2082E390E062E00E94821C87E060E0E8
:104C80000E94D82F86E061E00E94D82F81E090E05A
:104C90000E9430010E94702E84E0809321055EC145
:104CA0000E94E51EEBE2F5E01081171539F18091C5
:104CB0004305882319F180ED94E00E94B114882304
:104CC00079F086E991E06DE971E00E9413208CE2B1
:104CD00091E063E00E94821C88E08093210505C07A
:104CE00082E390E062E00E94A11C80ED94E00E94CB
:104CF0007F1581E080932105712E19CE0E94BB1D86
:104D00009C0190939302809392028091480190912C
:104D1000490128173907E4F080914A0190914B012D
:104D20002817390784F080914C0190914D01281784
:104D300039075CF080914E0190914F012817390797
:104D4000D4F483E003C081E001C082E08823A1F4B1
:104D50008AEA91E066EB71E00E9413208CE291E018
:104D600063E00E94821C81E090E00E94300187E0B5
:104D700080932105DCCD84E0815061E00E94033006
:104D80000E94F71D9093950280939402CE010196A4
:104D9000BE016D5F7F4FAE014B5F5F4F9E01295F8C
:104DA0003F4F0E94611D882309F4D8C080914205BD
:104DB000882381F06B817C8189819A810E94181EF1
:104DC0000E942C1E9093260580932505F89410923E
:104DD000420578946B817C814D815E812F8138857D
:104DE00089819A810E94651F80914305882309F477
:104DF000B5C080914105882309F470C0809192026A
:104E0000909193022DB73EB7205230400FB6F894E0
:104E10003EBF0FBE2DBFEDB7FEB7319620ED34E09B
:104E2000ADB7BEB712963C932E9311972FE031E0A9
:104E300033832283ACE2B5E02D913C91358324830A
:104E40002F96AEADBFAD2F972C9126831782209160
:104E50002A05208711862091290522871386209113
:104E600028052487158620912705268717862981FE
:104E70003A81318B208B2B813C81338B228B2D818E
:104E80003E81358B248B2F813885378B268B209163
:104E9000940230919502318F208F68EE73E00E946A
:104EA000BC34738F628F958F848F8091250590918C
:104EB0002605978F868F0E947619EDB7FEB7B096BC
:104EC0000FB6F894FEBF0FBEEDBF82E390E062E044
:104ED0000E94A11CF89410924105789480910605D7
:104EE0008823E1F180ED94E00E94B114882379F0E9
:104EF00085EC91E06CEC71E00E9413208CE291E073
:104F000063E00E94821C88E08093210505C082E353
:104F100090E061E00E94821CF8941092060578945B
:104F20001DC00E94721E80914305882341F080EDD0
:104F300094E00E94B11480ED94E00E947F150E94DD
:104F4000702E80E060E00E94822E89ED91E00E9448
:104F5000C52F87E08093210501C05B98C4010E94A2
:104F600099012098289883B7816083BF889583B77B
:104F70008E7F83BF209A289ADACC82E390E061E0AA
:104F80000E94821C84E690E00E94250109E010E066
:104F9000E8CC8FEF8EBD0DB407FEFDCF8EB5089522
:104FA000CF93DF9382E3809324050E94C927C4E254
:104FB000D5E00E94C9278F3F19F098819923C9F73E
:104FC000DF91CF910895EF92FF920F931F93CF93AC
:104FD000DF93EC018B018AE0809323050F2EF3E22F
:104FE000EF2EF5E0FF2EF02D0E94C9278F3F29F408
:104FF000F70180818823C1F71AC08E3FB9F48FEF83
:105000008EBD0DB407FEFDCF9EB598838EBD0DB449
:1050100007FEFDCF9EB5998322960250104081F77E
:105020000E94C9270E94C92781E001C080E0DF916A
:10503000CF911F910F91FF90EF9008951F93CF9301
:10504000DF93EC01162F0E94D0278F3F51F51EBD34
:105050000DB407FEFDCF1D3F31F1CE0180509E4FB4
:1050600028812EBD0DB407FEFDCF29812EBD2296CD
:105070000DB407FEFDCF8C179D0791F78FEF8EBD06
:105080000DB407FEFDCF8FEF8EBD0DB407FEFDCF33
:105090000E94C927982F9F7181E0953029F080E008
:1050A00003C080E001C081E0DF91CF911F9108959E
:1050B000CF92DF92EF92FF92CF93C82F6A017B01CC
:1050C0000E94D0278F3FC1F5CEBD0DB407FEFDCFA6
:1050D0008F2D9927AA27BB278EBD0DB407FEFDCFC4
:1050E000C701AA27BB278EBD0DB407FEFDCFBB2786
:1050F000AF2D9E2D8D2D8EBD0DB407FEFDCFCEBCE8
:105100000DB407FEFDCFC03421F0C83421F080E09B
:1051100003C085E901C087E88EBD0DB407FEFDCF51
:10512000CC3411F40E94C927CAE00E94C927882301
:1051300024F4C150D1F701C08FEFCF91FF90EF90D1
:10514000DF90CF900895CF92DF92EF92FF920F936E
:105150001F93CF93DF9300D000D0CDB7DEB7882365
:1051600009F0C7C00AE00E94C9270150E1F72A9858
:1051700080E440E050E0BA010E945828813009F0F4
:10518000C6C084E68093230588E44AEA51E060E0E3
:1051900070E00E945828813009F04EC06E010894DA
:1051A000C11CD11C0F2EF5E0EF2EFF24F02DEC0ECC
:1051B000FD1E86010E94C927F80181938F01EE151B
:1051C000FF05C1F78B81813009F0A1C08C818A3A3B
:1051D00009F09DC003E215E087E740E050E0BA0126
:1051E0000E945828823048F489E640E050E060E0B0
:1051F00070E40E945828882321F0F80180818823D8
:1052000059F780912305882309F481C08AE740E09B
:1052100050E0BA010E945828882309F078C00E9403
:10522000C927F60181936F01EE15FF05C1F789814A
:1052300086FD73C082E072C087E740E050E0BA01AB
:105240000E945828823060F489E640E050E0BA01BC
:105250000E945828823038F4FF246894F1F805C081
:10526000FF24F39402C0FF24F39403E215E0F2E07C
:10527000FF1689F487E740E050E0BA010E94582801
:10528000823088F489E640E050E0BA010E94582854
:10529000882349F40CC081E440E050E0BA010E9448
:1052A0005828882321F0F8018081882301F7809114
:1052B0002305882361F180E540E052E060E070E082
:1052C0000E945828882319F5F09297022A9A0E9482
:1052D000C927FF2031F0809196028E7F809396023D
:1052E00005C080919602816080939602809196021B
:1052F00001C081E00F900F900F900F90DF91CF9140
:105300001F910F91FF90EF90DF90CF900895109232
:1053100097022A9A0E94C927E4CF86E080939702D9
:105320002A9A0E94C927D7CF882319F48091960220
:10533000089581E008950F93CF93DF93EB018823C5
:1053400009F048C0002309F447C08091960280FD0F
:1053500045C08091970282FD09C0012E19E0220FFD
:10536000331F441F551F1A95D1F7102D2A9801306D
:1053700079F481E5BA01A9010E945828882311F522
:10538000CE0160E072E00E94E3278823D1F41AC0C6
:1053900082E5BA01A9010E945828882399F4CE0118
:1053A00060E072E00E94E327882321F0C050DE4FC6
:1053B0000150A9F78CE440E050E0BA010E9458285F
:1053C00001C000E02A9A0E94C92781E0002339F435
:1053D00080E005C084E003C084E001C083E0DF9189
:1053E000CF910F910895CF92DF92EF92FF920F939A
:1053F000CF93DF93EB0169017A01882309F05EC046
:10540000002309F45DC08091960280FD5BC080910D
:10541000960282FD59C08091970282FD09C00B2E31
:10542000B9E0CC0CDD1CEE1CFF1CBA95D1F7B02DF9
:105430002A98013071F488E5B701A6010E94582826
:105440008823A1F5CE016EEF0E941E28882359F50E
:105450002DC08091970281FF0DC087E740E050E0AA
:10546000BA010E945828402F50E060E070E087E5C4
:105470000E94582889E5B701A6010E945828882370
:10548000A9F4CE016CEF0E941E28882321F0C050A1
:10549000DE4F0150B1F780E090E06DEF0E941E28D2
:1054A000882319F003C000E001C001E02A9A0E949D
:1054B000C92781E0002349F480E007C084E005C0EB
:1054C00084E003C083E001C082E0DF91CF910F91BF
:1054D000FF90EF90DF90CF900895EF92FF920F939F
:1054E0001F93CF93DF93CDB7DEB760970FB6F894D5
:1054F000DEBF0FBECDBF7A01882309F0E9C02A982C
:10550000633009F485C0643030F4613071F062308A
:1055100009F0C9C076C06B3009F497C06C3009F44B
:10552000A9C06A3009F0BFC07AC089E440E050E009
:10553000BA010E945828882309F0B7C0CE0101960D
:1055400060E170E00E94E327882309F4B0C08981FC
:1055500082958695869583708130D1F42A8530E0D6
:105560002F5F3F4F998580E0820F931FA0E0B0E04E
:10557000072E7AE0880F991FAA1FBB1F7A95D1F7D3
:10558000702DF70180839183A283B38300E09CC0D8
:1055900029852295269526952370888590E0880F89
:1055A000991F880F991F820F911D01964F8150E01E
:1055B00043705070542F4427550F550F840F951F7B
:1055C000AC0160E070E09E819F708B85881F88270A
:1055D000881F980F9E5F8A858370880F890F90E0DF
:1055E00009978A019B0104C0000F111F221F331F5E
:1055F0008A95D2F7F701008311832283338300E079
:1056000063C080E092E0FA019183808300E05CC097
:105610000E94D0278F3F09F44CC001E055C0809113
:10562000960280FD57C089E440E050E0BA010E9434
:105630005828882309F03FC0C70160E170E00E944C
:10564000E3278823D1F501E03FC08091960280FDD9
:1056500043C08AE440E050E0BA010E945828882301
:1056600071F5C70160E170E00E94E327882349F5E6
:1056700001E02AC08091960280FD30C08AE740E0B8
:1056800050E0BA010E9458288823E9F487010C5F92
:105690001F4F0E94C927F70181937F01E017F1078F
:1056A000C1F700E011C004E00FC001E00DC001E04F
:1056B0000BC000E009C001E007C000E005C001E048
:1056C00003C000E001C001E02A9A0E94C92707C078
:1056D00004E005C003E003C003E001C003E0802F45
:1056E00060960FB6F894DEBF0FBECDBFDF91CF91AD
:1056F0001F910F91FF90EF900895809123058823CB
:1057000019F081508093230580912405882319F096
:1057100081508093240508952F923F924F925F927B
:105720006F927F928F929F92AF92BF92CF92DF92B1
:10573000EF92FF921F93CF93DF93CDB7DEB76697BB
:105740000FB6F894DEBF0FBECDBF8091720190916D
:105750007301009709F49AC013E00F2EFFE9EF2EB2
:10576000F2E0FF2EF02D17010894210831080F2ECA
:10577000FDE9CF2EF2E0DF2EF02DC60101979E87C6
:105780008D870F2EFBE9AF2EF2E0BF2EF02DF50135
:105790003197F88BEF870F2EF9E98F2EF2E09F2ECD
:1057A000F02DC40101979A8B898B0F2EF3E76F2E92
:1057B000F1E07F2EF02DF3013197FC8BEB8B0F2E58
:1057C000F1E74F2EF1E05F2EF02DC20101979E8B85
:1057D0008D8B91E29A95F1F7000084E0898380E651
:1057E00061E070E041E09E012F5F3F4F0E94FE307C
:1057F000282F882309F046C080E66CE070E040E086
:105800009E012F5F3F4F0E947230282F882311F096
:105810002C5938C08981F70180838A81F101808306
:105820008B81F60180838C81ED85FE8580838D815F
:10583000F50180838E81EF85F88980838F81F40163
:1058400080838885E989FA8980838985F30180834B
:105850008A85EB89FC8980838B85F20180838C8526
:10586000ED89FE8980838091720190917301009788
:1058700041F48091700190917101009741F024E60C
:1058800001C024E6115009F0A4CF01C020E0822F0E
:1058900066960FB6F894DEBF0FBECDBFDF91CF91F5
:1058A0001F91FF90EF90DF90CF90BF90AF909F90AF
:1058B0008F907F906F905F904F903F902F900895C2
:1058C0004F925F926F927F928F929F92AF92BF9210
:1058D000CF92DF92EF92FF920F931F93CF93DF93BC
:1058E000CDB7DEB760970FB6F894DEBF0FBECDBF61
:1058F0005C014B0113E00F2EF2E1EF2EF02DFF249F
:10590000F394E982FA8280E662E070E040E09E0172
:105910002F5F3F4F0E94FE30082F882309F03DC1C2
:1059200089EF90E00197F1F700C00000198280E64E
:1059300061E070E04F2D9E012F5F3F4F0E94FE30CF
:10594000882319F0082F0C5928C180E664E070E024
:1059500040E09E012F5F3F4F0E947230082F882346
:1059600011F008531AC189818E838A818D838B81BE
:1059700088878C818F838D819E810024880F991F59
:10598000001C880F991F001C892F902D6C01EE249C
:10599000FF246091720170917301882777FD8095D3
:1059A000982FA70196010E947D34AB01BC01809124
:1059B0009C0290919D02AA2797FDA095BA2F072ED1
:1059C0007EE0880F991FAA1FBB1F7A95D1F7702D13
:1059D000840F951FA61FB71F9C01AD01012E1EE06D
:1059E00055954795379527951A95D1F7102D298705
:1059F0003A874B875C874F8058840024440C551CA1
:105A0000001C440C551C001C452C502C662477248B
:105A10006091980270919902882777FD8095982F60
:105A2000A30192010E947D34AB01BC0189859A8556
:105A3000AB85BC85072E7BE0880F991FAA1FBB1F73
:105A40007A95D1F7702D840F951FA61FB71F9C0163
:105A5000AD01012E1BE055954795379527951A9571
:105A6000D1F7102D29873A874B875C8720917001E9
:105A700030917101442737FD4095542FC301B20185
:105A80000E947D34AB01BC0175956795579547958C
:105A900080919A0290919B02AA2797FDA095BA2F18
:105AA000072E7FE0880F991FAA1FBB1F7A95D1F799
:105AB000702D840F951FA61FB71F9D01552737FD19
:105AC0005095452F2D873E874F87588BC701B601CC
:105AD00029853A854B855C850E947D34AB01BC01EC
