:100000005AC072C071C070C06FC06EC0C2C108C398
:100010006BC06AC069C068C067C066C065C04BC3BA
:1000200065C362C061C078C07CC080C084C088C025
:100030008CC090C094C098C0010203040506070854
:100040000902010304050607080903020104050665
:10005000070809040203010506070809050203044D
:10006000010607080906020304050107080907023B
:10007000030405060108090802030405060701092F
:100080003F065B4F666D7D077F6F5F7C585E7B71BF
:100090003D74041E753837545C7367506C781C3E91
:1000A0007E76661B6340467052640102040810208D
:1000B000800F3941480011241FBECFEDCDBF10E0A5
:1000C000A0E6B0E0E6EFF7E002C005900D92A036A2
:1000D000B107D9F710E0A0E6B0E001C01D92AF393A
:1000E000B107E1F78AD185C38BCF81B3837881BB18
:1000F00087B3807F87BB82B3837882BB88B3807FDE
:1001000088BB089590E001978930910588F58D5E50
:100110009F4F8F939F930895613009F4929A8A9A22
:100120000895613009F4939A8B9A0895613009F427
:10013000949A8C9A0895613009F4959A8D9A08954D
:10014000613009F4969A8E9A0895613009F4C09A44
:10015000B89A0895613009F4C19AB99A0895613046
:1001600009F4C29ABA9A0895613009F4C39ABB9A05
:100170000895EF92FF920F931F93DF93CF93CDB724
:10018000DEB7C350CDBF262F90E069E070E01FD3EB
:100190008C01085C1F4FF801849161E02B83B2DF72
:1001A0002B8127FF03C02F7781E001C080E025333A
:1001B00008F025E3E22FF0E0E058FF4FE491E093F0
:1001C0009D00882319F0E068E0939D0088E0E82E08
:1001D000F12CE00EF11E1A82198200E810E01DC019
:1001E00089819A81980102C0359527958A95E2F711
:1001F000C90120919D0030E082239323009741F0B4
:1002000089819A81F701E81BF90B849160E07ADF1C
:1002100089819A8101969A83898389819A8188301C
:100220009105F4F2CD5FCDBFCF91DF911F910F917A
:10023000FF90EF900895C49A8FEC97E00197F1F743
:1002400000C00000BC9881E0B49B80E008956E324D
:1002500039F4E82FF0E0EB56FF4F8081806826C02C
:10026000962F90539A3030F4E82FF0E0EB56FF4F82
:1002700090830895962F91569A3130F4E82FF0E04C
:10028000EB56FF4F675509C0962F91549A3138F4B9
:10029000E82FF0E0EB56FF4F6753608308956D320F
:1002A00039F4E82FF0E0EB56FF4F85E280830895A4
:1002B000603231F4E82FF0E0EB56FF4F85E38083A6
:1002C0000895682F80538A3078F081538A3160F026
:1002D000805E8A3138F06D3239F0603229F06E324A
:1002E00079F40CC06E3251F080E0E82FF0E0EB566C
:1002F000FF4F918190838F5F8730B9F787E0A7DF49
:10030000089585E3809395008093960080939700ED
:10031000809398008093990080939A0080939B002B
:1003200080939C000895882361F4E5E9F0E08181E1
:10033000819380E0EC39F807D1F785E380939C0046
:100340000895ECE9F0E08291818380E0E539F807D7
:10035000D1F785E3809395000895882369F480910F
:100360009500E5E9F0E09181919390E0EC39F9078F
:10037000D1F780939C00089580919C00ECE9F0E017
:100380009291918390E0E539F907D1F78093950038
:1003900008951F920F920FB60F9211242F933F933F
:1003A0004F935F936F937F938F939F93AF93BF937D
:1003B000EF93FF939ADE80919E00E82FF0E0EB56DA
:1003C000FF4F6081D6DE80919E008F5F80939E00FC
:1003D000883010F010929E00FF91EF91BF91AF9185
:1003E0009F918F917F916F915F914F913F912F914D
:1003F0000F900FBE0F901F901895DF92EF92FF9213
:100400000F931F93DF93CF93CDB7DEB7C450CDBF0B
:1004100010929E0076DF69DE83E083BF89B7826039
:1004200089BF8FEF82BF07DF80936C00882319F0AC
:1004300083E300D101C0E7D085B78F7A85BF789478
:100440001A8219822AE230E024C03C832B8312C036
:10045000E981FA818B819C81EB56FF4F80838FE588
:100460009AEE0197F1F700C000008B819C81019604
:100470009C838B838B819C81803391054CF3E98134
:10048000FA81EB56FF4F108289819A8101969A83F7
:10049000898389819A8188309105BCF28FEF90E73A
:1004A000A2E081509040A040E1F700C0000029DFA9
:1004B00080916C00882329F081E380939C0081E087
:1004C00004C081E380939C0085E080939B0082E3DD
:1004D00080939A0004E610E03BE0D32E2CE0E22E5D
:1004E00097E3F92E85B7806285BF889585B78F7DA4
:1004F00085BF80916C00882339F0D4D080936D0043
:10050000882351F0BCD006C066D080936D0088234C
:1005100019F066D08093610080916D00882311F3FB
:1005200080916000813089F0813028F08B30B1F10A
:100530008C30C1F643C0809161008B3121F481E0A1
:1005400080936000CFCFBDDECDCF109363000093CA
:1005500062008091610080936400833499F0843458
:1005600028F48C3389F08E3399F510C08C3439F02F
:100570008C3470F18B3569F08D3551F50CC0D0920B
:100580006000B0CFBEDE24C080E001C081E0CBDEE1
:100590001FC080E001C081E0E0DE1AC0E09162008F
:1005A000F0916300CF010196909363008093620005
:1005B000809161008183E092600094CF809165001A
:1005C0009F2D981B892F90936E00609161003FDEF4
:1005D0001092600087CF8BB1881F8827881F0895ED
:1005E0008CB108955D9BFECF8CB90895CF93DF93B6
:1005F000EC0101C0F7DFFE01219684918823D1F739
:10060000DF91CF91089591989098899A889883E383
:1006100089B912B888E98AB9599886E083B90895EA
:100620001F920F920FB60F9211240F900FBE0F90D2
:100630001F901895109294001092830010927200EF
:10064000109271008093700087B3806A87BBC79A4D
:10065000C59ABD9888EA8DB980EF8EB908959091BA
:1006600071009F5F9F70209172009217E1F3E92F54
:10067000F0E0ED58FF4F80839093710008959091C2
:100680008300809194009817D1F3809194008F5F3C
:100690008F7080939400E0919400F0E0EC57FF4F4E
:1006A00080810895209183009091940081E0291722
:1006B00009F480E008951F920F920FB60F92112453
:1006C0008F9310926F00BD98B79B02C0B59BFCCF73
:1006D000B59902C088EF01C088EA8DB980EF8EB964
:1006E0008F910F900FBE0F901F9018951F920F9231
:1006F0000FB60F9211248F939F93EF93FF938091E6
:100700006F008230D9F1833030F4882361F081307A
:1007100009F054C018C08430B9F1843088F08530B5
:1007200009F04CC037C08FB1882331F08FB1869566
:10073000909170008917F9F4789B39C081E038C036
:100740008FB18823C1F49091710080917200981745
:1007500091F0809172008F5F8F7080937200E091B2
:100760007200F0E0ED58FF4F80818FB982E08093F6
:100770006F00BD9A0DC088EA8DB90AC083E08093EE
:100780006F00BD981FB818C085E080936F00BD98BA
:1007900080E713C0809183008F5F8F708093830008
:1007A000E09183008FB1F0E0EC57FF4F808384E04D
:1007B00080936F001FB8BD9A8EE78EB9FF91EF91BD
:1007C0009F918F910F900FBE0F901F9018955527F6
:1007D000002480FF02C0060E571F660F771F6115A9
:1007E000710521F096958795009799F7952F802DA3
:0607F0000895F894FFCF0C
:00000001FF
