:100000007BC093C092C0BEC090C08FC08FC054C28E
:100010008CC08BC08AC089C088C087C086C085C09C
:1000200084C083C082C03078000A0D0052656164CC
:1000300079204F4B0A0D004D616B657220436F6450
:100040006520455252202D20004C656674202D20DD
:10005000004C656674207475726E202D20004C650E
:100060006674204261636B202D20005269676874BA
:10007000202D20005269676874207475726E202DDF
:1000800020005269676874204261636B202D200054
:10009000466F7277617264202D20004261636B208D
:1000A0002D20004272616B65202D20004272616B31
:1000B00065202D20004E6F742041737369676E2098
:1000C000436F6465202D2000526570656174204483
:1000D000617461202D200052657175657374204F25
:1000E0004B0A0D0052656365697665204461746151
:1000F000204552520A0D000011241FBECFEDCDBF86
:1001000010E0A0E6B0E0E2E2F7E002C005900D9258
:10011000A636B107D9F710E0A6E6B0E001C01D92FF
:10012000A537B107E1F7D2D1FAC26ACF1F920F9279
:100130000FB60F9211248F939F93EF93FF93E0914B
:100140006600E250E43030F4F0E0EF59FF4F908168
:10015000992311F4C19A0DC0809160008150809361
:100160006000882331F49093600088B392E089277F
:1001700088BBFF91EF919F918F910F900FBE0F90D1
:100180001F9018951F920F920FB60F9211242F9364
:100190003F934F938F939F93AF93BF9324B535B500
:1001A0001DBC1CBC8091740086958695877090E07C
:1001B00082309105A1F1833091053CF4009769F0FC
:1001C0008130910509F0C3C012C083309105E9F177
:1001D0008430910509F0BBC099C08699B8C08EB52E
:1001E00080648EBD80917400837E84600FC0869B86
:1001F000AEC08EB58F7B8EBD20523C418091740085
:100200004EE02131340728F4837E886080937400A7
:100210009EC08062809374001092730073C08699B0
:1002200096C0C90180519E4047E08930940728F468
:1002300080917400837E8C6085C02850374083E0B5
:100240002538380708F054C04AC0869980C0C901D3
:100250008058934041E0813C940768F480916F009E
:1002600090917000A0917100B0917200B695A79521
:100270009795879523C02850374083E02538380765
:10028000B8F580916F0090917000A0917100B091CD
:100290007200B695A7959795879580936F00909378
:1002A0007000A0937100B093720080916F009091E4
:1002B0007000A0917100B0917200B06880936F00DF
:1002C00090937000A0937100B093720080917300BE
:1002D0008F5F80937300809173008032C1F58091AD
:1002E0007400837E8061809374008EB580642EC01C
:1002F00080917400806280937400109273008EB5B8
:100300008F7B8EBD80917400837E80CF869B1FC0C3
:1003100080916F0090917000A0917100B091720077
:100320008093670090936800A0936900B0936A007F
:1003300080917400806880937400109273008091A3
:100340007400837E809374008EB58F7B8EBDBF91C9
:10035000AF919F918F914F913F912F910F900FBE31
:100360000F901F901895B99A8E9887B3886187BBB4
:1003700081B3886181BB089510BE85E083BF12BE42
:1003800089B7826089BF08951FBC82EC8EBD1DBCF9
:100390001CBC8FEF9FEF9BBD8ABD99BD88BD1BBE66
:1003A00015BE80E888B989B7886089BF089586E25C
:1003B00090E068D0809167003AD08091680037D093
:1003C0008091690034D080916A0031D089E290E058
:1003D00059D00895F8941092670010926800109216
:1003E000690010926A0010926F00109270001092D3
:1003F0007100109272008091740080688093740084
:100400001092730080917400837E809374008EB587
:100410008F7B8EBD789408958BB1881F8827881FA5
:1004200008958CB108955D9BFECF8CB90895CF934C
:10043000C82F82958F708A3010F0895C01C0805D72
:10044000F2DF8C2F8F708A3010F0895C01C0805DE4
:10045000EADFCF910895CF93DF9364E670E04BD14C
:10046000EC01862F805DDFDFCE016AE070E043D1D2
:10047000C82F862F805DD7DF8C2F805DD4DFDF9182
:10048000CF910895CF93DF93EC0101C0CCDFFE0143
:10049000219684918823D1F7DF91CF910895919887
:1004A0009098899A889883E389B912B888E98AB9BB
:1004B000599886E083B908951F920F920FB60F9254
:1004C00011240F900FBE0F901F901895F8944BDFDA
:1004D00053DF5ADFE4DF81E0809366008EB58F7BC7
:1004E0008EBD88B7886088BFC398C4989398949845
:1004F00085B7806585BF78948CE290E0C3DFC0E06B
:10050000D0E08091740087FFCFC080916700909108
:1005100068002FEF8030920749F085E080936600F5
:1005200087E390E0AFDF43DF55DFB9C0809169001A
:1005300090916A008C179D0709F4AAC0C0916900C8
:10054000D0916A0082E0809366008CEEC331D807B8
:1005500009F475C02CEEC431D207C8F488EEC73157
:10056000D80709F482C028EEC831D20730F487EEEC
:10057000C831D80709F089C04EC029EEC631D2076C
:1005800069F18BEEC431D80709F07FC03BC02CEF76
:10059000C330D20709F44AC08CEFC430D80750F4F6
:1005A0002DEEC231D20789F08FEEC031D80709F0A5
:1005B0006CC062C02DEFC230D20709F44BC08EEF81
:1005C000C130D80709F061C014C0C398C49893988B
:1005D0009498939A949889E490E05FC0C398C498E3
:1005E00093989498C398C49A939A949881E590E0CC
:1005F00054C0C398C49893989498C398C49A8EE5AD
:1006000090E04BC0C398C49893989498C39AC498A8
:100610008BE690E042C0C398C49893989498C39A8C
:10062000C4989398949A84E790E037C0C398C4988C
:10063000939894989398949A82E890E02EC0C398E7
:10064000C49893989498C39AC498939A949880E97C
:1006500090E023C0C398C49893989498C398C49A80
:100660009398949A8BE990E018C0C39AC49A939A8D
:10067000949A83EA90E006C0C398C498939894989B
:100680008CEA90E0FFDEA6DE09C085EB90E005C0B5
:1006900083E08093660088EC90E0F4DE88DE809151
:1006A00074008F77809374008091740086FF0BC074
:1006B00081E080936600809174008F7B809374004A
:1006C00087ED90E0DFDE8091740085FF0CC084E050
:1006D00080936600809174008F7D8093740084EE17
:1006E00090E0D0DE77DE85B7806285BF889585B7DC
:1006F0008F7D85BF06CFAA1BBB1B51E107C0AA1F78
:10070000BB1FA617B70710F0A61BB70B881F991FB2
:100710005A95A9F780959095BC01CD010895F8945C
:02072000FFCF09
:0607220020201810080061
:00000001FF
