:1000000012C02AC029C028C027C026C087C024C06B
:1000100023C022C021C020C01FC01EC01DC01DC1E2
:1000200037C11AC019C011241FBECFEDCDBF10E0DB
:10003000A0E6B0E0E6E7F3E002C005900D92AC392F
:10004000B107D9F710E0ACE9B0E001C01D92A73CC0
:10005000B107E1F721D08DC1D3CFB89AB99A85E025
:1000600090E0C09AC1982FEF30E742E02150304035
:100070004040E1F700C00000C098C19A2FEF30E780
:1000800042E0215030404040E1F700C000000197BD
:1000900041F7C098C1980895E0DF31D028D081E3BE
:1000A0009BD07894D1D08823E9F3BBD08335D1F0AD
:1000B000843538F48334C1F08E3479F0813491F78B
:1000C0000EC0833689F0843618F4813659F707C09C
:1000D0008E3619F0833731F705C080E001C081E02A
:1000E00058D0E0CF6BD001C062D08BD0DBCF12BE36
:1000F00083B7826083BF89B7826089BF0895D09833
:10010000D198889889988C988D988E98D89AD99AF1
:10011000909A919A949A959A969A08951F920F920E
:100120000FB60F9211242F933F938F939F9380913B
:10013000A00091E089278093A000882309F120B3D3
:1001400020952377C89902C038E001C030E089B318
:1001500090E08095909582709070880F991F822B07
:10016000832B90919E00891749F490919D00809374
:100170009D009095982311F090939C0080939E0091
:100180009F918F913F912F910F900FBE0F901F90D5
:100190001895F89480939F0080919F00882319F40C
:1001A000C09AC19802C0C098C19A78940895F894F2
:1001B00080919C0010929C0078940895F894E091AE
:1001C0009D00E950EC3328F4F0E0E05AFF4F8081C5
:1001D00001C080E0789408951092C6001092B50096
:1001E0001092A4001092A3008093A20087B3806AAB
:1001F00087BBC79AC59ABD9888EA8DB980EF8EB93A
:1002000008959091A3009F5F9F702091A400921782
:10021000E1F3E92FF0E0EB55FF4F80839093A300CB
:1002200008959091B5008091C6009817D1F3809100
:10023000C6008F5F8F708093C600E091C600F0E02B
:10024000EA54FF4F808108952091B5009091C60037
:1002500081E0291709F480E008951F920F920FB6EC
:100260000F9211248F931092A100BD98B79B02C0EA
:10027000B59BFCCFB59902C088EF01C088EA8DB963
:1002800080EF8EB98F910F900FBE0F901F90189531
:100290001F920F920FB60F9211248F939F93EF939B
:1002A000FF938091A1008230D9F1833030F488230C
:1002B00061F0813009F054C018C08430B9F1843045
:1002C00088F0853009F04CC037C08FB1882331F0F9
:1002D0008FB186959091A2008917F9F4789B39C067
:1002E00081E038C08FB18823C1F49091A300809140
:1002F000A400981791F08091A4008F5F8F70809375
:10030000A400E091A400F0E0EB55FF4F80818FB98D
:1003100082E08093A100BD9A0DC088EA8DB90AC021
:1003200083E08093A100BD981FB818C085E080933A
:10033000A100BD9880E713C08091B5008F5F8F70DA
:100340008093B500E091B5008FB1F0E0EA54FF4F23
:10035000808384E08093A1001FB8BD9A8EE78EB998
:10036000FF91EF919F918F910F900FBE0F901F9073
:060370001895F894FFCF80
:10037600303400380000000031350039000000003C
:1003860000000000000000003236002A00000000D5
:100396000000000000000000000000000000000057
:0C03A600000000000000000033370023BE
:00000001FF
