:100000000C94AA000C94C7000C94C7000C94C70071
:100010000C94C7000C94C7000C94C7000C94F10119
:100020000C94C7000C94C7000C9425080C94EE089F
:100030000C94C7000C94C7000C94C7000C94C70024
:100040000C94C7000C94C7000C9414110C943A1132
:100050000C94C7000C94C7000C94C7000C94C70004
:100060000C94C7000C94C700454550524F4D204397
:100070004C454152204552524F52210A00434C45B3
:100080004152204F4B210A004D555445204F4646C2
:100090002E0A004D555445204F4E2E0A0043482845
:1000A0002564293A20257328256429202573203DBD
:1000B0003E2053617665204F4B210A004545505242
:1000C0004F4D2053415645204552524F52210A0070
:1000D00046524551204552524F52210A0053544135
:1000E00054494F4E204E414D45204552524F5221CA
:1000F0000A0046524551204552524F520A00526161
:1001000064696F20636F6E74726F6C2070726F67BA
:1001100072616D2076657220302E310A004D555483
:1001200045204F46462E0A004D555445204F4E2E31
:100130000A004348282564293A2025732825642984
:10014000202573203D3E2053656C656374204F4B22
:10015000210A000011241FBECFEFD8E0DEBFCDBFC3
:1001600011E0A0E0B1E0ECECF4E202C005900D92E9
:10017000A836B107D9F712E0A8E6B1E001C01D9298
:10018000A434B107E1F70E94E8020C9464120C94C5
:100190000000809101029091020221E030E082276C
:1001A000932790930202809301020E94A70E8091F0
:1001B000010290910202009721F02A9A88E291E0D0
:1001C00003C02A988DE191E00E94C30F0895EF9239
:1001D000FF920F931F93DF93CF93CDB7DEB72A978C
:1001E0000FB6F894DEBF0FBECDBF64E670E00E948C
:1001F00073117C01CB018E010F5F1F4FB8014AE0E4
:1002000050E00E94F811C8010E94BB0980E091E013
:100210000E94BB09B701E114F10429F0C7016AE0AB
:1002200070E00E948711CB018E010F5F1F4FB80154
:100230004AE050E00E94F811C8010E94BB0982E028
:1002400091E00E94BB092A960FB6F894DEBF0FBE5C
:10025000CDBFCF91DF911F910F91FF90EF90089547
:100260000F931F93DF93CF93CDB7DEB72A970FB6C7
:10027000F894DEBF0FBECDBF8E010F5F1F4FB801D8
:100280004AE050E00E94F811C8010E94BB0986E0D4
:1002900091E00E94BB092A960FB6F894DEBF0FBE0C
:1002A000CDBFCF91DF911F910F9108950F931F93B1
:1002B000DF93CF93CDB7DEB72A970FB6F894DEBFA2
:1002C0000FBECDBF81E00E94430981E061E00E9442
:1002D000D50988E092E00E94BB098091F901813044
:1002E00029F582E061E00E94D5098AE091E00E9450
:1002F000BB098091FB019091FC018E010F5F1F4FA4
:10030000B8014AE050E00E94F811C8010E94BB0900
:1003100082E067E00E94D50980910502882319F4E4
:100320008DE091E044C080E191E041C0823089F4E9
:1003300061E00E94D509209105028091060290910A
:100340000702223019F40E94E70033C00E943001F6
:1003500030C0833071F582E061E00E94D509809160
:100360000502823069F40E94CE0E009719F083E1F5
:1003700091E002C08AE191E00E94BB0982E005C0E1
:100380008AE191E00E94BB0980E00E94B30E9927A8
:1003900087FD90958E010F5F1F4FB8014AE050E036
:1003A0000E94F81182E067E00E94D509C8010E940E
:1003B000BB092A960FB6F894DEBF0FBECDBFCF9112
:1003C000DF911F910F9108958091F9018F5F8093C4
:1003D000F901843018F081E08093F9010E94560100
:1003E00008951F920F920FB60F9211242F938F939F
:1003F0009F931092FA0189B18095982F84FF03C0D2
:1004000021E02093FA0195FF05C02091FA012260B6
:100410002093FA0196FF05C09091FA0194609093A1
:10042000FA0187FF05C08091FA0188608093FA0184
:100430009F918F912F910F900FBE0F901F90189545
:1004400081E08093F9010E9456010895DF93CF93D4
:10045000CDB7DEB72D81222319F42DE031E002C0A3
:1004600020E131E04DB75EB74A5050400FB6F894E6
:100470005EBF0FBE4DBFEDB7FEB7319642E351E010
:10048000ADB7BEB712965C934E9311979383828358
:10049000358324838E819F8197838683CE0108963E
:1004A000918780870E9405104DB75EB7465F5F4F0A
:1004B0000FB6F8945EBF0FBE4DBF0E9420026E8142
:1004C0007F818D8140E00E94410E809101029091D8
:1004D00002020E94A70ECF91DF9108958091FB0147
:1004E0009091FC0185339105A9F12091FF01309194
:1004F00000022130310571F18230910558F10197E8
:100500009093FC018093FB0165E072E00E94780704
:100510008DB79EB743970FB6F8949EBF0FBE8DBFA1
:100520008091FB019091FC01ADB7BEB71196E5E05B
:10053000F2E023E101900D922150E1F70E942602A2
:100540008DB79EB743960FB6F8949EBF0FBE8DBF72
:100550000E94200208958091FB019091FC01853357
:100560009105A9F12091FF01309100022130310560
:1005700071F18217930758F501969093FC018093CF
:10058000FB0165E072E00E9478078DB79EB7439744
:100590000FB6F8949EBF0FBE8DBF8091FB01909166
:1005A000FC01ADB7BEB71196E5E0F2E023E10190A2
:1005B0000D922150E1F70E9426028DB79EB7439617
:1005C0000FB6F8949EBF0FBE8DBF0E942002089503
:1005D0002F923F924F925F926F927F928F929F9253
:1005E000AF92BF92CF92DF92EF92FF920F931F9341
:1005F000DF93CF93CDB7DEB7C254D0400FB6F89497
:10060000DEBF0FBECDBFF8942098289A8AB18F70B4
:100610008AB98BB1806F8BB9229A82E08093B00047
:1006200087E08093B1008BE98093B30080917000E4
:1006300082608093700080E880BF0E94A7070E94BC
:10064000700960E076E980E090E00E94BE1089EFDA
:1006500090E19093700180936F010E9427070E94A0
:100660000F0978941092020210920102109218025F
:1006700081E090E09093FC018093FB0181E0809306
:10068000F9010E943F07909300028093FF010097B9
:1006900079F4109205028AE992E090930702809320
:1006A000060288E092E06FE171E00E94CA1108C082
:1006B0008091FB019091FC0165E072E00E94780757
:1006C00080E00E945D0A80913F02909140029093E9
:1006D0000402809303028091390290913A02909330
:1006E000FE018093FD0160910602709107028091E6
:1006F000050240E00E94790E0E9456018EEF90E0C4
:100700000E94C30F18E0612E12E0712EB5E08B2E0F
:10071000912C8C0E9D1EA3E2CA2ED12CCC0EDD1E78
:10072000F2E0BF2EAA24A394EFE04E2E512C4C0EE3
:100730005D1E7DE9272E70E0372E8EE30E94B40FF8
:10074000EE24FF248091FA01882349F180FF03C041
:100750000E94E40114C081FF03C00E946E020FC01A
:1007600082FF09C00E94C90080911802882339F0D5
:100770000E94200204C083FF02C00E94AB021092BC
:10078000180209C08FEF91EEA4E081509040A04084
:10079000E1F700C000008091FA01882399F7809169
:1007A0001902823009F0D8C180911B0290911A027F
:1007B000923009F0CFC1803209F0CCC180911D0286
:1007C000882309F0C7C180911E028F3F09F0C2C182
:1007D00080911F02823129F4109218020E94E401D4
:1007E000B9C180911F02863129F4109218020E942B
:1007F0006E02B0C180911F02873129F41092180255
:100800000E94AB02A7C180911F02883109F04BC042
:100810001092180281E00E94430981E061E00E9489
:10082000D50986E291E00E94BB0980E00E94DC0DC0
:10083000809103029091040260E00E944A0F90931D
:10084000040280930302009779F480913F02909113
:100850004002909304028093030260E00E944A0FDA
:10086000909304028093030280910102909102020E
:100870000E94A70E82E061E00E94D50980910302E8
:10088000909104020E943001809103029091040231
:100890002091660130916701820F931F90930402AB
:1008A0008093030257C180911F02893109F04BC028
:1008B0001092180281E00E94430981E061E00E94E9
:1008C000D5098EE291E00E94BB0982E00E94DC0D16
:1008D0008091FD019091FE0160E00E94D70E9093FF
:1008E000FE018093FD01009779F480913902909187
:1008F0003A029093FE018093FD0160E00E94D70EC2
:100900009093FE018093FD0180910102909102027B
:100910000E94A70E82E061E00E94D5098091FD014E
:100920009091FE010E94E7008091FD019091FE01EF
:1009300020913D0230913E02820F931F9093FE0161
:100940008093FD0107C180911F02813129F410922B
:1009500018020E94C900FEC080911F028331C1F4B9
:10096000B0921802109269011092680181E00E9411
:10097000430981E061E00E94D50986E391E00E948D
:10098000BB0982E061E00E94D5098BE391E01BC0C6
:1009900080911F028431D1F4A09218021092690153
:1009A0001092680181E00E94430981E061E00E94A9
:1009B000D5098EE391E00E94BB0982E061E00E94CC
:1009C000D5098AE091E00E94BB09C4C080911F0252
:1009D0008D3029F4109218020E942002BBC0809131
:1009E0001F0280911F028A3058F5809118028823D7
:1009F00009F4B0C0209168013091690193E0283E6C
:100A0000390708F0A7C040911F02C901880F991F3C
:100A100053E0220F331F5A95E1F7820F931F840F83
:100A2000911D9093690180936801B4014AE050E000
:100A30000E94F81182E063E00E94D509C401C3CF8F
:100A400080911F028F3008F485C080911802813098
:100A5000D9F50E943F07909300028093FF012091F7
:100A60006801309169012115310539F0821793072A
:100A700020F03093FC012093FB018091FB019091C9
:100A8000FC0165E072E00E947807ADB7BEB75397EE
:100A90000FB6F894BEBF0FBEADBF8091FB01909121
:100AA000FC011196E5E0F2E023E101900D92215066
:100AB000E1F70E942602EDB7FEB773960FB6F894E1
:100AC000FEBF0FBEEDBF42C0823009F043C00091AF
:100AD00068011091690180913F02909140020817CE
:100AE0001907A8F080913B0290913C028017910772
:100AF00070F010920502109307020093060288E03E
:100B000092E065E471E00E94CA1180E01BC0809110
:100B1000390290913A0208171907C0F080914202F9
:100B2000909143028017910788F0B09205021093CC
:100B300007020093060288E092E065E471E00E94FB
:100B4000CA1182E0B80140E00E94410E0E942002DA
:100B500010921802109219020E94DF10882309F4E3
:100B6000F1CD0E94E2108D30E1F0883041F4E114C3
:100B7000F10409F4E7CD0894E108F1080FC08032D0
:100B800008F4E0CDFFE1EF16F1040CF0DBCDF60147
:100B9000EE0DFF1D80830894E11CF11C0E94B40F30
:100BA000D1CDF601EE0DFF1D10828AE00E94B40F38
:100BB0008201C60102C080E090E06CE471E00E9416
:100BC000BC11D8018D939D938D01009719F0AC1540
:100BD000BD0589F70F851889C8016EE471E00E9490
:100BE000C111009709F097C0CE014196BE016F5F19
:100BF0007F4F0E946310882319F482EF90E024C194
:100C00006B897C896115710519F48DED90E01CC12B
:100C100089819A81AB81BC819C0140913F025091B6
:100C200040028417950750F040913B0250913C02DE
:100C30004817590718F01092050214C04091390264
:100C400050913A022417350750F02091420230911A
:100C500043022817390718F0B092050203C080ED4F
:100C600090E0F2C0909307028093060288E092E041
:100C70000E94CA1185E092E00E9446079093FC0111
:100C80008093FB01BFEF8F3F9B0719F48CEB90E043
:100C9000DBC00E943F07909300028093FF012091E8
:100CA000FB013091FC0180910502882319F48DE04D
:100CB00091E002C080E191E0EDB7FEB73A970FB640
:100CC000F894FEBF0FBEEDBF3196ADB7BEB712961A
:100CD0003C922E9211973383228395838483809153
:100CE00006029091070297838683718660860E9430
:100CF0000510EDB7FEB73A960FB6F894FEBF0FBEDB
:100D0000EDBF60910602709107028091050240E0FC
:100D10000E94410E39C0C8016AE071E00E94C11111
:100D20000097A9F5CE014196BE016F5F7F4F0E94EB
:100D3000631089819A819093FC018093FB0165E0A7
:100D400072E00E9478074DB75EB7435150400FB62E
:100D5000F8945EBF0FBE4DBF8091FB019091FC01E6
:100D6000ADB7BEB71196E5E0F2E023E101900D9238
:100D70002150E1F70E9426028DB79EB743960FB629
:100D8000F8949EBF0FBE8DBF0E942002D6CCC80132
:100D900062E571E00E94C111009749F509891A893D
:100DA000C80167E571E00E94C111009761F481E01C
:100DB00090E090930202809301020E94A70E2A9A6B
:100DC00083E990E041C0C8016AE571E00E94C11169
:100DD000009709F0B2CC109202021092010280E05A
:100DE00090E00E94A70E2A9888E890E02DC0C801E4
:100DF0006EE571E00E94C111009709F09ECC0E943F
:100E00009E070E943F07909300028093FF01009786
:100E1000C9F4109205028AE992E090930702809348
:100E2000060288E092E06FE171E00E94CA1181E061
:100E300090E09093FC018093FB01A092F9018DE773
:100E400090E002C088E690E00E94C30F76CC80E07C
:100E500090E00E942912F999FECF8C3C79F080E055
:100E600090E06CEC0E944112F999FECF82E090E094
:100E700060E070E00E944F12F999FECF089582E081
:100E800090E00E943112F999FECF0895EF92FF92FF
:100E90000F931F93CF93DF938C010E943F07EC01C8
:100EA00085339105D8F483E190E0C89FB001C99FD4
:100EB000700DD89F700D11246C5F7F4FC80143E106
:100EC00050E00E943712F999FECF219682E090E01F
:100ED000BE010E944F12F999FECF02C0CFEFDFEFA3
:100EE000CE01DF91CF911F910F91FF90EF90089568
:100EF0000F931F93CF93DF93EC018B010E943F0769
:100F00008C179D0798F083E190E0C89FB001C99FBE
:100F1000700DD89F700D11246F507040C80143E1CF
:100F200050E00E94191221E030E002C020E030E0E1
:100F3000C901DF91CF911F910F91089582E090E058
:100F400060E070E00E944F12F999FECF08958CE0A6
:100F50008093B8001092B90084E08093BC0008959B
:100F600084EA8093BC008091BC0087FFFCCF809115
:100F7000B900887F883021F0803121F481E0089524
:100F800080E0089583E6089584E98093BC00089585
:100F90008093BB0094E89093BC009091BC0097FFB5
:100FA000FCCF9091B900987F903269F0983469F045
:100FB000983121F480FF0BC083E00895903449F408
:100FC00080FF09C004C081E0089582E0089580E0B8
:100FD000089583E6089584E008958093BB0084E833
:100FE0008093BC008091BC0087FFFCCF8091B9004A
:100FF000887F883221F0803321F481E0089580E0F9
:10100000089583E60895662311F424EC01C024E8D2
:101010002093BC002091BC0027FFFCCF2091BB0097
:10102000FC0120838091B900887F803521F481E024
:10103000662351F404C0883521F4662321F080E052
:10104000089583E6089582E008951F920F920FB6E7
:101050000F9211242F933F934F935F936F937F933E
:101060008F939F93EF93FF938091860090918700D9
:101070004091810020916D0130916E0146FF22C0A8
:10108000409181004F7B40938100409184005091BA
:1010900085004052514D509389004093880042E0B2
:1010A00046BB40916F00426040936F00AC01421B11
:1010B000530B50936E0140936D0190936C0180939C
:1010C0006B017DC04091810040644093810040915C
:1010D0006F004D7F40936F0090936E0180936D0180
:1010E00040916B0150916C0160911902623008F0DF
:1010F00066C0841B950BA901445159436AE14935E7
:101100005607F8F4AC0148555A4171E14139570787
:1011100010F060E001C062E0AC014C525D40E8E0DC
:10112000493C5E0718F0662311F40BC063E060933E
:101130001A0210921C0281E080936A0180931902C6
:101140003EC0409119024130C1F540911C024695C4
:10115000469546954C3198F550E0FA01E75EFD4F13
:10116000648170911A02723041F5F6E027393F0729
:1011700020F523E1833C920700F520916A0138E0D5
:10118000883C930718F0862F822B03C0822F80950E
:101190008623475E5D4FFA01848380916A01880F40
:1011A00080936A01882319F481E080936A01809119
:1011B0001C028F5F80931C0202C010921902FF91E3
:1011C000EF919F918F917F916F915F914F913F919F
:1011D0002F910F900FBE0F901F9018951F920F9296
:1011E0000FB60F9211248F939F93909119028091C3
:1011F0006F008D7F80936F00913041F480911C02CD
:1012000080931B0282E08093190202C0109219029F
:101210009F918F910F900FBE0F901F901895E1E84E
:10122000F0E082E880831092190280818F7B8083B6
:1012300080E286BB80936F00089587B18F6087B985
:1012400088B1807F88B98AB18C608AB98BB1837F7D
:101250008BB9089598B18F70907F892B88B96130D0
:1012600011F45B9A01C05B988FE99FE00197F1F759
:1012700000C000005A9A8FE99FE00197F1F700C083
:1012800000005A9808951F93182F82958F7060E080
:101290000E942A09812F60E00E942A091C7F29F000
:1012A00087EC90E00197F1F704C08FE39FE101978D
:1012B000F1F700C000001F9108951F93182F829529
:1012C0008F7061E00E942A09812F61E00E942A0943
:1012D00087EC90E00197F1F700C000001F9108959E
:1012E0000E941D098FE795EBA1E081509040A0403E
:1012F000E1F700C0000082E060E00E942A0982E07D
:1013000060E00E942A0988E060E00E942A09A7ECB8
:10131000B0E01197F1F700C0000080E060E00E94AB
:101320002A098CE060E00E942A0987EC90E001978E
:10133000F1F700C0000080E060E00E942A0981E02F
:1013400060E00E942A09AFE3BFE11197F1F700C006
:10135000000080E060E00E942A0986E060E00E94D0
:101360002A098FEF90E7A2E081509040A040E1F77A
:1013700000C000000895CF93DF93EC0102C00E94EB
:101380005D0989918823D9F7DF91CF910895CF9393
:10139000DF93EC0102C00E945D09FE012196849159
:1013A0008823C9F7DF91CF9108958150823030F4BE
:1013B000E82FF0E0EC59FE4F808101C080E86150D9
:1013C000860F0E94430908951F93DF93CF930F92D6
:1013D000CDB7DEB7182F69830E94B00788EC0E9452
:1013E000C807812F0E94ED076981862F0E94ED07B3
:1013F0000E94C4070F90CF91DF911F9108951F9312
:10140000DF93CF930F92CDB7DEB7182F0E94B007AE
:1014100088EC0E94C807812F0E94ED070E94B00748
:1014200089EC0E94C807CE01019661E00E94030882
:101430000E94C40789810F90CF91DF911F91089579
:101440001F93DF93CF9300D0CDB7DEB7182F4A8319
:1014500069830E94FF096981609568234A81642B32
:10146000812F0E94E4090F900F90CF91DF911F917F
:1014700008951F93DF93CF9300D0CDB7DEB7182F19
:101480004A8369830E94FF094A816981413011F4CE
:10149000682B02C060956823812F0E94E4090F9099
:1014A0000F90CF91DF911F9108950E94B0078FEFA9
:1014B0000E94ED070E94C4070895823009F44BC0D2
:1014C000833030F4882359F0813009F0B6C025C04C
:1014D000833009F463C0843009F0AFC087C080EB6B
:1014E0009DE190933A028093390280E39AE29093CF
:1014F0004302809342028AE090E090933E02809300
:101500003D0282E0809341028AE092E090934002A3
:1015100080933F028DE596E05EC08EE292E290936A
:101520003A028093390280E39AE2909343028093D7
:10153000420282E390E090933E0280933D0282E07B
:10154000809341028AE092E09093400280933F02B0
:1015500084E596E040C02EE232E230933A022093D6
:10156000390220E33AE2309343022093420224E11D
:1015700030E030933E0220933D028093410288E0A8
:1015800092E09093400280933F0288EB96E0909324
:101590003C0280933B028AE090E023C08CEF91E212
:1015A00090933A028093390280E39AE29093430247
:1015B000809342028AE090E090933E0280933D0245
:1015C00082E0809341028AE092E09093400280930F
:1015D0003F028BE496E090933C0280933B0289E0CB
:1015E00090E09093670180936601089584E699E105
:1015F00090933A028093390288EE9CE190934302E3
:101600008093420282E390E090933E0280933D02F9
:1016100081E0809341028AE092E0909340028093BF
:101620003F0284E596E090933C0280933B0289E080
:1016300090E0909367018093660108950E94550A97
:101640008EEF6AEA0E94E40981E060E30E94E40907
:101650008CE060E80E94E4098EE064E30E94E40903
:1016600085E164EC0E94E40980E26CE30E94E409F5
:1016700081E263E00E94E40982E26AE00E94E409F8
:1016800083E26AE00E94E40980E36FEF0E94E409CC
:101690008DE367E00E94E40980E46AE10E94E409C6
:1016A00081E46AE90E94E40980E561EE0E94E409B0
:1016B00084E560EB0E94E40985E566E30E94E409A5
:1016C0008CE568EC0E94E4098DE561E60E94E4097E
:1016D0008EE568E80E94E4098FE565EA0E94E40966
:1016E00081E76CE20E94E40982E766E00E94E40977
:1016F00080E061E041E00E94390A80E062E041E080
:101700000E94390A089580E062E041E00E94390AAF
:101710008FEF99EFA0E081509040A040E1F700C02A
:10172000000080E36FEE0E94E40980E061E040E0A9
:101730000E94390A08950F931F93DF93CF9300D02F
:10174000CDB7DEB785E16EE00E94E4098DE367E284
:101750000E94E40910E090EF27C087E3612F2983FE
:101760009A830E94E409602F6A5E86E10E94E40980
:10177000AFE3BCE91197F1F700C0000080E70E94D9
:10178000FF098C7029819A818C3031F42F5F0130F0
:1017900019F4903F09F4912F0F5F0330F1F62330D5
:1017A00031F01F5F143021F000E020E0D6CF912F00
:1017B000692F606887E30E94E40986E167E10E947F
:1017C000E4098DE367E30E94E4098FEF90E7A2E06C
:1017D00081509040A040E1F700C000000F900F90B2
:1017E000CF91DF911F910F9108951F93182F82E3DE
:1017F00060E00E94E40911C0612F606C87E10E94E3
:10180000E4098FE19EE40197F1F700C0000080E752
:101810000E94FF0983FF03C01F5F103168F3612F2F
:101820006150606C87E10E94E40982E360E80E94F5
:10183000E409AFE1BEE41197F1F700C000008EEFBC
:101840006AE00E94E4098FEF99EFA0E08150904098
:10185000A040E1F700C000001F9108959F92AF9251
:10186000BF92CF92DF92EF92FF920F931F93CF938D
:10187000DF937B01EA0189018295807F3AE0B32EF4
:10188000B82A2BE0C22EC82A90E1D92E85E16B2D13
:101890000E94E40985E16C2D0E94E40985E00E9424
:1018A000FF0983FF23C084E1A82E85E00E94FF0981
:1018B00083FD14C085E60E94FF09982E86E60E94EB
:1018C000FF09992D9756943248F4833038F4988262
:1018D000F701808381E0F80180830CC08FE39CE9ED
:1018E0000197F1F700C00000AA94F9F6DA9471F6B6
:1018F000F8011082DF91CF911F910F91FF90EF902F
:10190000DF90CF90BF90AF909F9008958F929F925D
:10191000BF92CF92DF92EF92FF920F931F93DF93CC
:10192000CF930F92CDB7DEB7E62EF72E082F192FE3
:1019300088249924DD24D7016D917D0188E30E94DC
:10194000E409F80161918F016295607F89E30E944B
:10195000E409882D8295807F6EE0B62EB82A53E088
:10196000C52EC82A90E085E16B2D99830E94E40979
:1019700085E16C2D0E94E40985E00E94FF099981B0
:1019800083FF1BC08FEF91EEA4E081509040A040F8
:10199000E1F700C000004AE0C42E85E00E94FF0984
:1019A00083FD02C0D3940CC0AFE3BCE91197F1F7FB
:1019B00000C00000CA9489F703C09F5F9A3099F66F
:1019C0000894811C911C8D2D90E08815990529F4AF
:1019D000B4E08B16910409F0AECF0F90CF91DF9158
:1019E0001F910F91FF90EF90DF90CF90BF909F904D
:1019F0008F9008952F923F924F925F926F927F92B5
:101A00008F929F92AF92BF92CF92DF92EF92FF920E
:101A10000F931F93DF93CF93CDB7DEB72D970FB6FC
:101A2000F894DEBF0FBECDBF85E0DE011496FD0148
:101A3000982F11929A95E9F79E01275F3F4FF90180
:101A400011928A95E9F75D01490100E010E0A2E0FA
:101A50004A2E512C4C0E5D1EF3E02F2E312C2C0EF5
:101A60003D1E3E010894611C711CC02EB801E4E0CB
:101A7000660F771FEA95E1F76A6085E10E94E40945
:101A80008FEF95EDA6E081509040A040E1F700C0B7
:101A9000000085E00E94F50BEE24DD24FF248C2D50
:101AA000B301A20191010E942E0C8B81882359F170
:101AB0008981D80E8A81E80E9F2D923019F4AC2DC1
:101AC000A23028F0F394BF2DB53049F702C073E07F
:101AD000F72E8D2D6F2D0E946711F50181935F0107
:101AE0008E2D0E946711D4018D934D010F5F1F4F02
:101AF0000430110509F0B9CFCE010496BE01675F2D
:101B00007F4F0E94860C2D960FB6F894DEBF0FBE55
:101B1000CDBFCF91DF911F910F91FF90EF90DF909C
:101B2000CF90BF90AF909F908F907F906F905F907D
:101B30004F903F902F9008958EE060E640E40E9421
:101B4000200A81E068E00E94E40985E16CE00E94DF
:101B5000E40986E167E10E94E40987E362E80E9404
:101B6000E4098DE367E30E94E4098FEF90E7A2E0C8
:101B700081509040A040E1F700C000000E949B0B04
:101B80000E94FA0C81E068E30E94E4098EE060E6BE
:101B900040E20E94200A85E160EC0E94E40987E1AE
:101BA00060E20E94E40982E360E00E94E40987E3C6
:101BB00061E00E94E4090895882319F08130A1F5BD
:101BC0002DC080E060E740E20E94200A8CE06FE0D8
:101BD00040E00E94200A809166019091670189305F
:101BE000910521F484E060E841E006C08A30910567
:101BF00001F584E060E840E00E94390A8CE060E88A
:101C000041E00E94390A8CE060E640E00E94200A30
:101C10008CE060E140E00E94390A089580E060E7CE
:101C200040E10E94200A089580E060E740E00E94C1
:101C3000200A0895FF920F931F93182FF92E062F55
:101C4000662349F480E160E141E00E94390A80E1C5
:101C50006FE040E008C080E160E140E00E94390AA6
:101C600080E16FE0402F0E94200A82E0612F0E94F5
:101C7000E40983E06F2D0E94E4091F910F91FF900A
:101C80000895FF920F931F93DF93CF930F92CDB7D9
:101C9000DEB7182FCB01042F112339F065E070E077
:101CA0000E947311F62E972F01C0F62E80E062E09D
:101CB00041E099830E94390A2FEF39EF40E021502B
:101CC00030404040E1F700C00000812F0E94DC0D51
:101CD0008F2D9981602F0E941A0E80E062E040E013
:101CE0000E94390A0F90CF91DF911F910F91FF90C1
:101CF00008950F931F93DF93CF9300D0CDB7DEB736
:101D0000182FCB01112339F065E070E00E947311A8
:101D1000062F972F01C0062F49839A830E941E0B1E
:101D20000E949C0D812F0E94DC0D802F9A81498199
:101D3000642F0E941A0E80E062E040E00E94390A9F
:101D40000F900F90CF91DF911F910F910895009701
:101D500021F080E062E041E003C080E062E040E02A
:101D60000E94390A08958823A9F481E068E040E0E0
:101D70000E94390A81E068E041E00E94390A8FE759
:101D80009BEB0197F1F700C0000086E00E94FF097D
:101D90008F7708958CE60E94FF09089585E00E94E0
:101DA000FF09282F30E021703070C9010895CF92CB
:101DB000DF92EF92FF920F931F93DF93CF930F92D7
:101DC000CDB7DEB7082FF62E80E062E041E09983C0
:101DD0000E94390A9981602F792F6B0105E010E08C
:101DE000C601B8010E947311CB016F2D0E941A0E1B
:101DF0008EEF6AE00E94E4092FEF36E741E02150C0
:101E000030404040E1F700C0000085E00E94FF093B
:101E100082FD15C08CE60E94FF098E3184F08FE3AD
:101E20009CE90197F1F700C0000085E00E94FF09DE
:101E300082FD05C08CE60E94FF098E31ACF48091D2
:101E40003D0290913E02C80ED91E809142029091AF
:101E500043028C159D0520F680E062E040E00E9480
:101E6000390ACC24DD240BC0AFE3BCE91197F1F7AC
:101E700000C0000080E062E040E00E94390AC60134
:101E80000F90CF91DF911F910F91FF90EF90DF9016
:101E9000CF900895CF92DF92EF92FF920F931F930E
:101EA000DF93CF930F92CDB7DEB7082F162F80E0C8
:101EB00062E041E099830E94390A9981C02ED92EAF
:101EC000C601612F0E941A0E8EEF6AE00E94E4099B
:101ED0002FEF36E741E0215030404040E1F700C0AD
:101EE000000002E081E068E040E00E94390A81E001
:101EF00068E041E00E94390A8FE79BEB0197F1F718
:101F000000C0000085E00E94FF0981FF06C086E056
:101F10000E94FF098F778832ACF48091660190911E
:101F20006701C80ED91E80913B0290913C028C152E
:101F30009D0530F680E062E040E00E94390ACC2442
:101F4000DD2407C0015071F680E062E040E00E94AD
:101F5000390AC6010F90CF91DF911F910F91FF9029
:101F6000EF90DF90CF9008958A3019F48DE001D082
:101F70008AE0FF93EF93E0916F01F0917001099572
:101F8000EF91FF910895FC018591803011F0ECDF15
:101F9000FBCF0895FF27E0E230E247FF0CC04195F8
:101FA00097FF09C0EDE26095709580959095611D51
:101FB000711D811D911D27FF02C0219530E350E264
:101FC000AA27660F771F881F991FAA1FA41710F052
:101FD000A41B63955A95A9F7AA3008F0A95FA05DE4
:101FE000AF93F395611571058105910541F7ED32C8
:101FF00011F4EF93F395F21718F43F93F395FBCF99
:102000008F91B2DFFA95E1F70895DF93CF93CDB7C3
:10201000DEB72596E991F9918591803021F08532DE
:1020200029F0A2DFF9CFCF91DF91089520E0E89465
:1020300055915532B1F3503311F4689455915A3398
:1020400048F4505380F3220F022E220F220F200D4E
:10205000250FF4CF0EF4219589919991533609F308
:10206000533729F1533559F1BC0188279927E89452
:102070005C3621F48991999168945591543639F4DC
:1020800046EF7EF077FF0DC08FEF9FEF0AC0553708
:102090004AE039F0583540E121F0523642E009F08B
:1020A000C2CFFF93EF9376DFEF91FF91B5CFFF9310
:1020B000EF93FC0181918030B9F356DFFBCFFF93A2
:1020C000EF9361DFF1CF0B01DC01ED91FD91222750
:1020D000332744275527E8949AE001C03196608160
:1020E0006032E1F3A8F16D3211F46894F7CF6A33EE
:1020F00078F5603368F171F498E03196608161326F
:1021000048F1623611F492E003C0683719F490E1A7
:10211000319660816132F0F0613608F060526053B0
:10212000B8F06A3018F067506A3090F0691780F4A0
:1021300081E2771B08F4790F769557954795379587
:1021400027958A95B9F7260F381F481F581FE0CFEB
:1021500080E001C081E04EF46627209530954095DF
:102160005095261F361F461F561FFE93EE93D00133
:102170002D933D934D935D93112408959B01AC01E4
:10218000E4E6F0E080818D7F808384E0220F331FBE
:10219000441F551F8A95D1F760E074E284EF90E008
:1021A0000E949A11215030403093C5002093C40002
:1021B00086E08093C20088E88093C10008958091F2
:1021C000B60108958091B6018823E1F39091B5019D
:1021D000E92FF0E0EC54FE4F8381F8942091B60192
:1021E00021502093B60178949F5F9F739093B5011F
:1021F0000895909173019034E0F720917101E22FDE
:10220000F0E0EF58FE4F8383F894909173019F5F45
:102210009093730188EB8093C1007894822F8F5F35
:102220008F738093710108951F920F920FB60F92D2
:1022300011248F939F93EF93FF939091C600809109
:10224000B601803470F48F5F8093B6018091B40141
:10225000E82FF0E0EC54FE4F93838F5F8F738093F1
:10226000B401FF91EF919F918F910F900FBE0F904E
:102270001F9018951F920F920FB60F9211242F9353
:102280008F939F93EF93FF9390917301992391F014
:1022900091509093730180917201E82FF0E0EF5814
:1022A000FE4F23812093C6008F5F8F73809372014E
:1022B000992319F488E98093C100FF91EF919F91D0
:1022C0008F912F910F900FBE0F901F901895991B13
:1022D00079E004C0991F961708F0961B881F7A951D
:1022E000C9F780950895AA1BBB1B51E107C0AA1F1F
:1022F000BB1FA617B70710F0A61BB70B881F991FA7
:102300005A95A9F780959095BC01CD01089597FB4A
:10231000092E07260AD077FD04D0E5DF06D000207D
:102320001AF4709561957F4F0895F6F79095819511
:102330009F4F0895A1E21A2EAA1BBB1BFD010DC0E1
:10234000AA1FBB1FEE1FFF1FA217B307E407F50765
:1023500020F0A21BB30BE40BF50B661F771F881F41
:10236000991F1A9469F760957095809590959B01D7
:10237000AC01BD01CF01089547EF51E00E94D1119A
:102380000895FB01DC018D91019080190110D9F3B2
:10239000990B0895FB01DC0101900D920020E1F7FB
:1023A0000895FA01A191B081009719F41097E1F016
:1023B000CD01DC01CD010D90002011F4C00113C04E
:1023C000FB012191222319F02015D9F7F3CFFB014E
:1023D0002191201519F41E92119606C02223C1F7EF
:1023E0000D900020A1F7D001FA01A193B0830895C8
:1023F000FB019F01E8944230C4F04532B4F44A3006
:1024000029F497FB1EF4909581959F4F642F7727B1
:102410000E947311805D8A330CF0895D8193CB013A
:102420000097A1F716F45DE251931082C9010C9454
:102430005412DC01CB01FC01F999FECF06C0F2BDBC
:10244000E1BDF89A319600B40D9241505040B8F772
:102450000895F999FECF92BD81BDF89A992780B56C
:102460000895A8E1B0E042E050E00C941B12DC01BA
:10247000CB0103C02D910E94421241505040D0F731
:102480000895262FF999FECF1FBA92BD81BD20BDB8
:102490000FB6F894FA9AF99A0FBE019608950E9421
:1024A0004112272F0C944212DC01FC01672F71911D
:1024B0007723E1F7329704C07C916D93708362912A
:0C24C000AE17BF07C8F30895F894FFCFD3
:1024CC002E004D487A004B487A00434800414D009D
:1024DC00464D0053544552454F004D4F4E4F004E04
:1024EC00484B2D5231005365656B20414D005365AF
:1024FC00656B20464D0054756E6500465100536562
:10250C006C656374004D616E75616C002000534501
:10251C0054004D555445004F4E004F464600434C19
:08252C004541520080C0090086
:00000001FF
