:100000000C94AA000C94C7000C94C7000C94C70071
:100010000C94C7000C94C7000C94C7000C94E30127
:100020000C94C7000C94C7000C94D4030C949D044A
:100030000C94C7000C94C7000C94C7000C94C70024
:100040000C94C7000C94C7000C94880C0C94AE0C54
:100050000C94C7000C94C7000C94C7000C94C70004
:100060000C94C7000C94C700526164696F20636FE1
:100070006E74726F6C2070726F6772616D2076653E
:100080007220302E310A0046524551204552524FBF
:10009000520A0053544154494F4E204E414D452081
:1000A0004552524F52210A00465245512045525264
:1000B0004F52210A00454550524F4D20534156455D
:1000C000204552524F52210A004348282564293ABC
:1000D00020257328256429202573203D3E20536167
:1000E0007665204F4B210A004D555445204F4E2E2A
:1000F0000A004D555445204F46462E0A00434C45B4
:100100004152204F4B210A00454550524F4D20434C
:100110004C454152204552524F52210A004D5554F0
:1001200045204F46462E0A004D555445204F4E2E31
:100130000A004348282564293A2025732825642984
:10014000202573203D3E2053656C656374204F4B22
:10015000210A000011241FBECFEFD8E0DEBFCDBFC3
:1001600011E0A0E0B1E0EAE0F4E202C005900D92F7
:10017000A636B107D9F712E0A6E6B1E001C01D929C
:10018000A234B107E1F70E94DB0C0C9403120C942B
:1001900000000F931F93CF93DF93CDB7DEB72A975D
:1001A0000FB6F894DEBF0FBECDBF64E670E00E94CC
:1001B00012118C01CB01BE016F5F7F4F4AE050E00E
:1001C0000E949711CE0101960E946A0580E091E09D
:1001D0000E946A05C801009729F06AE070E00E9459
:1001E0002611CB01BE016F5F7F4F4AE050E00E94B5
:1001F0009711CE0101960E946A0582E091E00E946B
:100200006A052A960FB6F894DEBF0FBECDBFDF9108
:10021000CF911F910F910895CF93DF93CDB7DEB7A4
:100220002A970FB6F894DEBF0FBECDBFBE016F5F39
:100230007F4F4AE050E00E949711CE0101960E9444
:100240006A0586E091E00E946A052A960FB6F89446
:10025000DEBF0FBECDBFDF91CF910895CF93DF9367
:10026000CDB7DEB72A970FB6F894DEBF0FBECDBF6D
:1002700081E00E94F20481E061E00E94840586E052
:1002800092E00E946A058091F701813029F582E0B1
:1002900061E00E9484058AE091E00E946A058091F5
:1002A000F9019091FA01BE016F5F7F4F4AE050E083
:1002B0000E949711CE0101960E946A0582E067E0D4
:1002C0000E94840580910302882319F48DE091E057
:1002D00044C080E191E041C0823089F461E00E9435
:1002E000840520910302809104029091050222303E
:1002F00019F40E94C90033C00E940C0130C0833041
:1003000071F582E061E00E948405809103028230F1
:1003100069F40E944A0A009719F083E191E002C053
:100320008AE191E00E946A0582E005C08AE191E0DD
:100330000E946A0580E00E942F0A992787FD909508
:10034000BE016F5F7F4F4AE050E00E94971182E04C
:1003500067E00E948405CE0101960E946A052A96F4
:100360000FB6F894DEBF0FBECDBFDF91CF910895D9
:100370008091F7018F5F8093F701843018F081E05E
:100380008093F7010E942E0108958091FF019091C2
:10039000000221E030E082279327909300028093AF
:1003A000FF010E94230A8091FF01909100020097B3
:1003B00021F02A9A88E291E003C02A988DE191E029
:1003C0000E94370B08951F920F920FB60F921124BF
:1003D0002F938F939F931092F80189B18095982F56
:1003E00084FF03C021E02093F80195FF05C0209110
:1003F000F80122602093F80196FF05C09091F80162
:1004000094609093F80187FF05C08091F80188609F
:100410008093F8019F918F912F910F900FBE0F90B5
:100420001F90189581E08093F7010E942E01089596
:10043000CF93DF93CDB7DEB79C018D81882319F46C
:100440008DE091E002C080E191E04DB75EB74A5087
:1004500050400FB6F8945EBF0FBE4DBFEDB7FEB76C
:10046000319642E351E0ADB7BEB712965C934E931E
:10047000119733832283958384838E819F81978311
:100480008683CE010896918780870E94790B4DB7AD
:100490005EB7465F5F4F0FB6F8945EBF0FBE4DBFAD
:1004A0000E9412026E817F818D8140E00E94BD0911
:1004B0008091FF01909100020E94230ADF91CF9169
:1004C00008958091F9019091FA0185339105A9F180
:1004D0002091FD013091FE012130310571F1823012
:1004E000910558F101979093FA018093F90163E027
:1004F00072E00E9428038DB79EB743970FB6F89419
:100500009EBF0FBE8DBF8091F9019091FA01ADB7EA
:10051000BEB71196E3E0F2E023E101900D92215085
:10052000E1F70E9418028DB79EB743960FB6F89474
:100530009EBF0FBE8DBF0E94120208958091F901E7
:100540009091FA0185339105A9F12091FD01309137
:10055000FE012130310571F18217930758F501969C
:100560009093FA018093F90163E072E00E942803FE
:100570008DB79EB743970FB6F8949EBF0FBE8DBF41
:100580008091F9019091FA01ADB7BEB71196E3E001
:10059000F2E023E101900D922150E1F70E94180250
:1005A0008DB79EB743960FB6F8949EBF0FBE8DBF12
:1005B0000E941202089580E090E00E94C811F9990B
:1005C000FECF8C3C79F080E090E06CEC0E94E01172
:1005D000F999FECF82E090E060E070E00E94EE11B9
:1005E000F999FECF089582E090E00E94D011F99928
:1005F000FECF08950F931F93CF93DF938C010E943A
:10060000F302EC0185339105D8F483E190E0C89FB3
:10061000B001C99F700DD89F700D11246C5F7F4F82
:10062000C80143E150E00E94D611F999FECF21960E
:1006300082E090E0BE010E94EE11F999FECF02C067
:10064000CFEFDFEFCE01DF91CF911F910F91089592
:100650000F931F93CF93DF93EC018B010E94F30262
:100660008C179D0798F083E190E0C89FB001C99F67
:10067000700DD89F700D11246F507040C80143E178
:1006800050E00E94B81181E090E002C080E090E06C
:10069000DF91CF911F910F91089582E090E060E08B
:1006A00070E00E94EE11F999FECF08958CE08093DE
:1006B000B8001092B90084E08093BC00089584EAE9
:1006C0008093BC008091BC0087FFFCCF8091B90073
:1006D000887F883021F0803121F481E0089580E026
:1006E000089583E6089584E98093BC00089580937B
:1006F000BB0094E89093BC009091BC0097FFFCCFA6
:100700009091B900987F903269F0983469F09831EF
:1007100021F480FF0BC083E00895903449F480FFFA
:1007200009C004C081E0089582E0089580E0089542
:1007300083E6089584E008958093BB0084E8809365
:10074000BC008091BC0087FFFCCF8091B900887FFE
:10075000883221F0803321F481E0089580E008950B
:1007600083E60895662311F424EC01C024E8209365
:10077000BC002091BC0027FFFCCF2091BB00FC01F6
:1007800020838091B900887F803521F481E0662341
:1007900051F404C0883521F4662321F080E00895E7
:1007A00083E6089582E008951F920F920FB60F928C
:1007B00011242F933F934F935F936F937F938F9366
:1007C0009F93EF93FF9380918600909187002091F3
:1007D000810026FF26C0209181002F7B209381007D
:1007E00020918400309185002052314D3093890052
:1007F0002093880022E026BB20916F002260209386
:100800006F002091680130916901AC01421B530BCC
:10081000509369014093680190936B0180936A0142
:100820007DC02091810020642093810020916F0081
:100830002D7F20936F002091680130916901909382
:1008400069018093680140916A0150916B01609148
:100850001702623008F062C0841B950BA901445155
:1008600059436AE149355607F8F4AC0148555A41F5
:1008700071E14139570710F060E001C062E0AC015E
:100880004C525D4078E0493C570718F0662311F45C
:100890000BC063E06093180210921A0281E080930B
:1008A0006C01809317023AC0409117024130A1F5C4
:1008B000E0911A02E695E695E695EC3178F5F0E0E0
:1008C000E95EFD4F448150911802523029F556E0FF
:1008D0002739350708F563E1833C9607E8F4209152
:1008E0006C0178E0883C970718F0842F822B03C0B6
:1008F000822F80958423848380916C01880F80935C
:100900006C01882319F481E080936C0180911A02B4
:100910008F5F80931A0202C010921702FF91EF912D
:100920009F918F917F916F915F914F913F912F9107
:100930000F900FBE0F901F9018951F920F920FB639
:100940000F9211248F939F939091170280916F00C3
:100950008D7F80936F00913041F480911A028093D3
:10096000190282E08093170202C0109217029F9131
:100970008F910F900FBE0F901F901895E1E8F0E057
:1009800082E880831092170280818F7B808380E2CF
:1009900086BB80936F00089587B18F6087B988B157
:1009A000807F88B98AB18C608AB98BB1837F8BB91B
:1009B000089598B18F70907F892B88B9613011F4B8
:1009C0005B9A01C05B988FE99FE00197F1F700C047
:1009D00000005A9A8FE99FE00197F1F700C00000EC
:1009E0005A980895CF93C82F82958F7060E00E9427
:1009F000D9048C2F60E00E94D904CC7F29F087ECC9
:100A000090E00197F1F704C08FE39FE10197F1F7C0
:100A100000C00000CF910895CF93C82F82958F70AA
:100A200061E00E94D9048C2F61E00E94D90487EC18
:100A300090E00197F1F700C00000CF9108950E9467
:100A4000CC048FE795EBA1E081509040A040E1F706
:100A500000C0000082E060E00E94D90482E060E013
:100A60000E94D90488E060E00E94D904A7ECB0E0BD
:100A70001197F1F700C0000080E060E00E94D90407
:100A80008CE060E00E94D90487EC90E00197F1F7D8
:100A900000C0000080E060E00E94D90481E060E0D6
:100AA0000E94D904AFE3BFE11197F1F700C0000045
:100AB00080E060E00E94D90486E060E00E94D904F2
:100AC0008FEF90E7A2E081509040A040E1F700C096
:100AD00000000895CF93DF93EC0102C00E940C0543
:100AE00089918823D9F7DF91CF910895CF93DF9330
:100AF000EC0102C00E940C05FE012196849188231E
:100B0000C9F7DF91CF910895823011F080E801C0DC
:100B100080EC6150860F0E94F20408951F93CF93DA
:100B2000DF930F92CDB7DEB7182F69830E945F0362
:100B300088EC0E947703812F0E949C036981862F95
:100B40000E949C030E9473030F90DF91CF911F912D
:100B500008951F93CF93DF930F92CDB7DEB7182F71
:100B60000E945F0388EC0E947703812F0E949C0300
:100B70000E945F0389EC0E947703CE01019661E039
:100B80000E94B2030E94730389810F90DF91CF917D
:100B90001F9108951F93CF93DF9300D0CDB7DEB799
:100BA000182F4A8369830E94A9056981609568238B
:100BB0004A81642B812F0E948E050F900F90DF9148
:100BC000CF911F9108951F93CF93DF9300D0CDB79E
:100BD000DEB7182F4A8369830E94A9054A8169817B
:100BE000413011F4682B02C060956823812F0E9468
:100BF0008E050F900F90DF91CF911F9108950E9465
:100C00005F038FEF0E949C030E947303089582305C
:100C100009F44BC0833030F4882359F0813009F057
:100C2000B6C025C0833009F463C0843009F0AFC07A
:100C300087C080EB9DE1909338028093370280E378
:100C40009AE290934102809340028AE090E0909370
:100C50003C0280933B0282E080933F028AE092E074
:100C600090933E0280933D028DE596E05EC08EE259
:100C700092E2909338028093370280E39AE2909355
:100C800041028093400282E390E090933C02809383
:100C90003B0282E080933F028AE092E090933E0222
:100CA00080933D0284E596E040C02EE232E230932C
:100CB00038022093370220E33AE230934102209336
:100CC000400224E130E030933C0220933B028093C9
:100CD0003F0288E092E090933E0280933D0288EBD1
:100CE00096E090933A02809339028AE090E023C024
:100CF0008CEF91E2909338028093370280E39AE27E
:100D000090934102809340028AE090E090933C02ED
:100D100080933B0282E080933F028AE092E09093CE
:100D20003E0280933D028BE496E090933A028093DA
:100D3000390289E090E09093650180936401089501
:100D400084E699E1909338028093370288EE9CE123
:100D5000909341028093400282E390E090933C02A2
:100D600080933B0281E080933F028AE092E090937F
:100D70003E0280933D0284E596E090933A02809390
:100D8000390289E090E090936501809364010895B1
:100D90000E94FF058EEF6AEA0E948E0581E060E303
:100DA0000E948E058CE060E80E948E058EE064E370
:100DB0000E948E0585E164EC0E948E0580E26CE362
:100DC0000E948E0581E263E00E948E0582E26AE065
:100DD0000E948E0583E26AE00E948E0580E36FEF39
:100DE0000E948E058DE367E00E948E0580E46AE133
:100DF0000E948E0581E46AE90E948E0580E561EE1D
:100E00000E948E0584E560EB0E948E0585E566E311
:100E10000E948E058CE568EC0E948E058DE561E6EA
:100E20000E948E058EE568E80E948E058FE565EAD2
:100E30000E948E0581E76CE20E948E0582E766E0E3
:100E40000E948E0580E061E041E00E94E30580E0C1
:100E500062E041E00E94E305089580E062E041E045
:100E60000E94E3058FEF99EFA0E081509040A040F1
:100E7000E1F700C0000080E36FEE0E948E0580E085
:100E800061E040E00E94E30508950F931F93CF9324
:100E9000DF9385E16EE00E948E058DE367E20E949C
:100EA0008E05C0E010EF23C087E36C2F0E948E05F3
:100EB0006D2F6A5E86E10E948E058FE39CE90197A3
:100EC000F1F700C0000080E70E94A9058C708C300B
:100ED00031F40F5FD13019F4103F09F41C2FDF5F9C
:100EE000D33011F7033031F0CF5FC43021F0D0E0C0
:100EF00000E0DACF1C2F612F606887E30E948E0527
:100F000086E167E10E948E058DE367E30E948E050E
:100F10008FEF90E7A2E081509040A040E1F700C041
:100F20000000DF91CF911F910F910895CF93C82FAB
:100F300082E360E00E948E0511C06C2F606C87E137
:100F40000E948E058FE19EE40197F1F700C000003A
:100F500080E70E94A90583FF03C0CF5FC03168F31B
:100F60006C2F6150606C87E10E948E0582E360E81F
:100F70000E948E05AFE1BEE41197F1F700C00000BA
:100F80008EEF6AE00E948E058FEF99EFA0E081500E
:100F90009040A040E1F700C00000CF9108959F92DB
:100FA000AF92BF92CF92DF92EF92FF920F931F9377
:100FB000CF93DF937B018A01E9018295807F9AE0DC
:100FC000B92EB82AEBE0CE2EC82AF0E1DF2E85E15B
:100FD0006B2D0E948E0585E16C2D0E948E0585E0AB
:100FE0000E94A90583FF23C084E1A82E85E00E940A
:100FF000A90583FD14C085E60E94A905982E86E602
:101000000E94A905992D9756943248F4833038F4FC
:10101000F8019082F701808381E088830BC08FE321
:101020009CE90197F1F700C00000AA94F9F6DA9460
:1010300071F61882DF91CF911F910F91FF90EF9081
:10104000DF90CF90BF90AF909F900895AF92BF92E6
:10105000CF92DF92EF92FF920F931F93CF93DF9384
:101060008B017C01C0E0D0E0DD24D8016D918D01C1
:1010700088E30E948E05F70161917F016295607F90
:1010800089E30E948E058C2F8295807F9EE0A92E99
:10109000A82A23E0B22EB82A3AE0C32E85E16A2DB1
:1010A0000E948E0585E16B2D0E948E0585E00E94D1
:1010B000A90583FF1BC08FEF91EEA4E08150904003
:1010C000A040E1F700C00000AAE0CA2E85E00E941F
:1010D000A90583FD02C0D3940BC0AFE3BCE911970F
:1010E000F1F700C00000CA9489F702C0CA94B1F6B3
:1010F00021968D2D90E08C179D0721F4C430D105E9
:1011000009F0B3CFDF91CF911F910F91FF90EF9036
:10111000DF90CF90BF90AF9008958F929F92AF9243
:10112000BF92CF92DF92EF92FF920F931F93CF93D4
:10113000DF93CDB7DEB72D970FB6F894DEBF0FBEA5
:10114000CDBF85E0DE011996FD01982F11929A9589
:10115000E9F79E012C5F3F4FF90111928A95E9F75B
:101160004D015901EE24FF24CE2CB70144E0660F57
:10117000771F4A95E1F76A6085E10E948E058FEF3F
:1011800095EDA6E081509040A040E1F700C000003E
:1011900085E00E949607DD2400E010E08C2DBE0162
:1011A0006D5F7F4FAE014E5F5F4F9E012F5F3F4FE0
:1011B0000E94CF078981882351F18B81080F8A8192
:1011C000D80E123019F491E09C1520F41F5F1530F1
:1011D00029F701C013E0802F612F0E940611D4016E
:1011E0008D934D018D2D0E940611F50181935F01B4
:1011F0000894E11CF11CF4E0EF16F10409F0B4CFFF
:10120000CE010996BE016C5F7F4F0E9426082D9685
:101210000FB6F894DEBF0FBECDBFDF91CF911F9107
:101220000F91FF90EF90DF90CF90BF90AF909F9085
:101230008F9008958EE060E640E40E94CA0581E048
:1012400068E00E948E0585E16CE00E948E0586E1D3
:1012500067E10E948E0587E362E80E948E058DE3B8
:1012600067E30E948E058FEF90E7A2E081509040E7
:10127000A040E1F700C000000E9445070E948D08D1
:1012800081E068E30E948E058EE060E640E20E9405
:10129000CA0585E160EC0E948E0587E160E20E944C
:1012A0008E0582E360E00E948E0587E361E00E9484
:1012B0008E050895882319F08130A1F52DC080E0B6
:1012C00060E740E20E94CA058CE06FE040E00E94C7
:1012D000CA0580916401909165018930910521F4DE
:1012E00084E060E841E006C08A30910501F584E0C1
:1012F00060E840E00E94E3058CE060E841E00E9485
:10130000E3058CE060E640E00E94CA058CE060E105
:1013100040E00E94E305089580E060E740E10E941C
:10132000CA05089580E060E740E00E94CA0508957C
:101330001F93CF93DF93C82F192FD62F80E160E141
:10134000DD2339F441E00E94E30580E16FE040E0F5
:1013500006C040E00E94E30580E16FE04D2F0E944F
:10136000CA0582E06C2F0E948E0583E0612F0E94E7
:101370008E05DF91CF911F910895FF920F931F93D8
:10138000CF93DF930F92CDB7DEB7082FCB01F42EAA
:10139000002339F065E070E00E941211162F972F9C
:1013A00001C0162F80E062E041E099830E94E305CE
:1013B0002FEF39EF40E0215030404040E1F700C0CE
:1013C0000000802F0E945A09812F99816F2D0E9461
:1013D000980980E062E040E00E94E3050F90DF9111
:1013E000CF911F910F91FF9008950F931F93CF936B
:1013F000DF9300D0CDB7DEB7182FCB01112339F022
:1014000065E070E00E941211062F972F01C0062F91
:1014100049839A830E94C8060E941A09812F0E945C
:101420005A09802F9A814981642F0E94980980E08F
:1014300062E040E00E94E3050F900F90DF91CF91B2
:101440001F910F910895009721F080E062E041E044
:1014500003C080E062E040E00E94E3050895882335
:10146000A9F481E068E040E00E94E30581E068E0E3
:1014700041E00E94E3058FE79BEB0197F1F700C085
:10148000000086E00E94A9058F7708958CE60E94EF
:10149000A905089585E00E94A90590E081709070EB
:1014A0000895CF92DF92EF92FF921F93CF93DF9335
:1014B0000F92CDB7DEB7E82E162F80E062E041E054
:1014C00099830E94E305CE2C9981D92E55E0E52E13
:1014D000F12CC601B7010E941211CB01612F0E94AD
:1014E00098098EEF6AE00E948E058FEF96E7A1E0E3
:1014F00081509040A040E1F700C0000085E00E94CC
:10150000A90582FD15C08CE60E94A9058E3184F0E4
:10151000AFE3BCE91197F1F700C0000085E00E943D
:10152000A90582FD05C08CE60E94A9058E31ACF4A8
:1015300080913B0290913C02C80ED91E80914002DE
:10154000909141028C159D0520F680E062E040E01C
:101550000E94E305CC24DD240BC0EFE3FCE93197C6
:10156000F1F700C0000080E062E040E00E94E30587
:10157000C6010F90DF91CF911F91FF90EF90DF9008
:10158000CF900895EF92FF920F931F93CF93DF9325
:101590000F92CDB7DEB7082F162F80E062E041E052
:1015A00099830E94E305E02E9981F92EC701612FEE
:1015B0000E9498098EEF6AE00E948E058FEF96E7F1
:1015C000A1E081509040A040E1F700C0000002E09F
:1015D00081E068E040E00E94E30581E068E041E0EE
:1015E0000E94E305AFE7BBEB1197F1F700C00000E5
:1015F00085E00E94A90581FF06C086E00E94A9053A
:101600008F778832ACF48091640190916501E80E87
:10161000F91E8091390290913A028E159F0530F69D
:1016200080E062E040E00E94E305EE24FF2407C072
:10163000015071F680E062E040E00E94E305C701DE
:101640000F90DF91CF911F910F91FF90EF90089530
:101650008A3019F48DE001D08AE0FF93EF93E09196
:101660006D01F0916E010995EF91FF910895FC01D4
:101670008591803011F0ECDFFBCF0895FF27E0E289
:1016800030E247FF0CC0419597FF09C0EDE260953D
:10169000709580959095611D711D811D911D27FF8D
:1016A00002C0219530E350E2AA27660F771F881FFA
:1016B000991FAA1FA41710F0A41B63955A95A9F7A8
:1016C000AA3008F0A95FA05DAF93F395611571058D
:1016D0008105910541F7ED3211F4EF93F395F2177F
:1016E00018F43F93F395FBCF8F91B2DFFA95E1F7B2
:1016F0000895DF93CF93CDB7DEB72596E991F991A1
:101700008591803021F0853229F0A2DFF9CFCF9189
:10171000DF91089520E0E89455915532B1F35033AC
:1017200011F4689455915A3348F4505380F3220FC2
:10173000022E220F220F200D250FF4CF0EF421953B
:1017400089919991533609F3533729F1533559F15A
:10175000BC0188279927E8945C3621F489919991F6
:1017600068945591543639F446EF7EF077FF0DC0FA
:101770008FEF9FEF0AC055374AE039F0583540E106
:1017800021F0523642E009F0C2CFFF93EF9376DFAB
:10179000EF91FF91B5CFFF93EF93FC0181918030E2
:1017A000B9F356DFFBCFFF93EF9361DFF1CF0B016E
:1017B000DC01ED91FD912227332744275527E8943A
:1017C0009AE001C0319660816032E1F3A8F16D3298
:1017D00011F46894F7CF6A3378F5603368F171F4E7
:1017E00098E031966081613248F1623611F492E0FE
:1017F00003C0683719F490E1319660816132F0F0EE
:10180000613608F060526053B8F06A3018F06750E3
:101810006A3090F0691780F481E2771B08F4790F41
:10182000769557954795379527958A95B9F7260F59
:10183000381F481F581FE0CF80E001C081E04EF400
:1018400066272095309540955095261F361F461FD8
:10185000561FFE93EE93D0012D933D934D935D93D0
:10186000112408959B01AC01E4E6F0E080818D7FB6
:10187000808384E0220F331F441F551F8A95D1F7C0
:1018800060E074E284EF90E00E9439112150304012
:101890003093C5002093C40086E08093C20088E89E
:1018A0008093C10008958091710108958091710124
:1018B0008823E1F390917001E92FF0E0E159FE4FA8
:1018C0008381F894209171012150209371017894C3
:1018D0009F5F9F739093700108959091B40190342D
:1018E000E0F72091B201E22FF0E0EE54FE4F838347
:1018F000F8949091B4019F5F9093B40188EB80932A
:10190000C1007894822F8F5F8F738093B201089506
:101910001F920F920FB60F9211248F939F93EF9304
:10192000FF939091C60080917101803470F48F5FB5
:101930008093710180916F01E82FF0E0E159FE4F33
:1019400093838F5F8F7380936F01FF91EF919F91CE
:101950008F910F900FBE0F901F9018951F920F92AE
:101960000FB60F9211242F938F939F93EF93FF93B2
:101970009091B401992391F091509093B40180918A
:10198000B301E82FF0E0EE54FE4F23812093C60010
:101990008F5F8F738093B301992319F488E9809343
:1019A000C100FF91EF919F918F912F910F900FBEEA
:1019B0000F901F901895CF93DF93CDB7DEB7C25429
:1019C000D0400FB6F894DEBF0FBECDBFF89420987C
:1019D000289A8AB18F708AB98BB1806F8BB9229A9D
:1019E00082E08093B00087E08093B1008BE9809320
:1019F000B3008091700082608093700080E880BFA7
:101A00000E9456030E941F0560E076E980E090E0A6
:101A10000E94320C8DE69CE090936E0180936D01E4
:101A20000E94DB020E94BE04789410920002109281
:101A3000FF011092160281E090E09093FA018093EA
:101A4000F90181E08093F7010E94F3029093FE0177
:101A50008093FD01009779F4109203028AE992E0E5
:101A6000909305028093040286E092E06FE171E0BA
:101A70000E94691108C08091F9019091FA0163E018
:101A800072E00E94280380E00E94070680913D02D8
:101A900090913E029093020280930102809137025E
:101AA000909138029093FC018093FB0160910402B5
:101AB000709105028091030240E00E94F5090E94A6
:101AC0002E0188E690E00E94370BE6E08E2EE2E0E1
:101AD0009E2EF3E2AF2EB12CAC0EBD1E8EE30E9403
:101AE000280BEE24FF2472E0D72E8091F801882382
:101AF00049F180FF03C00E94B80114C081FF03C0F8
:101B00000E9461020FC082FF09C00E94C50180913E
:101B10001602882339F00E94120204C083FF02C01B
:101B20000E949E021092160209C08FEF91EEA4E06F
:101B300081509040A040E1F700C000008091F80182
:101B4000882399F780911702823009F0DDC18091D6
:101B5000190290911802923009F0D4C1803209F034
:101B6000D1C180911B02882309F0CCC180911C0255
:101B70008F3F09F0C7C180911D02823129F4109274
:101B800016020E94B801BEC180911D02863129F45F
:101B9000109216020E946102B5C180911D02873128
:101BA00029F4109216020E949E02ACC180911D027F
:101BB000883109F04BC01092160281E00E94F204B5
:101BC00081E061E00E94840586E291E00E946A055E
:101BD00080E00E945A09809101029091020260E027
:101BE0000E94C20A9093020280930102009779F446
:101BF00080913D0290913E029093020280930102F7
:101C000060E00E94C20A90930202809301028091D8
:101C1000FF01909100020E94230A82E061E00E948D
:101C2000840580910102909102020E940C01809132
:101C30000102909102022091640130916501820FAE
:101C4000931F90930202809301025CC180911D0258
:101C5000893109F04BC01092160281E00E94F20413
:101C600081E061E00E9484058EE291E00E946A05B5
:101C700082E00E945A098091FB019091FC0160E092
:101C80000E94510A9093FC018093FB01009779F424
:101C900080913702909138029093FC018093FB0170
:101CA00060E00E94510A9093FC018093FB018091B7
:101CB000FF01909100020E94230A82E061E00E94ED
:101CC00084058091FB019091FC010E94C9008091E4
:101CD000FB019091FC0120913B0230913C02820F6C
:101CE000931F9093FC018093FB010CC180911D0216
:101CF000813129F4109216020E94C50103C180911E
:101D00001D028331C1F4D092160210926701109225
:101D1000660181E00E94F20481E061E00E94840596
:101D200086E391E00E946A0582E061E00E948405FA
:101D30008BE391E01BC080911D028431D1F481E0DE
:101D40008093160210926701109266010E94F204BD
:101D500081E061E00E9484058EE391E00E946A05C3
:101D600082E061E00E9484058AE091E00E946A05B9
:101D7000C9C080911D028D3029F4109216020E9474
:101D80001202C0C080911D0280911D028A3078F538
:101D900080911602882309F4B5C080916601909164
:101DA0006701A3E0883E9A0708F0ACC040911D028D
:101DB0009C01220F331F63E0880F991F6A95E1F79A
:101DC000280F391F240F311D3093670120936601BE
:101DD000C901BE016B5F7F4F4AE050E00E9497113E
:101DE00082E063E00E948405CE010596BFCF80911A
:101DF0001D028F3008F486C0809116028130E1F513
:101E00000E94F3029C019093FE018093FD0180915A
:101E1000660190916701009739F02817390720F083
:101E20009093FA018093F9018091F9019091FA0160
:101E300063E072E00E942803EDB7FEB773970FB618
:101E4000F894FEBF0FBEEDBF8091F9019091FA01A9
:101E50003196A3E0B2E023E10D9001922150E1F729
:101E60000E9418022DB73EB72D5E3F4F0FB6F89473
:101E70003EBF0FBE2DBF42C0823009F043C000916B
:101E800066011091670180913D0290913E02081712
:101E90001907A8F08091390290913A0280179107B2
:101EA00070F010920302109305020093040286E082
:101EB00092E065E471E00E94691180E01BC08091AE
:101EC00037029091380208171907C0F0809140023C
:101ED000909141028017910788F0D09203021093ED
:101EE00005020093040286E092E065E471E00E943E
:101EF000691182E0B80140E00E94BD090E9412020F
:101F000010921602109217020E94530C882309F4B3
:101F1000ECCD0E94560C8D30E1F0883041F4E11494
:101F2000F10409F4E2CD0894E108F1080FC0803211
:101F300008F4DBCD3FE1E316F1040CF0D6CDF5015A
:101F4000EE0DFF1D80830894E11CF11C0E94280BFC
:101F5000CCCDF501EE0DFF1D10828AE00E94280B0A
:101F60008E01015F1F4FC50102C080E090E06CE46C
:101F700071E00E945B11D8018D939D938D010097B4
:101F800019F0AA15BB0589F70F851889C8016EE4F9
:101F900071E00E946011009709F09BC0CE0141964C
:101FA000BE016F5F7F4F0E94D70B882319F487E82B
:101FB00090E029C12B893C892115310519F483E969
:101FC00090E021C149815A816B817C81FA01809125
:101FD0003D0290913E024817590750F08091390216
:101FE00090913A028417950718F01092030215C0D9
:101FF0008091370290913802E817F90758F08091E4
:102000004002909141028417950720F082E080936E
:10201000030203C088EA90E0F6C0509305024093A3
:10202000040286E092E0B9010E94691183E092E027
:102030000E94FA029093FA018093F901BFEF8F3F5B
:102040009B0719F485EB90E0DEC00E94F3029093A9
:10205000FE018093FD014091F9015091FA018091B8
:102060000302882319F48DE091E002C080E191E041
:10207000EDB7FEB73A970FB6F894FEBF0FBEEDBFAF
:10208000319629EC30E0ADB7BEB712963C932E9353
:1020900011975383428395838483809104029091A6
:1020A000050297838683918680860E94790BEDB71F
:1020B000FEB73A960FB6F894FEBF0FBEEDBF609123
:1020C0000402709105028091030240E00E94BD0964
:1020D00039C0C8016AE071E00E9460110097A9F55B
:1020E000CE014196BE016F5F7F4F0E94D70B898161
:1020F0009A819093FA018093F90163E072E00E9463
:1021000028032DB73EB7235130400FB6F8943EBF99
:102110000FBE2DBF8091F9019091FA01EDB7FEB786
:102120003196A3E0B2E023E10D9001922150E1F756
:102130000E9418028DB79EB743960FB6F8949EBFC3
:102140000FBE8DBF0E941202C9CCC80162E571E0CA
:102150000E946011009749F509891A89C80167E54D
:1021600071E00E946011009761F481E090E090932B
:1021700000028093FF010E94230A2A9A88EE90E0D1
:1021800042C0C8016AE571E00E946011009709F041
:10219000A5CC109200021092FF0180E090E00E9416
:1021A000230A2A9882EF90E02EC0C8016EE571E004
:1021B0000E946011009709F091CC0E944D030E948B
:1021C000F3029093FE018093FD010097D1F41092E9
:1021D00003028AE992E0909305028093040286E06C
:1021E00092E06FE171E00E94691181E090E09093CC
:1021F000FA018093F90181E08093F7018DEF90E07F
:1022000002C088E091E00E94370B68CC991B79E00E
:1022100004C0991F961708F0961B881F7A95C9F776
:1022200080950895AA1BBB1B51E107C0AA1FBB1FC5
:10223000A617B70710F0A61BB70B881F991F5A9552
:10224000A9F780959095BC01CD01089597FB092EC3
:1022500007260AD077FD04D0E5DF06D000201AF467
:10226000709561957F4F0895F6F7909581959F4FF2
:102270000895A1E21A2EAA1BBB1BFD010DC0AA1FC7
:10228000BB1FEE1FFF1FA217B307E407F50720F0DF
:10229000A21BB30BE40BF50B661F771F881F991F5A
:1022A0001A9469F760957095809590959B01AC01A3
:1022B000BD01CF01089545EF51E00E9470110895CE
:1022C000FB01DC018D91019080190110D9F3990B6C
:1022D0000895FB01DC0101900D920020E1F70895C3
:1022E000FA01A191B081009719F41097E1F0CD01A6
:1022F000DC01CD010D90002011F4C00113C0FB01E1
:102300002191222319F02015D9F7F3CFFB01219158
:10231000201519F41E92119606C02223C1F70D90C4
:102320000020A1F7D001FA01A193B0830895FB0129
:102330009F01E8944230C4F04532B4F44A3029F4A5
:1023400097FB1EF4909581959F4F642F77270E94ED
:102350001211805D8A330CF0895D8193CB01009767
:10236000A1F716F45DE251931082C9010C94F311A8
:10237000DC01CB01FC01F999FECF06C0F2BDE1BD45
:10238000F89A319600B40D9241505040B8F7089534
:10239000F999FECF92BD81BDF89A992780B508952D
:1023A000A8E1B0E042E050E00C94BA11DC01CB01AE
:1023B00003C02D910E94E11141505040D0F7089583
:1023C000262FF999FECF1FBA92BD81BD20BD0FB651
:1023D000F894FA9AF99A0FBE019608950E94E011B6
:1023E000272F0C94E111DC01FC01672F71917723F9
:1023F000E1F7329704C07C916D9370836291AE17C0
:0A240000BF07C8F30895F894FFCF5A
:10240A002E004D487A004B487A00434800414D005F
:10241A00464D0053544552454F004D4F4E4F004EC6
:10242A00484B2D5231005365656B20414D00536571
:10243A00656B20464D0054756E6500465100536524
:10244A006C656374004D616E75616C0020005345C4
:10245A0054004D555445004F4E004F464600434CDC
:06246A004541520009008B
:00000001FF
