:020000040000FA
:060000009EEF0DF012005E
:060008009BEF09F012005D
:06001800E6EF09F0120002
:06002A0001005A1B00005A
:08003000980000000900000027
:08003800D9CFE6FFE1CFD9FFAB
:10004000E652A0940F015F6B626A536B010EE66E7D
:10005000E66AE66A540EE66E0F0EE66E74EC0DF07C
:100060000B6E050EE15E0B50160E616E0F019F0EBA
:100070005B6F7B0E606EDF6ADF500B6E0C6A080EE2
:100080000B5C000E0C5810E2DF50040DF3CFE9FFBB
:10009000F4CFEAFF000EE926020EEA22EE6AEE6ACB
:1000A000EE6AEE6ADF2AE8D7648C0F015C6B649815
:1000B000649C62A607D062960001736B786B796BC3
:1000C0007A6BF7D70001010E8A6F8B6F8C6B8D6B8B
:1000D000806BDF6A020EDF5C26E2EA6ADF34FE0B29
:1000E000EA36E96E6B0EE926000EEA22EE6AED6A48
:1000F000EA6ADF34FE0BEA36E96E670EE926000E87
:10010000EA22EE6AED6ADF50EA6A840FE96E000EB9
:10011000EA22EF6ADF50EA6A860FE96E000EEA22F1
:10012000EF6ADF2AD7D70001080E6B6F020E6C6FE3
:100130000F01160E536F0201200E026F020E036FA5
:10014000080E016F840E006F0001616B606BE55259
:10015000E552E7CFD9FF1200D9CFE6FFE1CFD9FFB3
:10016000E6520001600507E164BA05D0626A60806A
:100170006088020E606F6250040B06E06050040B52
:1001800003E06294C0EC06F064A202D0A19498D07F
:100190006250010B09E06050010B06E04DDFA084C6
:1001A0000001040E606F62906250100B06E0605018
:1001B000100B03E0ABEC06F0629862AC19D060ACB7
:1001C0000FD0010EE66EE66A000EE66EE66A730E6A
:1001D000E66EE66A1AEC0CF00B6E060EE15E0B5052
:1001E000629C0001885101E08807885101E10DDA25
:1001F0006250200B05E06050200B02E091EC06F00D
:100200006250020B14E06050020B11E0010EE66E2A
:10021000E66A000EE66EE66AE6687F0EE66E1AECA7
:100220000CF00B6E060EE15E0B500F015F6B040EBF
:100230000001E76E6019E8AE02D0E73402D0E75063
:10024000605D02E2A1943CD060A639D0DF6A040E62
:10025000DF5C35E262A632D063CF81F000018151CC
:10026000780BE842E842E842826F629681B508D096
:100270008251EA6A860FE96E000EEA22EF7007D01B
:100280008251EA6A840FE96E000EEA22EF70825111
:1002900003E1D7EC06F010D0000EE66EE66A810EA0
:1002A000E66E000EE66E720EE66EE66A1AEC0CF072
:1002B0000B6E060EE15E0B50DF2AC9D700D0A19469
:1002C000E552E552E7CFD9FF1200D9CFE6FFE1CFE3
:1002D000D9FF020EE126FD0EDBA407D0E66AFE0E72
:1002E000DBCFE6FF23DAE552E552FD0EDBA208D0B4
:1002F000010EE66EFE0EDBCFE6FF18DAE552E552A0
:10030000FE0EDB500C6A530F0B6E0F0E0C220BC04F
:10031000DEFF0CC0DDFFDECFE9FFDDCFEAFFFD0E23
:10032000DBCFEFFF020EE15C02E2E16AE552E16E33
:10033000E552E7CFD9FF1200D9CFE6FFE1CFD9FFD1
:10034000020EE126FD0EDB500FE0FE0EEA6ADB3402
:10035000FE0BEA36E96E6B0EE926000EEA22EECFBE
:10036000DEFFEDCFDDFF0ED0FE0EEA6ADB34FE0BC2
:10037000EA36E96E670EE926000EEA22EECFDEFFCE
:10038000EDCFDDFFD9CFE9FFDACFEAFFEE50ED1078
:1003900003E1F36AF46A49D0DECFE9FFDDCFEAFF7B
:1003A000020EE926000EEA22FB0EDBCFEEFFFC0E6A
:1003B000DBCFEDFFDECFE9FFDDCFEAFFEE52FA0E35
:1003C000DBCFEFFF400E0B6EDECFE9FFDDCFEAFFA4
:1003D0000B50EF16880E0B6EDECFE9FFDDCFEAFF84
:1003E0000B50EF12FD0EDB500CE0FE0EEA6ADB3420
:1003F000FE0BEA36E96E6B0EE926000EEA22EF7478
:100400000BD0FE0EEA6ADB34FE0BEA36E96E670EAD
:10041000E926000EEA22EF74DECF0BF0DDCF0CF000
:100420000BC0F3FF0CC0F4FF00D0020EE15C02E24F
:10043000E16AE552E16EE552E7CFD9FF1200D9CF6C
:10044000E6FFE1CFD9FF020EE126FE0EDB5020E1F0
:1004500065C0E9FF66C0EAFFEE52080EEF6E65C0A8
:10046000E9FF66C0EAFF020EE926000EEA22200E2E
:10047000EE6E020EED6E65C0E9FF66C0EAFF8C0EFF
:10048000EF6E6BC0E9FF6CC0EAFF840EEF6E3DD0EB
:10049000FD0EDB50E8240D6EFE0EDB50040DF35014
:1004A0000D24040DF3CF0BF0F4CF0CF0000E0B264F
:1004B000020E0C220BC0DEFF0CC0DDFF840E0B6EA3
:1004C000DECFE9FFDDCFEAFF0B50EF12FD0EDB5070
:1004D000E8240D6EFE0EDB50040DF3500D24010FC9
:1004E000040DF3CF0BF0F4CF0CF0000E0B26020E30
:1004F0000C220BC0DEFF0CC0DDFF840E0B6EDECFC6
:10050000E9FFDDCFEAFF0B50EF12020EE15C02E2E1
:10051000E16AE552E16EE552E7CFD9FF1200D9CF8B
:10052000E6FFE1CFD9FF64A84ED0FE0EEA6ADB34C5
:10053000FE0BEA36E96E6B0EE926000EEA22EE505B
:10054000EFCFEAFFE96E400EEE16EE6AEE6AEE6A53
:10055000FE0EEA6ADB34FE0BEA36E96E6B0EE92624
:10056000000EEA22EE50EFCFEAFFE96EEE7CFE0EBF
:10057000EA6ADB34FE0BEA36E96E6B0EE926000E02
:10058000EA22EF74400E0B6EFE0EEA6ADB34FE0BBD
:10059000EA36E96E6B0EE926000EEA22EE50EFCF46
:1005A000EAFFE96E0B50EF16FE0EEA6ADB34FE0B33
:1005B000EA36E96E6B0EE926000EEA22EE50EFCF26
:1005C000EAFFE96EEF7CE552E7CFD9FF1200646ADB
:1005D000606A0001606B00D012000001605114E1FC
:1005E000646A606A160E616E0F019F0E5B6F7B0E70
:1005F000606ED08EA284A084F28E64B602D064862F
:10060000FCD70001010E606F120000018A514DE11C
:10061000010E8A6F8B5149E1010E8B6F020E705DE6
:100620000DE16BC0E9FF6CC0EAFFEE52EF6A6BC0F0
:10063000E9FF6CC0EAFFC80EEF6E37D0700535E1F8
:10064000836B63C0E9FF64C0EAFFEE52080EEF6EF1
:1006500063C0E9FF64C0EAFF020EE926000EEA2249
:10066000200EEE6E020EED6E63C0E9FF64C0EAFF7D
:10067000840EEF6E010E836F65C0E9FF66C0EAFF6E
:10068000EE52080EEF6E65C0E9FF66C0EAFF020E8B
:10069000E926000EEA22200EEE6E020EED6E65C017
:1006A000E9FF66C0EAFF800EEF6E120000018C6B5E
:1006B0008D6B020E705D1AE165C0E9FF66C0EAFF4E
:1006C000EE52080EEF6E65C0E9FF66C0EAFF020E4B
:1006D000E926000EEA22280EEE6E020EED6E65C0CF
:1006E000E9FF66C0EAFFC80EEF6E1FD07451020129
:1006F000265D000175510201275904E226C274F0FB
:1007000027C275F0D1D86BC0E9FF6CC0EAFF020EBA
:10071000E926000EEA22280EEE6E020EED6E6BC088
:10072000E9FF6CC0EAFFC80EEF6E1200D9CFE6FFFA
:10073000E1CFD9FF020EE126000EDE6E020EDD6E65
:10074000FD0EDB50E8240D6EFE0EDB50040DF35061
:100750000D24040DF3CF0BF0F4CF0CF0D9CFE9FF4B
:10076000DACFEAFF0B50EE260C50ED22DECFE9FF88
:10077000DDCFEAFFEF9EFD0EDB500FE1FE0EEA6AD1
:10078000DB34FE0BEA36E96E670EE926000EEA223C
:10079000DECFEEFFDDCFEDFF0ED0FE0EEA6ADB34DA
:1007A000FE0BEA36E96E6B0EE926000EEA22DECF7A
:1007B000EEFFDDCFEDFFDECFE9FFDDCFEAFFEF9CFF
:1007C000DECFE9FFDDCFEAFF040EE926000EEA22C4
:1007D000EF8C020EE15C02E2E16AE552E16EE55265
:1007E000E7CFD9FF12006498000173BF2BD078AF18
:1007F00009D0020E706F8D5101E158DF00018B6B43
:100800008A6B1FD065C0E9FF66C0EAFFEE52080E92
:10081000EF6E65C0E9FF66C0EAFF020EE926000E32
:10082000EA22200EEE6E020EED6E65C0E9FF66C094
:10083000EAFF8C0EEF6E6BC0E9FF6CC0EAFF840E1E
:10084000EF6E31D0020120AF0DD00001010E706FAC
:100850008C5101E12BDF00018B6B8A6B895101E127
:10086000D4DE21D00001020E706F65C0E9FF66C0C2
:10087000EAFFEE52080EEF6E65C0E9FF66C0EAFFC0
:10088000020EE926000EEA22200EEE6E020EED6E3A
:1008900065C0E9FF66C0EAFF840EEF6E8B6B8A6B62
:1008A000895101E1B2DE1200D9CFE6FFE1CFD9FFD5
:1008B000E652080EDF6E0001745D000E75590BE202
:1008C00074C0DFFF6F5103E1010E6F6F04D06F053D
:1008D00002E1020E6F6FDF500B6E0C6A0B50745DFD
:1008E000746F0C507559756F6BC0E9FF6CC0EAFFEF
:1008F000EE52DFCFEFFF280E7D6F020E7E6F73B1D9
:1009000019D0DF5016E071C0F6FF72C0F7FF712BEF
:10091000000E72230800F550E66E7DC0E9FF7EC030
:10092000EAFF7D2B000E7E23E552E750EF6EDF06D7
:10093000E8D717D0DF5015E071C0E9FF72C0EAFFB9
:10094000712B000E7223EF50E66E7DC0E9FF7EC072
:10095000EAFF7D2B000E7E23E552E750EF6EDF06A7
:10096000E9D7E552E552E7CFD9FF1200D9CFE6FF2C
:10097000E1CFD9FF020EE12663C0E9FF64C0EAFFC0
:10098000EE52EFCFDFFFDFCF0BF00B500001795DB0
:10099000000E7A5902E279C0DFFFDF500B6E0C6A5D
:1009A0000B50795D796F0C507A597A6F010EDB6AC2
:1009B000DF50F36E010EDBCFF4FFF350F45C16E270
:1009C000010EDB50EA6A280FE96E020EEA22EF50B0
:1009D000E66E76C0E9FF77C0EAFF762B000E77233C
:1009E000E552E750EF6E010EDB2AE2D7000ED88009
:1009F0007955000E7A5528E265C0E9FF66C0EAFF26
:100A0000EE52080EEF6E65C0E9FF66C0EAFF020E07
:100A1000E926000EEA22280EEE6E020EED6E63C08D
:100A2000E9FF64C0EAFFEF50400B07E165C0E9FF52
:100A300066C0EAFFC80EEF6E06D065C0E9FF66C06B
:100A4000EAFF880EEF6E28D065C0E9FF66C0EAFFB6
:100A5000EE52080EEF6E65C0E9FF66C0EAFF020EB7
:100A6000E926000EEA22200EEE6E020EED6E65C043
:100A7000E9FF66C0EAFF840EEF6E7B517C1107E050
:100A800005D07CC0FAFF00017B51F96EFADF00014E
:100A9000789F895101E1B9DD020EE15C02E2E16A71
:100AA000E552E16EE552E7CFD9FF1200D9CFE6FF5C
:100AB000E1CFD9FFE6520001738F010EE66EE66AC0
:100AC000E66A540EE66E0F0EE66E74EC0DF00B6ED9
:100AD000050EE15E0B50200EE66EE66AE66A000E39
:100AE000E66E020EE66E74EC0DF00B6E050EE15E26
:100AF0000B50648CDF6A020EDF5C10E2DF50EA6AA2
:100B0000840FE96E000EEA22EF6ADF50EA6A860F70
:100B1000E96E000EEA22EF6ADF2AEDD7010EE66EDB
:100B2000E66AE66A620EE66E000EE66E74EC0DF0A2
:100B30000B6E050EE15E0B50649C0001080E6B6F9E
:100B4000020E6C6F000E636F020E646F63C065F07F
:100B500064C066F022C261F0615103E1100E606F63
:100B600013D0010EE66EE66A610EE66E000EE66ECA
:100B7000010EE66EE66A1AEC0CF00B6E060EE15EF4
:100B80000B500001200E606FE552E552E7CFD9FF10
:100B90001200800E0201205D5BE10001C00E736F48
:100BA00002012351030A34E0010A0EE0030A03E0C4
:100BB0000001736B4DD00001AA0E716F190E726F98
:100BC000120E746F756B44D02251F66EF76AD8908E
:100BD000F636F736410EF6261A0EF7220900F5CF43
:100BE00071F00A00F5CF72F0020E0001F76A71256C
:100BF000F66E7251F7220800F5CF74F0030EF76A13
:100C00007125F66E7251F7220800F5CF75F020D0ED
:100C1000030E225D1AE22251F66EF76AD890F6367C
:100C2000F736430EF6261A0EF7220900F5CF71F0BB
:100C30000A00F5CF72F071C0F6FF72C0F7FF08002E
:100C4000F5500001746F756B02D00001736B00D01A
:100C50001200D9CFE6FFE1CFD9FF020EE126020153
:100C6000286B296B20511F0B020A12E0030A0DE0CA
:100C7000010A01E042D00001738F020128810001C6
:100C80007F0502E10201288338D00001738F35D03F
:100C90000001738F020124BF10D024510F0BE96EA5
:100CA000EA6AD890E936EA36670EE926000EEA22AB
:100CB000EECFDEFFEDCFDDFF0FD024510F0BE96E3D
:100CC000EA6AD890E936EA366B0EE926000EEA2287
:100CD000EECFDEFFEDCFDDFFDECFE9FFDDCFEAFFB8
:100CE000EF50800B09E0DECFE9FFDDCFEAFFEF50E8
:100CF000040B02E0010E286F00D0000173AF07D093
:100D0000280E716F020E726F7381020E746F020EE5
:100D1000E15C02E2E16AE552E16EE552E7CFD9FF1C
:100D200012000F0153A115D063C0E9FF64C0EAFFB0
:100D3000EF5080080DE16BC0E9FF6CC0EAFFEF5097
:100D4000840806E163C0E9FF64C0EAFF8C0EEF6E21
:100D50005391629A12006084629864820001010ECD
:100D6000806F000EE66EE66AE66EE66A750EE66E67
:100D7000E66A1AEC0CF00B6E060EE15E0B501200E8
:100D80000001806B000EE66EE66AE66EE66A740E9F
:100D9000E66EE66A1AEC0CF00B6E060EE15E0B5086
:100DA0006492609462A402D06294FCD71200D9CFFE
:100DB000E6FFE1CFD9FFE65200012D0E886FFD0E50
:100DC000811553E17E0E8115E8407F0B040DF3CFB2
:100DD00063F0F4CF64F0000E6327020E642363C057
:100DE00065F064C066F0657563C0E9FF64C0EAFF42
:100DF000EF503C0BE842E8420D0835E1DF6A080E8F
:100E0000DF5C23E263C0E9FF64C0EAFF020EE9266B
:100E1000000EEA22EE50EFCFEAFFE96EEF50E66EE9
:100E2000DF50EA6A200FE96E020EEA22E552E7502F
:100E3000EF6E63C0E9FF64C0EAFF020EE926000E10
:100E4000EA22EE2AEF22DF2ADAD763C0E9FF64C084
:100E5000EAFF020EE926000EEA22200EEE6E020ED6
:100E6000ED6E0DD801D03AD805D0FD0E81150408DD
:100E700001E159D8E552E552E7CFD9FF1200000150
:100E80006F6B896B8C6B8D6B836B706B6BC0E9FFC9
:100E90006CC0EAFFEF9E6B756BC0E9FF6CC0EAFFA8
:100EA000EF9E6B7565C0E9FF66C0EAFFEF9E736B4E
:100EB000746B756B786B796B7A6B92D8000EE66EFB
:100EC000E66AE66EE66A030EE66EE66A1AEC0CF077
:100ED0000B6E060EE15E0B50F3EF03F0020E000105
:100EE000705D02E143DD1ED0706B83511AE165C075
:100EF000E9FF66C0EAFFEE52080EEF6E65C0E9FF3B
:100F000066C0EAFF020EE926000EEA22200EEE6E0F
:100F1000020EED6E65C0E9FF66C0EAFF8C0EEF6E53
:100F200001D0836B1200D9CFE6FFE1CFD9FFE652A3
:100F30006BC0E9FF6CC0EAFFEF50400B01E0010E0F
:100F4000DF6E00016B75080E605D0CE122C25CFF74
:100F50000F015C5104E00001100E606F03D000012E
:100F6000040E606F700528E16BC0E9FF6CC0EAFFFA
:100F7000020EE926000EEA22280EEE6E020EED6E3B
:100F800093DC020E00016F5D07E16BC0E9FF6CC0EE
:100F9000EAFF840EEF6E0FD0DF5007E16BC0E9FF70
:100FA0006CC0EAFFC80EEF6E06D06BC0E9FF6CC0E4
:100FB000EAFF880EEF6E0FD078AF0CD07B517C111A
:100FC00007E005D07CC0FAFF00017B51F96EFADF23
:100FD0000001789F706BE552E552E7CFD9FF120010
:100FE00002012051600BE842E842E842E842E84250
:100FF000000901E058D021510C0A54E00B0A43E0EB
:101000000C0A35E0010A26E00B0A22E0020A20E081
:10101000030A1CE0080A10E0010A0CE00F0A08E0CD
:10102000030A01E03FD00001738F080E606F3BD0D0
:10103000B0DD39D03BDD37D00001610E716F000E9D
:10104000726F7381010E746F738F2DD002DE2BD0FF
:101050002BD829D024510001716F726B620E712759
:10106000000E72237381010E746F738F1CD0000108
:10107000738F02012451EA6A620FE96E000EEA22C0
:1010800022C2EFFF10D0000EE66EE66AE66EE66A58
:10109000020EE66EE66A1AEC0CF00B6E060EE15ECE
:1010A0000B5001D000D01200D9CFE6FFE1CFD9FF1D
:1010B000050EE1260201220510E120511F0B000957
:1010C0000CE10001738F030E0201215D04E10001B8
:1010D000010E7F6F02D000017F6B0201225101E0FF
:1010E00020D120511F0B020801E01BD124510F0B0E
:1010F000000901E116D124510F0B010801E211D1C1
:10110000200E0001605D01E00CD1738F020124BF4D
:101110001AD024510F0BE96EEA6AD890E936EA3604
:10112000670EE926000EEA22EECFDEFFEDCFDDFFEF
:1011300024510F0BEA6A860FE96E000EEA22020EB6
:10114000EFCFDBFF19D024510F0BE96EEA6AD8907C
:10115000E936EA366B0EE926000EEA22EECFDEFF14
:10116000EDCFDDFF24510F0BEA6A840FE96E000E0C
:10117000EA22020EEFCFDBFFD950020FE96EDACF81
:10118000EAFFEF50010B03E1000EDF9401D0DF8492
:1011900024BF10D024510F0BE96EEA6AD890E936CB
:1011A000EA36670EE926000EEA22DECFEEFFDDCF3B
:1011B000EDFF0FD024510F0BE96EEA6AD890E936A3
:1011C000EA366B0EE926000EEA22DECFEEFFDDCF17
:1011D000EDFF030E215D23E1DECFE9FFDDCFEAFF66
:1011E000EF50800B13E024BF09D024510F0BEA6AA3
:1011F000860FE96E000EEA22EF8208D024510F0B11
:10120000EA6A840FE96E000EEA22EF82840E0B6E0A
:10121000DECFE9FFDDCFEAFF0B50EF1282D0DF74A3
:10122000DECFE9FFDDCFEAFFEF50800B1BE0DECF22
:10123000E9FFDDCFEAFFEF9EDECFE9FFDDCFEAFF7A
:10124000EF8C020EE66EE66ADECFE6FFDDCFE6FF4C
:10125000050EE66EE66A1AEC0CF00B6E060EE15E09
:101260000B5005D0DECFE9FFDDCFEAFFEF8CDF7456
:10127000D950020FE96EDACFEAFFEF50020B07E117
:10128000DECFE9FFDDCFEAFFEF50800B2DE002015A
:1012900024BF09D024510F0BEA6A860FE96E000EB5
:1012A000EA22EF9208D024510F0BEA6A840FE96E0C
:1012B000000EEA22EF923B0E0B6EDECFE9FFDDCF90
:1012C000EAFF0B50EF16020EE66EE66ADECFE6FF8F
:1012D000DDCFE6FF050EE66EE66A1AEC0CF00B6E4B
:1012E000060EE15E0B5008D03B0E0B6EDECFE9FF21
:1012F000DDCFEAFF0B50EF16020124510F0B0C6AF1
:10130000530F0B6E0F0E0C22030E0BC0DBFF040EEF
:101310000CC0DBFF030EDBCFE9FF040EDBCFEAFFDF
:10132000EF90050EE15C02E2E16AE552E16EE55202
:06133000E7CFD9FF120017
:0A133600DACFE4FFE2CFDAFFE9CFDF
:10134000E4FFEACFE4FFF6CFE4FFF7CFE4FFF5CF09
:10135000E4FFF3CFE4FFF4CFE4FFFACFE4FF00EEC5
:1013600000F00B0EE80403E3EECFE4FFFBD700EE42
:101370000BF0030EE80403E3EECFE4FFFBD7E652E5
:10138000ACEC00F0E55200EE0DF0030EE80403E3D0
:10139000E5CFEDFFFBD700EE0AF00B0EE80403E308
:1013A000E5CFEDFFFBD7E5CFFAFFE5CFF4FFE5CFC3
:1013B000F3FFE5CFF5FFE5CFF7FFE5CFF6FFE5CF8C
:1013C000EAFFE5CFE9FFE5CFDAFF1100D8CFE4FF70
:1013D000E0CFE4FFE46EDACFE4FFE2CFDAFFE652DB
:1013E000E552E5CFDAFFE550E5CFE0FFE5CFD8FFE6
:1013F0001000600E7E6E080E7F6E92688A6A2F0E55
:10140000936E8B6A060E946EC26AC16ABE0EC06E7F
:101410001CEC00F000019A6B9B6B986B996B010EB2
:101420009C6FEDEC02F000019C5101E05ED9200EB2
:101430000001E76E6019E8AE02D0E73402D0E75051
:10144000605D04E36450020B01E102D8ECD71200A6
:1014500000019851991102E1000E08D098C0E9FFEF
:1014600099C0EAFFEF50800B01E0010E000901E096
:101470003BD100019C6B30C270F231C271F20201AB
:101480003051FF0A01E11AD1CC0A01E1B9D0010AB9
:1014900001E17FD0030A2EE0010A01E011D102012F
:1014A0004F0E726F02014B0E736F00019A519B1128
:1014B00002E1000E08D09AC0E9FF9BC0EAFFEF509E
:1014C000800B01E0010E000914E1400EE66E700E83
:1014D000E66E020EE66E010EE66E010EE66E9CEC06
:1014E00001F00B6E050EE15E0B50F3CF9AF0F4CFD6
:1014F0009BF0E7D0310E0201315D02E18B8C01D00F
:101500008B9C310E0201325D02E18B8601D08B96FD
:10151000310E0201335D02E18B8801D08B988B5034
:10152000400B01E0010E300F0201726F8B50080B6F
:1015300001E0010E300F0201736F8B50100B01E0C0
:10154000010E300F0201746F00019A519B1102E1EC
:10155000000E08D09AC0E9FF9BC0EAFFEF50800B55
:1015600001E0010E000914E1400EE66E700EE66E19
:10157000020EE66E010EE66E010EE66E9CEC01F0C8
:101580000B6E050EE15E0B50F3CF9AF0F4CF9BF09B
:1015900098D0310E0201315D02E18A8805D0300E0B
:1015A0000201315D01E18A988A50100B01E0010EC1
:1015B000300F0201726F00019A519B1102E1000E7F
:1015C00008D09AC0E9FF9BC0EAFFEF50800B01E012
:1015D000010E000914E1400EE66E700EE66E020E7A
:1015E000E66E010EE66E010EE66E9CEC01F00B6EEF
:1015F000050EE15E0B50F3CF9AF0F4CF9BF061D073
:10160000310E0201315D0BE1140EC26EC280C28246
:10161000C2B2FED7C3CF72F2C4CF73F204D00201BC
:10162000726B0201736B310E0201325D0BE1180E19
:10163000C26EC280C282C2B2FED7C3CF74F2C4CF20
:1016400075F204D00201746B0201756B310E020158
:10165000335D0BE12C0EC26EC280C282C2B2FED7D5
:10166000C3CF76F2C4CF77F204D00201766B0201C9
:10167000776B00019A519B1102E1000E08D09AC0CD
:10168000E9FF9BC0EAFFEF50800B01E0010E00096B
:1016900014E1400EE66E700EE66E020EE66E010E6E
:1016A000E66E010EE66E9CEC01F00B6E050EE15E3F
:1016B0000B50F3CF9AF0F4CF9BF003D0FF0001D092
:1016C00000D0400EE66E300EE66E020EE66EE66A62
:1016D000010EE66E9CEC01F00B6E050EE15E0B5008
:1016E000F3CF98F0F4CF99F0120000019D519E11B4
:1016F00004E1200E9D6F4E0E9E6F9D07000E9E5BB7
:1017000064A21ED09D519E111AE19F2B000EA023B2
:10171000010E9F1901E1A05104E18B8C8B968B98EF
:101720000ED0020E9F1901E1A05104E18B9C8B8623
:101730008B9805D08B9C8B968B889F6BA06B32D03F
:101740000001605104E18B9C8B968B982BD0600537
:1017500004E18B8C8B868B8825D0020E605D04E1C2
:101760008B8C8B968B981ED0040E605D04E18B9C55
:101770008B868B9817D0100E605D07E100019D519C
:101780009E1102E18B7C8B960DD0200E605D0AE1EC
:1017900000019D519E1106E18B7C8BAC02D08B9693
:1017A00001D08B861200120012001200120069EFA5
:1017B0000CF012001E0EE66E010EE66E65EC01F0F6
:1017C000E552E552400EE66E300EE66E020EE66E13
:1017D000E66A010EE66E9CEC01F00B6E050EE15E12
:1017E0000B50F3CF98F0F4CF99F0120000017F0571
:1017F00020E1000180051DE1A094D6DF6492000184
:10180000806B0001100EA26F0E0EA36FA207000ED8
:10181000A35BA251A311FAE16484080EA26F070E24
:10182000A36FA207000EA35BA251A311FAE1649477
:10183000A0841200D9CFE6FFE1CFD9FFFD0EDBCFA8
:1018400006F0FE0EDBCF07F0050E061801E107508B
:1018500039E0E868061802E17F0E071831E0030E50
:10186000061801E107502AE0020E061801E10750B0
:1018700023E0010E061801E107501CE0740E061863
:1018800001E1075015E0750E061801E107500EE062
:10189000730E061801E1075007E0720E061801E109
:1018A000075001E010D00FD080DF0DD07CDF0BD0CF
:1018B0007BDF09D07FDF07D07CDF05D078DF03D066
:1018C00075DF01D000D0010E00D0E552E7CFD9FF7F
:0218D000120004
:0E18D200020120511F0B010801E065D02451D6
:1018E00001E062D0060E215D22E12351230A1EE0B1
:1018F000010A11E0030A01E01AD0000161050AE1C2
:101900000001CE0E716F190E726F090E746F756B38
:10191000C00E736F0CD00001250E716F1A0E726F1E
:101920001C0E746F756BC00E736F01D000D0020176
:101930002051600BE842E842E842E842E8420108F0
:1019400001E032D021510B0A29E0080A1CE0090A03
:1019500014E0080A07E00B0A04E0080A01E024D0BA
:1019600023D022D00001A40E716F000E726F010E01
:10197000746F756BC10E736F17D00001800E736F9B
:1019800023C2A4F011D00001A50E716F000E726F7A
:10199000010E746F756B810E736F06D00001800E9F
:0A19A000736F22C2A5F000D0120000
:0619AA0012010002000022
:1019B0000008D8043F0002000102000109022900CA
:1019C000010100C0320904000002030000000921E7
:1019D00011010001221C00070581034000010705D9
:1019E0000103400001040309041C033200300031EC
:1019F0000033002800430029002000420041004E2F
:101A00000054002E00200357006100740074002071
:101A1000004D006500740065007200200056003122
:101A2000002E0030000600FF0901A1011901294024
:101A30001501254075089540810019012940910044
:091A4000C0BC19E519E919051AE9
:061A4A002A0EF66E000EEC
:101A5000F76E000EF86E00010900F550936F090053
:101A6000F550946F03E1936701D03DD00900F55024
:101A70008E6F0900F5508F6F0900F550906F0900C7
:101A80000900F550E96E0900F550EA6E09000900F9
:101A90000900F550916F0900F550926F0900090097
:101AA000F6CF95F0F7CF96F0F8CF97F08EC0F6FF0F
:101AB0008FC0F7FF90C0F8FF0001915302E19253ED
:101AC00007E00900F550EE6E9107F8E29207F9D7AA
:101AD00095C0F6FF96C0F7FF97C0F8FF0001930787
:081AE000000E945BBFD7120059
:081AE800FE0EE3CFE9FFFF0E43
:101AF000E3CFEAFFE9CFF3FFEACFF4FFFB0EE350B9
:101B000003E1FC0EE35009E0FB0EE30602E2FC0EEB
:0C1B1000E306FD0EE350EE6EF1D712006C
:041B1C00000EF36E56
:101B200000EE00F0030E01D81200EA6002D0EE6A67
:0C1B3000FCD7F350E9601200EE6AFCD70D
:041B3C0011EE00F0B6
:101B400021EE00F0F86A0A9C25EC0DF0ACEC0DF0EB
:081B5000F9EC09F0FBD71200CB
:021B5800120079
:061B5A0000000000010084
:031B600000000082
:020000040030CA
:0100000000FF
:0100010032CC
:0100020020DD
:010003001EDE
:0100050000FA
:010006008178
:0100080003F4
:00000001FF
