:100000007BC093C092C0C0C090C08FC08FC07AC365
:100010008CC08BC08AC089C088C087C086C085C09C
:1000200084C083C082C0526563656976652044617F
:100030007461204552520A0D0052657175657374E2
:10004000204F4B0A0D005265706561742044617445
:1000500061202D20004E6F742041737369676E20FC
:10006000436F6465202D20004272616B65202D2056
:10007000004272616B65202D20004261636B202D70
:100080002000466F7277617264202D2000526967EC
:100090006874204261636B202D2000526967687488
:1000A000207475726E202D20005269676874202DAF
:1000B00020004C656674204261636B202D20004C4B
:1000C000656674207475726E202D20004C65667410
:1000D000202D20004D616B657220436F64652045C3
:1000E0005252202D20005265616479204F4B0A0D39
:1000F000000A0D003078000011241FBECFEDCDBFE7
:1001000010E0A0E6B0E0E4E4F7E002C005900D9254
:10011000A636B107D9F710E0A6E6B0E001C01D92FF
:10012000A537B107E1F77DD10BC36ACF1F920F92BC
:100130000FB60F9211248F939F93EF93FF93E0914B
:100140006600E250E43030F4F0E0EF59FF4F908168
:10015000992311F4C19A0FC080916000815080935F
:10016000600080916000882331F49093600088B330
:1001700092E0892788BBFF91EF919F918F910F901B
:100180000FBE0F901F9018951F920F920FB60F92EF
:1001900011242F933F934F938F939F93AF93BF93CC
:1001A00024B535B51DBC1CBC809174008695869520
:1001B000877090E082309105B9F1833091053CF46D
:1001C000009771F08130910509F0C6C013C08330EB
:1001D000910509F43FC08430910509F0BDC09BC072
:1001E0008699BAC08EB580648EBD80917400837E7E
:1001F00084600FC0869BB0C08EB58F7B8EBD2052B1
:100200003C414EE02131340738F480917400837E04
:10021000886080937400A0C0809174008062809395
:1002200074001092730073C0869996C0C901805102
:100230009E4047E08930940728F480917400837EC3
:100240008C6085C02850374083E02538380708F097
:1002500054C04AC0869980C0C9018058934041E08B
:10026000813C940768F480916F0090917000A09198
:100270007100B0917200B695A7959795879523C0A8
:100280002850374083E025383807B8F580916F0053
:1002900090917000A0917100B0917200B695A795F1
:1002A0009795879580936F0090937000A09371004D
:1002B000B093720080916F0090917000A0917100D6
:1002C000B0917200B06880936F0090937000A0931B
:1002D0007100B0937200809173008F5F8093730000
:1002E000809173008032C1F580917400837E8061BB
:1002F000809374008EB580642EC0809174008062FB
:1003000080937400109273008EB58F7B8EBD8091A8
:100310007400837E7ECF869B1FC080916F0090917A
:100320007000A0917100B09172008093670090936B
:100330006800A0936900B0936A008091740080689F
:10034000809374001092730080917400837E809378
:1003500074008EB58F7B8EBDBF91AF919F918F91B1
:100360004F913F912F910F900FBE0F901F901895B6
:10037000B99A8E9887B3886187BB81B3886181BB46
:10038000089510BE85E083BF12BE89B7826089BF21
:1003900008951FBC82EC8EBD1DBC1CBC8FEF9FEF6F
:1003A0009BBD8ABD99BD88BD1BBE15BE80E888B9BE
:1003B00089B7886089BF089584EF90E089D18091E2
:1003C000670059D18091680056D18091690053D15E
:1003D00080916A0050D181EF90E07AD10895F8942D
:1003E00010926700109268001092690010926A00E3
:1003F00010926F00109270001092710010927200B3
:1004000080917400806880937400109273008091D2
:100410007400837E809374008EB58F7B8EBD78943C
:100420000895DF92EF92FF920F931F93CF93DF9384
:10043000F8949EDFA6DFADDF58D181E0809366009F
:100440008EB58F7B8EBD88B7886088BFC398C498EF
:100450009398949885B7806585BF789486EE90E0F0
:1004600037D1C0E0D0E063E0D62E52E0E52E45E083
:10047000F42E01E014E08091740087FFCCC08091DD
:100480006700909168002FEF8030920741F0F09262
:10049000660084ED90E01CD18FDFA1DFB7C08091B2
:1004A000690090916A008C179D0709F4A9C0C0915A
:1004B0006900D0916A00E09266008CEEC331D807E3
:1004C00009F475C02CEEC431D207C8F488EEC731E8
:1004D000D80709F482C028EEC831D20730F487EE7D
:1004E000C831D80709F089C04EC029EEC631D207FD
:1004F00069F18BEEC431D80709F07FC03BC02CEF07
:10050000C330D20709F44AC08CEFC430D80750F486
:100510002DEEC231D20789F08FEEC031D80709F035
:100520006CC062C02DEFC230D20709F44BC08EEF11
:10053000C130D80709F061C014C0C398C49893981B
:100540009498939A94988CEC90E05EC0C398C49869
:1005500093989498C398C49A939A94988FEB90E048
:1005600053C0C398C49893989498C398C49A82EB44
:1005700090E04AC0C398C49893989498C39AC4983A
:1005800089EA90E041C0C398C49893989498C39A1C
:10059000C4989398949A8BE990E036C0C398C49815
:1005A000939894989398949A8DE890E02DC0C3986E
:1005B000C49893989498C39AC498939A949882E80C
:1005C00090E022C0C398C49893989498C398C49A12
:1005D0009398949A8AE790E017C0C39AC49A939A22
:1005E000949A81E790E006C0C398C4989398949831
:1005F00088E690E06DD0F3DE08C085E590E004C0A9
:10060000D092660086E490E063D0D6DE80917400DC
:100610008F77809374008091740086FF0AC00093E6
:100620006600809174008F7B8093740089E390E072
:100630004FD08091740085FF0BC0109366008091AD
:1006400074008F7D8093740086E290E041D0C7DE15
:1006500085B7806285BF889585B78F7D85BF0BCFB5
:100660008BB1881F8827881F08958CB108955D9BE2
:10067000FECF8CB908951F93182F82958F708A3002
:1006800010F0895C01C0805DF2DF812F8F708A30AD
:1006900010F0895C01C0805DEADF1F9108951F930F
:1006A000CF93DF9364E670E037D0EC01862F805D56
:1006B000DEDFCE016AE070E02FD0182F862F805D3C
:1006C000D6DF812F805DD3DFDF91CF911F91089519
:1006D000CF93DF93EC0101C0CADFFE012196849124
:1006E0008823D1F7DF91CF91089591989098899AB6
:1006F000889883E389B912B888E98AB9599886E05D
:1007000083B908951F920F920FB60F9211240F9084
:100710000FBE0F901F901895AA1BBB1B51E107C07D
:10072000AA1FBB1FA617B70710F0A61BB70B881F81
:10073000991F5A95A9F780959095BC01CD01089510
:04074000F894FFCF5B
:060744002020181008003F
:00000001FF
