:1000000012C022C021C020C01FC01EC01DC01CC005
:100010001BC01AC019C018C017C016C015C014C024
:1000200013C012C011C011241FBECFEDCDBF10E010
:10003000A0E6B0E0EEECF1E002C005900D92AE3625
:10004000B107D9F702D0C1C0DBCF59D081E035D09C
:1000500081E061E098D080E690E07DD084EF91E08F
:10006000A0D081E02AD082E061E08DD086E690E0E9
:1000700072D084EF91E095D0E9CF87B3806F87BBD2
:1000800088B38F7088BB87B3836087BB88B38C7F4E
:1000900088BB089598B3807F9F70892B88BB61309F
:1000A00011F4C09A01C0C09881E090E07AD0C19A62
:1000B00081E090E076D0C19808951F93182F60E0FA
:1000C000E9DF812F8295807F60E0E4DF1C7F21F0F3
:1000D00082E390E071D003C082E090E062D01F9193
:1000E00008951F93182F61E0D5DF812F8295807FBF
:1000F00061E0D0DF82E390E05FD01F910895BDDF23
:1001000083E290E04ED080E260E0C4DF80E260E015
:10011000C1DF80E860E0BEDF82E390E04DD080E0A8
:1001200060E0B8DF80EC60E0B5DF82E390E044D0CF
:1001300080E060E0AFDF80E160E0ACDF82E090E093
:1001400030D080E060E0A6DF80E660E0A3DF82E3FD
:1001500090E027D00895CF93DF93EC0101C0C1DF79
:1001600089918823E1F7DF91CF910895CF93DF93B1
:10017000EC0101C0B6DFFE01219684918823D1F7FE
:10018000DF91CF9108958150823030F4E82FF0E074
:10019000E459FF4F808101C080E86150860F8DDFF8
:1001A000089507C0EFECF7E03197F1F700C00000C9
:1001B00001970097B9F7089505C022E02A95F1F755
:0E01C00000C001970097C9F70895F894FFCF8B
:0E01CE0054455354310054455354320080C000
:00000001FF
