:1000000012C02AC029C028C027C026C025C024C0CD
:1000100023C022C021C020C01FC01EC01DC01CC0E4
:100020001BC01AC019C011241FBECFEDCDBF10E0F8
:10003000A0E6B0E0E4EDF1E002C005900D92AC3630
:10004000B107D9F710E0ACE6B0E001C01D92AC36C4
:10005000B107E1F7A5D0BCC0D3CF87B3806F87BB12
:1000600088B38F7088BB87B3836087BB88B38C7F6E
:1000700088BB089598B3807F9F70892B88BB6130BF
:1000800011F4C09A01C0C09881E090E075D0C19A87
:1000900081E090E071D0C1980895CF93C82F60E0BF
:1000A000E9DF8C2F8295807F60E0E4DFCC7F21F058
:1000B00082E390E06CD003C082E090E05DD0CF910D
:1000C0000895CF93C82F61E0D5DF8C2F8295807F74
:1000D00061E0D0DF82E390E05AD0CF910895BDDF98
:1000E00083E290E049D080E260E0C4DF80E260E03B
:1000F000C1DF80E860E0BEDF82E390E048D080E0CE
:1001000060E0B8DF80EC60E0B5DF82E390E03FD0F4
:1001100080E060E0AFDF80E160E0ACDF82E090E0B3
:100120002BD080E060E0A6DF80E660E0A3DF82E322
:1001300090E022D00895CF93DF93EC0101C0C1DF9E
:1001400089918823E1F7DF91CF910895CF93DF93D1
:10015000EC0101C0B6DFFE01219684918823D1F71E
:10016000DF91CF910895823011F080E801C080ECDA
:100170006150860F92DF089507C0EFECF7E03197EA
:10018000F1F700C0000001970097B9F7089505C086
:1001900022E02A95F1F700C001970097C9F708956A
:1001A0009EDF81E07ADF81E061E0DDDF80E690E0E4
:1001B000C2DF84EF91E0E0DF81E06FDF82E061E0A9
:1001C000D2DF86E690E0B7DF84EF91E0D5DFE9CFBC
:0401D000F894FFCFD1
:0C01D4005445535431005445535432003C
:00000001FF
