S01300004261726F4D6574657230332E737265632D
S11300000C94F3000C9410010C9410010C94100146
S11300100C9410010C94AE1B0C9410010C94100160
S11300200C9410010C94B91B0C9410010C94DE1B5D
S11300300C9410010C9410010C9410010C941001F8
S11300400C9410010C9410010C9410010C941001E8
S11300500C9410010C9410010C9410010C941001D8
S11300600C9410010C941001253032642D2530328B
S1130070642D2530326400253032643A25303264F0
S11300803A253032640025642E2564002534642E1C
S1130090256400253034642D253032642D2530321A
S11300A06420257300253032643A253032643A25C1
S11300B03032642500253032640025303264002556
S11300C030326420257300253032640025303264D8
S11300D00025303264005B436F6E6669675D0046DD
S11300E0696C652053617665204572726F722E00CB
S11300F053687574646F776E2E2E2E256400C3DEEC
S1130100DDC1203D3E2025642E25645600B1B6D9BC
S1130110BB203D3E20256400415652204261726F4F
S11301206D657465720076302E33202032303133A1
S11301302F30332F3234005B4D504C313135413246
S11301405D00496E6974204572726F722121005BF3
S11301504D504C31313541325D00496E6974204453
S1130160617461204572726F7221002530327525E9
S1130170303275253032752E4C4F47005B4F706519
S11301806E204552524F525D005B46696C65204FAC
S113019070656E6564215D005B46494C455D0053A6
S11301A0796E63204572726F722121005B4C6F7708
S11301B020506F7765725D00676F746F20536875A8
S11301C074446F776E2E005B46494C455D0053794D
S11301D06E63204572726F7221210053687574201A
S11301E0446F776E000011241FBECFEFD8E0DEBF4E
S11301F0CDBF11E0A0E0B1E0E0EAF8E602C005906E
S11302000D92A838B107D9F715E0A8E8B1E001C00C
S11302101D92A732B107E1F70E9450230C944E348B
S11302200C940000882331F090E19A95F1F700C016
S11302308150D1F70895CF93C82F882329F084E102
S11302400E941201C150D9F7CF910895009741F04F
S1130250E9EFF0E03197F1F700C000000197C1F732
S11302600895CF93DF93EC01009731F088EE93E08B
S11302700E9426012197D1F7DF91CF9108956AE07A
S11302800E94C6338295807F890F0895982F929596
S11302909F70990F292F220F220F920F8F70890FB1
S11302A008951F93CF93DF9300D0CDB7DEB7898332
S11302B06A8313E088E662E070E040E09E012F5F0D
S11302C03F4F0E942830882311F0115099F70F9066
S11302D00F90DF91CF911F9108951F93CF93DF93D8
S11302E00F92CDB7DEB7898313E088E661E070E052
S11302F041E09E012F5F3F4F0E942830882361F424
S113030088E661E070E040E09E012F5F3F4F0E946D
S11303109C2F882339F08C59115039F7882321F008
S1130320898103C080E001C080E00F90DF91CF910C
S11303301F910895EF92FF920F931F93CF93DF9332
S1130340CDB7DEB727970FB6F894DEBF0FBECDBF8B
S11303507C0103E0198288E661E070E041E09E01DF
S11303602F5F3F4F0E942830182F882309F056C072
S113037088E667E070E040E09E012F5F3F4F0E94F7
S11303809C2F182F882311F01C5948C089818F771E
S11303900E944601F70180838A818F770E9446017B
S11303A0F70181838B81082F86FF0FC08F710E9414
S11303B04601F701828381E0808705FF02C0118630
S11303C00AC081E0F701818706C08F730E9446014D
S11303D0F701828310868C8187700E944601F701A1
S11303E087838D818F730E944601F70183830E8179
S11303F0802F8F710E944601F70184838F810E94B0
S1130400460190E08053984FF7019683858300233B
S113041044F48C599F4F9683858303C0015009F09F
S113042099CF812F27960FB6F894DEBF0FBECDBFAC
S1130430DF91CF911F910F91FF90EF9008950F934B
S11304401F93CF93DF93CDB7DEB728970FB6F894F9
S1130450DEBF0FBECDBF8C011982FC0180810E94DA
S11304603F018A83F80181810E943F018B83F80157
S113047082810E943F018C83F8019085992339F091
S113048080648C839185992311F480628C83F801B4
S113049087810E943F018D83F80183810E943F017F
S11304A08E83F80184810E943F018F83F801858146
S11304B0805D0E943F01888703E088E668E070E081
S11304C040E09E012F5F3F4F0E942830882319F09F
S11304D08C59015091F728960FB6F894DEBF0FBEE1
S11304E0CDBFDF91CF911F910F910895FF920F938C
S11304F01F93CF93DF9300D0CDB7DEB7F82E13E070
S11305000EE0098388E661E070E041E09E012F5F20
S11305103F4F0E942830882361F488E661E070E050
S113052040E09E012F5F3F4F0E949C2F882329F0BB
S11305308C59115031F78823D1F48981FF2021F09F
S113054080648B7F8A8302C08F7B8A838EE0898359
S113055013E088E662E070E040E09E012F5F3F4FC9
S11305600E942830882319F08C59115091F70F906C
S11305700F90DF91CF911F910F91FF900895FF92FB
S11305800F931F93CF93DF9300D0CDB7DEB7F82E30
S113059013E00EE0098388E661E070E041E09E012B
S11305A02F5F3F4F0E942830882361F488E661E082
S11305B070E040E09E012F5F3F4F0E949C2F8823F4
S11305C029F08C59115031F78823C9F4FF0CFF0C22
S11305D0FF0CFF0C8981877EF82AFA828EE08983DA
S11305E013E088E662E070E040E09E012F5F3F4F39
S11305F00E942830882319F08C59115091F70F90DC
S11306000F90DF91CF911F910F91FF900895FF926A
S11306100F931F93CF93DF9300D0CDB7DEB7F82E9F
S113062013E00FE0098388E661E070E041E09E0199
S11306302F5F3F4F0E942830882361F488E661E0F1
S113064070E040E09E012F5F3F4F0E949C2F882363
S113065029F08C59115031F78823C9F48981FF207E
S113066019F088608A8302C0877F8A838FE0898338
S113067013E088E662E070E040E09E012F5F3F4FA8
S11306800E942830882319F08C59115091F70F904B
S11306900F90DF91CF911F910F91FF90089587E004
S11306A060E00E94510188E060E00E94510189E00D
S11306B060E00E9451018AE060E00E9451010895C7
S11306C0CF93DF93C82FD62F883120F56C3310F5E4
S11306D04C3300F5842F0E943F01682F87E00E946D
S11306E051018D2F0E943F01682F88E00E94510123
S11306F08C2F0E943F01682F89E00E9451018AE0FB
S113070061E80E9451018FE00E946D018E7F6FE0CD
S11307100E945101DF91CF910895FC01009729F0C7
S11307208281618140810E9460030895EF92FF926B
S11307300F931F93CF93DF937C018B01EA0187E032
S11307400E946D018F770E944601888388E00E9491
S11307506D018F770E944601F801808389E00E9431
S11307606D018F770E944601F7018083DF91CF915D
S11307701F910F91FF90EF9008950F931F93CF93C4
S1130780DF9300D00F92CDB7DEB78C01CE01019676
S1130790BE016E5F7F4FAE014D5F5F4F0E949603B7
S11307A08981F80182838A8181838B8180830F9080
S11307B00F900F90DF91CF911F910F910895CF93D8
S11307C0DF938FE00E946D01282F30E0E901C170B2
S11307D0D07080FF05C0682F6E7F8FE00E945101AA
S11307E081E0209709F480E0DF91CF910895CF93C1
S11307F0DF93EC0142305105B8F0FB01DC01CA0182
S1130800219131912D933D93029782309105C0F748
S1130810CA0102978E7F0296FE01E80FF91F860F28
S1130820971F4170507002C0CB01FE014115510564
S113083031F0DC018D91819341505040D9F7DF9123
S1130840CF9108954115510531F0E82FF92F6193A7
S113085041505040E1F70895009781F0FC01208158
S1130860222371F0268137812617370759F48181B5
S11308700E94BE2880FF08C083E0089589E008959F
S113088089E0089589E0089580E008954F925F9289
S11308906F927F928F929F92AF92BF92CF92DF928C
S11308A0EF92FF920F93CF935C012A013B01FC016D
S11308B0C2A4D3A4E4A4F5A4C416D506E606F70698
S11308C009F454C084818823D1F10F2EFEE28F2EC7
S11308D09924F02D8A0C9B1C8181B401A7019601F7
S11308E001E00E941D29882309F042C0F501148209
S11308F0428D538D648D758D868D978DA0A1B1A188
S1130900840F951FA61FB71FC816D906EA06FB0653
S1130910B0F4C381C23098F0F501828D938DA48D1B
S1130920B58DC80ED91EEA1EFB1E8181B401A70134
S1130930960101E00E941D29C150C13069F741149C
S1130940510461047104B1F0B501625D7F4FF5019A
S11309508181A301920101E00E94C528882361F4EA
S1130960F50142A653A664A675A607C080E005C09B
S113097081E003C080E001C081E0CF910F91FF903E
S1130980EF90DF90CF90BF90AF909F908F907F902B
S11309906F905F904F9008950F93CF93DF93EC0186
S11309A09A01AB01BC01625D7F4F898101E00E9425
S11309B0C528882359F5FE01E45DFD4F80819181AE
S11309C02AEA8535920721F5FE01EC59FF4F808113
S11309D09181A281B381B070863421E4920724E529
S11309E0A20720E0B207B1F0C058DF4F4881598117
S11309F06A817B81707081E0463491E4590794E503
S1130A00690790E0790739F480E005C083E003C00A
S1130A1082E001C080E0DF91CF910F9108952F9281
S1130A203F924F925F926F927F928F929F92AF927A
S1130A30BF92DF92EF92FF920F931F93CF93DF93B6
S1130A40CDB7DEB760970FB6F894DEBF0FBECDBF4B
S1130A50DC01042FED91FC911197808190E0C09707
S1130A608A30910550F421812A3339F43296119653
S1130A70FC93EE93009709F02AC2E0908801F0906D
S1130A808901DB011196FC92EE92E114F10409F460
S1130A9020C2F7018081882361F081810E94BE28F1
S1130AA080FD07C0002309F416C282FD16C280E04F
S1130AB035C2D7011C9211961C9280E00E94CD276A
S1130AC080FD0DC2002311F082FD0BC2C70140E07E
S1130AD050E0BA010E94CC048130A1F4F701E05146
S1130AE0FE4F8081882309F4FEC1F701EC50FE4FCC
S1130AF080809180A280B380C701B501A4010E94C7
S1130B00CC0403C0882499245401833009F4EDC132
S1130B10882309F0ECC1F70181AD92ADF2E0803099
S1130B209F0709F0E6C1F701EC5BFF4F80819181DB
S1130B302C0166247724411451046104710439F4AE
S1130B40F701EE5AFF4F4080518062807380D701D5
S1130B505A964D925D926D927C925D97DE964C9181
S1130B60DE9713964C931397842F8150823008F0AC
S1130B70C2C1DB96DC90DB971296DC921297DD20E3
S1130B8009F4BBC18D2D90E09C012150304082239B
S1130B909323009709F0B3C1F701FF9620803180B9
S1130BA0F70131862086C1018F709070009709F09B
S1130BB0A8C1EF5BFF4F808191818C0120E030E080
S1130BC009831A832B833C83011511052105310503
S1130BD069F49701225B3F4FD9018D919D910D904E
S1130BE0BC91A02D89839A83AB83BC83F70104ADA8
S1130BF015AD0115110509F486C1242F30E040E03C
S1130C0050E0C301B2010E94A7336D877E878F87AE
S1130C10988B980140E050E029873A874B875C879E
S1130C20C101929582958F7089279F708927A0E0D2
S1130C30B0E0820F931FA41FB51F0D851E852F855D
S1130C403889080F191F2A1F3B1F0D831E832F830A
S1130C50388789819A81AB81BC8180179107A2076B
S1130C60B30708F452C1BC01CD01601B710B820BA8
S1130C70930B2D2D30E040E050E00E94F9338901C0
S1130C809A01D901C801011511052105310509F49D
S1130C903EC1063FEFE01E07E0E02E07E0E03E071E
S1130CA018F4DD24D39403C0DD246894D1F8863F7E
S1130CB0FFEF9F07F0E0AF07F0E0BF0708F046C181
S1130CC0B901A8014E5F5F4F6F4F7F4FD701569612
S1130CD04D935D936D937C9359978D819E81AF81E4
S1130CE0B885880D991DAA1DBB1DF70186A397A37E
S1130CF0A0A7B1A789859A85AB85BC85880D991D68
S1130D00AA1DBB1D868F978FA0A3B1A3F3E0DF16A6
S1130D10C9F42114310409F0FCC0F701E65AFF4F6D
S1130D2080819181A281B381F70182A393A3A4A3BB
S1130D30B5A3440F551F661F771F440F551F661F29
S1130D40771F2FC02114310409F4E5C00D851E85D9
S1130D502F853889800F911FA21FB31FF70182A32B
S1130D6093A3A4A3B5A3F2E0DF1629F4440F551FFF
S1130D70661F771F16C0DB01CA01880F991FAA1FBF
S1130D80BB1F840F951FA61FB71FB695A7959795F0
S1130D9087954170507060707070480F591F6A1FBA
S1130DA07B1FDB01CA0181509E4FAF4FBF4F072EFF
S1130DB079E0B695A795979587957A95D1F7702D93
S1130DC0481659066A067B0608F4A7C08FEF9FEF02
S1130DD0DC01F70186879787A08BB18B1286138677
S1130DE014861586B3E0DB1609F05AC01582E25A60
S1130DF0FF4F80819181A0E0B0E0A5019401280F0C
S1130E00391F4A1F5B1FD70152962D933D934D9373
S1130E105C935597B701625D7F4F11968C9101E009
S1130E200E94C5288823E1F5F701E45DFD4F808128
S1130E309181BAEA85359B0799F5F70186A597A5AF
S1130E40A0A9B1A98235F2E59F07F1E6AF07F1E465
S1130E50BF0731F5F701EE5EFD4F80819181A281DC
S1130E60B381823702E7900701E4A00701E6B007E7
S1130E70B9F4F701E65EFD4F80819181A281B381CF
S1130E80F70182879387A487B587EA5EFD4F808147
S1130E909181A281B381F70186879787A08BB18B5B
S1130EA0D701DC9280918A0190918B0101969093F5
S1130EB08B0180938A0117969C938E931697F70162
S1130EC012A613A614A615A6148280E027C08BE0F0
S1130ED025C08CE023C080E021C08AE01FC083E0ED
S1130EE01DC08AE01BC08DE019C081E017C08DE0F1
S1130EF015C08DE013C08DE011C08DE00FC08DE0F2
S1130F000DC08DE00BC08DE009C08DE007C08DE001
S1130F1005C08DE003C08DE001C08DE060960FB682
S1130F20F894DEBF0FBECDBFDF91CF911F910F911B
S1130F30FF90EF90DF90BF90AF909F908F907F9045
S1130F406F905F904F903F902F900895B901A80142
S1130F504E5F5F4F6F4F7F4FD70156964D935D9312
S1130F606D937C9359978D819E81AF81B885880D4F
S1130F70991DAA1DBB1DF70186A397A3A0A7B1A71E
S1130F8089859A85AB85BC85880D991DAA1DBB1DD5
S1130F90868F978FA0A3B1A30F2EF3E0DF2EF02D41
S1130FA0B8CE0F931F93CF93DF93EC01DB01CA01FB
S1130FB00297A109B1094E895F89688D798D4250E4
S1130FC050406040704084179507A607B70798F40F
S1130FD02A8130E040E050E0BC01CD010E94A733FB
S1130FE08B019C018EA19FA1A8A5B9A5080F191F6B
S1130FF02A1F3B1F03C000E010E09801602F712FEF
S1131000822F932FDF91CF911F910F910895BF925B
S1131010CF92DF92EF92FF920F931F93CF93DF93C0
S1131020EC016A017B01423051056105710508F448
S1131030AAC08E899F89A88DB98D481759076A0758
S11310407B0708F0A5C08881823009F45CC0833036
S113105009F476C0813009F0A0C09A01369527952D
S11310608901040F151FA801452F5527469560E0F7
S113107070E08E8D9F8DA8A1B9A1480F591F6A1FDA
S11310807B1FCE010E944604882309F08AC0F80120
S1131090F170EC0FFD1FB6A40F5F1F4FA801452F81
S11310A05527469560E070E08E8D9F8DA8A1B9A16B
S11310B0480F591F6A1F7B1FCE010E9446048823D4
S11310C009F073C02B2D30E0F801F170EC0FFD1F17
S11310D096A580E0822B932B21E0C222DD24C1144B
S11310E0D10451F0929582958F7089279F7089273A
S11310F08C0120E030E064C08C0120E030E01F70FF
S1131100207030705DC0452F562F672F77278E8D46
S11311109F8DA8A1B9A1480F591F6A1F7B1FCE013B
S11311200E944604882309F044C0F601EE0FFF1F15
S1131130F170CE0FDF1F0EA51FA520E030E040C0E8
S1131140689416F876956795579547951694D1F750
S11311508E8D9F8DA8A1B9A1480F591F6A1F7B1FAF
S1131160CE010E944604882341F5F601EE0FFF1FCD
S1131170EE0FFF1FF170CE0FDF1F0EA51FA528A9CC
S113118039A93F701DC001E010E020E030E018C034
S113119001E010E020E030E013C00FEF1FEF9801F2
S11311A00FC00FEF1FEF98010BC00FEF1FEF980157
S11311B007C00FEF1FEF980103C00FEF1FEF980157
S11311C0602F712F822F932FDF91CF911F910F9159
S11311D0FF90EF90DF90CF90BF900895EF92FF9231
S11311E00F931F93CF93DF93EC018B017D836C836B
S11311F04E815F81688579854130510561057105AE
S113120009F49FC0E881F98186899789A08DB18D01
S1131210481759076A077B0708F095C0411551051F
S11312206105710569F58081833049F442A153A1B8
S113123064A175A1411551056105710509F51A8669
S11312401B861C861D86808591850817190708F062
S11312507CC0C801929582958F7089279F708927D9
S1131260AC0160E070E082A193A1A4A1B5A1840FB8
S1131270951FA61FB71F8E879F87A88BB98B4EC05B
S1131280828190E07C01EE0CFF1CEE0CFF1CEE0C46
S1131290FF1CEE0CFF1C0E151F0528F18881998197
S11312A00E940708AB01BC014F3F8FEF58078FEF37
S11312B068078FEF780709F44AC042305105610589
S11312C0710508F446C0E881F98186899789A08D63
S11312D0B18D481759076A077B07E8F50E191F09EE
S11312E00E151F05D8F64A875B876C877D87888132
S11312F099810E94D107AB01BC01C80192958295E6
S11313008F7089279F708927A0E0B0E0840F951F14
S1131310A61FB71F8E879F87A88BB98B8881998159
S11313208E960F701070000F111F02951295107F8A
S11313301027007F1027800F911F9B8B8A8B80E0E2
S11313400BC082E009C082E007C082E005C081E0F2
S113135003C082E001C082E0DF91CF911F910F9121
S1131360FF90EF9008958F929F92AF92BF92CF9289
S1131370DF92EF92FF920F931F93CF93DF93EC01D1
S11313806A017B014801590142305105610571052B
S113139008F4C8C08E899F89A88DB98D481759074C
S11313A06A077B0708F0C0C08881823009F46AC0EC
S11313B0833009F482C0813009F0B0C09A013695B7
S11313C027958901040F151FA801452F5527469518
S11313D060E070E08E8D9F8DA8A1B9A1480F591FC0
S11313E06A1F7B1FCE010E944604882309F097C020
S11313F0C8019170E1E0CE22DD24C114D10451F082
S1131400FE01E80FF91F26A52F70382D3295307F85
S1131410232B01C0282DFE01E80FF91F26A70F5F1B
S11314201F4F81E08C83A801452F5527469560E026
S113143070E08E8D9F8DA8A1B9A1480F591F6A1F16
S11314407B1FCE010E944604882309F068C01170F6
S1131450C114D10449F0689413F8B694A7949794EE
S113146087941694D1F709C0FE01E00FF11F26A559
S1131470207F992D9F70822E892A0C0F1D1FF80141
S113148086A64DC0452F562F672F77278E8D9F8DAB
S1131490A8A1B9A1480F591F6A1F7B1FCE010E9442
S11314A046048823E1F5F601EE0FFF1FF170BE96A6
S11314B0EC0FFD1F9182808232C0689416F87695F5
S11314C06795579547951694D1F78E8D9F8DA8A152
S11314D0B9A1480F591F6A1F7B1FCE010E94460401
S11314E08823E9F49601220F331F220F331F317032
S11314F0225D3F4FFE01E20FF31F40815181628163
S11315007381407050706070707F482959296A292E
S11315107B29408351836283738301C082E091E01D
S11315209C8303C082E001C082E0DF91CF911F91D0
S11315300F91FF90EF90DF90CF90BF90AF909F906E
S11315408F9008952F923F924F925F926F927F9265
S11315508F929F92AF92BF92CF92DF92EF92FF92BF
S11315600F931F93CF93DF9300D000D0CDB7DEB796
S11315701C0149835A836B837C83411551056105A2
S11315807105C1F4DC011A968D909D90AD90BC90CC
S11315901D9781149104A104B10451F156968D91C3
S11315A09D910D90BC91A02D88169906AA06BB06A4
S11315B020F527C049815A816B817C810E940708EC
S11315C08B019C01623071058105910508F4ADC061
S11315D0F10186899789A08DB18D081719072A070B
S11315E03B0708F4B6C089809A80AB80BC8009C0F0
S11315F0882499245401839404C088249924540190
S1131600839475016401442455243201689441F89B
S11316100894C11CD11CE11CF11CF1018689978935
S1131620A08DB18DC816D906EA06FB0648F0F2E093
S11316308F169104A104B10408F47CC07301620103
S1131640C101B701A6010E9407088B019C01611525
S1131650710581059105A9F00F3F8FEF18078FEFF2
S113166028078FEF380709F474C0013011052105EC
S1131670310509F46EC0C814D904EA04FB0441F628
S11316805DC08C2C4D2CBE2CAF2CC1014C2D5D2D7E
S11316906E2D7F2D0FEF1FEF2FEF3FE00E94B30958
S11316A08823E9F589819A81AB81BC810097A105E2
S11316B0B10569F0C10149815A816B817C810C2D8E
S11316C01D2D2E2D3F2D0E94B309882341F5D101F4
S11316D01A968C921A971B964C921B971C96BC9246
S11316E01C971D96AC921D971E968D919D910D9001
S11316F0BC91A02D8F3FEFEF9E07EFEFAE07EFEF0A
S1131700BE0701F10197A109B109F1018687978705
S1131710A08BB18B81E08583970186011AC081304B
S1131720A1F40FEF1FEF980114C001E010E020E0D6
S113173030E00FC000E010E098010BC000E010E0C2
S1131740980107C09701860104C001E010E020E081
S113175030E0602F712F822F932F0F900F900F90F6
S11317600F90DF91CF911F910F91FF90EF90DF9039
S1131770CF90BF90AF909F908F907F906F905F902D
S11317804F903F902F9008958F929F92AF92BF9267
S1131790CF92DF92EF92FF920F931F93CF93DF9339
S11317A08C01EB01DC011496ED90FC9015970894E4
S11317B0E11CF11CE114F10409F409C11E968D9198
S11317C09D910D90BC91A02D0097A105B10509F440
S11317D000C10F2EFFE0CF2EDD24F02DCE20DF2020
S11317E0C114D10409F0D8C00196A11DB11DF8019E
S11317F086879787A08BB18B4285538564857585D1
S1131800411551056105710551F40190F081E02DF8
S113181080859185E816F90608F0DDC0BDC0019009
S1131820F081E02D828190E0019797013295229515
S11318302F7023273F70232782239323009709F0D7
S1131840ABC0CF010E9407084B015C0162307105F7
S11318508105910508F4C1C06F3FEFEF7E07EFEFFC
S11318608E07EFEF9E0709F4BAC0D801ED91FC9101
S113187086899789A08DB18D88169906AA06BB061C
S113188008F478C0209709F4ACC0D8011A964D9199
S11318905D916D917C911D97CF010E94A20A4B012D
S11318A05C01611571058105910509F49CC06130E5
S11318B071058105910509F498C06F3FEFEF7E072C
S11318C0EFEF8E07EFEF9E0709F491C0D8018D91D9
S11318D09C9140E050E0BA010E944604882309F03C
S11318E088C0F801808191818E9660E070E040E0CC
S11318F052E00E942204D801CD91DC91CE01B501C1
S1131900A4010E94D107DC01CB018AA79BA7ACA745
S1131910BDA7C0E0D1E01BC0D483F80180819181D0
S113192040E050E0BA010E944604882309F063C0F5
S1131930D801ED91FC9182A593A5A4A5B5A5019626
S1131940A11DB11D82A793A7A4A7B5A7CF5FD801F6
S1131950ED91FC9111978281C817F0F282A593A5AD
S1131960A4A5B5A58C1B9109A109B10982A793A7C8
S1131970A4A7B5A7F80182869386A486B58680813C
S11319809181B501A4010E94D107DC01CB01F801CA
S113199086879787A08BB18BD8011596FC92EE921F
S11319A014978D919C9111978E96CC0CDD1CCC0CC8
S11319B0DD1CCC0CDD1CCC0CDD1CCC0CDD1C8C0D1E
S11319C09D1D53969C938E93529780E015C084E09E
S11319D013C084E011C084E00FC082E00DC081E038
S11319E00BC084E009C087E007C082E005C081E045
S11319F003C081E001C081E0DF91CF911F910F917D
S1131A00FF90EF90DF90CF90BF90AF909F908F901A
S1131A1008952F923F924F925F926F927F928F928E
S1131A209F92AF92BF92CF92DF92EF92FF920F9369
S1131A301F93CF93DF9300D000D000D0CDB7DEB793
S1131A408C017B01DB018C918F3211F08C3519F400
S1131A500894E11CF11CF801168217821086118685
S1131A60D7018C91803248F4C80160E070E00E9494
S1131A70EE08F801138A128A35C10F2EFBE04F2EAF
S1131A805524F02DCC24DD2466247724689463F84F
S1131A90882469827A824B825C820F2EF1E02F2E99
S1131AA0F1E03F2EF02DF7019F0181918F32E1F398
S1131AB08C35D1F33E832D83D8015496AD90BC90E0
S1131AC05597C50160E270E0A2010E942204B601AC
S1131AD0A601D301982CED81FE81E40FF51F20812E
S1131AE07A010894E11CF11C213208F468C02F32F9
S1131AF009F411C12C3509F40EC12E3219F06A17FC
S1131B007B0778F0A830B10509F0DDC02E3209F06A
S1131B10DCC0990C990CA70169817A81AB81BC81E5
S1131B20DACF222314F4F3E09F2A822F81588F31D5
S1131B3018F08F558D31E8F4ED81FE81EE0DFF1D17
S1131B403081832F80548F3320F080548D3708F0F8
S1131B50BEC0CD0101976817790708F0BAC04E5F7F
S1131B605F4FF501E60FF71F208331836E5F7F4FD0
S1131B70B2CF422F50E04232510509F4ACC0F1011A
S1131B808191882331F090E048175907C9F786E01E
S1131B90A9C0822F81548A3118F4F2E09F2A07C029
S1131BA0822F81568A3118F481E0982A2052F50157
S1131BB0E60FF71F20836F5F7F4FA7018CCFED8166
S1131BC0FE81EE0EFF1E892D44E06115710509F4B6
S1131BD084C0F5019081953E11F495E09083A8307E
S1131BE0B10519F4982E990C990C892D90E09C015B
S1131BF0237030702130310509F440618C7090708D
S1131C008430910509F44860D5011B964C93C801B2
S1131C10B6010E94EE08882389F5F80146855785A8
S1131C2060897189808191810E944604882331F5FD
S1131C30D80152964D915C915397FA019081992362
S1131C4009F479C0938593FD13C054966D917C91EA
S1131C5055979A01255F3F4FDB015A01482F04C075
S1131C60E217F30709F45EC091918D919817C1F3BF
S1131C70C801B6010E94C40B882379F2D801549696
S1131C80ED91FC9155979385843061F592FF27C0BF
S1131C9084E028C0F901838584FF23C08489958961
S1131CA0A0E0B0E0BC0155274427828D938DA0E0CD
S1131CB0B0E0842B952BA62BB72BF8018683978352
S1131CC0A087B187F0CE86E00DC086E00BC086E029
S1131CD009C086E007C086E005C086E003C085E051
S1131CE001C085E026960FB6F894DEBF0FBECDBFC7
S1131CF0DF91CF911F910F91FF90EF90DF90CF90E4
S1131D00BF90AF909F908F907F906F905F904F9017
S1131D103F902F9008958D819E81E80EF91E892DA4
S1131D20482D53CF9501842FDB011B969C911B9763
S1131D3092FFB0CFD7CFD8015496ED91FC9155972F
S1131D409385A4CF882391F4E0918801F0918901CF
S1131D50309709F010826115710511F0FB011082B2
S1131D60709389016093880180E008958BE0089561
S1131D702F923F924F925F926F927F928F929F9297
S1131D80AF92BF92CF92DF92EF92FF920F931F9385
S1131D90CF93DF93CDB7DEB7AC970FB6F894DEBF21
S1131DA00FBECDBF6C017CA36BA3DC011D921C9202
S1131DB00F2EFFE1FF2EF02DF4224E71CE018396FB
S1131DC0BE016F5F7F4F0E940F05182FCE0147960B
S1131DD09E8B8D8B112309F0A8C16BA17CA1CE0130
S1131DE001960E94090D182FAB88BC88882321F422
S1131DF0A114B10409F416E02F2D30E0C9018C714F
S1131E009070009709F415C1112309F446C01430E9
S1131E1009F071C1CE01019660E070E00E94EE0805
S1131E20182F882391F54F85588969897A89898182
S1131E309A810E944604182F882339F5EB89FC897E
S1131E408081853E09F474C1882309F471C1CE01EF
S1131E50019661E070E00E94C40B182F882319F3E7
S1131E6014C0AB88BC88C50160E070E040E250E07B
S1131E700E9422046D897E89C5014BE050E00E94D6
S1131E80F703E981FA8181E08483AB88BC8811235C
S1131E9009F031C1B8E0FB2A07C0F50183858171DF
S1131EA009F053C1F2FC53C1F3FE5FC10E94A91CA7
S1131EB0DC01CB01F50186879787A08BB18B138654
S1131EC0148E158E168E178E84899589A0E0B0E045
S1131ED0BC0155274427828D938DA0E0B0E08A0190
S1131EE09B01082B192B2A2B3B2B0DA31EA32FA3DD
S1131EF038A7138E128E158A148A89809A8081E0FD
S1131F00D40114968C9314970115110521053105FC
S1131F1009F42BC19A960D911D912D913C919D9799
S1131F2009A71AA72BA73CA70DA11EA12FA138A56D
S1131F30023011052105310508F40BC156968D9127
S1131F409D910D90BC91A02D081719072A073B07F6
S1131F5008F001C11DA10EA1EFA038A422242394EE
S1131F6004C0142D052DE62C372CC401412F502F0D
S1131F706E2D732D0E9407082B013C01611571051C
S1131F8081059105F1F1613071058105910509F42F
S1131F90E4C06F3F3FEF73073FEF83073FEF9307C3
S1131FA009F4DDC0C401412F502F6E2D732D00E0C4
S1131FB010E098010E94B309182F882309F09BC0F0
S1131FC0F40186859785A089B1898F3FFFEF9F072C
S1131FD0FFEFAF07FFEFBF0749F00196A11DB11D49
S1131FE0F40186879787A08BB18B2582F4018689BB
S1131FF09789A08DB18D481659066A067B0608F4A8
S1132000B0CFE981FA818DA19EA1AFA1B8A50197B6
S1132010A109B10982879387A487B587CF0149A510
S11320205AA56BA57CA50E944604182F882381F02D
S113203062C0112309F05FC0D5011B968C911B97D8
S113204084FD8FC0F1FE91C080FD8DC08EC010E074
S1132050B0E2FB2AE981FA8142A553A564A575A5DE
S1132060D6015A964D935D936D937C935D975F96DD
S1132070BC92AE925E971496FC92D50154964D9103
S11320805C91559760E070E0BA01552744275A9651
S11320908D919C915B97A0E0B0E0482B592B6A2B63
S11320A07B2BD6011E964D935D936D937C93519734
S11320B0D5015C964D915D916D917C915F97D601B0
S11320C01A964D935D936D937C931D9716961D926E
S11320D01D921D921C92199756961D921D921D9247
S11320E01C9259971196FC93EE93868197811396CF
S11320F09C938E931297812FAC960FB6F894DEBF03
S11321000FBECDBFDF91CF911F910F91FF90EF9044
S1132110DF90CF90BF90AF909F908F907F906F9003
S11321205F904F903F902F900895AB88BC8864CE09
S11321304F85588969897A8989819A810E944604E0
S1132140182F882309F0A1CE8CCE17E0D4CF18E045
S1132150D2CF12E0D0CF12E0CECF12E0CCCF11E03C
S1132160CACF14E0C8CF17E0C6CFF3FC70CF10E09D
S113217071CF2F923F924F925F926F927F928F9284
S11321809F92BF92CF92DF92EF92FF920F931F9391
S1132190CF93DF9300D000D0CDB7DEB79C838B8381
S11321A0C62E172F4A011901D9011D921C92FC0158
S11321B062817381808191810E942C04B82E8823CE
S11321C009F07BC1AB81BC8114968C911497882350
S11321D00CF46BC180FF6DC11A968D919D910D9089
S11321E0BC91A02DEB81FC8146815781608571856E
S11321F0841B950BA60BB70BA40160E070E0841759
S11322009507A607B70708F44C018114910409F453
S113221054C1C9821A83AB81BC8116964D915D91DC
S11322206D917C911997DB01CA019170A070B07017
S11322300097A105B10509F0DAC0AB81BC81ED912D
S1132240FC91DB01CA01072E79E0B695A795979515
S113225087957A95D1F7702D12811150182309F0C2
S113226041C0411551056105710539F4EB81FC81CB
S113227086859785A089B1890DC0AB81BC815296B2
S11322804D915D916D917C915597CF010E94070806
S1132290DC01CB0182309105A105B10548F4EB8145
S11322A0FC81848180688483BB246894B1F805C16F
S11322B08F3FFFEF9F07FFEFAF07FFEFBF0761F40B
S11322C0AB81BC8114968C911497806814968C937E
S11322D01497BB24B394F1C0EB81FC81828B938B64
S11322E0A48BB58BAB81BC816D907C901197529679
S11322F04D915D916D917C915597C3010E94D107D9
S1132300DC01CB010097A105B10549F4EB81FC8107
S1132310848180688483BB246894B1F8CEC06C0146
S11323207D01C10ED11CE11CF11C2401452C552456
S113233046944114510409F452C0D30112964C91AD
S11323401297C201810F911D242F30E028173907FD
S113235020F4C9012C01411A5108F30181816981DA
S11323607A81A7019601042D0E94C528882361F073
S1132370AB81BC8114968C911497806814968C93CD
S11323801497BB24B39499C0AB81BC81ED91FC91AB
S1132390119784818823F1F082A593A5A4A5B5A5FE
S11323A08C199D09AE09BF09A20160E070E0841791
S11323B09507A607B70770F4982F8827990FBF01D0
S11323C0625D7F4FE981FA818E0F9F1F40E052E0EA
S11323D00E94F7036201DC2CCC24DD0C41C0AB81EC
S11323E0BC815696CD92DD92ED92FC925997EB8189
S11323F0FC81C680D780E084F18446895789608D4A
S1132400718D808191810E944604882361F0AB81A3
S1132410BC8114968C911497806814968C931497AD
S1132420BB24B3944AC0C6019170E0E0F2E0E81B1B
S1132430F90B6401E815F90508F46F01AB81BC815F
S113244016966D917C9117977170CB018E966D9154
S11324507C91680F791F89819A81A6010E94F703F4
S1132460E981FA81EC0DFD1DFA83E983A60160E0A0
S113247070E0EB81FC8186819781A085B185840F12
S1132480951FA61FB71F86839783A087B187D101A5
S11324908D919C9111978C0D9D1D11969C938E93FB
S11324A08C189D0809F0B7CE08C0BB246894B1F815
S11324B004C00F2EF7E0BF2EF02D8B2D0F900F9040
S11324C00F900F90DF91CF911F910F91FF90EF909C
S11324D0DF90CF90BF909F908F907F906F905F9090
S11324E04F903F902F9008952F923F924F925F927A
S11324F06F927F928F929F92AF92BF92CF92DF9210
S1132500EF92FF920F931F93CF93DF9300D000D0ED
S1132510CDB7DEB79C838B83C62E172F4A011901D2
S1132520D9011D921C92FC01628173818081918189
S11325300E942C04B82E882309F0FCC1AB81BC8115
S113254014968C91149788230CF4ECC181FFEEC18E
S11325501A964D915D916D917C911D97C401A0E0F7
S1132560B0E0840F951FA61FB71F84179507A60711
S1132570B70708F4BAC18114910409F4B6C1C98239
S11325801A83AA24A394EB81FC8146815781608538
S11325907185DB01CA019170A070B0700097A1052C
S11325A0B10509F03FC120813181DB01CA01072E49
S11325B079E0B695A795979587957A95D1F7702D7B
S11325C0F90112811150182309F058C04115510521
S11325D061057105C9F4EB81FC8186859785A08925
S11325E0B1890097A105B10509F5C90140E050E0A2
S11325F0BA010E94A20ADC01CB01EB81FC8186872F
S11326009787A08BB18B0DC0AB81BC8152964D9145
S11326105D916D917C915597C9010E94A20ADC01DC
S1132620CB010097A105B10509F45FC18130910583
S1132630A105B10549F4EB81FC8184818068848320
S1132640BB246894B1F876C18F3FFFEF9F07FFEF7B
S1132650AF07FFEFBF0761F4AB81BC8114968C9187
S11326601497806814968C931497BB24B39462C116
S1132670EB81FC81828B938BA48BB58BAB81BC816A
S11326802D913C91F90182A593A5A4A5B5A5EB8153
S1132690FC8146895789608D718D84179507A6073B
S11326A0B707A1F4C90140E050E0BA010E94460412
S11326B0882361F0AB81BC8114968C911497806857
S11326C014968C931497BB24B39434C1EB81FC818E
S11326D0408051804289538964897589C2010E946E
S11326E0D107DC01CB010097A105B10569F4AB81E9
S11326F0BC8114968C911497806814968C931497CB
S1132700BB246894B1F816C16C017D01C10ED11CC3
S1132710E11CF11C3401672C772466946114710464
S113272009F44FC0F2014281C301810F911D242F8E
S113273030E02817390720F4C9013C01611A7108F7
S1132740D20111968C9169817A81A7019601062D97
S11327500E941D29882341F0EB81FC8184818068DB
S11327608483BB24B394E6C0AB81BC81ED91FC911E
S113277082A593A5A4A5B5A58C199D09AE09BF0989
S1132780A30160E070E084179507A607B707A0F4DB
S1132790BC01762F6627770F29813A81620F731F58
S11327A0CF018E9640E052E00E94F703AB81BC81DA
S11327B0ED91FC91119714826301DC2CCC24DD0C87
S11327C070C0EB81FC8186819781A085B1854285AB
S11327D053856485758584179507A607B707E0F0C8
S11327E0C20140E050E0BA010E944604882361F02F
S11327F0AB81BC8114968C911497806814968C9349
S11328001497BB24B39496C0AB81BC81ED91FC9129
S1132810C2A6D3A6E4A6F5A6EB81FC81C68AD78A14
S1132820E08EF18EAB81BC811696CD90DD90ED905B
S1132830FC90199756964D915D916D917C915997A5
S11328408D919C910E944604882341F0EB81FC8188
S1132850848180688483BB24B3946CC0C601917066
S113286020E032E0281B390B64012815390508F4EF
S11328706901AB81BC8116968D919C9117979170DB
S11328809C01225D3F4F8D919C91820F931F698122
S11328907A81A6010E94F703AB81BC81ED91FC9182
S11328A0A482E981FA81EC0DFD1DFA83E983A60176
S11328B060E070E0EB81FC8186819781A085B18521
S11328C0840F951FA61FB71F86839783A087B187A0
S11328D0D1018D919C9111978C0D9D1D11969C9306
S11328E08E938C189D0809F04ECEEB81FC81868175
S11328F09781A085B1854285538564857585481780
S113290059076A077B0720F482879387A487B587D2
S1132910AB81BC8114968C911497806214968C932D
S1132920149708C0BB246894B1F804C00F2EF7E0D4
S1132930BF2EF02D8B2D0F900F900F900F90DF91E5
S1132940CF911F910F91FF90EF90DF90CF90BF90A8
S1132950AF909F908F907F906F905F904F903F903B
S11329602F900895EF92FF920F931F93CF93DF93CD
S11329708C01DC0112966D917C9113978D919C9141
S11329800E942C04C82F882309F0B2C0F801848166
S113299085FFAEC0428D538D648D758D808191818C
S11329A00E944604C82F882309F0A2C0D8015E966D
S11329B0CD91DC915F978B8580628B871A968D9180
S11329C09D910D90BC91A02D8C8F9D8FAE8FBF8F4C
S11329D0F801868597859B8F8A8F86859785A08940
S11329E0B189BD8BAC8B0E94A91CDC01CB018E8B01
S11329F09F8BA88FB98FD80114968C9114978F7DD3
S1132A0014968C931497ED91FC91119781E0848333
S1132A10ED90FC90C70140E050E0BA010E944604EA
S1132A20C82F882309F064C0F7018081833009F03E
S1132A3055C08581882309F451C012A613A614A693
S1132A4015A68701025D1F4FC80160E070E040E0F9
S1132A5052E00E942204F701E45DFD4F85E59AEA05
S1132A609183808382E592E5A1E6B1E4F70186A72C
S1132A7097A7A0ABB1ABEE5EFD4F82E792E7A1E46E
S1132A80B1E680839183A283B38397012A5E3D4F8D
S1132A90F70186859785A089B189F901808391839F
S1132AA0A283B3839701265E3D4FF7018285938508
S1132AB0A485B585F90180839183A283B383D7016B
S1132AC052962D913D914D915C91559711968C9113
S1132AD0B80101E00E941D29F7011582D701119662
S1132AE08C9163E040E050E00E9497298111C1E09D
S1132AF08C2FDF91CF911F910F91FF90EF9008954C
S1132B00CF93DF93EC010E94B214882311F419824D
S1132B101882DF91CF9108952F923F924F925F9246
S1132B206F927F928F929F92AF92BF92CF92DF92D9
S1132B30EF92FF921F93CF93DF9300D000D000D089
S1132B40CDB7DEB79E838D836A017B01DC011296CB
S1132B506D917C9113978D919C910E942C04182F58
S1132B60882309F0A5C1ED81FE81248122230CF480
S1132B709EC182859385A485B5858C159D05AE057A
S1132B80BF0520F421FD02C06C017D01AD81BE8131
S1132B9016964D915D916D917C911997FD01168268
S1132BA0178210861186C114D104E104F10409F4DA
S1132BB07FC120803180D10112968C9190E0A0E0F9
S1132BC0B0E04C015D01072E79E0880C991CAA1C29
S1132BD0BB1C7A95D1F7702D41155105610571051E
S1132BE0F1F12A013B010894410851086108710878
S1132BF0C701B6016150704080409040A501940126
S1132C000E94F93329833A834B835C83C301B20165
S1132C10A50194010E94F93389819A81AB81BC8119
S1132C2082179307A407B507D0F088279927DC01FA
S1132C3088199909AA09BB0984219521A621B721DC
S1132C40ED81FE8186839783A087B187C81AD90A4C
S1132C50EA0AFB0A428953896489758942C0AD81B5
S1132C60BE811E964D915D916D917C915197411558
S1132C7051056105710569F5C10140E050E0BA01F3
S1132C800E94A20AAB01BC014130510561057105E6
S1132C9039F4ED81FE8184818068848312E008C167
S1132CA04F3FFFEF5F07FFEF6F07FFEF7F0759F419
S1132CB0AD81BE8114968C911497806814968C9380
S1132CC0149711E0F5C0ED81FE8146875787608B2C
S1132CD0718BAD81BE8152964D935D936D937C93C0
S1132CE05597411551056105710509F4A8C08C1467
S1132CF09D04AE04BF0408F068C04D805E80F201FC
S1132D00848181FF0CC0808191810E94A20AAB0161
S1132D10BC01411551056105710539F452C080812A
S1132D2091810E940708AB01BC014F3FBFEF5B07D5
S1132D30BFEF6B07BFEF7B0741F45E824D82F20168
S1132D4084818068848311E0B3C0423051056105F9
S1132D50710560F0D201ED91FC9186899789A08D6F
S1132D60B18D481759076A077B0740F05E824D8290
S1132D70F20184818068848312E09AC0D201529661
S1132D804D935D936D937C93559716968D919D917C
S1132D900D90BC91A02D880D991DAA1DBB1DF2019B
S1132DA086839783A087B187C818D908EA08FB08E7
S1132DB08C149D04AE04BF0408F4A1CF5E824D823E
S1132DC004C05E824D8275016401ED81FE818681BD
S1132DD09781A085B1858C0D9D1DAE1DBF1D868379
S1132DE09783A087B187D701C6019170A070B07096
S1132DF00097A105B10539F1808191810E94D10725
S1132E00DC01CB010097A105B10559F4AD81BE8168
S1132E1014968C911497806814968C93149712E0EE
S1132E2047C00B2EB9E0F694E794D794C794BA95AB
S1132E30D1F7B02DC80ED91EEA1EFB1E07C0CC2444
S1132E40DD24760103C0CC24DD247601ED81FE81EE
S1132E5086819781A085B1859170A070B07000972C
S1132E60A105B10569F086899789A08DB18D8C156E
S1132E709D05AE05BF0521F0C68AD78AE08EF18E86
S1132E80ED81FE8186819781A085B1854285538538
S1132E9064857585481759076A077B0748F4828754
S1132EA09387A487B58784818062848301C012E0FC
S1132EB0812F26960FB6F894DEBF0FBECDBFDF91EB
S1132EC0CF911F91FF90EF90DF90CF90BF90AF9084
S1132ED09F908F907F906F905F904F903F902F9036
S1132EE008950F931F93CF93DF93CDB7DEB72E973B
S1132EF00FB6F894DEBF0FBECDBF8C017E876D8701
S1132F00CE010D96B80140E00E940F05882309F018
S1132F1041C0CE010196D80155969C938E93549747
S1132F206D857E85C8010E94090D882369F5D80145
S1132F305296ED91FC9153973097B9F0838584FFB5
S1132F4026C04489558960E070E0BA0155274427BA
S1132F50828D938DA0E0B0E0482B592B6A2B7B2BFC
S1132F60F8014683578360877187D801ED91FC91FE
S1132F7011978681978113969C938E931297C8011B
S1132F8060E070E00E94EE08843019F003C085E030
S1132F9001C085E02E960FB6F894DEBF0FBECDBFFC
S1132FA0DF91CF911F910F910895CF92DF92FF92FD
S1132FB00F931F93CF93DF93CDB7DEB72C970FB644
S1132FC0F894DEBF0FBECDBF8C016B01DC011296FD
S1132FD06D917C9113978D919C910E942C04F82EF5
S1132FE0882309F0B2C0C114D10439F4C80160E0E7
S1132FF070E00E94EE08F82EA8C0CE010196F801F8
S1133000958B848B84E01EC0D8018D919C910E9485
S11330104604882319F5D8015296ED91FC915397F3
S11330209081992309F4A0C0953E29F09E3219F0AD
S1133030938593FF1DC0C80160E070E00E94C40B3B
S1133040882361F4F80146855785608971894115A3
S1133050510561057105C1F6882351F0D8011E960A
S11330601D921D921D921C925197843009F493C0B5
S1133070882309F067C09601275F3F4FF8018685D2
S11330809785A089B1890097A105B10509F449C0C4
S113309042895389DA016C91603291F01196F901F9
S11330A080E090E075EE03C06D91603249F06530C8
S11330B009F4672F61939F01019688309105A1F768
S11330C0FA018085803281F08EE2D9018C9380856B
S11330D0803209F04BC02F5F3F4F06C09C0104C0F3
S11330E0F90163832C5F3F4FDA011B968C911B9788
S11330F0F60180875C968D919D910D90BC91A02DD9
S113310080839183A283B383DA0158968D919C9135
S113311059979583848356968D919C91579797835D
S11331208683F9011082C80160E070E00E94C40B3C
S1133130843051F4D8011E961D921D921D921C924A
S1133140519703C0F82E01C0F82E8F2D2C960FB680
S1133150F894DEBF0FBECDBFDF91CF911F910F91C9
S1133160FF90DF90CF90089584E078CFF9018183B8
S1133170C9010296DA0119966C911997603209F423
S1133180ADCF6283C90103961A966C911A97603287
S113319009F0A6CFA3CF9601275F3F4FC2CF6F920E
S11331A07F928F929F92AF92BF92CF92DF92EF92D3
S11331B0FF920F931F93CF93DF9300D000D0CDB72E
S11331C0DEB73C014A018C01CC24DD245B01089468
S11331D0A108B1081BC0C401BE016F5F7F4F41E06D
S11331E050E09E012D5F3F4F0E94B9108B819C815E
S11331F08130910579F48981F70180830F5F1F4F36
S113320078010894C11CD11C8A3021F07801CA14B9
S1133210DB040CF3F7011082C114D10411F4662409
S11332207724862D972D0F900F900F900F90DF919C
S1133230CF911F910F91FF90EF90DF90CF90BF90AF
S1133240AF909F908F907F906F900895CF93DF936E
S113325000D000D00F92CDB7DEB78B83CB01BE0177
S11332606D5F7F4F41E050E09E012F5F3F4F0E9412
S1133270741289819A818130910519F481E090E07A
S113328002C08FEF9FEF0F900F900F900F900F9051
S1133290DF91CF910895EF92FF920F931F93CF93F5
S11332A0DF93FC017B018081882399F08F010F5FFC
S11332B01F4FC0E0D0E0B7010E9426192FEF8F3FC7
S11332C0920751F02196F80181918F01882399F793
S11332D005C0C0E0D0E002C0CFEFDFEF8C2F9D2F00
S11332E0DF91CF911F910F91FF90EF9008952F924E
S11332F03F924F925F926F927F928F929F92AF9282
S1133300BF92CF92DF92EF92FF920F931F93CF93CE
S1133310DF93CDB7DEB762970FB6F894DEBF0FBE6A
S1133320CDBF2FA038A49E01255D3F4F3A8B298B3A
S1133330E9A5FAA58081882309F406C28F010F5FED
S11333401F4F20E030E0CC24DD24A9010AC0C40EC4
S1133350D51E09A51AA5F80181918F01882309F4C6
S1133360CDC1853251F0B1010E942619FFEF8F3F84
S11333709F0709F0E1C19C01C4C1E9A5FAA5118127
S1133380103331F412813396FAA7E9A701E011C092
S11333901D3241F029A53AA52E5F3F4F3AA729A730
S11333A000E007C0E9A5FAA512813396FAA7E9A7B8
S11333B002E0812F80538A30E0F4E9A5FAA588243D
S11333C09924C4019C01220F331F880F991F880F71
S11333D0991F880F991F820F931F810F911DC0970A
S11333E01191612F60536A3068F34C01FAA7E9A781
S11333F002C0882499241C3611F01C3431F4046072
S1133400E9A5FAA51191FAA7E9A7112309F471C155
S1133410812F81568A3118F4212F205201C0212F87
S11334202F3409F492C0203550F4233409F46CC0CD
S1133430243409F477C0223409F07DC082C02535D4
S113344009F470C0283509F472C0233509F073C03B
S1133450E989FA899F012E5F3F4F3A8B298B60805F
S11334607180F3018081882351F03196EE24FF248A
S11334700894E11CF11C81918823D1F702C0EE2449
S1133480FF2401FD1CC027010894411C511CE814B1
S1133490F904C0F48701AA24BB2480E2B1010E948C
S11334A02619A80EB91E0F5F1F4F08151905A8F39A
S11334B0C4018E199F097C01E40CF51C06C0AA24E2
S11334C0BB2403C07201AA24BB24C301B1010E941E
S11334D04B19AC018C010A0D1B1DE814F90468F4A6
S11334E080E2B1010E942619080F191F0894E11CFB
S11334F0F11CE814F904A0F3AC01FFEF4F3F5F07A0
S113350009F0EFC09A01FDC009891A890E5F1F4FA7
S1133510E989FA898081B1010E942619AC011A8BCC
S1133520098BE0C00F2EFAE04F2EF02D11C0442479
S1133530689444F80DC0812FB1010E942619AC0192
S1133540D1C04424689441F803C04424689443F8E7
S113355002FF0DC0E989FA89CF0104969A8B898B01
S113356080819181A281B381243419F518C0243457
S113357061F4E989FA8980819181AA2797FDA09550
S1133580BA2F3296FA8BE98B0AC0E989FA898081CD
S11335909181A0E0B0E03296FA8BE98B0AC0BB239C
S11335A044F4B095A095909581959F4FAF4FBF4F30
S11335B008606E010894C11CD11CAA24BB245524A4
S11335C06624772401C05701BC01CD01A3019201F7
S11335D00E94F933822F932FA42FB52F6A3030F035
S11335E0183711F427E201C027E0620F605DF6018D
S11335F061936F0175010894E11CF11C0097A1050A
S1133600B10531F0F0E1EF16F104E9F6F70101C07C
S1133610F701802F03FF0EC021E030E02C0F3D1F87
S1133620E20FF31F3DE23083EE24FF246894E1F8B7
S1133630EA0CFB1C80FF05C00F2EF0E36F2EF02D6B
S113364003C06624689465F881FD1AC05701089484
S1133650A11CB11CE814F904B8F4862DB1010E9430
S113366026198701C82ED92E0F5F1F4F081519057B
S113367008F46DC0C4018E199F09A80EB91E06C0B6
S11336805701CC24DD2402C0CC24DD2401E010E069
S11336900C0F1D1F0E0D1F1D0894E108F108F80101
S11336A082918F01B1010E942619C80ED91EE1141E
S11336B0F10491F7AC01A814B90468F480E2B101F3
S11336C00E942619C80ED91E0894A11CB11CA81466
S11336D0B904A0F3AC01FFEF4F3F5F0789F0A601E7
S11336E001C0A8012FEF4F3F520709F030CE9A01D5
S11336F008C09A018FEF4F3F580719F0960101C097
S11337009A01822F932F62960FB6F894DEBF0FBEF4
S1133710CDBFDF91CF911F910F91FF90EF90DF907C
S1133720CF90BF90AF909F908F907F906F905F905D
S11337304F903F902F9008950894C11CD11C1AA754
S113374009A741E050E005CECC24DD24D7CF862D57
S1133750B1010E942619C80ED91E86CF1F920F925E
S11337600FB60F921124DA980F900FBE0F901F908E
S113377018951F920F920FB60F9211242F938F93C7
S11337809F93B89880918C0190918D0101969093AC
S11337908D0180938C0123E08438920738F01092D5
S11337A08D0110928C0181E0809302059F918F918D
S11337B02F910F900FBE0F901F9018951F920F928C
S11337C00FB60F9211248F9380910405882319F06A
S11337D081508093040580910505882319F0815058
S11337E08093050580910605882319F08150809304
S11337F006058F910F900FBE0F901F9018958FE2C2
S113380084B983EC85B980E287B98CED88B980E509
S11338108AB98BEA8BB983E080937E00089580EAAD
S113382080936D001BBA84E0809368000895109221
S1133830700080E68093B6001092B200E1EBF0E0F5
S1133840808185608083E6EBF0E080818171E9F31B
S113385081E087BB80937000089581EE94E090939B
S11338608900809388008AE080938100EFE6F0E08D
S1133870808182608083089517BC82E884BD83E0E0
S113388085BD08952A9A80E58CBD81E08DBD08959B
S11338901CBC2A980895EEE7F0E0908121E030E026
S11338A0082E02C0220F331F0A94E2F7922B908352
S11338B0806480937C0086EC80937A00EAE7F0E0F1
S11338C0808186FDFDCF8091780090E04091790061
S11338D010927A00EEE7F0E03081209523232083D4
S11338E0342F20E0822B932B08951F93CF93DF93E3
S11338F0EC01162F6623A1F084B58F7784BD84B5BF
S1133900806484BDCE010E94260184B5806884BD94
S113391084B58F7B84BDCE010E942601115061F7CE
S1133920DF91CF911F9108951F93CF93DF93EC0103
S1133930162F662351F05C9ACE010E9426015C98F2
S1133940CE010E9426011150B1F7DF91CF911F9152
S113395008950F931F9300910A0510E020E030E0D2
S113396098011127002780910B0590E0A0E0B0E0BA
S1133970072E75E1880F991FAA1FBB1F7A95D1F7EF
S1133980702D082B192B2A2B3B2B8091090590E0D5
S1133990A0E0B0E0072E7BE0880F991FAA1FBB1F91
S11339A07A95D1F7702D082B192B2A2B3B2B80915C
S11339B0080590E0A0E0B0E0880F991FAA1FBB1F84
S11339C0880F991FAA1FBB1F880F991FAA1FBB1F0F
S11339D0880F991FAA1FBB1F880F991FAA1FBB1FFF
S11339E0082B192B2A2B3B2BE7E0F5E080818695E9
S11339F090E0A0E0B0E0082B192B2A2B3B2B85810B
S1133A0096818C5B9740A0E0B0E0072E79E1880FA7
S1133A10991FAA1FBB1F7A95D1F7702D082B192B5C
S1133A202A2B3B2B602F712F822F932F1F910F91E5
S1133A300895219829980895CF93DF9300D000D05A
S1133A40CDB7DEB7CE010196BE016D5F7F4F0E94F8
S1133A508A2B882381F489819A8162E874E040E2A8
S1133A600E949A308B819C816CEC73E040E20E944E
S1133A709A3081E001C080E00F900F900F900F907A
S1133A80DF91CF910895CF93C0E20E941C1D88233B
S1133A9041F084E690E00E942601C150B1F781E034
S1133AA001C080E0CF910895CF92DF92EF92FF9210
S1133AB00F931F93CF93DF93EC018B017A0169017C
S1133AC00E941C1D882379F182E894E060E20E9440
S1133AD0B93020E230E040E050E00E941B343983EA
S1133AE028832AE030E040E050E00E941B34F801D3
S1133AF0318320838CEC93E060E20E94B93020E4AF
S1133B0031E040E050E00E941B34F7013183208310
S1133B1024E630E040E050E00E941B34F60131839B
S1133B20208381E001C080E0DF91CF911F910F914C
S1133B30FF90EF90DF90CF90089580E00E944B1C9F
S1133B4062E474E040E20E949A300895CF93C0E2A8
S1133B500E949D1DC150E1F7CF9108950E949D1DC3
S1133B6082E494E060E20E94B93020E230E040E078
S1133B7050E00E941B34B901882777FD8095982F67
S1133B800E94B83224E83DE84BEF54E40E941C3311
S1133B9023ED3DE442E550E40E941C3320E030E094
S1133BA040E85AE30E941C330E948532862F972FE7
S1133BB0089581E00E944B1C62EC74E040E20E9494
S1133BC09A300895CF93C0E20E94D91DC150E1F705
S1133BD0CF9108950E94D91D82EC94E060E20E9486
S1133BE0B93020E230E040E050E00E941B34B901DB
S1133BF0882777FD8095982F21E932E040E050E056
S1133C000E94A73320E034E040E050E00E941B34DF
S1133C10822F932F0895EF92FF921F93CF93DF93F8
S1133C20CDB7DEB728970FB6F894DEBF0FBECDBF71
S1133C30EE24FF2410E0F999FECFCE010196B701DE
S1133C4048E050E00E943E34F999FECF812FBE0136
S1133C506F5F7F4F0E94922E1F5F88E090E0E80E16
S1133C60F91E183041F728960FB6F894DEBF0FBE40
S1133C70CDBFDF91CF911F91FF90EF900895219ACE
S1133C80299A0E94372D0E949A2D0E940B1E80E0D3
S1133C9060E00E94AC2D08950F931F93CF93DF93A0
S1133CA0CDB7DEB761970FB6F894DEBF0FBECDBFB8
S1133CB08DB79EB70A970FB6F8949EBF0FBE8DBFFF
S1133CC0EDB7FEB731968E010F5F1F4FADB7BEB78C
S1133CD012961C930E93119788E690E09383828347
S1133CE080910C0590910D05805D974095838483A8
S1133CF080910B058683178280910A05808711863F
S1133D000E9407328DB79EB70A960FB6F8949EBFED
S1133D100FBE8DBF80E060E00E94AC2DC8010E9400
S1133D20DF2EADB7BEB71A970FB6F894BEBF0FBE5D
S1133D30ADBFEDB7FEB7319612961C930E93119753
S1133D4087E790E0938382838091090584831582B9
S1133D5080910805868317828091070580871186E4
S1133D600E9407328DB79EB70A960FB6F8949EBF8D
S1133D700FBE8DBF80E061E00E94AC2DC8010E949F
S1133D80DF2E61960FB6F894DEBF0FBECDBFDF9174
S1133D90CF911F910F910895CF92DF92EF92FF92EE
S1133DA00F931F93CF93DF93CDB7DEB761970FB611
S1133DB0F894DEBF0FBECDBF7A0169012DB73EB7BF
S1133DC0285030400FB6F8943EBF0FBE2DBFEDB75C
S1133DD0FEB731968E010F5F1F4FADB7BEB7129677
S1133DE01C930E93119726E830E033832283958346
S1133DF08483778366830E9407322DB73EB7285F9A
S1133E003F4F0FB6F8943EBF0FBE2DBF89E060E070
S1133E100E94AC2DC8010E94DF2E81E060E40E9464
S1133E20152D8DB79EB708970FB6F8949EBF0FBE99
S1133E308DBFEDB7FEB73196ADB7BEB712961C93E2
S1133E400E9311978CE890E093838283F582E48249
S1133E50D782C6820E9407322DB73EB7285F3F4FF4
S1133E600FB6F8943EBF0FBE2DBF89E061E00E94FB
S1133E70AC2DC8010E94DF2E82E060E40E94152D63
S1133E8061960FB6F894DEBF0FBECDBFDF91CF9120
S1133E901F910F91FF90EF90DF90CF9008950F93B3
S1133EA01F93CF93DF93EC018B010E949A2D80E046
S1133EB060E00E94AC2DCE010E94EF2E80E061E014
S1133EC00E94AC2DC8010E94EF2EDF91CF911F916B
S1133ED00F9108950F931F93CF93DF93EC018B0100
S1133EE00E949A2D80E060E00E94AC2DCE010E94D9
S1133EF0EF2E80E061E00E94AC2DC8010E94DF2E0D
S1133F00DF91CF911F910F9108952F923F924F927D
S1133F105F926F927F928F929F92AF92BF92CF9255
S1133F20DF92EF92FF920F931F93CF93DF93CDB75E
S1133F30DEB7AB970FB6F894DEBF0FBECDBF8BA72D
S1133F404F9BFECF4D9BFCCF00E00F2EFBE0EF2EEE
S1133F50FF24F02DEC0EFD1E0F2EFCEC6F2EF0E076
S1133F607F2EF02D0F2EF1ED4F2EF0E05F2EF02D71
S1133F700F2EF7EC2F2EF0E03F2EF02D0F2EFDED3F
S1133F80CF2EF7E0DF2EF02D0F2EF3E9AF2EF0E069
S1133F90BF2EF02D0F2EF5EA8F2EF0E09F2EF02D80
S1133FA00BC002E009C003E007C005E005C006E05D
S1133FB003C007E001C00AE0033009F450C1043033
S1133FC038F4013009F484C0023008F0E7C00EC0B0
S1133FD0063009F459C2073018F4053069F7F6C100
S1133FE0073009F4AFC20A3039F71CC3CE01019679
S1133FF00E949A010E949A2D0E94152E80E060E092
S11340000E94AC2D2DB73EB72C5030400FB6F8941B
S11340103EBF0FBE2DBFEDB7FEB73196ADB7BEB7ED
S11340201296FC92EE921197B382A2828E819F81A6
S1134030958384838D81868317828C818087118602
S1134040888590E0880F991F880F991F875B9E4F82
S1134050938782870E9407322DB73EB7245F3F4F74
S11340600FB6F8943EBF0FBE2DBFC7010E94DF2ECE
S113407080E061E00E94AC2D8DB79EB70A970FB621
S1134080F8949EBF0FBE8DBFEDB7FEB73196ADB7A6
S1134090BEB71296FC92EE921197938282828B8124
S11340A0848315828A818683178289818087118619
S11340B00E9407322DB73EB7265F3F4F0FB6F894E4
S11340C03EBF0FBE2DBFC7010E94DF2E01E074CF9B
S11340D080E060E00E94AC2D4D994FC082E390E0F7
S11340E061E00E94751C8E819F8101969F838E835F
S11340F038E08433930710F0DF82CE8210E019C0D9
S113410082E390E061E00E94751C84E690E00E94E6
S11341102601812F8F5F1250173018F4DF82CE8270
S113412007C08A3028F00E94242E0E949A2D9FC234
S1134130182F4D9BE5CF00D000D000D0EDB7FEB7CF
S11341403196ADB7BEB71296FC92EE92119725EB5D
S113415030E0338322838E819F81958384830E9400
S113416007328DB79EB706960FB6F8949EBF0FBE62
S11341708DBFC7010E94DF2E1FCF4F991DCF82E351
S113418090E061E00E94751C4F990BCF84E690E0AB
S11341900E9426014F9BFACF02E00ECF85E060E03B
S11341A00E94AC2D4D994AC082E390E061E00E94E8
S11341B0751C8D818F5F8D838D3010F081E08D8330
S11341C010E019C082E390E061E00E94751C84E66F
S11341D090E00E942601812F8F5F1250173018F44F
S11341E091E09D8307C08A3028F00E94242E0E940B
S11341F09A2D3DC2182F4D9BE5CF00D000D000D0A2
S1134200EDB7FEB73196ADB7BEB71296FC92EE92FB
S113421011972AEB30E0338322838D8184831582C6
S11342200E9407328DB79EB706960FB6F8949EBFCC
S11342300FBE8DBFC7010E94DF2EBECE4F99BCCEEC
S113424082E390E061E00E94751C4F99ACCE84E655
S113425090E00E9426014F9BFACF03E0ADCE88E0A8
S113426060E00E94AC2D4D99A0C082E390E061E033
S11342700E94751C4C814F5F4C838D81863001F107
S1134280873070F48330B1F0843028F4813091F0B9
S11342908230A1F41AC0843099F0853079F40AC0D0
S11342A0893071F0893030F08B3051F08B3010F060
S11342B08C3021F44F3110F08FE18C8310E03DC03D
S11342C04E31E0F38EE18C83F9CF2E813F81C90119
S11342D060E971E00E94D233009761F0C9018370F4
S11342E09070009761F4C90164E670E00E94D233D3
S11342F0009729F04D3110F38DE18C83DFCF4C31E1
S1134300E8F28CE18C83DACF82E390E061E00E94F2
S1134310751C84E690E00E942601812F8F5F125065
S1134320173018F491E09C8307C08A3028F00E946B
S1134330242E0E949A2D9BC1182F4D9BE5CF6D8191
S11343404C818E819F8170E050E00E94E330888729
S1134350ADB7BEB718970FB6F894BEBF0FBEADBFCA
S1134360EDB7FEB731961296FC92EE9211972FEBB1
S113437030E0338322839C819483158290E0880FFC
S1134380991F880F991F875B9E4F978386830E948E
S113439007328DB79EB708960FB6F8949EBF0FBE2E
S11343A08DBFC7010E94DF2E07CE4F9905CE82E351
S11343B090E061E00E94751C4F99F7CD84E690E08F
S11343C00E9426014F9BFACF05E0F6CD80E061E024
S11343D00E94AC2D4D9947C082E390E061E00E94B9
S11343E0751C8B818F5F8B83883108F01B8210E0F2
S11343F018C082E390E061E00E94751C84E690E0BE
S11344000E942601812F8F5F1250173010F41B82F7
S113441007C08A3028F00E94242E0E949A2D27C1BA
S1134420182F4D9BE6CF00D000D000D0EDB7FEB7DB
S11344303196ADB7BEB71296FC92EE9211973382C5
S113444022828B81848315820E9407322DB73EB766
S11344502A5F3F4F0FB6F8943EBF0FBE2DBFC70172
S11344600E94DF2EA9CD4F99A7CD82E390E061E0B1
S11344700E94751C4F999BCD84E690E00E94260112
S11344804F9BFACF06E098CD83E061E00E94AC2D0B
S11344904D9947C082E390E061E00E94751C8A81D7
S11344A08F5F8A838C3308F01A8210E018C082E38D
S11344B090E061E00E94751C84E690E00E94260171
S11344C0812F8F5F1250173010F41A8207C08A3080
S11344D028F00E94242E0E949A2DC9C0182F4D9BAB
S11344E0E6CF00D000D000D0EDB7FEB73196ADB71F
S11344F0BEB71296FC92EE921197738262828A8101
S1134500848315820E9407322DB73EB72A5F3F4F3E
S11345100FB6F8943EBF0FBE2DBFC7010E94DF2E19
S11345204BCD4F9949CD82E390E061E00E94751C28
S11345304F993FCD84E690E00E9426014F9BFACF2D
S113454007E03ACD86E061E00E94AC2D4F9910C09F
S11345504D990EC082E390E061E00E94751C4F9B70
S1134560FECF4D9BFCCF0E94242E0E949A2D7FC02B
S11345704D9947C082E390E061E00E94751C8981F7
S11345808F5F89838C3308F0198210E018C082E3AE
S113459090E061E00E94751C84E690E00E94260190
S11345A0812F8F5F1250173010F4198207C08A30A0
S11345B028F00E94242E0E949A2D59C0182F4D9B3A
S11345C0E6CF00D000D000D0EDB7FEB73196ADB73E
S11345D0BEB71296FC92EE92119753824282898161
S11345E0848315820E9407322DB73EB72A5F3F4F5E
S11345F00FB6F8943EBF0FBE2DBFC7010E94DF2E39
S1134600DBCC4F99D9CC82E390E061E00E94751C29
S11346104F99D1CC84E690E00E9426014F9BFACFBB
S11346200AE0CACCCE0101960E941F020E949A2D74
S11346300E94242E109203053BA53323C1F08CE085
S113464094E00E94B214882371F086ED90E06FED3F
S113465070E00E944F1F8CE291E063E00E94751CA1
S113466088E0809303058CE094E00E948015AB966B
S11346700FB6F894DEBF0FBECDBFDF91CF911F916F
S11346800F91FF90EF90DF90CF90BF90AF909F90ED
S11346908F907F906F905F904F903F902F900895F0
S11346A0CF93DF93CDB7DEB7C055D0400FB6F894A3
S11346B0DEBF0FBECDBF0E94FF1B0E940F1C0E94D5
S11346C03C1C0E942D1C0E94171C0E94421C80E866
S11346D080BF88E20E94572F83B7817F866083BFA3
S11346E078948CE39FE090938F0180938E018AE00D
S11346F090E0909391018093900110922105109283
S11347000205209A289A82E390E062E00E94751CD8
S1134710109203050F2EF3E65F2EF02D0F2EF3E615
S11347204F2EF02D0F2EF9E0CF2EDD24F02DCC0EE0
S1134730DD1E0F2EF0EFAF2EF0E0BF2EF02DFC2C7F
S1134740ED2C0F2EFEEF6F2EF0E07F2EF02D0F2EAE
S1134750FDE02F2EF1E03F2EF02D0F2EF7E08F2EEF
S1134760F5E09F2EF02D94012D5F3F4F2B963FAF28
S11347702EAF2B974CE055E0455050402F965FAF3D
S11347804EAF2F974F5F5F4F61965FAF4EAF61970C
S11347908CE094E00A962D969FAF8EAF2D974D999D
S11347A03EC00E949A2D4D9B12C337C082E390E015
S11347B061E00E94751C84E690E00E94260101508D
S11347C010409FEF0F3F190721F485E08093030504
S11347D024C080E060E00E94AC2D00D000D000D066
S11347E0EDB7FEB73196ADB7BEB71296DC92CE9256
S11347F01197B382A282158304830E940732EDB716
S1134800FEB736960FB6F894FEBF0FBEEDBF8F2DE0
S11348109E2D0E94DF2E4D9BC9CF0E949A2D4F9949
S11348206FC00E949A2D80E060E00E94AC2D8091C0
S11348308E0190918F012DB73EB7285030400FB6AE
S1134840F8943EBF0FBE2DBFEDB7FEB73196ADB79E
S1134850BEB71296DC92CE9211977382628268EE92
S113486073E00E94E63375836483978386830E9492
S11348700732EDB7FEB738960FB6F894FEBF0FBEF9
S1134880EDBF8F2D9E2D0E94DF2E80E061E00E94FF
S1134890AC2D00D000D000D0EDB7FEB73196ADB747
S11348A0BEB71296DC92CE92119733822282809107
S11348B0900190919101958384830E940732EDB712
S11348C0FEB736960FB6F894FEBF0FBEEDBF8F2D20
S11348D09E2D0E94DF2E1BE00FC082E390E061E07A
S11348E00E94751C84E690E00E942601115021F478
S11348F082E08093030502C04F9BEFCF0E949A2D64
S11349004A9906C00E94421C81E08093210504C09C
S11349100E94481C1092210580910305823009F4FD
S113492069C0833030F4882371F0813009F043C2C8
S113493071C0853009F424C2873009F43BC2843045
S113494009F039C2F6C00E943F1E88E191E066E298
S113495071E00E944F1F0E94B62A882371F087E3FA
S113496091E062E471E00E944F1F8CE291E063E009
S11349700E94751C88E0809303050E94431D8823D0
S113498071F48FE491E06AE571E00E944F1F8CE2BC
S113499091E063E00E94751C88E0809303050E9407
S11349A0A61D0E94E21D84E0809303054A991BC062
S11349B00E94421C84E690E00E94260180E06EE999
S11349C071E00E94A20E882341F08CE291E063E042
S11349D00E94751C109221050AC081E08093030592
S11349E08093210504C00E94481C109221050E9456
S11349F09A2DE1C1809121050E94851F8091210596
S1134A00882321F081E080930305D5C184E080935D
S1134A100305D1C1C4010E949A01D40111964C909E
S1134A202B96EEADFFAD2B9750802DB73EB72A5095
S1134A3030400FB6F8943EBF0FBE2DBFEDB7FEB7A2
S1134A40319601E115E0ADB7BEB712961C930E93F3
S1134A5011978BE691E093838283D40115968D910F
S1134A609C91169764E670E00E94D2339583848308
S1134A70D40114968C9186831782508611860E94E5
S1134A800732EDB7FEB73A960FB6F894FEBF0FBEE5
S1134A90EDBF8CE094E0B80142E10E94B80E882397
S1134AA071F42D96AEADBFAD2D974D915D916D9185
S1134AB07C918CE094E00E948C158823D1F01092B4
S1134AC021058CE791E061E175E00E946A1F8CE2A8
S1134AD091E063E00E94751C87E061E00E94022F70
S1134AE086E060E00E94022F81E090E00E943101A4
S1134AF01AC081E08093210589E891E061E175E0C5
S1134B000E946A1F82E390E062E00E94751C87E0C5
S1134B1060E00E94022F86E061E00E94022F81E0A3
S1134B2090E00E9431010E949A2D84E08093030555
S1134B3042C1C4010E949A010E944C1E2B96EEAD04
S1134B40FFAD2B971081151539F18091210588232C
S1134B5019F18CE094E00E94B214882379F088E97A
S1134B6091E06FE971E00E944F1F8CE291E063E0F5
S1134B700E94751C88E08093030505C082E390E0E1
S1134B8062E00E94941C8CE094E00E94801581E015
S1134B9080930305512E03CE0E94AE1D9C01909379
S1134BA08F0180938E0180914301909144012817D5
S1134BB03907E4F08091450190914601281739079F
S1134BC084F08091470190914801281739075CF0DF
S1134BD08091490190914A0128173907D4F483E060
S1134BE003C081E001C082E08823A1F48CEA91E053
S1134BF068EB71E00E944F1F8CE291E063E00E9439
S1134C00751C81E090E00E94310187E080930305E8
S1134C10C6CD84E0815061E00E942D2F0E94EA1DE0
S1134C209093910180939001CE010196BE016D5F36
S1134C307F4FAE014B5F5F4F9E01295F3F4F0E9444
S1134C40541D882309F4B7C06B817C814D815E813A
S1134C502F81388589819A810E94CC1E80912105FB
S1134C60882309F4A8C020910805241509F465C017
S1134C7080918E0190918F014DB75EB74E51504097
S1134C800FB6F8945EBF0FBE4DBFEDB7FEB73196B9
S1134C904CE054E0ADB7BEB712965C934E931197B7
S1134CA04FE051E053834283ACE0B5E04D915C9119
S1134CB05583448330910B053683178230910A055E
S1134CC0308711863091090532871386248715862B
S1134CD02F96AEADBFAD2F972C91268717862981CD
S1134CE03A81318B208B2B813C81338B228B2D811C
S1134CF03E81358B248B2F813885378B268B2091F1
S1134D00900130919101318F208F68EE73E00E9401
S1134D10E633738F628F958F848F0E947719619623
S1134D20EEADFFAD619740802DB73EB7225E3F4F99
S1134D300FB6F8943EBF0FBE2DBF809102058823A5
S1134D40D1F18CE094E00E94B214882379F087ECCE
S1134D5091E06EEC71E00E944F1F8CE291E063E001
S1134D600E94751C88E08093030505C082E390E0EF
S1134D7062E00E94941CF8941092020578941BC07F
S1134D8080912105882341F08CE094E00E94B214C4
S1134D908CE094E00E9480150E949A2D80E060E0EF
S1134DA00E94AC2D8BED91E00E94EF2E87E0809362
S1134DB0030501C05B982098289883B7816083BF5E
S1134DC0889583B78E7F83BF209A289AE8CC82E3A4
S1134DD090E061E00E94751C84E690E00E94260148
S1134DE009E010E0F6CC8FEF8EBD0DB407FEFDCFC9
S1134DF08EB50895CF93DF9382E3809306050E94D6
S1134E00F326C6E0D5E00E94F3268F3F19F098817F
S1134E109923C9F7DF91CF910895EF92FF920F93F1
S1134E201F93CF93DF93EC018B018AE080930505F8
S1134E300F2EF5E0EF2EF5E0FF2EF02D0E94F32665
S1134E408F3F29F4F70180818823C1F71AC08E3F70
S1134E50B9F48FEF8EBD0DB407FEFDCF9EB59883D8
S1134E608EBD0DB407FEFDCF9EB5998322960250E8
S1134E70104081F70E94F3260E94F32681E001C0CE
S1134E8080E0DF91CF911F910F91FF90EF900895F3
S1134E901F93CF93DF93EC01162F0E94FA268F3FC6
S1134EA051F51EBD0DB407FEFDCF1D3F31F1CE01FE
S1134EB080509E4F28812EBD0DB407FEFDCF298161
S1134EC02EBD22960DB407FEFDCF8C179D0791F7DA
S1134ED08FEF8EBD0DB407FEFDCF8FEF8EBD0DB4E9
S1134EE007FEFDCF0E94F326982F9F7181E0953035
S1134EF029F080E003C080E001C081E0DF91CF9120
S1134F001F910895CF92DF92EF92FF92CF93C82F13
S1134F106A017B010E94FA268F3FC1F5CEBD0DB414
S1134F2007FEFDCF8F2D9927AA27BB278EBD0DB471
S1134F3007FEFDCFC701AA27BB278EBD0DB407FE10
S1134F40FDCFBB27AF2D9E2D8D2D8EBD0DB407FE3D
S1134F50FDCFCEBC0DB407FEFDCFC03421F0C83464
S1134F6021F080E003C085E901C087E88EBD0DB45F
S1134F7007FEFDCFCC3411F40E94F326CAE00E9450
S1134F80F326882324F4C150D1F701C08FEFCF91C9
S1134F90FF90EF90DF90CF900895CF92DF92EF9241
S1134FA0FF920F931F93CF93DF9300D000D0CDB720
S1134FB0DEB7882309F0C7C00AE00E94F326015037
S1134FC0E1F72A9880E440E050E0BA010E94822789
S1134FD0813009F0C6C084E68093050588E44AEA76
S1134FE051E060E070E00E948227813009F04EC0F9
S1134FF06E010894C11CD11C0F2EF5E0EF2EFF2486
S1135000F02DEC0EFD1E86010E94F326F80181931B
S11350108F01EE15FF05C1F78B81813009F0A1C026
S11350208C818A3A09F09DC005E015E087E740E0ED
S113503050E0BA010E948227823048F489E640E0B9
S113504050E060E070E40E948227882321F0F80198
S11350508081882359F780910505882309F481C04C
S11350608AE740E050E0BA010E948227882309F0D1
S113507078C00E94F326F60181936F01EE15FF05B7
S1135080C1F7898186FD73C082E072C087E740E082
S113509050E0BA010E948227823060F489E640E041
S11350A050E0BA010E948227823038F4FF246894C9
S11350B0F1F805C0FF24F39402C0FF24F39405E043
S11350C015E0F2E0FF1689F487E740E050E0BA010A
S11350D00E948227823088F489E640E050E0BA01D9
S11350E00E948227882349F40CC081E440E050E008
S11350F0BA010E948227882321F0F8018081882345
S113510001F780910505882361F180E540E052E0D4
S113511060E070E00E948227882319F5F0929301E1
S11351202A9A0E94F326FF2031F0809192018E7F0B
S11351308093920105C080919201816080939201D5
S11351408091920101C081E00F900F900F900F9019
S1135150DF91CF911F910F91FF90EF90DF90CF904F
S11351600895109293012A9A0E94F326E4CF86E0D0
S1135170809393012A9A0E94F326D7CF882319F4A7
S113518080919201089581E008950F93CF93DF9366
S1135190EB01882309F048C0002309F447C080913B
S11351A0920180FD45C08091930182FD09C0012ECA
S11351B019E0220F331F441F551F1A95D1F7102DE4
S11351C02A98013079F481E5BA01A9010E94822765
S11351D0882311F5CE0160E072E00E940D27882338
S11351E0D1F41AC082E5BA01A9010E94822788235A
S11351F099F4CE0160E072E00E940D27882321F02B
S1135200C050DE4F0150A9F78CE440E050E0BA01F1
S11352100E94822701C000E02A9A0E94F32681E0BE
S1135220002339F480E005C084E003C084E001C0B9
S113523083E0DF91CF910F910895CF92DF92EF92A7
S1135240FF920F93CF93DF93EB0169017A018823D7
S113525009F05EC0002309F45DC08091920180FDD5
S11352605BC08091920182FD59C08091930182FDBF
S113527009C00B2EB9E0CC0CDD1CEE1CFF1CBA954A
S1135280D1F7B02D2A98013071F488E5B701A60151
S11352900E9482278823A1F5CE016EEF0E94482741
S11352A0882359F52DC08091930181FF0DC087E7B4
S11352B040E050E0BA010E948227402F50E060E0B5
S11352C070E087E50E94822789E5B701A6010E9464
S11352D082278823A9F4CE016CEF0E9448278823F3
S11352E021F0C050DE4F0150B1F780E090E06DEF47
S11352F00E944827882319F003C000E001C001E0A0
S11353002A9A0E94F32681E0002349F480E007C032
S113531084E005C084E003C083E001C082E0DF9143
S1135320CF910F91FF90EF90DF90CF900895EF927F
S1135330FF920F931F93CF93DF93CDB7DEB76097A0
S11353400FB6F894DEBF0FBECDBF7A01882309F0F3
S1135350E9C02A98633009F485C0643030F46130C0
S113536071F0623009F0C9C076C06B3009F497C09F
S11353706C3009F4A9C06A3009F0BFC07AC089E46E
S113538040E050E0BA010E948227882309F0B7C0A8
S1135390CE01019660E170E00E940D27882309F494
S11353A0B0C0898182958695869583708130D1F4C9
S11353B02A8530E02F5F3F4F998580E0820F931F4D
S11353C0A0E0B0E0072E7AE0880F991FAA1FBB1F48
S11353D07A95D1F7702DF70180839183A283B383EB
S11353E000E09CC029852295269526952370888502
S11353F090E0880F991F880F991F820F911D0196C5
S11354004F8150E043705070542F4427550F550F6F
S1135410840F951FAC0160E070E09E819F708B85C6
S1135420881F8827881F980F9E5F8A858370880F3E
S1135430890F90E009978A019B0104C0000F111F96
S1135440221F331F8A95D2F7F70100831183228329
S1135450338300E063C080E092E0FA0191838083AB
S113546000E05CC00E94FA268F3F09F44CC001E0C2
S113547055C08091920180FD57C089E440E050E01E
S1135480BA010E948227882309F03FC0C70160E166
S113549070E00E940D278823D1F501E03FC0809180
S11354A0920180FD43C08AE440E050E0BA010E94CA
S11354B08227882371F5C70160E170E00E940D27FF
S11354C0882349F501E02AC08091920180FD30C013
S11354D08AE740E050E0BA010E9482278823E9F479
S11354E087010C5F1F4F0E94F326F70181937F0110
S11354F0E017F107C1F700E011C004E00FC001E0BC
S11355000DC001E00BC000E009C001E007C000E0ED
S113551005C001E003C000E001C001E02A9A0E9436
S1135520F32607C004E005C003E003C003E001C0A4
S113553003E0802F60960FB6F894DEBF0FBECDBF98
S1135540DF91CF911F910F91FF90EF90089580917B
S11355500505882319F0815080930505809106057F
S1135560882319F081508093060508952F923F9265
S11355704F925F926F927F928F929F92AF92BF925F
S1135580CF92DF92EF92FF921F93CF93DF93CDB729
S1135590DEB766970FB6F894DEBF0FBECDBF80911D
S11355A06B0190916C01009709F49AC013E00F2EDF
S11355B0FBE9EF2EF1E0FF2EF02D170108942108EE
S11355C031080F2EF9E9CF2EF1E0DF2EF02DC601C0
S11355D001979E878D870F2EF7E9AF2EF1E0BF2E3E
S11355E0F02DF5013197F88BEF870F2EF5E98F2E0B
S11355F0F1E09F2EF02DC40101979A8B898B0F2E19
S1135600FCE66F2EF1E07F2EF02DF3013197FC8B39
S1135610EB8B0F2EFAE64F2EF1E05F2EF02DC20138
S113562001979E8B8D8B91E29A95F1F7000084E0AF
S1135630898380E661E070E041E09E012F5F3F4F87
S11356400E942830282F882309F046C080E66CE0A9
S113565070E040E09E012F5F3F4F0E949C2F282F57
S1135660882311F02C5938C08981F70180838A81FD
S1135670F10180838B81F60180838C81ED85FE8529
S113568080838D81F50180838E81EF85F889808305
S11356908F81F40180838885E989FA8980838985EB
S11356A0F30180838A85EB89FC8980838B85F201F1
S11356B080838C85ED89FE89808380916B01909134
S11356C06C01009741F48091690190916A010097FF
S11356D041F024E601C024E6115009F0A4CF01C032
S11356E020E0822F66960FB6F894DEBF0FBECDBFC2
S11356F0DF91CF911F91FF90EF90DF90CF90BF90FB
S1135700AF909F908F907F906F905F904F903F905D
S11357102F9008954F925F926F927F928F929F92F3
S1135720AF92BF92CF92DF92EF92FF920F931F93AB
S1135730CF93DF93CDB7DEB760970FB6F894DEBF93
S11357400FBECDBF5C014B0113E00F2EF2E1EF2E33
S1135750F02DFF24F394E982FA8280E662E070E09F
S113576040E09E012F5F3F4F0E942830082F88237E
S113577009F03DC189EF90E00197F1F700C0000006
S1135780198280E661E070E04F2D9E012F5F3F4F4C
S11357900E942830882319F0082F0C5928C180E66C
S11357A064E070E040E09E012F5F3F4F0E949C2F19
S11357B0082F882311F008531AC189818E838A81A6
S11357C08D838B8188878C818F838D819E8100243A
S11357D0880F991F001C880F991F001C892F902D7A
S11357E06C01EE24FF2460916B0170916C01882799
S11357F077FD8095982FA70196010E94A733AB01EE
S1135800BC018091980190919901AA2797FDA095D8
S1135810BA2F072E7EE0880F991FAA1FBB1F7A9507
S1135820D1F7702D840F951FA61FB71F9C01AD01E2
S1135830012E1EE055954795379527951A95D1F772
S1135840102D29873A874B875C874F805884002422
S1135850440C551C001C440C551C001C452C502C9D
S1135860662477246091940170919501882777FDCF
S11358708095982FA30192010E94A733AB01BC012C
S113588089859A85AB85BC85072E7BE0880F991F97
S1135890AA1FBB1F7A95D1F7702D840F951FA61FE1
S11358A0B71F9C01AD01012E1BE055954795379517
S11358B027951A95D1F7102D29873A874B875C874E
S11358C02091690130916A01442737FD4095542F96
S11358D0C301B2010E94A733AB01BC017595679562
S11358E0579547958091960190919701AA2797FD26
S11358F0A095BA2F072E7FE0880F991FAA1FBB1F00
S11359007A95D1F7702D840F951FA61FB71F9D019F
S1135910552737FD5095452F2D873E874F87588B48
S1135920C701B60129853A854B855C850E94A7335A
S1135930AB01BC0180919A0190919B01AA2797FD2C
S1135940A095BA2F072E7AE0880F991FAA1FBB1FB4
S11359507A95D1F7702D6A017B01C80ED91EEA1E13
S1135960FB1EC301B2012D853E854F8558890E94D7
S1135970A733AB01BC01D701C60180709C7F840FA3
S1135980951FA61FB71F072E7DE0B595A795979580
S113599087957A95D1F7702DAC01BA01882777FDE8
S11359A08095982F2AE832E040E050E00E94A73327
S11359B02FEF33E040E050E00E941B342C503E4F68
S11359C0F50131832083C301B20125E43FEF4FEF9A
S11359D05FEF0E94A73324E630E040E050E00E94ED
S11359E01B342A553B4FF4013183208303C01150EB
S11359F009F0B1CE802F60960FB6F894DEBF0FBECB
S1135A00CDBFDF91CF911F910F91FF90EF90DF9069
S1135A10CF90BF90AF909F908F907F906F905F904A
S1135A204F9008950E9497300895FF920F931F930B
S1135A30CF93DF9300D0CDB7DEB7F82E062F13E057
S1135A400983FA828EE362E070E040E09E012F5FFA
S1135A503F4F0E942830882311F0115089F70F908E
S1135A600F90DF91CF911F910F91FF900895CF93E5
S1135A70C4E0C093220588E18093260589E18093E0
S1135A80250588E290E00E94260180912605806227
S1135A9060E00E94152D8EE190E00E942601809125
S1135AA02505806260E00E94152D8EE190E00E9441
S1135AB0260184E160E00E94152D8EE190E00E94B1
S1135AC026018DE760E00E94152D8EE190E00E9492
S1135AD026018EE560E00E94152D8EE190E00E9483
S1135AE02601C09324058CE660E00E94152D88EC05
S1135AF090E00E94260180912605806260E00E9469
S1135B00152D8EE190E00E9426018CE060E00E9459
S1135B10152D8EE190E00E94260182E080932305FA
S1135B2086E060E00E94152D8EE190E00E9426013F
S1135B30CF91089581E060E00E94152D82E090E00D
S1135B400E942601089582E060E00E94152D82E003
S1135B5090E00E9426010895CF93DF93CDB7DEB77E
S1135B6028970FB6F894DEBF0FBECDBFDE011196A5
S1135B70EDE6F1E098E001900D929150E1F7633089
S1135B8008F061E0E62FF0E0EE0FFF1FEC0FFD1FC1
S1135B909181890F806860E00E94152D8EE190E06C
S1135BA00E94260128960FB6F894DEBF0FBECDBF23
S1135BB0DF91CF91089580912205982F946090935E
S1135BC022058C6060E00E94152D8EE190E00E9419
S1135BD026010895809122058B7F80932205886099
S1135BE060E00E94152D8EE190E00E942601089548
S1135BF080912205982F9260909322058A6060E03C
S1135C000E94152D8EE190E00E9426010895809156
S1135C1022058D7F80932205886060E00E94152D07
S1135C208EE190E00E942601089580912205982F2C
S1135C30916090932205896060E00E94152D8EE1A9
S1135C4090E00E9426010895809122058E7F809322
S1135C502205886060E00E94152D8EE190E00E948C
S1135C602601089580912605806260E00E94152D2A
S1135C708EE190E00E94260188E160E00E94152DEB
S1135C808EE190E00E9426010895809126058062AD
S1135C9060E00E94152D8EE190E00E9426018CE1C7
S1135CA060E00E94152D8EE190E00E942601089587
S1135CB080912305982F926090932305866060E07D
S1135CC00E94152D8EE190E00E9426010895809196
S1135CD023058D7F80932305846060E00E94152D49
S1135CE08EE190E00E942601089580912305982F6B
