:1000000041C059C058C057C056C055C054C0BDC3E8
:1000100052C051C050C04FC04EC04DC04CC030C285
:100020004AC249C048C014C11CC1F2C0F1C0F0C0EE
:10003000EFC0EEC0EDC0ECC0EBC0EAC06BC17AC14E
:10004000E7C0E6C0E5C0E4C0E3C0E2C0E1C0E0C094
:1000500077C186C1DDC0DCC0DBC0DAC0D9C0D8C082
:10006000D7C0D6C083C192C198C19EC1A4C1AAC144
:10007000B0C1B6C1BCC12D53002D49004932434C1B
:100080004344000011241FBECFEDCDBF10E0A0E619
:10009000B0E0ECEEF7E002C005900D92A036B1079B
:1000A000D9F710E0A0E6B0E001C01D92AC39B1076D
:1000B000E1F74DD099C3A4CF1F93CF93DF93162FB1
:1000C000E199FECF282F30E083E0220F331F8A957D
:1000D000E1F784E990E0B90148E050E060D3E199AC
:1000E000FECF812F880F880F880F8064B5D2C4E9B6
:1000F000D0E08991B9D280E0CC39D807D1F7DF912F
:10010000CF911F910895E199FECF682F70E093E0A1
:10011000660F771F9A95E1F784E990E048E050E098
:100120004DD3E199FECF0895C29A8FEC97E00197E5
:10013000F1F700C00000BA9886B384700895BB9AA6
:1001400080E48FBD89E08EBD87E286BF08954F921F
:100150005F926F927F928F929F92AF92BF92CF9257
:10016000DF92EF92FF920F931F93CF93DF93E7DF1E
:10017000DBDF80936D00882319F082E340D101C05A
:10018000F7D28CE0B3D280E060E096DF81E061E0FE
:1001900093DF82E062E090DF83E063E08DDF84E064
:1001A00064E08ADF85E065E087DF86E066E084DF83
:1001B00087E067E081DF80E060E05ED28CE790E07E
:1001C00088D280916D00882319F089E790E002C001
:1001D00086E790E07ED2789417E2912EB6E2AB2EBD
:1001E000A5E2BA2EF4E2CF2EE3E2DE2E72E2E72E93
:1001F00061E2F62E00E216E15CE0852EC4E6D0E076
:1002000045E1742E3FE1632E2BE0522E44244394AB
:1002100080916D00882339F02AD180936C00882367
:1002200051F012D106C08CD280936C00882319F053
:100230008CD28093610080916C00882349F3E09117
:100240006000F0E0E832F10518F7ED5EFF4F099429
:10025000809161008B3119F440926000D9CF1CD29B
:10026000D7CFD0936300C0936200809161008093E8
:100270006400853409F444C08634C0F48234E1F16A
:10028000833470F48D32F1F18E3220F48B3209F028
:10029000BFCF3AC08C33D1F18E3309F0B9CF38C01B
:1002A0008334D9F0843409F0B3CF28C08D34E1F021
:1002B0008E3430F4883479F08C3409F0A9CF08C03A
:1002C000833579F0883599F08E3409F0A1CF11C0CB
:1002D000509260009DCFDDD101C0D8D11092600056
:1002E00097CF6092600094CF7092600091CF88E0C9
:1002F00001C08CE0B1D1F2CF8DE0FCCF8EE0FACF1F
:100300008FE0F8CF80E1F6CF84E1F4CF88E1F2CF3F
:100310008CE1F0CFE0916200F0916300CF01019693
:10032000909363008093620080916100818380924A
:1003300060006ECF80916500609161009DD1CECF4D
:10034000E0916200F0916300CF0101969093630009
:10035000809362008091610081831093600058CF88
:100360008091650060916100A7DEB8CFE0916200E6
:10037000F0916300CF010196909363008093620037
:100380008091610081830093600042CF8091610081
:1003900080939400F09260003BCF80916100809345
:1003A0009500E092600034CF8091610080939600C8
:1003B000D09260002DCF8091610080939700C09211
:1003C000600026CF8091610080939800B092600019
:1003D0001FCF8091610080939900A092600018CF98
:1003E0008091610080939A009092600011CF80917B
:1003F000610080939B008091650085DE6FCF109235
:1004000093001092820010927100109270008093FD
:100410006F0087B3806A87BBC79AC59ABD9888EA80
:100420008DB980EF8EB90895909170009F5F9F7095
:10043000209171009217E1F3E92FF0E0EE58FF4FA1
:100440008083909370000895909182008091930032
:100450009817D1F3809193008F5F8F7080939300F2
:10046000E0919300F0E0ED57FF4F808108952091D7
:1004700082009091930081E0291709F480E00895AB
:100480001F920F920FB60F9211248F9310926E004D
:10049000BD98B79B02C0B59BFCCFB59902C088EF51
:1004A00001C088EA8DB980EF8EB98F910F900FBE91
:1004B0000F901F9018951F920F920FB60F92112454
:1004C0008F939F93EF93FF9380916E008230D9F1C9
:1004D000833030F4882361F0813009F054C018C0B3
:1004E0008430B9F1843088F0853009F04CC037C0D1
:1004F0008FB1882331F08FB1869590916F00891765
:10050000F9F4789B39C081E038C08FB18823C1F4F9
:100510009091700080917100981791F08091710016
:100520008F5F8F7080937100E0917100F0E0EE5862
:10053000FF4F80818FB982E080936E00BD9A0DC01D
:1005400088EA8DB90AC083E080936E00BD981FB819
:1005500018C085E080936E00BD9880E713C080913D
:1005600082008F5F8F7080938200E09182008FB154
:10057000F0E0ED57FF4F808384E080936E001FB85A
:10058000BD9A8EE78EB9FF91EF919F918F910F9059
:100590000FBE0F901F901895009711F400C008959A
:1005A0000197F1F70895969A00C0969808951F93C1
:1005B000662311F0C19A01C0C198C0988A9A8B9A9B
:1005C0008C9A8D9A959894989398929887FD959A7D
:1005D000182F86FD949A15FD939A14FD929AE3DFE5
:1005E000959894989398929813FD959A12FD949AE1
:1005F00011FD939A10FD929AD6DF929A939A949A4B
:10060000959A1F910895C198C09A8A988B988C9852
:100610008D98969A00C0829902C080E001C080E166
:10062000839980628499806485998068969800C0D7
:10063000969A00C0829981608399826084998460CF
:100640008599886096980895DEDF87FDFDCF84E068
:1006500090E0A2DFD8DF08951F93182FF5DF812FD8
:1006600060E0A5DF1F9108951F93182FEDDF812F04
:1006700061E09DDF1F910895662311F4805801C049
:100680008054EADF0895E0DF90E0089581E0E4DF40
:10069000089582E0E1DF08951F93182FD5DF1A3007
:1006A00041F4803410F480E401C080E08058D4DF4D
:1006B00003C0812F61E07BDF1F910895CF93DF930B
:1006C000EC0101C0E9DF89918823E1F7DF91CF9147
:1006D0000895CF93DF93EC0101C0DEDFFE01219688
:1006E00084918823D1F7DF91CF9108951F93182F1C
:1006F000B99AB89A8E9A8A9A8B9A8C9A8D9A80E037
:100700009DE74ADF939A929A4EDF80E097E244DFBA
:100710004ADF80E890E040DF46DF80E890E03CDFA1
:10072000929841DF80E890E037DF88E295DF88E04B
:1007300093DFACDF86E090DF812F8EDF1F9108957D
:100740008BB1881F8827881F08958CB108955D9B01
:10075000FECF8CB90895CF93DF93EC0101C0F7DF92
:10076000FE01219684918823D1F7DF91CF910895DE
:1007700091989098899A889883E389B912B888E902
:100780008AB9599886E083B908951F920F920FB6DF
:100790000F9211240F900FBE0F901F901895A82F45
:1007A000862FE82FE199FECF1FBA05C0EEBBE09A75
:1007B000E3950DB20D924150C8F70895A82F862FEA
:1007C00002C02D9104D04150E0F70895262FE19901
:1007D000FECF1CBA1FBA8EBB2DBB0FB6F894E29A9F
:0C07E000E19A0FBE01960895F894FFCF37
:00000001FF
