:1000000012C02AC029C052C027C026C029C024C09F
:1000100023C022C021C020C01FC01EC01DC01CC0E4
:100020001BC01AC019C011241FBECFEDCDBF10E0F8
:10003000A0E6B0E0E6EEF1E002C005900D92A03639
:10004000B107D9F710E0A0E6B0E001C01D92A336D9
:10005000B107E1F793D0C5C0D3CFB99A8E98089570
:100060001F920F920FB60F9211248F939F9380913E
:10007000610090916200009749F080916100909139
:10008000620001979093620080936100809161000B
:1000900090916200009711F4C19A01C0C1989F919C
:1000A0008F910F900FBE0F901F9018951F920F9277
:1000B0000FB60F9211242F938F939F9384B595B50C
:1000C0001DBC1CBC20916000222319F0213071F569
:1000D00009C0869930C08EB580648EBD81E0809362
:1000E000600029C0869B27C02EB52F7B2EBD1092A5
:1000F000600025E0813F9207F0F0809161009091CF
:100100006200805C9E4F90936200809361008091BA
:1001100061009091620027E08138920760F080E8EA
:1001200097E0909362008093610005C08EB58F7B4D
:100130008EBD109260009F918F912F910F900FBEF6
:100140000F901F90189510BE85E083BF12BE89B72F
:10015000826089BF08951FBC85EC8EBD1DBC1CBC90
:100160008FEF9FEF9BBD8ABD99BD88BD1BBE15BE9D
:1001700080E888B989B7886089BF0895F8946DDFF1
:100180008AE5C1982FEF34E34CE0215030404040E5
:10019000E1F700C00000C19A2FEF34E34CE021509A
:1001A00030404040E1F700C00000815051F7CBDF04
:1001B000D2DF8EB58F7B8EBD88B7886088BF1092E6
:1001C0006000109262001092610085B78F7A85BF3F
:1001D000789485B7806285BF889585B78F7D85BF08
:0601E000F8CFF894FFCFF8
:00000001FF
