:100000005AC072C071C070C06FC06EC0C6C11EC27F
:100010006BC06AC069C068C067C066C065C061C2A5
:100020007BC262C061C078C07CC080C084C088C010
:100030008CC090C094C098C03F065B4F666D7D0732
:100040007F6F5F7C585E7B713D74041E753837543A
:100050005C7367506C781C3E7E76661B634046700E
:100060005264010204081020800F39414800010247
:100070000304050607080902010304050607080929
:100080000302010405060708090402030105060727
:10009000080905020304010607080906020304050E
:1000A00001070809070203040506010809080203FD
:1000B00004050607010911241FBECFEDCDBF10E0D6
:1000C000A0E6B0E0E4EFF7E002C005900D92A036A4
:1000D000B107D9F710E0A0E6B0E001C01D92AF393A
:1000E000B107E1F78AD284C38BCF81B3837881BB18
:1000F00087B3807F87BB82B3837882BB88B3807FDE
:1001000088BB089590E001978930910588F58D5E50
:100110009F4F8F939F930895613009F4929A8A9A22
:100120000895613009F4939A8B9A0895613009F427
:10013000949A8C9A0895613009F4959A8D9A08954D
:10014000613009F4969A8E9A0895613009F4C09A44
:10015000B89A0895613009F4C19AB99A0895613046
:1001600009F4C29ABA9A0895613009F4C39ABB9A05
:100170000895EF92FF920F931F93CF93DF93CDB724
:10018000DEB7C350CDBF262F90E069E070E01ED3EC
:100190008C0102591F4FF801849161E02B83B2DF7B
:1001A0002B8127FF03C02F7781E001C080E025333A
:1001B00008F025E3E22FF0E0E85CFF4FE491E093E4
:1001C0009D00882319F0E068E0939D00085F1F4FB1
:1001D0001A82198280E8E82EF12C1DC089819A814B
:1001E000970102C0359527958A95E2F7C9012091BC
:1001F0009D0030E082239323009741F089819A810A
:10020000F801E81BF90B849160E07CDF89819A8119
:1002100001969A83898389819A8188309105F4F2C5
:10022000CD5FCDBFDF91CF911F910F91FF90EF90E8
:100230000895C49A8FEC97E00197F1F700C0000091
:10024000BC9881E0B49B80E008956E3239F4E82FC9
:10025000F0E0EB56FF4F8081806826C0962F9053C8
:100260009A3030F4E82FF0E0EB56FF4F908308957A
:10027000962F91569A3130F4E82FF0E0EB56FF4F6D
:10028000675509C0962F91549A3138F4E82FF0E061
:10029000EB56FF4F6753608308956D3239F4E82FB2
:1002A000F0E0EB56FF4F85E280830895603231F431
:1002B000E82FF0E0EB56FF4F85E380830895682F29
:1002C00080538A3078F081538A3160F0805E8A31C1
:1002D00038F06D3239F0603229F06E3279F40CC0AA
:1002E0006E3251F080E0E82FF0E0EB56FF4F918145
:1002F00090838F5F8730B9F787E0A7DF089585E3A4
:100300008093950080939600809397008093980047
:100310008093990080939A0080939B0080939C0027
:100320000895882369F4E6E9F0E0DF01119787E09A
:1003300091919D938150E1F785E380939C0008950E
:10034000ECE9F0E0DF01119682918E9380E0E539CF
:10035000F807D1F785E3809395000895882371F419
:1003600090919500E6E9F0E0DF01119787E0219197
:100370002D938150E1F790939C00089580919C000B
:10038000ECE9F0E0DF01119692919E9390E0E5395F
:10039000F907D1F78093950008951F920F920FB639
:1003A0000F9211242F933F934F935F936F937F93FB
:1003B0008F939F93AF93BF93EF93FF9396DE8091BC
:1003C0009E00E82FF0E0EB56FF4F6081D2DE809177
:1003D0009E008F5F80939E00883010F010929E00E8
:1003E000FF91EF91BF91AF919F918F917F916F910D
:1003F0005F914F913F912F910F900FBE0F901F90E3
:1004000018958BB1881F8827881F08958CB108958F
:100410005D9BFECF8CB90895CF93DF93EC0101C0B3
:10042000F7DFFE01219684918823D1F7DF91CF91E8
:10043000089591989098899A889883E389B912B819
:1004400088E98AB9599886E083B908951F920F9276
:100450000FB60F9211240F900FBE0F901F9018959A
:10046000109271001092720010926F001092700042
:100470008093740087B3806A87BBC79AC59ABD987A
:1004800088EA8DB980EF8EB90895909170009F5FD2
:100490009F7020916F009217E1F3E92FF0E0EB5885
:1004A000FF4F808390937000089590917200809127
:1004B00071009817D1F3809171008F5F8F708093D6
:1004C0007100E0917100F0E0EB57FF4F80810895DB
:1004D000209172009091710081E0291709F480E069
:1004E00008951F920F920FB60F9211248F931092BE
:1004F0007300BD98B79B02C0B59BFCCFB59902C0F5
:1005000088EF01C088EA8DB980EF8EB98F910F9086
:100510000FBE0F901F9018951F920F920FB60F925B
:1005200011248F939F93EF93FF93809173008230F8
:10053000D9F1833030F4882361F0813009F054C060
:1005400018C08430B9F1843088F0853009F04CC08F
:1005500037C08FB1882331F08FB1869590917400A8
:100560008917F9F4789B39C081E038C08FB18823AE
:10057000C1F49091700080916F00981791F0809174
:100580006F008F5F8F7080936F00E0916F00F0E0DD
:10059000EB58FF4F80818FB982E080937300BD9A42
:1005A0000DC088EA8DB90AC083E080937300BD98BE
:1005B0001FB818C085E080937300BD9880E713C012
:1005C000809172008F5F8F7080937200E091720053
:1005D0008FB1F0E0EB57FF4F808384E0809373008E
:1005E0001FB8BD9A8EE78EB9FF91EF919F918F91C1
:1005F0000F900FBE0F901F901895CF93DF93CDB73C
:10060000DEB7C450CDBF10929E0079DE6EDD83E070
:1006100083BF89B7826089BF8FEF82BF0ADE809374
:100620006000882319F083E31BDF01C002DF85B778
:100630008F7A85BF78941C821B828AE290E024C066
:100640009A83898311C029813A81EB56FF4F208319
:10065000AFE5BAEE1197F1F700C0000029813A81A9
:100660002F5F3F4F3A83298329813A81EB81FC81B7
:100670002033310544F3EB56FF4F10822B813C8130
:100680002F5F3F4F3C832B832B813C8128303105EA
:10069000BCF28FEF90E7A2E081509040A040E1F7DC
:1006A00000C000002CDE80916000882329F081E3E7
:1006B00080939C0081E004C081E380939C0085E0EE
:1006C00080939B0082E380939A0006E610E09BE013
:1006D000D92E2CE0E22E37E3F32E85B7806285BF5A
:1006E000889585B78F7D85BF80916000882339F01C
:1006F000EFDE80936100882351F0D7DE06C081DEF3
:1007000080936100882319F081DE809362008091DC
:100710006100882311F380916300813089F081307A
:1007200028F08B30B1F18C30C1F643C0809162006B
:100730008B3121F481E080936300CFCFC0DDCDCF3A
:1007400010936500009364008091620080936600BE
:10075000833499F0843428F48C3389F08E3399F5FE
:1007600010C08C3439F08C3470F18B3569F08D35D4
:1007700051F50CC0D0926300B0CFC1DD24C080E041
:1007800001C081E0CEDD1FC080E001C081E0E6DD78
:100790001AC0E0916400F0916500CF01019690933A
:1007A000650080936400809162008183E092630021
:1007B00094CF809167009F2D981B892F90936E0096
:1007C0006091620042DD1092630087CF55270024BC
:1007D00080FF02C0060E571F660F771F6115710557
:1007E00021F096958795009799F7952F802D08957C
:0407F000F894FFCFAB
:00000001FF
